{
  "_format": "hh-sol-artifact-1",
  "contractName": "SpeculateCore",
  "sourceName": "contracts/src/SpeculateCore.sol",
  "abi": [
    {
      "inputs": [
        {
          "internalType": "address",
          "name": "_usdc",
          "type": "address"
        },
        {
          "internalType": "address",
          "name": "_treasury",
          "type": "address"
        }
      ],
      "stateMutability": "nonpayable",
      "type": "constructor"
    },
    {
      "inputs": [],
      "name": "AccessControlBadConfirmation",
      "type": "error"
    },
    {
      "inputs": [
        {
          "internalType": "address",
          "name": "account",
          "type": "address"
        },
        {
          "internalType": "bytes32",
          "name": "neededRole",
          "type": "bytes32"
        }
      ],
      "name": "AccessControlUnauthorizedAccount",
      "type": "error"
    },
    {
      "inputs": [],
      "name": "ReentrancyGuardReentrantCall",
      "type": "error"
    },
    {
      "inputs": [
        {
          "internalType": "address",
          "name": "token",
          "type": "address"
        }
      ],
      "name": "SafeERC20FailedOperation",
      "type": "error"
    },
    {
      "anonymous": false,
      "inputs": [
        {
          "indexed": true,
          "internalType": "uint256",
          "name": "id",
          "type": "uint256"
        },
        {
          "indexed": true,
          "internalType": "address",
          "name": "user",
          "type": "address"
        },
        {
          "indexed": false,
          "internalType": "uint256",
          "name": "usdcIn",
          "type": "uint256"
        },
        {
          "indexed": false,
          "internalType": "uint256",
          "name": "tokensOut",
          "type": "uint256"
        },
        {
          "indexed": false,
          "internalType": "uint256",
          "name": "avgPriceE6",
          "type": "uint256"
        }
      ],
      "name": "BuyNo",
      "type": "event"
    },
    {
      "anonymous": false,
      "inputs": [
        {
          "indexed": true,
          "internalType": "uint256",
          "name": "id",
          "type": "uint256"
        },
        {
          "indexed": true,
          "internalType": "address",
          "name": "user",
          "type": "address"
        },
        {
          "indexed": false,
          "internalType": "uint256",
          "name": "usdcIn",
          "type": "uint256"
        },
        {
          "indexed": false,
          "internalType": "uint256",
          "name": "tokensOut",
          "type": "uint256"
        },
        {
          "indexed": false,
          "internalType": "uint256",
          "name": "avgPriceE6",
          "type": "uint256"
        }
      ],
      "name": "BuyYes",
      "type": "event"
    },
    {
      "anonymous": false,
      "inputs": [
        {
          "indexed": true,
          "internalType": "uint256",
          "name": "id",
          "type": "uint256"
        },
        {
          "indexed": true,
          "internalType": "address",
          "name": "trader",
          "type": "address"
        },
        {
          "indexed": false,
          "internalType": "uint256",
          "name": "feeT",
          "type": "uint256"
        },
        {
          "indexed": false,
          "internalType": "uint256",
          "name": "feeV",
          "type": "uint256"
        },
        {
          "indexed": false,
          "internalType": "uint256",
          "name": "feeL",
          "type": "uint256"
        },
        {
          "indexed": false,
          "internalType": "bool",
          "name": "isBuy",
          "type": "bool"
        }
      ],
      "name": "FeeCollected",
      "type": "event"
    },
    {
      "anonymous": false,
      "inputs": [
        {
          "indexed": true,
          "internalType": "uint256",
          "name": "id",
          "type": "uint256"
        },
        {
          "indexed": false,
          "internalType": "address",
          "name": "yes",
          "type": "address"
        },
        {
          "indexed": false,
          "internalType": "address",
          "name": "no",
          "type": "address"
        },
        {
          "indexed": false,
          "internalType": "string",
          "name": "question",
          "type": "string"
        },
        {
          "indexed": false,
          "internalType": "uint256",
          "name": "usdcVault",
          "type": "uint256"
        },
        {
          "indexed": false,
          "internalType": "uint256",
          "name": "expiryTimestamp",
          "type": "uint256"
        }
      ],
      "name": "MarketCreated",
      "type": "event"
    },
    {
      "anonymous": false,
      "inputs": [
        {
          "indexed": true,
          "internalType": "uint256",
          "name": "id",
          "type": "uint256"
        },
        {
          "indexed": false,
          "internalType": "bool",
          "name": "yesWins",
          "type": "bool"
        },
        {
          "indexed": false,
          "internalType": "uint256",
          "name": "resolvedPrice",
          "type": "uint256"
        }
      ],
      "name": "MarketResolved",
      "type": "event"
    },
    {
      "anonymous": false,
      "inputs": [
        {
          "indexed": true,
          "internalType": "uint256",
          "name": "id",
          "type": "uint256"
        },
        {
          "indexed": true,
          "internalType": "address",
          "name": "user",
          "type": "address"
        },
        {
          "indexed": false,
          "internalType": "bool",
          "name": "isYes",
          "type": "bool"
        },
        {
          "indexed": false,
          "internalType": "uint256",
          "name": "tokensIn",
          "type": "uint256"
        },
        {
          "indexed": false,
          "internalType": "uint256",
          "name": "usdcOut",
          "type": "uint256"
        }
      ],
      "name": "Redeemed",
      "type": "event"
    },
    {
      "anonymous": false,
      "inputs": [
        {
          "indexed": true,
          "internalType": "bytes32",
          "name": "role",
          "type": "bytes32"
        },
        {
          "indexed": true,
          "internalType": "bytes32",
          "name": "previousAdminRole",
          "type": "bytes32"
        },
        {
          "indexed": true,
          "internalType": "bytes32",
          "name": "newAdminRole",
          "type": "bytes32"
        }
      ],
      "name": "RoleAdminChanged",
      "type": "event"
    },
    {
      "anonymous": false,
      "inputs": [
        {
          "indexed": true,
          "internalType": "bytes32",
          "name": "role",
          "type": "bytes32"
        },
        {
          "indexed": true,
          "internalType": "address",
          "name": "account",
          "type": "address"
        },
        {
          "indexed": true,
          "internalType": "address",
          "name": "sender",
          "type": "address"
        }
      ],
      "name": "RoleGranted",
      "type": "event"
    },
    {
      "anonymous": false,
      "inputs": [
        {
          "indexed": true,
          "internalType": "bytes32",
          "name": "role",
          "type": "bytes32"
        },
        {
          "indexed": true,
          "internalType": "address",
          "name": "account",
          "type": "address"
        },
        {
          "indexed": true,
          "internalType": "address",
          "name": "sender",
          "type": "address"
        }
      ],
      "name": "RoleRevoked",
      "type": "event"
    },
    {
      "anonymous": false,
      "inputs": [
        {
          "indexed": true,
          "internalType": "uint256",
          "name": "id",
          "type": "uint256"
        },
        {
          "indexed": true,
          "internalType": "address",
          "name": "user",
          "type": "address"
        },
        {
          "indexed": false,
          "internalType": "uint256",
          "name": "tokensIn",
          "type": "uint256"
        },
        {
          "indexed": false,
          "internalType": "uint256",
          "name": "usdcOut",
          "type": "uint256"
        },
        {
          "indexed": false,
          "internalType": "uint256",
          "name": "avgPriceE6",
          "type": "uint256"
        }
      ],
      "name": "SellNo",
      "type": "event"
    },
    {
      "anonymous": false,
      "inputs": [
        {
          "indexed": true,
          "internalType": "uint256",
          "name": "id",
          "type": "uint256"
        },
        {
          "indexed": true,
          "internalType": "address",
          "name": "user",
          "type": "address"
        },
        {
          "indexed": false,
          "internalType": "uint256",
          "name": "tokensIn",
          "type": "uint256"
        },
        {
          "indexed": false,
          "internalType": "uint256",
          "name": "usdcOut",
          "type": "uint256"
        },
        {
          "indexed": false,
          "internalType": "uint256",
          "name": "avgPriceE6",
          "type": "uint256"
        }
      ],
      "name": "SellYes",
      "type": "event"
    },
    {
      "inputs": [],
      "name": "DEFAULT_ADMIN_ROLE",
      "outputs": [
        {
          "internalType": "bytes32",
          "name": "",
          "type": "bytes32"
        }
      ],
      "stateMutability": "view",
      "type": "function"
    },
    {
      "inputs": [],
      "name": "MARKET_CREATOR_ROLE",
      "outputs": [
        {
          "internalType": "bytes32",
          "name": "",
          "type": "bytes32"
        }
      ],
      "stateMutability": "view",
      "type": "function"
    },
    {
      "inputs": [],
      "name": "MAX_USDC_PER_TRADE",
      "outputs": [
        {
          "internalType": "uint256",
          "name": "",
          "type": "uint256"
        }
      ],
      "stateMutability": "view",
      "type": "function"
    },
    {
      "inputs": [
        {
          "internalType": "uint256",
          "name": "id",
          "type": "uint256"
        },
        {
          "internalType": "uint256",
          "name": "usdcIn",
          "type": "uint256"
        },
        {
          "internalType": "uint256",
          "name": "minOut",
          "type": "uint256"
        }
      ],
      "name": "buyNo",
      "outputs": [],
      "stateMutability": "nonpayable",
      "type": "function"
    },
    {
      "inputs": [
        {
          "internalType": "uint256",
          "name": "id",
          "type": "uint256"
        },
        {
          "internalType": "uint256",
          "name": "usdcIn",
          "type": "uint256"
        },
        {
          "internalType": "uint256",
          "name": "minOut",
          "type": "uint256"
        }
      ],
      "name": "buyYes",
      "outputs": [],
      "stateMutability": "nonpayable",
      "type": "function"
    },
    {
      "inputs": [],
      "name": "chainlinkResolver",
      "outputs": [
        {
          "internalType": "address",
          "name": "",
          "type": "address"
        }
      ],
      "stateMutability": "view",
      "type": "function"
    },
    {
      "inputs": [
        {
          "internalType": "uint256",
          "name": "id",
          "type": "uint256"
        }
      ],
      "name": "checkUpkeep",
      "outputs": [
        {
          "internalType": "bool",
          "name": "",
          "type": "bool"
        },
        {
          "internalType": "bytes",
          "name": "",
          "type": "bytes"
        }
      ],
      "stateMutability": "view",
      "type": "function"
    },
    {
      "inputs": [
        {
          "internalType": "string",
          "name": "question",
          "type": "string"
        },
        {
          "internalType": "string",
          "name": "yesName",
          "type": "string"
        },
        {
          "internalType": "string",
          "name": "yesSymbol",
          "type": "string"
        },
        {
          "internalType": "string",
          "name": "noName",
          "type": "string"
        },
        {
          "internalType": "string",
          "name": "noSymbol",
          "type": "string"
        },
        {
          "internalType": "uint256",
          "name": "",
          "type": "uint256"
        },
        {
          "internalType": "uint16",
          "name": "feeBps",
          "type": "uint16"
        },
        {
          "internalType": "uint16",
          "name": "maxTradeBps",
          "type": "uint16"
        },
        {
          "internalType": "uint256",
          "name": "initUsdc",
          "type": "uint256"
        },
        {
          "internalType": "uint256",
          "name": "expiryTimestamp",
          "type": "uint256"
        },
        {
          "internalType": "enum SpeculateCore.OracleType",
          "name": "oracleType",
          "type": "uint8"
        },
        {
          "internalType": "address",
          "name": "oracleAddress",
          "type": "address"
        },
        {
          "internalType": "bytes32",
          "name": "priceFeedId",
          "type": "bytes32"
        },
        {
          "internalType": "uint256",
          "name": "targetValue",
          "type": "uint256"
        },
        {
          "internalType": "enum SpeculateCore.Comparison",
          "name": "comparison",
          "type": "uint8"
        }
      ],
      "name": "createMarket",
      "outputs": [
        {
          "internalType": "uint256",
          "name": "id",
          "type": "uint256"
        }
      ],
      "stateMutability": "nonpayable",
      "type": "function"
    },
    {
      "inputs": [
        {
          "internalType": "uint256",
          "name": "id",
          "type": "uint256"
        }
      ],
      "name": "getMarketResolution",
      "outputs": [
        {
          "components": [
            {
              "internalType": "uint256",
              "name": "expiryTimestamp",
              "type": "uint256"
            },
            {
              "internalType": "enum SpeculateCore.OracleType",
              "name": "oracleType",
              "type": "uint8"
            },
            {
              "internalType": "address",
              "name": "oracleAddress",
              "type": "address"
            },
            {
              "internalType": "bytes32",
              "name": "priceFeedId",
              "type": "bytes32"
            },
            {
              "internalType": "uint256",
              "name": "targetValue",
              "type": "uint256"
            },
            {
              "internalType": "enum SpeculateCore.Comparison",
              "name": "comparison",
              "type": "uint8"
            },
            {
              "internalType": "bool",
              "name": "yesWins",
              "type": "bool"
            },
            {
              "internalType": "bool",
              "name": "isResolved",
              "type": "bool"
            }
          ],
          "internalType": "struct SpeculateCore.ResolutionConfig",
          "name": "",
          "type": "tuple"
        }
      ],
      "stateMutability": "view",
      "type": "function"
    },
    {
      "inputs": [
        {
          "internalType": "uint256",
          "name": "id",
          "type": "uint256"
        }
      ],
      "name": "getPriceNo",
      "outputs": [
        {
          "internalType": "uint256",
          "name": "",
          "type": "uint256"
        }
      ],
      "stateMutability": "view",
      "type": "function"
    },
    {
      "inputs": [
        {
          "internalType": "uint256",
          "name": "id",
          "type": "uint256"
        }
      ],
      "name": "getPriceYes",
      "outputs": [
        {
          "internalType": "uint256",
          "name": "",
          "type": "uint256"
        }
      ],
      "stateMutability": "view",
      "type": "function"
    },
    {
      "inputs": [
        {
          "internalType": "bytes32",
          "name": "role",
          "type": "bytes32"
        }
      ],
      "name": "getRoleAdmin",
      "outputs": [
        {
          "internalType": "bytes32",
          "name": "",
          "type": "bytes32"
        }
      ],
      "stateMutability": "view",
      "type": "function"
    },
    {
      "inputs": [
        {
          "internalType": "address",
          "name": "a",
          "type": "address"
        }
      ],
      "name": "grantMarketCreator",
      "outputs": [],
      "stateMutability": "nonpayable",
      "type": "function"
    },
    {
      "inputs": [
        {
          "internalType": "bytes32",
          "name": "role",
          "type": "bytes32"
        },
        {
          "internalType": "address",
          "name": "account",
          "type": "address"
        }
      ],
      "name": "grantRole",
      "outputs": [],
      "stateMutability": "nonpayable",
      "type": "function"
    },
    {
      "inputs": [
        {
          "internalType": "bytes32",
          "name": "role",
          "type": "bytes32"
        },
        {
          "internalType": "address",
          "name": "account",
          "type": "address"
        }
      ],
      "name": "hasRole",
      "outputs": [
        {
          "internalType": "bool",
          "name": "",
          "type": "bool"
        }
      ],
      "stateMutability": "view",
      "type": "function"
    },
    {
      "inputs": [],
      "name": "marketCount",
      "outputs": [
        {
          "internalType": "uint256",
          "name": "",
          "type": "uint256"
        }
      ],
      "stateMutability": "view",
      "type": "function"
    },
    {
      "inputs": [
        {
          "internalType": "uint256",
          "name": "",
          "type": "uint256"
        }
      ],
      "name": "markets",
      "outputs": [
        {
          "internalType": "contract PositionToken",
          "name": "yes",
          "type": "address"
        },
        {
          "internalType": "contract PositionToken",
          "name": "no",
          "type": "address"
        },
        {
          "internalType": "uint256",
          "name": "qYes",
          "type": "uint256"
        },
        {
          "internalType": "uint256",
          "name": "qNo",
          "type": "uint256"
        },
        {
          "internalType": "uint256",
          "name": "usdcVault",
          "type": "uint256"
        },
        {
          "internalType": "uint256",
          "name": "totalPairsUSDC",
          "type": "uint256"
        },
        {
          "internalType": "uint256",
          "name": "bE18",
          "type": "uint256"
        },
        {
          "internalType": "uint16",
          "name": "feeTreasuryBps",
          "type": "uint16"
        },
        {
          "internalType": "uint16",
          "name": "feeVaultBps",
          "type": "uint16"
        },
        {
          "internalType": "uint16",
          "name": "feeLpBps",
          "type": "uint16"
        },
        {
          "internalType": "uint16",
          "name": "maxTradeBps",
          "type": "uint16"
        },
        {
          "internalType": "enum SpeculateCore.MarketStatus",
          "name": "status",
          "type": "uint8"
        },
        {
          "internalType": "bool",
          "name": "exists",
          "type": "bool"
        },
        {
          "internalType": "bool",
          "name": "sellFees",
          "type": "bool"
        },
        {
          "internalType": "string",
          "name": "question",
          "type": "string"
        },
        {
          "internalType": "address",
          "name": "lp",
          "type": "address"
        },
        {
          "components": [
            {
              "internalType": "uint256",
              "name": "expiryTimestamp",
              "type": "uint256"
            },
            {
              "internalType": "enum SpeculateCore.OracleType",
              "name": "oracleType",
              "type": "uint8"
            },
            {
              "internalType": "address",
              "name": "oracleAddress",
              "type": "address"
            },
            {
              "internalType": "bytes32",
              "name": "priceFeedId",
              "type": "bytes32"
            },
            {
              "internalType": "uint256",
              "name": "targetValue",
              "type": "uint256"
            },
            {
              "internalType": "enum SpeculateCore.Comparison",
              "name": "comparison",
              "type": "uint8"
            },
            {
              "internalType": "bool",
              "name": "yesWins",
              "type": "bool"
            },
            {
              "internalType": "bool",
              "name": "isResolved",
              "type": "bool"
            }
          ],
          "internalType": "struct SpeculateCore.ResolutionConfig",
          "name": "resolution",
          "type": "tuple"
        }
      ],
      "stateMutability": "view",
      "type": "function"
    },
    {
      "inputs": [
        {
          "internalType": "uint256",
          "name": "id",
          "type": "uint256"
        },
        {
          "internalType": "bool",
          "name": "isYes",
          "type": "bool"
        },
        {
          "internalType": "uint256",
          "name": "tokensIn",
          "type": "uint256"
        }
      ],
      "name": "redeem",
      "outputs": [],
      "stateMutability": "nonpayable",
      "type": "function"
    },
    {
      "inputs": [
        {
          "internalType": "bytes32",
          "name": "role",
          "type": "bytes32"
        },
        {
          "internalType": "address",
          "name": "callerConfirmation",
          "type": "address"
        }
      ],
      "name": "renounceRole",
      "outputs": [],
      "stateMutability": "nonpayable",
      "type": "function"
    },
    {
      "inputs": [
        {
          "internalType": "uint256",
          "name": "id",
          "type": "uint256"
        },
        {
          "internalType": "bool",
          "name": "yesWins",
          "type": "bool"
        }
      ],
      "name": "resolveMarket",
      "outputs": [],
      "stateMutability": "nonpayable",
      "type": "function"
    },
    {
      "inputs": [
        {
          "internalType": "uint256",
          "name": "id",
          "type": "uint256"
        },
        {
          "internalType": "uint256",
          "name": "price",
          "type": "uint256"
        }
      ],
      "name": "resolveMarketWithPrice",
      "outputs": [],
      "stateMutability": "nonpayable",
      "type": "function"
    },
    {
      "inputs": [
        {
          "internalType": "bytes32",
          "name": "role",
          "type": "bytes32"
        },
        {
          "internalType": "address",
          "name": "account",
          "type": "address"
        }
      ],
      "name": "revokeRole",
      "outputs": [],
      "stateMutability": "nonpayable",
      "type": "function"
    },
    {
      "inputs": [
        {
          "internalType": "uint256",
          "name": "id",
          "type": "uint256"
        },
        {
          "internalType": "uint256",
          "name": "tokensIn",
          "type": "uint256"
        },
        {
          "internalType": "uint256",
          "name": "minOut",
          "type": "uint256"
        }
      ],
      "name": "sellNo",
      "outputs": [],
      "stateMutability": "nonpayable",
      "type": "function"
    },
    {
      "inputs": [
        {
          "internalType": "uint256",
          "name": "id",
          "type": "uint256"
        },
        {
          "internalType": "uint256",
          "name": "tokensIn",
          "type": "uint256"
        },
        {
          "internalType": "uint256",
          "name": "minOut",
          "type": "uint256"
        }
      ],
      "name": "sellYes",
      "outputs": [],
      "stateMutability": "nonpayable",
      "type": "function"
    },
    {
      "inputs": [
        {
          "internalType": "uint256",
          "name": "id",
          "type": "uint256"
        },
        {
          "internalType": "uint16",
          "name": "t",
          "type": "uint16"
        },
        {
          "internalType": "uint16",
          "name": "v",
          "type": "uint16"
        },
        {
          "internalType": "uint16",
          "name": "l",
          "type": "uint16"
        },
        {
          "internalType": "bool",
          "name": "sf",
          "type": "bool"
        }
      ],
      "name": "setAllFees",
      "outputs": [],
      "stateMutability": "nonpayable",
      "type": "function"
    },
    {
      "inputs": [
        {
          "internalType": "address",
          "name": "a",
          "type": "address"
        }
      ],
      "name": "setChainlinkResolver",
      "outputs": [],
      "stateMutability": "nonpayable",
      "type": "function"
    },
    {
      "inputs": [
        {
          "internalType": "address",
          "name": "a",
          "type": "address"
        }
      ],
      "name": "setTreasury",
      "outputs": [],
      "stateMutability": "nonpayable",
      "type": "function"
    },
    {
      "inputs": [
        {
          "internalType": "uint256",
          "name": "id",
          "type": "uint256"
        }
      ],
      "name": "spotPriceNoE6",
      "outputs": [
        {
          "internalType": "uint256",
          "name": "",
          "type": "uint256"
        }
      ],
      "stateMutability": "view",
      "type": "function"
    },
    {
      "inputs": [
        {
          "internalType": "uint256",
          "name": "id",
          "type": "uint256"
        }
      ],
      "name": "spotPriceYesE18",
      "outputs": [
        {
          "internalType": "uint256",
          "name": "",
          "type": "uint256"
        }
      ],
      "stateMutability": "view",
      "type": "function"
    },
    {
      "inputs": [
        {
          "internalType": "uint256",
          "name": "id",
          "type": "uint256"
        }
      ],
      "name": "spotPriceYesE6",
      "outputs": [
        {
          "internalType": "uint256",
          "name": "",
          "type": "uint256"
        }
      ],
      "stateMutability": "view",
      "type": "function"
    },
    {
      "inputs": [
        {
          "internalType": "bytes4",
          "name": "interfaceId",
          "type": "bytes4"
        }
      ],
      "name": "supportsInterface",
      "outputs": [
        {
          "internalType": "bool",
          "name": "",
          "type": "bool"
        }
      ],
      "stateMutability": "view",
      "type": "function"
    },
    {
      "inputs": [],
      "name": "treasury",
      "outputs": [
        {
          "internalType": "address",
          "name": "",
          "type": "address"
        }
      ],
      "stateMutability": "view",
      "type": "function"
    },
    {
      "inputs": [],
      "name": "usdc",
      "outputs": [
        {
          "internalType": "contract IERC20",
          "name": "",
          "type": "address"
        }
      ],
      "stateMutability": "view",
      "type": "function"
    }
  ],
  "bytecode": "0x60a0346200012d57601f620046fa38819003918201601f19168301916001600160401b03831184841017620001325780849260409485528339810103126200012d576200005a6020620000528362000148565b920162000148565b600180556001600160a01b039182168015158062000121575b15620000f6576080521660018060a01b0319600254161760025562000098336200015d565b50620000a433620001dd565b5060405161445a908162000280823960805181818161027c0152818161071d015281816109c801528181610d3c01528181610dbe01528181610e07015281816119ec01528181611f9c01526122690152f35b606460405162461bcd60e51b81526020600482015260046024820152637a65726f60e01b6044820152fd5b50828216151562000073565b600080fd5b634e487b7160e01b600052604160045260246000fd5b51906001600160a01b03821682036200012d57565b6001600160a01b031660008181527fad3228b676f7d3cd4284a5443f17f1962b36e491b30a40b2405849e597ba5fb5602052604081205490919060ff16620001d957818052816020526040822081835260205260408220600160ff198254161790553391600080516020620046da8339815191528180a4600190565b5090565b6001600160a01b031660008181527f2412b2af58bf3b93d578a423d333d33fb94fb5093f9cda1aed2eaafb3215f92960205260408120549091907fd3065a24ad9e7725d223007135762d2902038999e3e5829146654498a58d97959060ff166200027a57808352826020526040832082845260205260408320600160ff19825416179055600080516020620046da833981519152339380a4600190565b50509056fe60808060405260043610156200001457600080fd5b600090813560e01c90816301ffc9a7146200245357508063047efcf3146200234e57806316fe69291462002108578063232e45d7146200208d578063248a9ca3146200205f5780632f2ff15d146200201a57806336568abe1462001fcb5780633e413bee1462001f8457806343abd9ea1462001f6257806357bde4461462001e8e57806361d027b31462001e635780636ad6c2541462001e385780637f8a3f8c1462001e0d57806391d148541462001dc1578063a217fddf1462001da3578063a27a4186146200134f578063ae42820c1462001323578063b06ea2eb14620012f1578063b1283e771462001102578063b4fb88b71462000eae578063bad260f514620010bc578063cab7cde91462000f3a578063d46a77211462000ea8578063d547741f1462000ef1578063de62967d1462000eae578063dfe0662a1462000ea8578063dffad4e21462000b12578063e43f80a514620008ba578063ea1758941462000675578063ec9790821462000655578063f0f44260146200060f578063f7d334ba14620004fd5763fb27260b14620001ae57600080fd5b34620004d057620001bf36620024bd565b620001cc929192620029bc565b60008281526003602052604081209060078201549060ff8260481c1680620004e3575b80620004d3575b15620004d05761ffff906127106200023781620002168686168b620028f9565b0493826200022a828860101c168c620028f9565b049560201c1689620028f9565b049162000255836200024f866200024f858d6200292e565b6200292e565b9264e8d4a510009485850294808604871481151715620004bc5781620002e4918c620002a57f00000000000000000000000000000000000000000000000000000000000000009130338462002d02565b866200049c575b858015158062000485575b62000461575b5050620002cb8282620027c7565b620002dc60048c01918254620027c7565b9055620027c7565b620002f560058901918254620027c7565b90556040519283526020830152604082015260016060820152867ff749f7bfd284883f652d37eb7d9972c4147ace6c383f5271e74efaa7e6de51f460803393a36200035260028501928354906003870154600688015492620030c7565b9384156200045d57546001600160a01b0316803b156200045d576040516340c10f1960e01b8152336004820152602481018690529082908290604490829084905af18015620004525762000440575b5090620003b0848254620027c7565b9055670de0b6b3a7640000908187029187830414871517156200042c57508291620004027ffb9b8b4ed1cd716f83a12f09d326e2639a0a8544566f6554a54fa17e45b18e6a95946200040d936200290d565b04928210156200278f565b6040805195865260208601919091528401523392606090a36001805580f35b634e487b7160e01b81526011600452602490fd5b6200044b90620025b2565b38620003a1565b6040513d84823e3d90fd5b5080fd5b60098c01546200047d926001600160a01b039091169062002d5f565b3885620002bd565b5060098c01546001600160a01b03161515620002b7565b600254620004b69088906001600160a01b03168362002d5f565b620002ac565b634e487b7160e01b85526011600452602485fd5b80fd5b5064174876e800861115620001f6565b5060ff8260401c16620004f681620024d8565b15620001ef565b5034620004d0576020366003190112620004d0576040600435918281526003602052209060078201549160ff8360481c169283620005f2575b5082620005de575b82620005ce575b82620005af575b506040519060208201526020815260408101918183106001600160401b038411176200059957826040521515825260406060820152603f199062000594608082018262002705565b030190f35b634e487b7160e01b600052604160045260246000fd5b60ff919250600b015416620005c481620024d8565b151590386200054c565b600a810154421015925062000545565b600e81015460101c60ff161592506200053e565b60ff91935060401c166200060681620024d8565b15913862000536565b5034620004d0576020366003190112620004d0576200062d6200257e565b620006376200293c565b60018060a01b03166001600160601b0360a01b600254161760025580f35b5034620004d05780600319360112620004d0576020600454604051908152f35b5034620004d0576200068736620024bd565b62000694929192620029bc565b60008281526003602052604081209060078201549060ff8260481c1680620008a0575b8062000890575b15620004d05761ffff90612710620006de81620002168686168b620028f9565b0491620006f6836200024f866200024f858d6200292e565b9264e8d4a510009485850294808604871481151715620004bc578162000746918c620002a57f00000000000000000000000000000000000000000000000000000000000000009130338462002d02565b6200075760058901918254620027c7565b90556040519283526020830152604082015260016060820152867ff749f7bfd284883f652d37eb7d9972c4147ace6c383f5271e74efaa7e6de51f460803393a390620007b560038501918254906002870154600688015492620030c7565b9384156200088b57600101546001600160a01b0316803b156200088b576040516340c10f1960e01b815233600482015260248101869052906000908290604490829084905af180156200087f5762000868575b5062000816848254620027c7565b9055670de0b6b3a7640000908187029187830414871517156200042c57508291620004027f256e0661fb6a98af4e43f60406497386f05cabeea9ac420f267c07a2093f87f195946200040d936200290d565b62000875919250620025b2565b6000903862000808565b6040513d6000823e3d90fd5b600080fd5b5064174876e800861115620006be565b5060ff8260401c16620008b381620024d8565b15620006b7565b5034620004d0576060366003190112620004d057600435620008db620024ad565b90604435620008e9620029bc565b8184526003602052604084209060ff600783015460481c168062000b00575b8062000af6575b8062000ade575b1562000a5757831562000a5b578460018060a01b036200093e83828654163090339062002d02565b835416803b156200045d57604051632770a7eb60e21b8152306004820152602481018490529082908290604490829084905af18015620004525762000a3f575b50505b64e8d4a510008104918215158062000a30575b1562000a2c5780600460059201620009ae8582546200292e565b905501620009be8382546200292e565b9055620009ed82337f000000000000000000000000000000000000000000000000000000000000000062002d5f565b6040519315158452602084015260408301527f4a82a8ccecb91df0e60674cc35673e8d01bc676c08474929b9fec55fa34c031860603393a36001805580f35b8580fd5b50600481015483111562000994565b62000a4a90620025b2565b62000a575784386200097e565b8480fd5b60018201805486916001600160a01b039162000a7f90859030903390861662002d02565b5416803b156200045d57604051632770a7eb60e21b8152306004820152602481018490529082908290604490829084905af18015620004525762000ac6575b505062000981565b62000ad190620025b2565b62000a5757843862000abe565b5060ff600e83015460081c1615158415151462000916565b508015156200090f565b5060ff600e83015460101c1662000908565b5034620004d05762000b2436620024bd565b62000b31929192620029bc565b60008083825260036020526040822060078101805460ff8160481c16908162000e8d575b508062000e83575b1562000e7f576002820180546003840154818a1162000e7b579062000bb88594939262000bb160068d9998015462000b9781848762002da4565b9262000bab64e8d4a510009b8c976200292e565b62002da4565b906200292e565b049160048401918254841162000e775784546001600160a01b03989062000be7908d90309033908d1662002d02565b88865416803b156200045d57604051632770a7eb60e21b8152306004820152602481018e90529082908290604490829084905af18015620004525762000e60575b505062000c378b82546200292e565b9055805460501c60ff161562000e325762000d31926005926200024f62000d2693549262000cac612710916200024f61ffff968462000c7989831685620028f9565b04958562000ca2889762000c938c8660101c1688620028f9565b049a8b9460201c1686620028f9565b049586946200292e565b9a8262000dfb575b818015158062000deb575b62000db1575b505060405191825283602083015260408201528760608201528b7ff749f7bfd284883f652d37eb7d9972c4147ace6c383f5271e74efaa7e6de51f460803393a362000d1d62000d15838b620027c7565b82546200292e565b905587620027c7565b92019182546200292e565b90555b62000d6183337f000000000000000000000000000000000000000000000000000000000000000062002d5f565b670de0b6b3a7640000908184029184830414841517156200042c57507f946065c3cdda2cb63655e58daa105de12ad021626b25178c20823b411d25108f93929162000402876200040d936200290d565b62000de39160098b0154167f000000000000000000000000000000000000000000000000000000000000000062002d5f565b388162000cc5565b508160098b015416151562000cbf565b62000e2c8382600254167f000000000000000000000000000000000000000000000000000000000000000062002d5f565b62000cb4565b50945090600562000e5891839662000e4c8582546200292e565b9055019182546200292e565b905562000d34565b62000e6e91929750620025b2565b94388062000c28565b8780fd5b8680fd5b8380fd5b5086151562000b5d565b60ff915060401c1662000ea081620024d8565b153862000b55565b62002747565b5034620004d0576020366003190112620004d05764e8d4a5100062000ed5600435620027d5565b0490620f42409182039182116200042c57602082604051908152f35b5034620004d0576040366003190112620004d05762000f3660043562000f1662002567565b908084528360205262000f30600160408620015462002995565b62002afc565b5080f35b5034620004d0576040366003190112620004d05760043560243560018060a01b0360055416331480156200109a575b156200109657818352600360205260408320600781019182549060ff8260481c168062001083575b8062001074575b1562000a2c57600e837f6d4d544f5a6dcf38d77a232d3ef7358625c74877a1ad954fcb507872e7a05eaf95600d60409601548085116000146200102a5750600160411b60ff848401541662000fed81620024d8565b15955b60ff60401b19161790550180546201000062ffff001990911661ff00941515600881901b959095161717905582519182526020820152a280f35b8410156200105457600160411b600160ff85850154166200104b81620024d8565b145b9562000ff0565b600160411b600260ff85850154166200106d81620024d8565b146200104d565b50600a83015442101562000f98565b5060ff600e84015460101c161562000f91565b8280fd5b5082805282602052604083203360005260205260ff6040600020541662000f69565b5034620004d0576020366003190112620004d057620010da6200257e565b620010e46200293c565b60018060a01b03166001600160601b0360a01b600554161760055580f35b5034620004d0576020366003190112620004d05760043581526003602052604081209060018060a01b038254169160018060a01b0360018201541691600282015490600383015460048401546005850154600686015491600787015493604051958060088a015490620011758262002643565b808a529160018116908115620012ca57506001146200128a575b50509360409a9360ff93620012739793620011b38a620012869c9b990389620025c6565b60098c01546001600160a01b03169b620011d090600a0162002680565b998e519e8f9e8f906103009a82526020820152015260608d015260808c015260a08b015260c08a015261ffff811660e08a015261ffff8160101c166101008a015261ffff8160201c166101208a015261ffff8160301c166101408a01526200123d828260401c16620024d8565b818160401c166101608a0152818160481c1615156101808a015260501c1615156101a0880152806101c088015286019062002705565b926101e0850152610200840190620024f9565b0390f35b915060088a018252602082205b818310620012af57505086016020018360ff6200118f565b6001816020929493945483858d010152019101919062001297565b60ff19166020808c019190915292151560051b8a01909201925085915060ff90506200118f565b5034620004d0576020366003190112620004d05762000f36620013136200257e565b6200131d6200293c565b620029e0565b5034620004d05780600319360112620004d0576020604051600080516020620044058339815191528152f35b5034620004d0576101e0366003190112620004d0576004356001600160401b0381116200045d5762001386903690600401620025e8565b906024356001600160401b0381116200045d57620013a9903690600401620025e8565b906044356001600160401b0381116200045d57620013cc903690600401620025e8565b906064356001600160401b0381116200045d57620013ef903690600401620025e8565b916084356001600160401b038111620010965762001412903690600401620025e8565b61ffff60c4351660c43503620010965761ffff60e4351660e4350362001096576003610144351015620010965761016435916001600160a01b038316830362000e7f5760036101c435101562000e7f57600080516020620044058339815191528452836020526040842033855260205260ff6040852054161562001d7657620f42406101043510158062001d63575b8062001d50575b1562000e7f57600454956000198714620004bc576001870160045560405191826112718101106001600160401b036112718501111762001d31578291620014ff91611271620031948539309161127185016200286a565b039084f093841562001d4557604051916112718301918383106001600160401b0384111762001d3157916200154191849361127162003194863930926200286a565b039083f091821562001d255760405163d539139360e01b81526020816004816001600160a01b0389165afa9081156200045257829162001ced575b506001600160a01b0385163b156200045d57604051632f2ff15d60e01b815260048101919091523060248201528181604481836001600160a01b038a165af18015620004525762001cdb575b5060405163282c51f360e01b81526020816004816001600160a01b0389165afa9081156200045257829162001ca3575b506001600160a01b0385163b156200045d57604051632f2ff15d60e01b815260048101919091523060248201528181604481836001600160a01b038a165af18015620004525790829162001c8b575b505060405163d539139360e01b81526020816004816001600160a01b0388165afa9081156200045257829162001c53575b506001600160a01b0384163b156200045d57604051632f2ff15d60e01b815260048101919091523060248201528181604481836001600160a01b0389165af18015620004525790829162001c3b575b505060405163282c51f360e01b81526020816004816001600160a01b0388165afa9081156200045257829162001c03575b506001600160a01b0384163b156200045d57604051632f2ff15d60e01b815260048101919091523060248201528181604481836001600160a01b0389165af18015620004525790829162001beb575b5050600185018152600360205260408120916001600160601b0360a01b60018060a01b038616818554161784556001840160018060a01b03861682825416179055603261ffff60c435160261ffff811690810362001bd55760649004601961ffff60c435160261ffff811690810362001bd55760078601805463ffffffff191661ffff8416176064909204601081901b63ffff0000169290921781559162001820916200180291620017fc9060c435620028a8565b620028a8565b825465ffff00000000191660209190911b65ffff0000000016178255565b805469ffffffff000000000000191660e43560301b67ffff000000000000161769010000000000000000001790556009840180549091163317905586516001600160401b03811162001bc1576200187b600885015462002643565b601f811162001b78575b50806020601f821160011462001b0857849162001afc575b508160011b916000199060031b1c19161760088401555b604051620018c28162002595565b610124358152620019c96020820192620018df61014435620024d8565b610144358452604083019060018060a01b031681526060830161018435815260808401906101a435825260a08501956200191c6101c435620024d8565b6101c435875260c086019388855260e087019689885251600a8b0155600b8a019151906200194a82620024d8565b6200195582620024d8565b60ff835491610100600160a81b03905160081b169216906affffffffffffffffffffff60a81b161717905551600c88015551600d870155600e860193516200199d81620024d8565b620019a881620024d8565b8454915161ffff1990921660ff919091161790151560081b61ff0016178355565b51815462ff0000191690151560101b62ff00001617905562001a116101043530337f000000000000000000000000000000000000000000000000000000000000000062002d02565b61010435600483015561010435600583015564e8d4a51000908161010435029161010435830414610104351517156200042c576c0c9f2c9cd04674edea40000000610104350291808304670de0b6b3a764000014901517156200042c5750947f8a671e50058538a6b89d0f6600aa6e9ddc0a3e80e63c1689a1514f5f3113d9269262001ad592600667099e8db03256ce5d602099049101556040519460018060a01b0316855260018060a01b03168685015260a0604085015260a084019062002705565b916101043560608201526101243560808201528060018501930390a2600160405191018152f35b9050880151386200189d565b91506008850184526020842084925b8a601f198416851062001b6057506001935082601f1981161062001b46575b5050811b016008840155620018b4565b8a015160001960f88460031b161c19169055388062001b36565b81015182556020938401936001909201910162001b17565b60088501845260208420601f830160051c81016020841062001bb9575b601f830160051c8201811062001bad57505062001885565b85815560010162001b95565b508062001b95565b634e487b7160e01b83526041600452602483fd5b634e487b7160e01b600052601160045260246000fd5b62001bf690620025b2565b620004d057803862001747565b90506020813d60201162001c32575b8162001c2160209383620025c6565b810103126200088b575138620016f8565b3d915062001c12565b62001c4690620025b2565b620004d0578038620016c7565b90506020813d60201162001c82575b8162001c7160209383620025c6565b810103126200088b57513862001678565b3d915062001c62565b62001c9690620025b2565b620004d057803862001647565b90506020813d60201162001cd2575b8162001cc160209383620025c6565b810103126200088b575138620015f8565b3d915062001cb2565b62001ce690620025b2565b38620015c8565b90506020813d60201162001d1c575b8162001d0b60209383620025c6565b810103126200045d5751386200157c565b3d915062001cfc565b604051903d90823e3d90fd5b634e487b7160e01b86526041600452602486fd5b6040513d85823e3d90fd5b5061271061ffff60e435161115620014a8565b506103e861ffff60c435161115620014a1565b60405163e2517d3f60e01b8152336004820152600080516020620044058339815191526024820152604490fd5b5034620004d05780600319360112620004d057602090604051908152f35b5034620004d0576040366003190112620004d05760ff604060209262001de662002567565b60043582528185528282206001600160a01b03909116825284522054604051911615158152f35b5034620004d05780600319360112620004d0576005546040516001600160a01b039091168152602090f35b5034620004d0576020366003190112620004d057602062001e5b600435620027d5565b604051908152f35b5034620004d05780600319360112620004d0576002546040516001600160a01b039091168152602090f35b5034620004d0576040366003190112620004d05760043562001eaf620024ad565b62001eb96200293c565b818352600360205260408320906007820190815460ff8160481c168062001f4f575b1562000a2c5760ff60401b1916600160411b17909155600e909101805461ff00191682151560081b61ff00161781557f6d4d544f5a6dcf38d77a232d3ef7358625c74877a1ad954fcb507872e7a05eaf916040916201000062ff00001982541617905581519015158152846020820152a280f35b5060ff600e85015460101c161562001edb565b5034620004d05780600319360112620004d057602060405164174876e8008152f35b5034620004d05780600319360112620004d0576040517f00000000000000000000000000000000000000000000000000000000000000006001600160a01b03168152602090f35b5034620004d0576040366003190112620004d05762001fe962002567565b336001600160a01b03821603620020085762000f369060043562002afc565b60405163334bd91960e11b8152600490fd5b5034620004d0576040366003190112620004d05762000f366004356200203f62002567565b908084528360205262002059600160408620015462002995565b62002a82565b5034620004d0576020366003190112620004d057600160406020926004358152808452200154604051908152f35b5034620004d0576020366003190112620004d057620020f7600a6040836101009460e08351620020bd8162002595565b82815282602082015282858201528260608201528260808201528260a08201528260c0820152015260043581526003602052200162002680565b620021066040518092620024f9565bf35b5034620004d0576200211a36620024bd565b62002127929192620029bc565b81845260036020526040842060078101805460ff8160481c16908162002333575b508062002329575b1562000a2c5785600383019283549260028201549380891162002325576200219d899562000bb160068601546200218981848762002da4565b9262000bab64e8d4a510009a8b976200292e565b04906004830190815483116200232157620021d0968b8b6001870160018060a01b039a8b92838354163090339062002d02565b5416803b156200045d57604051632770a7eb60e21b8152306004820152602481018e905291908290604490829084905af18015620023165762002300575b506200221c8b82546200292e565b9055805460501c60ff1615620022de576200225e926005926200024f62000d2693549262000cac612710916200024f61ffff968462000c7989831685620028f9565b90555b6200228e83337f000000000000000000000000000000000000000000000000000000000000000062002d5f565b670de0b6b3a7640000908184029184830414841517156200042c57507fd199bc925dd277d584f6bfa3edede8377c4f2e3aeed8c423cfccbc5ee068a1b893929162000402876200040d936200290d565b509450906005620022f891839662000e4c8582546200292e565b905562002261565b6200230d919650620025b2565b8a94386200220e565b6040513d8f823e3d90fd5b8a80fd5b8980fd5b5084151562002150565b60ff915060401c166200234681620024d8565b153862002148565b5034620004d05760a0366003190112620004d05760243561ffff80821680830362000e7f5760443591808316830362000a575760643590808216820362000a2c576084359384151580950362000e7b57620023a86200293c565b600435875260036020526007604088200195865492848360ff8660481c1693846200242a575b505050501562000e7b5760101b63ffff00001665ffffffff0000199390931665ffffffffffff1991909116179190911760209190911b65ffff0000000016178255815460ff60501b191660509190911b60ff60501b1617905580f35b6103e89450620024469291620024409162002778565b62002778565b16111538848382620023ce565b9050346200045d5760203660031901126200045d5760043563ffffffff60e01b8116809103620010965760209250637965db0b60e01b81149081156200249b575b5015158152f35b6301ffc9a760e01b1490503862002494565b6024359081151582036200088b57565b60609060031901126200088b57600435906024359060443590565b60031115620024e357565b634e487b7160e01b600052602160045260246000fd5b60e080918051845260208101516200251181620024d8565b60208501526040818101516001600160a01b031690850152606080820151908501526080808201519085015260a08101516200254d81620024d8565b60a085015260c0810151151560c085015201511515910152565b602435906001600160a01b03821682036200088b57565b600435906001600160a01b03821682036200088b57565b61010081019081106001600160401b038211176200059957604052565b6001600160401b0381116200059957604052565b90601f801991011681019081106001600160401b038211176200059957604052565b81601f820112156200088b578035906001600160401b03821162000599576040519262002620601f8401601f191660200185620025c6565b828452602083830101116200088b57816000926020809301838601378301015290565b90600182811c9216801562002675575b60208310146200265f57565b634e487b7160e01b600052602260045260246000fd5b91607f169162002653565b906040516200268f8162002595565b60e060ff60048395805485526001810154838116620026ae81620024d8565b602087015260081c6001600160a01b0316604086015260028101546060860152600381015460808601520154818116620026e881620024d8565b60a0850152818160081c16151560c085015260101c161515910152565b919082519283825260005b84811062002732575050826000602080949584010152601f8019910116010190565b60208183018101518483018201520162002710565b346200088b5760203660031901126200088b57602064e8d4a510006200276f600435620027d5565b04604051908152f35b91909161ffff8080941691160191821162001bd557565b156200279757565b60405162461bcd60e51b8152602060048201526008602482015267736c69707061676560c01b6044820152606490fd5b9190820180921162001bd557565b6000526003602052604060002060ff600782015460481c1615620028405780620028366200282f6200282060026200283d950154600362002826620028206006880154809462002b72565b62002b99565b95015462002b72565b82620027c7565b9062002b72565b90565b60405162461bcd60e51b81526020600482015260026024820152616e6f60f01b6044820152606490fd5b9162002898906200288960409396959660608652606086019062002705565b90848203602086015262002705565b6001600160a01b03909416910152565b61ffff918216908216039190821162001bd557565b9067099e8db03256ce5d9182810292818404149015171562001bd557565b90670de0b6b3a76400009182810292818404149015171562001bd557565b8181029291811591840414171562001bd557565b811562002918570490565b634e487b7160e01b600052601260045260246000fd5b9190820391821162001bd557565b3360009081527fad3228b676f7d3cd4284a5443f17f1962b36e491b30a40b2405849e597ba5fb5602052604081205460ff1615620029775750565b6044906040519063e2517d3f60e01b82523360048301526024820152fd5b80600052600060205260406000203360005260205260ff6040600020541615620029775750565b600260015414620029ce576002600155565b604051633ee5aeb560e01b8152600490fd5b6001600160a01b031660008181527f2412b2af58bf3b93d578a423d333d33fb94fb5093f9cda1aed2eaafb3215f9296020526040812054909190600080516020620044058339815191529060ff1662002a7d57808352826020526040832082845260205260408320600160ff198254161790557f2f8788117e7eff1d82e926ec794901d17c78024a50270940304540a733656f0d339380a4600190565b505090565b9060009180835282602052604083209160018060a01b03169182845260205260ff6040842054161560001462002a7d57808352826020526040832082845260205260408320600160ff198254161790557f2f8788117e7eff1d82e926ec794901d17c78024a50270940304540a733656f0d339380a4600190565b9060009180835282602052604083209160018060a01b03169182845260205260ff60408420541660001462002a7d5780835282602052604083208284526020526040832060ff1981541690557ff6391f5c32d9c69d2a47ea670b442974b53935d1edc7fd64eb21e047a839171b339380a4600190565b90670de0b6b3a76400009182810292818404149015171562001bd5576200283d916200290d565b6804c53ecdc18a600000811162002cd7576714057b7ef767814f9081810291818304149015171562001bd557670de0b6b3a764000080910490680a688906bd8b000000821162002cac578082049060ff9060ff831162002c81578092918162002c0581809706620028bd565b0460019283916001945b62002c2a575b50505050506200283d92506001901b620028f9565b9091929395848716976014891162002c7957948462002c6762002c5f83999a9b8762002c5888869c620028f9565b046200290d565b8094620027c7565b99011693929190979695939462002c0f565b509562002c15565b60405162461bcd60e51b81526020600482015260036024820152621a5b9d60ea1b6044820152606490fd5b606460405162461bcd60e51b815260206004820152600460248201526332bc381960e11b6044820152fd5b60405162461bcd60e51b815260206004820152600360248201526206578760ec1b6044820152606490fd5b6040516323b872dd60e01b60208201526001600160a01b03928316602482015292909116604483015260648083019390935291815260a08101918183106001600160401b03841117620005995762002d5d9260405262003067565b565b60405163a9059cbb60e01b60208201526001600160a01b0392909216602483015260448083019390935291815262002d5d9162002d9e606483620025c6565b62003067565b9190670de0b6b3a7640000928381029080820485149015171562001bd557620028208362002dd2926200290d565b8382029180830485149015171562001bd55762002df8620028208462002dff946200290d565b90620027c7565b9081156200303c57600091806503782dace9d960921b81101562003024575b506503782dace9d960521b81101562003005575b6b0de0b6b3a76400000000000081101562002fe6575b690de0b6b3a7640000000081101562002fc8575b680de0b6b3a76400000081101562002faa575b67de0b6b3a7640000081101562002f8c575b673782dace9d90000081101562002f6e575b671bc16d674ec8000081101562002f58575b670de0b6b3a763ffff1981019080821162001bd55784810180911162001bd55762002ed09162002b72565b8362002edd8280620028f9565b049060038562002eed84620028db565b040485019081861162001bd55762002f54948662002f3e62002f469362002f3762002f4c9660058562002f2e8162002f278d829e620028f9565b04620028db565b040490620027c7565b90620028f9565b0490620027c7565b620028bd565b0490620028f9565b0490565b9183810180911162001bd5579160011c62002ea5565b60021c91671bc16d674ec80000810180911162001bd5579162002e93565b60041c91673782dace9d900000810180911162001bd5579162002e81565b60081c91676f05b59d3b200000810180911162001bd5579162002e6f565b60101c9167de0b6b3a76400000810180911162001bd5579162002e5c565b60201c916801bc16d674ec800000810180911162001bd5579162002e48565b60401c916803782dace9d9000000810180911162001bd5579162002e32565b6806f05b59d3b2000000935060801c90503862002e1e565b60405162461bcd60e51b815260206004820152600360248201526206c6e360ec1b6044820152606490fd5b906000602091828151910182855af1156200087f576000513d620030bd57506001600160a01b0381163b155b6200309b5750565b604051635274afe760e01b81526001600160a01b039091166004820152602490fd5b6001141562003093565b919283156200318a576000926050820282810460501483151715620004bc5793929190620030f782848362002da4565b9584965b603c88106200311b575050505050620031159250620027c7565b60011c90565b9091929394956200312d8188620027c7565b90600191821c9062003146878962000bab858a620027c7565b84811162003160575050975b0196959493929190620030fb565b620031718587929c9b939c6200292e565b10156200318057509662003152565b9798509762003152565b5050505060009056fe6080604052346200035c5762001271803803806200001d8162000361565b92833981016060828203126200035c5781516001600160401b0391908281116200035c57816200004f91850162000387565b91602091828501518281116200035c576040916200006f91870162000387565b940151926001600160a01b03841684036200035c578051908282116200025c576003918254906001928383811c9316801562000351575b878410146200033b578190601f93848111620002e5575b5087908483116001146200027e5760009262000272575b505060001982861b1c191690831b1783555b86519384116200025c5760049485548381811c9116801562000251575b828210146200023c57828111620001f1575b50809185116001146200018157508392918391620001649860009562000175575b50501b92600019911b1c19161790555b6200015181620003f9565b506200015d816200047a565b506200051d565b50604051610c959081620005bc8239f35b01519350388062000136565b91939290601f198416978660005283600020936000905b8a8210620001d957505084620001649910620001be575b50505050811b01905562000146565b01519060f884600019921b161c1916905538808080620001af565b80888597829496860151815501960193019062000198565b86600052816000208380880160051c82019284891062000232575b0160051c019084905b8281106200022557505062000115565b6000815501849062000215565b925081926200020c565b602287634e487b7160e01b6000525260246000fd5b90607f169062000103565b634e487b7160e01b600052604160045260246000fd5b015190503880620000d4565b90859350601f1983169187600052896000209260005b8b828210620002ce5750508411620002b5575b505050811b018355620000e6565b015160001983881b60f8161c19169055388080620002a7565b838501518655899790950194938401930162000294565b90915085600052876000208480850160051c8201928a861062000331575b918791869594930160051c01915b82811062000321575050620000bd565b6000815585945087910162000311565b9250819262000303565b634e487b7160e01b600052602260045260246000fd5b92607f1692620000a6565b600080fd5b6040519190601f01601f191682016001600160401b038111838210176200025c57604052565b919080601f840112156200035c5782516001600160401b0381116200025c57602090620003bd601f8201601f1916830162000361565b928184528282870101116200035c5760005b818110620003e557508260009394955001015290565b8581018301518482018401528201620003cf565b6001600160a01b031660008181527f05b8ccbb9d4d8fb16ea74ce3c29a41f1b461fbdaff4714a0d9a8eb05499746bc602052604081205490919060ff16620004765781805260056020526040822081835260205260408220600160ff198254161790553391600080516020620012518339815191528180a4600190565b5090565b6001600160a01b031660008181527f15a28d26fa1bf736cf7edc9922607171ccb09c3c73b808e7772a3013e068a52260205260408120549091907f9f2df0fed2c77648de5860a4cc508cd0818c85b8b8a1ab4ceeef8d981c8956a69060ff16620005185780835260056020526040832082845260205260408320600160ff1982541617905560008051602062001251833981519152339380a4600190565b505090565b6001600160a01b031660008181527f847f481f687befb06ed3511f1a8dcef57e83007c0147ae5047583d705617093760205260408120549091907f3c11d16cbaffd01df69ce1c404f6340ee057498f5f00246190ea54220576a8489060ff16620005185780835260056020526040832082845260205260408320600160ff1982541617905560008051602062001251833981519152339380a460019056fe608060408181526004918236101561001657600080fd5b600092833560e01c91826301ffc9a7146109795750816306fdde031461089d578163095ea7b3146107f357816318160ddd146107d457816323b872dd146106dd578163248a9ca3146106b2578163282c51f3146106775781632f2ff15d1461064d578163313ce5671461063157816336568abe146105eb57816340c10f19146104e657816370a08231146104af57816391d148541461046857816395d89b41146103475781639dc29fac14610217578163a217fddf146101fc578163a9059cbb146101cb578163d539139314610190578163d547741f1461014c575063dd62ed3e1461010157600080fd5b346101485780600319360112610148578060209261011d610a15565b610125610a30565b6001600160a01b0391821683526001865283832091168252845220549051908152f35b5080fd5b9190503461018c578060031936011261018c5761018891356101836001610171610a30565b93838752600560205286200154610b24565b610be8565b5080f35b8280fd5b505034610148578160031936011261014857602090517f9f2df0fed2c77648de5860a4cc508cd0818c85b8b8a1ab4ceeef8d981c8956a68152f35b5050346101485780600319360112610148576020906101f56101eb610a15565b6024359033610a46565b5160018152f35b50503461014857816003193601126101485751908152602090f35b83915034610148578260031936011261014857610232610a15565b90602435907f3c11d16cbaffd01df69ce1c404f6340ee057498f5f00246190ea54220576a848808552600560205285852033865260205260ff86862054161561032a57506001600160a01b038316928315610313578385528460205285852054918383106102df5750508184957fddf252ad1be2c89b69c2b068fc378daa952ba7f163c4a11628f55a4df523b3ef936020938688528785520381872055816002540360025551908152a380f35b865163391434e360e21b81526001600160a01b03909216908201908152602081018390526040810184905281906060010390fd5b8551634b637e8f60e11b8152808301869052602490fd5b6044925085519163e2517d3f60e01b835233908301526024820152fd5b83833461014857816003193601126101485780519082845460018160011c906001831692831561045e575b602093848410811461044b5783885290811561042f57506001146103da575b505050829003601f01601f191682019267ffffffffffffffff8411838510176103c757508291826103c39252826109cc565b0390f35b634e487b7160e01b815260418552602490fd5b8787529192508591837f8a35acfbc15ff81a39ae7d344fd709f28e8600b4aa8c65c6b64bfe7fe36bd19b5b83851061041b5750505050830101858080610391565b805488860183015293019284908201610405565b60ff1916878501525050151560051b8401019050858080610391565b634e487b7160e01b895260228a52602489fd5b91607f1691610372565b90503461018c578160031936011261018c578160209360ff92610489610a30565b90358252600586528282206001600160a01b039091168252855220549151911615158152f35b5050346101485760203660031901126101485760209181906001600160a01b036104d7610a15565b16815280845220549051908152f35b9190503461018c578060031936011261018c57610501610a15565b90602435917f9f2df0fed2c77648de5860a4cc508cd0818c85b8b8a1ab4ceeef8d981c8956a6808652600560205282862033875260205260ff8387205416156105cd57506001600160a01b03169283156105b857600254908382018092116105a5575084927fddf252ad1be2c89b69c2b068fc378daa952ba7f163c4a11628f55a4df523b3ef9260209260025585855284835280852082815401905551908152a380f35b634e487b7160e01b865260119052602485fd5b84602492519163ec442f0560e01b8352820152fd5b825163e2517d3f60e01b815233818701526024810191909152604490fd5b838334610148578060031936011261014857610605610a30565b90336001600160a01b038316036106225750610188919235610be8565b5163334bd91960e11b81528390fd5b5050346101485781600319360112610148576020905160128152f35b9190503461018c578060031936011261018c5761018891356106726001610171610a30565b610b68565b505034610148578160031936011261014857602090517f3c11d16cbaffd01df69ce1c404f6340ee057498f5f00246190ea54220576a8488152f35b90503461018c57602036600319011261018c5781602093600192358152600585522001549051908152f35b905082346107d15760603660031901126107d1576106f9610a15565b610701610a30565b916044359360018060a01b03831680835260016020528683203384526020528683205491600019831061073d575b6020886101f5898989610a46565b8683106107a557811561078e573315610777575082526001602090815286832033845281529186902090859003905582906101f58761072f565b8751634a1406b160e11b8152908101849052602490fd5b875163e602df0560e01b8152908101849052602490fd5b8751637dc7a0d960e11b8152339181019182526020820193909352604081018790528291506060010390fd5b80fd5b5050346101485781600319360112610148576020906002549051908152f35b90503461018c578160031936011261018c5761080d610a15565b602435903315610886576001600160a01b031691821561086f57508083602095338152600187528181208582528752205582519081527f8c5be1e5ebec7d5bd14f71427d1e84f3dd0314c0f7b2291e5b200ac8c7c3b925843392a35160018152f35b8351634a1406b160e11b8152908101859052602490fd5b835163e602df0560e01b8152808401869052602490fd5b8383346101485781600319360112610148578051908260035460018160011c906001831692831561096f575b602093848410811461044b5783885290811561042f575060011461091957505050829003601f01601f191682019267ffffffffffffffff8411838510176103c757508291826103c39252826109cc565b600387529192508591837fc2575a0e9e593c00f959f8c92f12db2869c3395a3b0502d05e2516446f71f85b5b83851061095b5750505050830101858080610391565b805488860183015293019284908201610945565b91607f16916108c9565b84913461018c57602036600319011261018c573563ffffffff60e01b811680910361018c5760209250637965db0b60e01b81149081156109bb575b5015158152f35b6301ffc9a760e01b149050836109b4565b6020808252825181830181905290939260005b828110610a0157505060409293506000838284010152601f8019910116010190565b8181018601518482016040015285016109df565b600435906001600160a01b0382168203610a2b57565b600080fd5b602435906001600160a01b0382168203610a2b57565b916001600160a01b03808416928315610b0b5716928315610af25760009083825281602052604082205490838210610ac0575091604082827fddf252ad1be2c89b69c2b068fc378daa952ba7f163c4a11628f55a4df523b3ef958760209652828652038282205586815220818154019055604051908152a3565b60405163391434e360e21b81526001600160a01b03919091166004820152602481019190915260448101839052606490fd5b60405163ec442f0560e01b815260006004820152602490fd5b604051634b637e8f60e11b815260006004820152602490fd5b80600052600560205260406000203360005260205260ff6040600020541615610b4a5750565b6044906040519063e2517d3f60e01b82523360048301526024820152fd5b906000918083526005602052604083209160018060a01b03169182845260205260ff60408420541615600014610be35780835260056020526040832082845260205260408320600160ff198254161790557f2f8788117e7eff1d82e926ec794901d17c78024a50270940304540a733656f0d339380a4600190565b505090565b906000918083526005602052604083209160018060a01b03169182845260205260ff604084205416600014610be3578083526005602052604083208284526020526040832060ff1981541690557ff6391f5c32d9c69d2a47ea670b442974b53935d1edc7fd64eb21e047a839171b339380a460019056fea26469706673582212205854ad7a7ba14b2d05dd9f6ed2a635adb0eb50e35022788f3382cf94a5b836dc64736f6c634300081800332f8788117e7eff1d82e926ec794901d17c78024a50270940304540a733656f0dd3065a24ad9e7725d223007135762d2902038999e3e5829146654498a58d9795a26469706673582212208aeb8fa0faa0281376203d14dc4aa0be3260a6e5607530e96626852c8952d95e64736f6c634300081800332f8788117e7eff1d82e926ec794901d17c78024a50270940304540a733656f0d",
  "linkReferences": {},
  "deployedLinkReferences": {}
}