{"contracts/src/ChainlinkResolver.sol":{"ChainlinkResolver":{"abi":[{"inputs":[{"internalType":"address","name":"_core","type":"address"}],"stateMutability":"nonpayable","type":"constructor"},{"anonymous":false,"inputs":[{"indexed":true,"internalType":"bytes32","name":"feedId","type":"bytes32"},{"indexed":false,"internalType":"address","name":"feedAddress","type":"address"}],"name":"FeedRegistered","type":"event"},{"anonymous":false,"inputs":[{"indexed":true,"internalType":"uint256","name":"marketId","type":"uint256"},{"indexed":false,"internalType":"bool","name":"yesWins","type":"bool"},{"indexed":false,"internalType":"uint256","name":"price","type":"uint256"}],"name":"MarketResolved","type":"event"},{"inputs":[{"internalType":"bytes","name":"checkData","type":"bytes"}],"name":"checkUpkeep","outputs":[{"internalType":"bool","name":"upkeepNeeded","type":"bool"},{"internalType":"bytes","name":"performData","type":"bytes"}],"stateMutability":"view","type":"function"},{"inputs":[],"name":"core","outputs":[{"internalType":"contract SpeculateCore","name":"","type":"address"}],"stateMutability":"view","type":"function"},{"inputs":[{"internalType":"bytes32","name":"","type":"bytes32"}],"name":"globalFeeds","outputs":[{"internalType":"address","name":"","type":"address"}],"stateMutability":"view","type":"function"},{"inputs":[],"name":"owner","outputs":[{"internalType":"address","name":"","type":"address"}],"stateMutability":"view","type":"function"},{"inputs":[{"internalType":"bytes","name":"performData","type":"bytes"}],"name":"performUpkeep","outputs":[],"stateMutability":"nonpayable","type":"function"},{"inputs":[{"internalType":"uint256","name":"","type":"uint256"},{"internalType":"address","name":"","type":"address"}],"name":"registerMarket","outputs":[],"stateMutability":"pure","type":"function"},{"inputs":[{"internalType":"bytes32","name":"feedId","type":"bytes32"},{"internalType":"address","name":"feedAddress","type":"address"}],"name":"setGlobalFeed","outputs":[],"stateMutability":"nonpayable","type":"function"}],"evm":{"bytecode":{"linkReferences":{},"object":"60a0346100c257601f610bce38819003918201601f19168301916001600160401b038311848410176100c7578084926020946040528339810103126100c257516001600160a01b038116908190036100c257801561009157608052600080546001600160a01b03191633179055604051610af090816100de823960805181818160850152818161025601526108f10152f35b60405162461bcd60e51b81526020600482015260096024820152687a65726f20636f726560b81b6044820152606490fd5b600080fd5b634e487b7160e01b600052604160045260246000fdfe608060408181526004918236101561001657600080fd5b600092833560e01c91826315d8b4b1146106875750816326ef8c8a146106545781634585e33b146102165781636e04ff0d146101c257816373330f46146100df575080638da5cb5b146100b85763f2f4eb261461007257600080fd5b346100b457816003193601126100b457517f00000000000000000000000000000000000000000000000000000000000000006001600160a01b03168152602090f35b5080fd5b50346100b457816003193601126100b457905490516001600160a01b039091168152602090f35b9050346101be57816003193601126101be578035916100fc6106e2565b84546001600160a01b0391908216330361018f571691821561016157508284526001602090815281852080546001600160a01b0319168417905590519182527f895b8e5422c82f2848ee2a4b893b1fdd1c8bc5deaee9d81046c9fdb1b5f1e8b991a280f35b6020606492519162461bcd60e51b835282015260096024820152681e995c9bc81999595960ba1b6044820152fd5b825162461bcd60e51b815260208186015260096024820152683737ba1037bbb732b960b91b6044820152606490fd5b8280fd5b828434610213575060606101de6101d8366106fd565b906108d2565b61020584519485931515845280602085015282519283809286015260208686019101610747565b601f01601f19168101030190f35b80fd5b919050346101be57610227366106fd565b90809291602093849181010312610650578151637be99a5d60e11b815290358482018190526001600160a01b037f000000000000000000000000000000000000000000000000000000000000000081169591949260249190888184818b5afa908115610646578991610623575b50156105ee5784519663232e45d760e01b9182895287858a01526101009889818681865afa908115610460578b916105d1575b508681015160038110156105bf5760010361058d57818881818e6060860151815260018c52205416928315610580575b505050168015610548579060a085949392885196878092633fabe5a360e21b82525afa94851561053e578a958b968c928d926104e9575b508c8813156104b7578215610480576103589169ffffffffffffffffffff91821691161015610a81565b420342811161046e57610e1061036e9110610a81565b803b1561046a57865163cab7cde960e01b8152888582015285848201528a8160448183865af1801561046057610433575b509187939189938851958694859384528301525afa958615610429579560c0917f6d4d544f5a6dcf38d77a232d3ef7358625c74877a1ad954fcb507872e7a05eaf969789926103fc575b505001511515918351928352820152a280f35b61041b9250803d10610422575b610413818361076a565b81019061082a565b38806103e9565b503d610409565b84513d89823e3d90fd5b67ffffffffffffffff819b929b1161044e578752988761039f565b634e487b7160e01b8252604185528382fd5b88513d8d823e3d90fd5b8980fd5b634e487b7160e01b8b5260118552838bfd5b895162461bcd60e51b81528088018a905260128188015271726f756e64206e6f7420636f6d706c65746560701b6044820152606490fd5b895162461bcd60e51b81528088018a9052600d818801526c696e76616c696420707269636560981b6044820152606490fd5b975050505060a0853d60a011610536575b8161050760a0938361076a565b8101031261046a5761051885610a6a565b8686015161052d608060608901519801610a6a565b9096913861032e565b3d91506104fa565b87513d8c823e3d90fd5b865162461bcd60e51b81528086018790526013818601527219995959081b9bdd081c9959da5cdd195c9959606a1b6044820152606490fd5b01511690508188386102f7565b875162461bcd60e51b8152808701889052600d818701526c6e6f7420636861696e6c696e6b60981b6044820152606490fd5b634e487b7160e01b8c5260218752858cfd5b6105e891508a3d8c1161042257610413818361076a565b386102c7565b5060119192606494519362461bcd60e51b8552840152820152701d5c1ad9595c081b9bdd081b9959591959607a1b6044820152fd5b61063f91503d808b833e610637818361076a565b8101906107af565b5038610294565b86513d8b823e3d90fd5b8480fd5b9050346101be5760203660031901126101be5735825260016020908152918190205490516001600160a01b039091168152f35b8484346100b457366003190112610213575060206064926106a66106e2565b5062461bcd60e51b8352820152601960248201527f72656769737465724d61726b65742064657072656361746564000000000000006044820152fd5b602435906001600160a01b03821682036106f857565b600080fd5b9060206003198301126106f85760043567ffffffffffffffff928382116106f857806023830112156106f85781600401359384116106f857602484830101116106f8576024019190565b60005b83811061075a5750506000910152565b818101518382015260200161074a565b90601f8019910116810190811067ffffffffffffffff82111761078c57604052565b634e487b7160e01b600052604160045260246000fd5b519081151582036106f857565b91906040838203126106f8576107c4836107a2565b92602081015167ffffffffffffffff918282116106f857019082601f830112156106f857815190811161078c5760405192610809601f8301601f19166020018561076a565b818452602082840101116106f8576108279160208085019101610747565b90565b809161010092839103126106f85760405191820182811067ffffffffffffffff82111761078c5760405280518252602081015160038110156106f857602083015260408101516001600160a01b03811681036106f8576040830152606081015160608301526080810151608083015260a081015160038110156106f8576108ca9160e09160a08501526108bf60c082016107a2565b60c0850152016107a2565b60e082015290565b60019180610a53575b50506040805163764bc84160e11b8152909290917f00000000000000000000000000000000000000000000000000000000000000006001600160a01b0316906004906020858381865afa948515610a4857600095610a14575b5060328101948582116109fe578086116109e9575b505b84811061097d575050509050600091805190602082019082821067ffffffffffffffff83111761078c57526000815290565b8551637be99a5d60e11b8152828101829052600081602481875afa9081156109de5760009081926109c2575b506109b7575060010161094b565b600196509450505050565b906109d792503d8091833e610637818361076a565b90386109a9565b87513d6000823e3d90fd5b909450600181018091116109fe579338610949565b634e487b7160e01b600052601160045260246000fd5b90946020823d602011610a40575b81610a2f6020938361076a565b810103126102135750519338610934565b3d9150610a22565b86513d6000823e3d90fd5b81925090602091810103126106f8573538806108db565b519069ffffffffffffffffffff821682036106f857565b15610a8857565b60405162461bcd60e51b815260206004820152600a6024820152697374616c65206461746160b01b6044820152606490fdfea26469706673582212200acc8c6a6a73588476ef478f38dcb3445db46a5d06ee65d3f607a69a066da8dc64736f6c63430008180033","opcodes":"PUSH1 0xA0 CALLVALUE PUSH2 0xC2 JUMPI PUSH1 0x1F PUSH2 0xBCE CODESIZE DUP2 SWAP1 SUB SWAP2 DUP3 ADD PUSH1 0x1F NOT AND DUP4 ADD SWAP2 PUSH1 0x1 PUSH1 0x1 PUSH1 0x40 SHL SUB DUP4 GT DUP5 DUP5 LT OR PUSH2 0xC7 JUMPI DUP1 DUP5 SWAP3 PUSH1 0x20 SWAP5 PUSH1 0x40 MSTORE DUP4 CODECOPY DUP2 ADD SUB SLT PUSH2 0xC2 JUMPI MLOAD PUSH1 0x1 PUSH1 0x1 PUSH1 0xA0 SHL SUB DUP2 AND SWAP1 DUP2 SWAP1 SUB PUSH2 0xC2 JUMPI DUP1 ISZERO PUSH2 0x91 JUMPI PUSH1 0x80 MSTORE PUSH1 0x0 DUP1 SLOAD PUSH1 0x1 PUSH1 0x1 PUSH1 0xA0 SHL SUB NOT AND CALLER OR SWAP1 SSTORE PUSH1 0x40 MLOAD PUSH2 0xAF0 SWAP1 DUP2 PUSH2 0xDE DUP3 CODECOPY PUSH1 0x80 MLOAD DUP2 DUP2 DUP2 PUSH1 0x85 ADD MSTORE DUP2 DUP2 PUSH2 0x256 ADD MSTORE PUSH2 0x8F1 ADD MSTORE RETURN JUMPDEST PUSH1 0x40 MLOAD PUSH3 0x461BCD PUSH1 0xE5 SHL DUP2 MSTORE PUSH1 0x20 PUSH1 0x4 DUP3 ADD MSTORE PUSH1 0x9 PUSH1 0x24 DUP3 ADD MSTORE PUSH9 0x7A65726F20636F7265 PUSH1 0xB8 SHL PUSH1 0x44 DUP3 ADD MSTORE PUSH1 0x64 SWAP1 REVERT JUMPDEST PUSH1 0x0 DUP1 REVERT JUMPDEST PUSH4 0x4E487B71 PUSH1 0xE0 SHL PUSH1 0x0 MSTORE PUSH1 0x41 PUSH1 0x4 MSTORE PUSH1 0x24 PUSH1 0x0 REVERT INVALID PUSH1 0x80 PUSH1 0x40 DUP2 DUP2 MSTORE PUSH1 0x4 SWAP2 DUP3 CALLDATASIZE LT ISZERO PUSH2 0x16 JUMPI PUSH1 0x0 DUP1 REVERT JUMPDEST PUSH1 0x0 SWAP3 DUP4 CALLDATALOAD PUSH1 0xE0 SHR SWAP2 DUP3 PUSH4 0x15D8B4B1 EQ PUSH2 0x687 JUMPI POP DUP2 PUSH4 0x26EF8C8A EQ PUSH2 0x654 JUMPI DUP2 PUSH4 0x4585E33B EQ PUSH2 0x216 JUMPI DUP2 PUSH4 0x6E04FF0D EQ PUSH2 0x1C2 JUMPI DUP2 PUSH4 0x73330F46 EQ PUSH2 0xDF JUMPI POP DUP1 PUSH4 0x8DA5CB5B EQ PUSH2 0xB8 JUMPI PUSH4 0xF2F4EB26 EQ PUSH2 0x72 JUMPI PUSH1 0x0 DUP1 REVERT JUMPDEST CALLVALUE PUSH2 0xB4 JUMPI DUP2 PUSH1 0x3 NOT CALLDATASIZE ADD SLT PUSH2 0xB4 JUMPI MLOAD PUSH32 0x0 PUSH1 0x1 PUSH1 0x1 PUSH1 0xA0 SHL SUB AND DUP2 MSTORE PUSH1 0x20 SWAP1 RETURN JUMPDEST POP DUP1 REVERT JUMPDEST POP CALLVALUE PUSH2 0xB4 JUMPI DUP2 PUSH1 0x3 NOT CALLDATASIZE ADD SLT PUSH2 0xB4 JUMPI SWAP1 SLOAD SWAP1 MLOAD PUSH1 0x1 PUSH1 0x1 PUSH1 0xA0 SHL SUB SWAP1 SWAP2 AND DUP2 MSTORE PUSH1 0x20 SWAP1 RETURN JUMPDEST SWAP1 POP CALLVALUE PUSH2 0x1BE JUMPI DUP2 PUSH1 0x3 NOT CALLDATASIZE ADD SLT PUSH2 0x1BE JUMPI DUP1 CALLDATALOAD SWAP2 PUSH2 0xFC PUSH2 0x6E2 JUMP JUMPDEST DUP5 SLOAD PUSH1 0x1 PUSH1 0x1 PUSH1 0xA0 SHL SUB SWAP2 SWAP1 DUP3 AND CALLER SUB PUSH2 0x18F JUMPI AND SWAP2 DUP3 ISZERO PUSH2 0x161 JUMPI POP DUP3 DUP5 MSTORE PUSH1 0x1 PUSH1 0x20 SWAP1 DUP2 MSTORE DUP2 DUP6 KECCAK256 DUP1 SLOAD PUSH1 0x1 PUSH1 0x1 PUSH1 0xA0 SHL SUB NOT AND DUP5 OR SWAP1 SSTORE SWAP1 MLOAD SWAP2 DUP3 MSTORE PUSH32 0x895B8E5422C82F2848EE2A4B893B1FDD1C8BC5DEAEE9D81046C9FDB1B5F1E8B9 SWAP2 LOG2 DUP1 RETURN JUMPDEST PUSH1 0x20 PUSH1 0x64 SWAP3 MLOAD SWAP2 PUSH3 0x461BCD PUSH1 0xE5 SHL DUP4 MSTORE DUP3 ADD MSTORE PUSH1 0x9 PUSH1 0x24 DUP3 ADD MSTORE PUSH9 0x1E995C9BC819995959 PUSH1 0xBA SHL PUSH1 0x44 DUP3 ADD MSTORE REVERT JUMPDEST DUP3 MLOAD PUSH3 0x461BCD PUSH1 0xE5 SHL DUP2 MSTORE PUSH1 0x20 DUP2 DUP7 ADD MSTORE PUSH1 0x9 PUSH1 0x24 DUP3 ADD MSTORE PUSH9 0x3737BA1037BBB732B9 PUSH1 0xB9 SHL PUSH1 0x44 DUP3 ADD MSTORE PUSH1 0x64 SWAP1 REVERT JUMPDEST DUP3 DUP1 REVERT JUMPDEST DUP3 DUP5 CALLVALUE PUSH2 0x213 JUMPI POP PUSH1 0x60 PUSH2 0x1DE PUSH2 0x1D8 CALLDATASIZE PUSH2 0x6FD JUMP JUMPDEST SWAP1 PUSH2 0x8D2 JUMP JUMPDEST PUSH2 0x205 DUP5 MLOAD SWAP5 DUP6 SWAP4 ISZERO ISZERO DUP5 MSTORE DUP1 PUSH1 0x20 DUP6 ADD MSTORE DUP3 MLOAD SWAP3 DUP4 DUP1 SWAP3 DUP7 ADD MSTORE PUSH1 0x20 DUP7 DUP7 ADD SWAP2 ADD PUSH2 0x747 JUMP JUMPDEST PUSH1 0x1F ADD PUSH1 0x1F NOT AND DUP2 ADD SUB ADD SWAP1 RETURN JUMPDEST DUP1 REVERT JUMPDEST SWAP2 SWAP1 POP CALLVALUE PUSH2 0x1BE JUMPI PUSH2 0x227 CALLDATASIZE PUSH2 0x6FD JUMP JUMPDEST SWAP1 DUP1 SWAP3 SWAP2 PUSH1 0x20 SWAP4 DUP5 SWAP2 DUP2 ADD SUB SLT PUSH2 0x650 JUMPI DUP2 MLOAD PUSH4 0x7BE99A5D PUSH1 0xE1 SHL DUP2 MSTORE SWAP1 CALLDATALOAD DUP5 DUP3 ADD DUP2 SWAP1 MSTORE PUSH1 0x1 PUSH1 0x1 PUSH1 0xA0 SHL SUB PUSH32 0x0 DUP2 AND SWAP6 SWAP2 SWAP5 SWAP3 PUSH1 0x24 SWAP2 SWAP1 DUP9 DUP2 DUP5 DUP2 DUP12 GAS STATICCALL SWAP1 DUP2 ISZERO PUSH2 0x646 JUMPI DUP10 SWAP2 PUSH2 0x623 JUMPI JUMPDEST POP ISZERO PUSH2 0x5EE JUMPI DUP5 MLOAD SWAP7 PUSH4 0x232E45D7 PUSH1 0xE0 SHL SWAP2 DUP3 DUP10 MSTORE DUP8 DUP6 DUP11 ADD MSTORE PUSH2 0x100 SWAP9 DUP10 DUP2 DUP7 DUP2 DUP7 GAS STATICCALL SWAP1 DUP2 ISZERO PUSH2 0x460 JUMPI DUP12 SWAP2 PUSH2 0x5D1 JUMPI JUMPDEST POP DUP7 DUP2 ADD MLOAD PUSH1 0x3 DUP2 LT ISZERO PUSH2 0x5BF JUMPI PUSH1 0x1 SUB PUSH2 0x58D JUMPI DUP2 DUP9 DUP2 DUP2 DUP15 PUSH1 0x60 DUP7 ADD MLOAD DUP2 MSTORE PUSH1 0x1 DUP13 MSTORE KECCAK256 SLOAD AND SWAP3 DUP4 ISZERO PUSH2 0x580 JUMPI JUMPDEST POP POP POP AND DUP1 ISZERO PUSH2 0x548 JUMPI SWAP1 PUSH1 0xA0 DUP6 SWAP5 SWAP4 SWAP3 DUP9 MLOAD SWAP7 DUP8 DUP1 SWAP3 PUSH4 0x3FABE5A3 PUSH1 0xE2 SHL DUP3 MSTORE GAS STATICCALL SWAP5 DUP6 ISZERO PUSH2 0x53E JUMPI DUP11 SWAP6 DUP12 SWAP7 DUP13 SWAP3 DUP14 SWAP3 PUSH2 0x4E9 JUMPI JUMPDEST POP DUP13 DUP9 SGT ISZERO PUSH2 0x4B7 JUMPI DUP3 ISZERO PUSH2 0x480 JUMPI PUSH2 0x358 SWAP2 PUSH10 0xFFFFFFFFFFFFFFFFFFFF SWAP2 DUP3 AND SWAP2 AND LT ISZERO PUSH2 0xA81 JUMP JUMPDEST TIMESTAMP SUB TIMESTAMP DUP2 GT PUSH2 0x46E JUMPI PUSH2 0xE10 PUSH2 0x36E SWAP2 LT PUSH2 0xA81 JUMP JUMPDEST DUP1 EXTCODESIZE ISZERO PUSH2 0x46A JUMPI DUP7 MLOAD PUSH4 0xCAB7CDE9 PUSH1 0xE0 SHL DUP2 MSTORE DUP9 DUP6 DUP3 ADD MSTORE DUP6 DUP5 DUP3 ADD MSTORE DUP11 DUP2 PUSH1 0x44 DUP2 DUP4 DUP7 GAS CALL DUP1 ISZERO PUSH2 0x460 JUMPI PUSH2 0x433 JUMPI JUMPDEST POP SWAP2 DUP8 SWAP4 SWAP2 DUP10 SWAP4 DUP9 MLOAD SWAP6 DUP7 SWAP5 DUP6 SWAP4 DUP5 MSTORE DUP4 ADD MSTORE GAS STATICCALL SWAP6 DUP7 ISZERO PUSH2 0x429 JUMPI SWAP6 PUSH1 0xC0 SWAP2 PUSH32 0x6D4D544F5A6DCF38D77A232D3EF7358625C74877A1AD954FCB507872E7A05EAF SWAP7 SWAP8 DUP10 SWAP3 PUSH2 0x3FC JUMPI JUMPDEST POP POP ADD MLOAD ISZERO ISZERO SWAP2 DUP4 MLOAD SWAP3 DUP4 MSTORE DUP3 ADD MSTORE LOG2 DUP1 RETURN JUMPDEST PUSH2 0x41B SWAP3 POP DUP1 RETURNDATASIZE LT PUSH2 0x422 JUMPI JUMPDEST PUSH2 0x413 DUP2 DUP4 PUSH2 0x76A JUMP JUMPDEST DUP2 ADD SWAP1 PUSH2 0x82A JUMP JUMPDEST CODESIZE DUP1 PUSH2 0x3E9 JUMP JUMPDEST POP RETURNDATASIZE PUSH2 0x409 JUMP JUMPDEST DUP5 MLOAD RETURNDATASIZE DUP10 DUP3 RETURNDATACOPY RETURNDATASIZE SWAP1 REVERT JUMPDEST PUSH8 0xFFFFFFFFFFFFFFFF DUP2 SWAP12 SWAP3 SWAP12 GT PUSH2 0x44E JUMPI DUP8 MSTORE SWAP9 DUP8 PUSH2 0x39F JUMP JUMPDEST PUSH4 0x4E487B71 PUSH1 0xE0 SHL DUP3 MSTORE PUSH1 0x41 DUP6 MSTORE DUP4 DUP3 REVERT JUMPDEST DUP9 MLOAD RETURNDATASIZE DUP14 DUP3 RETURNDATACOPY RETURNDATASIZE SWAP1 REVERT JUMPDEST DUP10 DUP1 REVERT JUMPDEST PUSH4 0x4E487B71 PUSH1 0xE0 SHL DUP12 MSTORE PUSH1 0x11 DUP6 MSTORE DUP4 DUP12 REVERT JUMPDEST DUP10 MLOAD PUSH3 0x461BCD PUSH1 0xE5 SHL DUP2 MSTORE DUP1 DUP9 ADD DUP11 SWAP1 MSTORE PUSH1 0x12 DUP2 DUP9 ADD MSTORE PUSH18 0x726F756E64206E6F7420636F6D706C657465 PUSH1 0x70 SHL PUSH1 0x44 DUP3 ADD MSTORE PUSH1 0x64 SWAP1 REVERT JUMPDEST DUP10 MLOAD PUSH3 0x461BCD PUSH1 0xE5 SHL DUP2 MSTORE DUP1 DUP9 ADD DUP11 SWAP1 MSTORE PUSH1 0xD DUP2 DUP9 ADD MSTORE PUSH13 0x696E76616C6964207072696365 PUSH1 0x98 SHL PUSH1 0x44 DUP3 ADD MSTORE PUSH1 0x64 SWAP1 REVERT JUMPDEST SWAP8 POP POP POP POP PUSH1 0xA0 DUP6 RETURNDATASIZE PUSH1 0xA0 GT PUSH2 0x536 JUMPI JUMPDEST DUP2 PUSH2 0x507 PUSH1 0xA0 SWAP4 DUP4 PUSH2 0x76A JUMP JUMPDEST DUP2 ADD SUB SLT PUSH2 0x46A JUMPI PUSH2 0x518 DUP6 PUSH2 0xA6A JUMP JUMPDEST DUP7 DUP7 ADD MLOAD PUSH2 0x52D PUSH1 0x80 PUSH1 0x60 DUP10 ADD MLOAD SWAP9 ADD PUSH2 0xA6A JUMP JUMPDEST SWAP1 SWAP7 SWAP2 CODESIZE PUSH2 0x32E JUMP JUMPDEST RETURNDATASIZE SWAP2 POP PUSH2 0x4FA JUMP JUMPDEST DUP8 MLOAD RETURNDATASIZE DUP13 DUP3 RETURNDATACOPY RETURNDATASIZE SWAP1 REVERT JUMPDEST DUP7 MLOAD PUSH3 0x461BCD PUSH1 0xE5 SHL DUP2 MSTORE DUP1 DUP7 ADD DUP8 SWAP1 MSTORE PUSH1 0x13 DUP2 DUP7 ADD MSTORE PUSH19 0x19995959081B9BDD081C9959DA5CDD195C9959 PUSH1 0x6A SHL PUSH1 0x44 DUP3 ADD MSTORE PUSH1 0x64 SWAP1 REVERT JUMPDEST ADD MLOAD AND SWAP1 POP DUP2 DUP9 CODESIZE PUSH2 0x2F7 JUMP JUMPDEST DUP8 MLOAD PUSH3 0x461BCD PUSH1 0xE5 SHL DUP2 MSTORE DUP1 DUP8 ADD DUP9 SWAP1 MSTORE PUSH1 0xD DUP2 DUP8 ADD MSTORE PUSH13 0x6E6F7420636861696E6C696E6B PUSH1 0x98 SHL PUSH1 0x44 DUP3 ADD MSTORE PUSH1 0x64 SWAP1 REVERT JUMPDEST PUSH4 0x4E487B71 PUSH1 0xE0 SHL DUP13 MSTORE PUSH1 0x21 DUP8 MSTORE DUP6 DUP13 REVERT JUMPDEST PUSH2 0x5E8 SWAP2 POP DUP11 RETURNDATASIZE DUP13 GT PUSH2 0x422 JUMPI PUSH2 0x413 DUP2 DUP4 PUSH2 0x76A JUMP JUMPDEST CODESIZE PUSH2 0x2C7 JUMP JUMPDEST POP PUSH1 0x11 SWAP2 SWAP3 PUSH1 0x64 SWAP5 MLOAD SWAP4 PUSH3 0x461BCD PUSH1 0xE5 SHL DUP6 MSTORE DUP5 ADD MSTORE DUP3 ADD MSTORE PUSH17 0x1D5C1AD9595C081B9BDD081B9959591959 PUSH1 0x7A SHL PUSH1 0x44 DUP3 ADD MSTORE REVERT JUMPDEST PUSH2 0x63F SWAP2 POP RETURNDATASIZE DUP1 DUP12 DUP4 RETURNDATACOPY PUSH2 0x637 DUP2 DUP4 PUSH2 0x76A JUMP JUMPDEST DUP2 ADD SWAP1 PUSH2 0x7AF JUMP JUMPDEST POP CODESIZE PUSH2 0x294 JUMP JUMPDEST DUP7 MLOAD RETURNDATASIZE DUP12 DUP3 RETURNDATACOPY RETURNDATASIZE SWAP1 REVERT JUMPDEST DUP5 DUP1 REVERT JUMPDEST SWAP1 POP CALLVALUE PUSH2 0x1BE JUMPI PUSH1 0x20 CALLDATASIZE PUSH1 0x3 NOT ADD SLT PUSH2 0x1BE JUMPI CALLDATALOAD DUP3 MSTORE PUSH1 0x1 PUSH1 0x20 SWAP1 DUP2 MSTORE SWAP2 DUP2 SWAP1 KECCAK256 SLOAD SWAP1 MLOAD PUSH1 0x1 PUSH1 0x1 PUSH1 0xA0 SHL SUB SWAP1 SWAP2 AND DUP2 MSTORE RETURN JUMPDEST DUP5 DUP5 CALLVALUE PUSH2 0xB4 JUMPI CALLDATASIZE PUSH1 0x3 NOT ADD SLT PUSH2 0x213 JUMPI POP PUSH1 0x20 PUSH1 0x64 SWAP3 PUSH2 0x6A6 PUSH2 0x6E2 JUMP JUMPDEST POP PUSH3 0x461BCD PUSH1 0xE5 SHL DUP4 MSTORE DUP3 ADD MSTORE PUSH1 0x19 PUSH1 0x24 DUP3 ADD MSTORE PUSH32 0x72656769737465724D61726B6574206465707265636174656400000000000000 PUSH1 0x44 DUP3 ADD MSTORE REVERT JUMPDEST PUSH1 0x24 CALLDATALOAD SWAP1 PUSH1 0x1 PUSH1 0x1 PUSH1 0xA0 SHL SUB DUP3 AND DUP3 SUB PUSH2 0x6F8 JUMPI JUMP JUMPDEST PUSH1 0x0 DUP1 REVERT JUMPDEST SWAP1 PUSH1 0x20 PUSH1 0x3 NOT DUP4 ADD SLT PUSH2 0x6F8 JUMPI PUSH1 0x4 CALLDATALOAD PUSH8 0xFFFFFFFFFFFFFFFF SWAP3 DUP4 DUP3 GT PUSH2 0x6F8 JUMPI DUP1 PUSH1 0x23 DUP4 ADD SLT ISZERO PUSH2 0x6F8 JUMPI DUP2 PUSH1 0x4 ADD CALLDATALOAD SWAP4 DUP5 GT PUSH2 0x6F8 JUMPI PUSH1 0x24 DUP5 DUP4 ADD ADD GT PUSH2 0x6F8 JUMPI PUSH1 0x24 ADD SWAP2 SWAP1 JUMP JUMPDEST PUSH1 0x0 JUMPDEST DUP4 DUP2 LT PUSH2 0x75A JUMPI POP POP PUSH1 0x0 SWAP2 ADD MSTORE JUMP JUMPDEST DUP2 DUP2 ADD MLOAD DUP4 DUP3 ADD MSTORE PUSH1 0x20 ADD PUSH2 0x74A JUMP JUMPDEST SWAP1 PUSH1 0x1F DUP1 NOT SWAP2 ADD AND DUP2 ADD SWAP1 DUP2 LT PUSH8 0xFFFFFFFFFFFFFFFF DUP3 GT OR PUSH2 0x78C JUMPI PUSH1 0x40 MSTORE JUMP JUMPDEST PUSH4 0x4E487B71 PUSH1 0xE0 SHL PUSH1 0x0 MSTORE PUSH1 0x41 PUSH1 0x4 MSTORE PUSH1 0x24 PUSH1 0x0 REVERT JUMPDEST MLOAD SWAP1 DUP2 ISZERO ISZERO DUP3 SUB PUSH2 0x6F8 JUMPI JUMP JUMPDEST SWAP2 SWAP1 PUSH1 0x40 DUP4 DUP3 SUB SLT PUSH2 0x6F8 JUMPI PUSH2 0x7C4 DUP4 PUSH2 0x7A2 JUMP JUMPDEST SWAP3 PUSH1 0x20 DUP2 ADD MLOAD PUSH8 0xFFFFFFFFFFFFFFFF SWAP2 DUP3 DUP3 GT PUSH2 0x6F8 JUMPI ADD SWAP1 DUP3 PUSH1 0x1F DUP4 ADD SLT ISZERO PUSH2 0x6F8 JUMPI DUP2 MLOAD SWAP1 DUP2 GT PUSH2 0x78C JUMPI PUSH1 0x40 MLOAD SWAP3 PUSH2 0x809 PUSH1 0x1F DUP4 ADD PUSH1 0x1F NOT AND PUSH1 0x20 ADD DUP6 PUSH2 0x76A JUMP JUMPDEST DUP2 DUP5 MSTORE PUSH1 0x20 DUP3 DUP5 ADD ADD GT PUSH2 0x6F8 JUMPI PUSH2 0x827 SWAP2 PUSH1 0x20 DUP1 DUP6 ADD SWAP2 ADD PUSH2 0x747 JUMP JUMPDEST SWAP1 JUMP JUMPDEST DUP1 SWAP2 PUSH2 0x100 SWAP3 DUP4 SWAP2 SUB SLT PUSH2 0x6F8 JUMPI PUSH1 0x40 MLOAD SWAP2 DUP3 ADD DUP3 DUP2 LT PUSH8 0xFFFFFFFFFFFFFFFF DUP3 GT OR PUSH2 0x78C JUMPI PUSH1 0x40 MSTORE DUP1 MLOAD DUP3 MSTORE PUSH1 0x20 DUP2 ADD MLOAD PUSH1 0x3 DUP2 LT ISZERO PUSH2 0x6F8 JUMPI PUSH1 0x20 DUP4 ADD MSTORE PUSH1 0x40 DUP2 ADD MLOAD PUSH1 0x1 PUSH1 0x1 PUSH1 0xA0 SHL SUB DUP2 AND DUP2 SUB PUSH2 0x6F8 JUMPI PUSH1 0x40 DUP4 ADD MSTORE PUSH1 0x60 DUP2 ADD MLOAD PUSH1 0x60 DUP4 ADD MSTORE PUSH1 0x80 DUP2 ADD MLOAD PUSH1 0x80 DUP4 ADD MSTORE PUSH1 0xA0 DUP2 ADD MLOAD PUSH1 0x3 DUP2 LT ISZERO PUSH2 0x6F8 JUMPI PUSH2 0x8CA SWAP2 PUSH1 0xE0 SWAP2 PUSH1 0xA0 DUP6 ADD MSTORE PUSH2 0x8BF PUSH1 0xC0 DUP3 ADD PUSH2 0x7A2 JUMP JUMPDEST PUSH1 0xC0 DUP6 ADD MSTORE ADD PUSH2 0x7A2 JUMP JUMPDEST PUSH1 0xE0 DUP3 ADD MSTORE SWAP1 JUMP JUMPDEST PUSH1 0x1 SWAP2 DUP1 PUSH2 0xA53 JUMPI JUMPDEST POP POP PUSH1 0x40 DUP1 MLOAD PUSH4 0x764BC841 PUSH1 0xE1 SHL DUP2 MSTORE SWAP1 SWAP3 SWAP1 SWAP2 PUSH32 0x0 PUSH1 0x1 PUSH1 0x1 PUSH1 0xA0 SHL SUB AND SWAP1 PUSH1 0x4 SWAP1 PUSH1 0x20 DUP6 DUP4 DUP2 DUP7 GAS STATICCALL SWAP5 DUP6 ISZERO PUSH2 0xA48 JUMPI PUSH1 0x0 SWAP6 PUSH2 0xA14 JUMPI JUMPDEST POP PUSH1 0x32 DUP2 ADD SWAP5 DUP6 DUP3 GT PUSH2 0x9FE JUMPI DUP1 DUP7 GT PUSH2 0x9E9 JUMPI JUMPDEST POP JUMPDEST DUP5 DUP2 LT PUSH2 0x97D JUMPI POP POP POP SWAP1 POP PUSH1 0x0 SWAP2 DUP1 MLOAD SWAP1 PUSH1 0x20 DUP3 ADD SWAP1 DUP3 DUP3 LT PUSH8 0xFFFFFFFFFFFFFFFF DUP4 GT OR PUSH2 0x78C JUMPI MSTORE PUSH1 0x0 DUP2 MSTORE SWAP1 JUMP JUMPDEST DUP6 MLOAD PUSH4 0x7BE99A5D PUSH1 0xE1 SHL DUP2 MSTORE DUP3 DUP2 ADD DUP3 SWAP1 MSTORE PUSH1 0x0 DUP2 PUSH1 0x24 DUP2 DUP8 GAS STATICCALL SWAP1 DUP2 ISZERO PUSH2 0x9DE JUMPI PUSH1 0x0 SWAP1 DUP2 SWAP3 PUSH2 0x9C2 JUMPI JUMPDEST POP PUSH2 0x9B7 JUMPI POP PUSH1 0x1 ADD PUSH2 0x94B JUMP JUMPDEST PUSH1 0x1 SWAP7 POP SWAP5 POP POP POP POP JUMP JUMPDEST SWAP1 PUSH2 0x9D7 SWAP3 POP RETURNDATASIZE DUP1 SWAP2 DUP4 RETURNDATACOPY PUSH2 0x637 DUP2 DUP4 PUSH2 0x76A JUMP JUMPDEST SWAP1 CODESIZE PUSH2 0x9A9 JUMP JUMPDEST DUP8 MLOAD RETURNDATASIZE PUSH1 0x0 DUP3 RETURNDATACOPY RETURNDATASIZE SWAP1 REVERT JUMPDEST SWAP1 SWAP5 POP PUSH1 0x1 DUP2 ADD DUP1 SWAP2 GT PUSH2 0x9FE JUMPI SWAP4 CODESIZE PUSH2 0x949 JUMP JUMPDEST PUSH4 0x4E487B71 PUSH1 0xE0 SHL PUSH1 0x0 MSTORE PUSH1 0x11 PUSH1 0x4 MSTORE PUSH1 0x24 PUSH1 0x0 REVERT JUMPDEST SWAP1 SWAP5 PUSH1 0x20 DUP3 RETURNDATASIZE PUSH1 0x20 GT PUSH2 0xA40 JUMPI JUMPDEST DUP2 PUSH2 0xA2F PUSH1 0x20 SWAP4 DUP4 PUSH2 0x76A JUMP JUMPDEST DUP2 ADD SUB SLT PUSH2 0x213 JUMPI POP MLOAD SWAP4 CODESIZE PUSH2 0x934 JUMP JUMPDEST RETURNDATASIZE SWAP2 POP PUSH2 0xA22 JUMP JUMPDEST DUP7 MLOAD RETURNDATASIZE PUSH1 0x0 DUP3 RETURNDATACOPY RETURNDATASIZE SWAP1 REVERT JUMPDEST DUP2 SWAP3 POP SWAP1 PUSH1 0x20 SWAP2 DUP2 ADD SUB SLT PUSH2 0x6F8 JUMPI CALLDATALOAD CODESIZE DUP1 PUSH2 0x8DB JUMP JUMPDEST MLOAD SWAP1 PUSH10 0xFFFFFFFFFFFFFFFFFFFF DUP3 AND DUP3 SUB PUSH2 0x6F8 JUMPI JUMP JUMPDEST ISZERO PUSH2 0xA88 JUMPI JUMP JUMPDEST PUSH1 0x40 MLOAD PUSH3 0x461BCD PUSH1 0xE5 SHL DUP2 MSTORE PUSH1 0x20 PUSH1 0x4 DUP3 ADD MSTORE PUSH1 0xA PUSH1 0x24 DUP3 ADD MSTORE PUSH10 0x7374616C652064617461 PUSH1 0xB0 SHL PUSH1 0x44 DUP3 ADD MSTORE PUSH1 0x64 SWAP1 REVERT INVALID LOG2 PUSH5 0x6970667358 0x22 SLT KECCAK256 EXP 0xCC DUP13 PUSH11 0x6A73588476EF478F38DCB3 PREVRANDAO TSTORE 0xB4 PUSH11 0x5D06EE65D3F607A69A066D 0xA8 0xDC PUSH5 0x736F6C6343 STOP ADDMOD XOR STOP CALLER "},"methodIdentifiers":{"checkUpkeep(bytes)":"6e04ff0d","core()":"f2f4eb26","globalFeeds(bytes32)":"26ef8c8a","owner()":"8da5cb5b","performUpkeep(bytes)":"4585e33b","registerMarket(uint256,address)":"15d8b4b1","setGlobalFeed(bytes32,address)":"73330f46"}}}}}