{"contracts/src/SpeculateCore.sol":{"SpeculateCore":{"abi":[{"inputs":[{"internalType":"address","name":"_usdc","type":"address"},{"internalType":"address","name":"_treasury","type":"address"}],"stateMutability":"nonpayable","type":"constructor"},{"inputs":[],"name":"AccessControlBadConfirmation","type":"error"},{"inputs":[{"internalType":"address","name":"account","type":"address"},{"internalType":"bytes32","name":"neededRole","type":"bytes32"}],"name":"AccessControlUnauthorizedAccount","type":"error"},{"inputs":[],"name":"ReentrancyGuardReentrantCall","type":"error"},{"inputs":[{"internalType":"address","name":"token","type":"address"}],"name":"SafeERC20FailedOperation","type":"error"},{"anonymous":false,"inputs":[{"indexed":true,"internalType":"uint256","name":"id","type":"uint256"},{"indexed":true,"internalType":"address","name":"user","type":"address"},{"indexed":false,"internalType":"uint256","name":"usdcIn","type":"uint256"},{"indexed":false,"internalType":"uint256","name":"tokensOut","type":"uint256"},{"indexed":false,"internalType":"uint256","name":"avgPriceE6","type":"uint256"}],"name":"BuyNo","type":"event"},{"anonymous":false,"inputs":[{"indexed":true,"internalType":"uint256","name":"id","type":"uint256"},{"indexed":true,"internalType":"address","name":"user","type":"address"},{"indexed":false,"internalType":"uint256","name":"usdcIn","type":"uint256"},{"indexed":false,"internalType":"uint256","name":"tokensOut","type":"uint256"},{"indexed":false,"internalType":"uint256","name":"avgPriceE6","type":"uint256"}],"name":"BuyYes","type":"event"},{"anonymous":false,"inputs":[{"indexed":true,"internalType":"uint256","name":"id","type":"uint256"},{"indexed":true,"internalType":"address","name":"trader","type":"address"},{"indexed":false,"internalType":"uint256","name":"feeT","type":"uint256"},{"indexed":false,"internalType":"uint256","name":"feeV","type":"uint256"},{"indexed":false,"internalType":"uint256","name":"feeL","type":"uint256"},{"indexed":false,"internalType":"bool","name":"isBuy","type":"bool"}],"name":"FeeCollected","type":"event"},{"anonymous":false,"inputs":[{"indexed":true,"internalType":"uint256","name":"id","type":"uint256"},{"indexed":false,"internalType":"address","name":"yes","type":"address"},{"indexed":false,"internalType":"address","name":"no","type":"address"},{"indexed":false,"internalType":"string","name":"question","type":"string"},{"indexed":false,"internalType":"uint256","name":"usdcVault","type":"uint256"},{"indexed":false,"internalType":"uint256","name":"expiryTimestamp","type":"uint256"}],"name":"MarketCreated","type":"event"},{"anonymous":false,"inputs":[{"indexed":true,"internalType":"uint256","name":"id","type":"uint256"},{"indexed":false,"internalType":"bool","name":"yesWins","type":"bool"},{"indexed":false,"internalType":"uint256","name":"resolvedPrice","type":"uint256"}],"name":"MarketResolved","type":"event"},{"anonymous":false,"inputs":[{"indexed":true,"internalType":"uint256","name":"id","type":"uint256"},{"indexed":true,"internalType":"address","name":"user","type":"address"},{"indexed":false,"internalType":"bool","name":"isYes","type":"bool"},{"indexed":false,"internalType":"uint256","name":"tokensIn","type":"uint256"},{"indexed":false,"internalType":"uint256","name":"usdcOut","type":"uint256"}],"name":"Redeemed","type":"event"},{"anonymous":false,"inputs":[{"indexed":true,"internalType":"bytes32","name":"role","type":"bytes32"},{"indexed":true,"internalType":"bytes32","name":"previousAdminRole","type":"bytes32"},{"indexed":true,"internalType":"bytes32","name":"newAdminRole","type":"bytes32"}],"name":"RoleAdminChanged","type":"event"},{"anonymous":false,"inputs":[{"indexed":true,"internalType":"bytes32","name":"role","type":"bytes32"},{"indexed":true,"internalType":"address","name":"account","type":"address"},{"indexed":true,"internalType":"address","name":"sender","type":"address"}],"name":"RoleGranted","type":"event"},{"anonymous":false,"inputs":[{"indexed":true,"internalType":"bytes32","name":"role","type":"bytes32"},{"indexed":true,"internalType":"address","name":"account","type":"address"},{"indexed":true,"internalType":"address","name":"sender","type":"address"}],"name":"RoleRevoked","type":"event"},{"anonymous":false,"inputs":[{"indexed":true,"internalType":"uint256","name":"id","type":"uint256"},{"indexed":true,"internalType":"address","name":"user","type":"address"},{"indexed":false,"internalType":"uint256","name":"tokensIn","type":"uint256"},{"indexed":false,"internalType":"uint256","name":"usdcOut","type":"uint256"},{"indexed":false,"internalType":"uint256","name":"avgPriceE6","type":"uint256"}],"name":"SellNo","type":"event"},{"anonymous":false,"inputs":[{"indexed":true,"internalType":"uint256","name":"id","type":"uint256"},{"indexed":true,"internalType":"address","name":"user","type":"address"},{"indexed":false,"internalType":"uint256","name":"tokensIn","type":"uint256"},{"indexed":false,"internalType":"uint256","name":"usdcOut","type":"uint256"},{"indexed":false,"internalType":"uint256","name":"avgPriceE6","type":"uint256"}],"name":"SellYes","type":"event"},{"inputs":[],"name":"DEFAULT_ADMIN_ROLE","outputs":[{"internalType":"bytes32","name":"","type":"bytes32"}],"stateMutability":"view","type":"function"},{"inputs":[],"name":"MARKET_CREATOR_ROLE","outputs":[{"internalType":"bytes32","name":"","type":"bytes32"}],"stateMutability":"view","type":"function"},{"inputs":[],"name":"MAX_USDC_PER_TRADE","outputs":[{"internalType":"uint256","name":"","type":"uint256"}],"stateMutability":"view","type":"function"},{"inputs":[{"internalType":"uint256","name":"id","type":"uint256"},{"internalType":"uint256","name":"usdcIn","type":"uint256"},{"internalType":"uint256","name":"minOut","type":"uint256"}],"name":"buyNo","outputs":[],"stateMutability":"nonpayable","type":"function"},{"inputs":[{"internalType":"uint256","name":"id","type":"uint256"},{"internalType":"uint256","name":"usdcIn","type":"uint256"},{"internalType":"uint256","name":"minOut","type":"uint256"}],"name":"buyYes","outputs":[],"stateMutability":"nonpayable","type":"function"},{"inputs":[],"name":"chainlinkResolver","outputs":[{"internalType":"address","name":"","type":"address"}],"stateMutability":"view","type":"function"},{"inputs":[{"internalType":"uint256","name":"id","type":"uint256"}],"name":"checkUpkeep","outputs":[{"internalType":"bool","name":"","type":"bool"},{"internalType":"bytes","name":"","type":"bytes"}],"stateMutability":"view","type":"function"},{"inputs":[{"internalType":"string","name":"question","type":"string"},{"internalType":"string","name":"yesName","type":"string"},{"internalType":"string","name":"yesSymbol","type":"string"},{"internalType":"string","name":"noName","type":"string"},{"internalType":"string","name":"noSymbol","type":"string"},{"internalType":"uint256","name":"","type":"uint256"},{"internalType":"uint16","name":"feeBps","type":"uint16"},{"internalType":"uint16","name":"maxTradeBps","type":"uint16"},{"internalType":"uint256","name":"initUsdc","type":"uint256"},{"internalType":"uint256","name":"expiryTimestamp","type":"uint256"},{"internalType":"enum SpeculateCore.OracleType","name":"oracleType","type":"uint8"},{"internalType":"address","name":"oracleAddress","type":"address"},{"internalType":"bytes32","name":"priceFeedId","type":"bytes32"},{"internalType":"uint256","name":"targetValue","type":"uint256"},{"internalType":"enum SpeculateCore.Comparison","name":"comparison","type":"uint8"}],"name":"createMarket","outputs":[{"internalType":"uint256","name":"id","type":"uint256"}],"stateMutability":"nonpayable","type":"function"},{"inputs":[{"internalType":"uint256","name":"id","type":"uint256"}],"name":"getMarketResolution","outputs":[{"components":[{"internalType":"uint256","name":"expiryTimestamp","type":"uint256"},{"internalType":"enum SpeculateCore.OracleType","name":"oracleType","type":"uint8"},{"internalType":"address","name":"oracleAddress","type":"address"},{"internalType":"bytes32","name":"priceFeedId","type":"bytes32"},{"internalType":"uint256","name":"targetValue","type":"uint256"},{"internalType":"enum SpeculateCore.Comparison","name":"comparison","type":"uint8"},{"internalType":"bool","name":"yesWins","type":"bool"},{"internalType":"bool","name":"isResolved","type":"bool"}],"internalType":"struct SpeculateCore.ResolutionConfig","name":"","type":"tuple"}],"stateMutability":"view","type":"function"},{"inputs":[{"internalType":"uint256","name":"id","type":"uint256"}],"name":"getPriceNo","outputs":[{"internalType":"uint256","name":"","type":"uint256"}],"stateMutability":"view","type":"function"},{"inputs":[{"internalType":"uint256","name":"id","type":"uint256"}],"name":"getPriceYes","outputs":[{"internalType":"uint256","name":"","type":"uint256"}],"stateMutability":"view","type":"function"},{"inputs":[{"internalType":"bytes32","name":"role","type":"bytes32"}],"name":"getRoleAdmin","outputs":[{"internalType":"bytes32","name":"","type":"bytes32"}],"stateMutability":"view","type":"function"},{"inputs":[{"internalType":"address","name":"a","type":"address"}],"name":"grantMarketCreator","outputs":[],"stateMutability":"nonpayable","type":"function"},{"inputs":[{"internalType":"bytes32","name":"role","type":"bytes32"},{"internalType":"address","name":"account","type":"address"}],"name":"grantRole","outputs":[],"stateMutability":"nonpayable","type":"function"},{"inputs":[{"internalType":"bytes32","name":"role","type":"bytes32"},{"internalType":"address","name":"account","type":"address"}],"name":"hasRole","outputs":[{"internalType":"bool","name":"","type":"bool"}],"stateMutability":"view","type":"function"},{"inputs":[],"name":"marketCount","outputs":[{"internalType":"uint256","name":"","type":"uint256"}],"stateMutability":"view","type":"function"},{"inputs":[{"internalType":"uint256","name":"","type":"uint256"}],"name":"markets","outputs":[{"internalType":"contract PositionToken","name":"yes","type":"address"},{"internalType":"contract PositionToken","name":"no","type":"address"},{"internalType":"uint256","name":"qYes","type":"uint256"},{"internalType":"uint256","name":"qNo","type":"uint256"},{"internalType":"uint256","name":"usdcVault","type":"uint256"},{"internalType":"uint256","name":"totalPairsUSDC","type":"uint256"},{"internalType":"uint256","name":"bE18","type":"uint256"},{"internalType":"uint16","name":"feeTreasuryBps","type":"uint16"},{"internalType":"uint16","name":"feeVaultBps","type":"uint16"},{"internalType":"uint16","name":"feeLpBps","type":"uint16"},{"internalType":"uint16","name":"maxTradeBps","type":"uint16"},{"internalType":"enum SpeculateCore.MarketStatus","name":"status","type":"uint8"},{"internalType":"bool","name":"exists","type":"bool"},{"internalType":"bool","name":"sellFees","type":"bool"},{"internalType":"string","name":"question","type":"string"},{"internalType":"address","name":"lp","type":"address"},{"components":[{"internalType":"uint256","name":"expiryTimestamp","type":"uint256"},{"internalType":"enum SpeculateCore.OracleType","name":"oracleType","type":"uint8"},{"internalType":"address","name":"oracleAddress","type":"address"},{"internalType":"bytes32","name":"priceFeedId","type":"bytes32"},{"internalType":"uint256","name":"targetValue","type":"uint256"},{"internalType":"enum SpeculateCore.Comparison","name":"comparison","type":"uint8"},{"internalType":"bool","name":"yesWins","type":"bool"},{"internalType":"bool","name":"isResolved","type":"bool"}],"internalType":"struct SpeculateCore.ResolutionConfig","name":"resolution","type":"tuple"}],"stateMutability":"view","type":"function"},{"inputs":[{"internalType":"uint256","name":"id","type":"uint256"},{"internalType":"bool","name":"isYes","type":"bool"},{"internalType":"uint256","name":"tokensIn","type":"uint256"}],"name":"redeem","outputs":[],"stateMutability":"nonpayable","type":"function"},{"inputs":[{"internalType":"bytes32","name":"role","type":"bytes32"},{"internalType":"address","name":"callerConfirmation","type":"address"}],"name":"renounceRole","outputs":[],"stateMutability":"nonpayable","type":"function"},{"inputs":[{"internalType":"uint256","name":"id","type":"uint256"},{"internalType":"bool","name":"yesWins","type":"bool"}],"name":"resolveMarket","outputs":[],"stateMutability":"nonpayable","type":"function"},{"inputs":[{"internalType":"uint256","name":"id","type":"uint256"},{"internalType":"uint256","name":"price","type":"uint256"}],"name":"resolveMarketWithPrice","outputs":[],"stateMutability":"nonpayable","type":"function"},{"inputs":[{"internalType":"bytes32","name":"role","type":"bytes32"},{"internalType":"address","name":"account","type":"address"}],"name":"revokeRole","outputs":[],"stateMutability":"nonpayable","type":"function"},{"inputs":[{"internalType":"uint256","name":"id","type":"uint256"},{"internalType":"uint256","name":"tokensIn","type":"uint256"},{"internalType":"uint256","name":"minOut","type":"uint256"}],"name":"sellNo","outputs":[],"stateMutability":"nonpayable","type":"function"},{"inputs":[{"internalType":"uint256","name":"id","type":"uint256"},{"internalType":"uint256","name":"tokensIn","type":"uint256"},{"internalType":"uint256","name":"minOut","type":"uint256"}],"name":"sellYes","outputs":[],"stateMutability":"nonpayable","type":"function"},{"inputs":[{"internalType":"uint256","name":"id","type":"uint256"},{"internalType":"uint16","name":"t","type":"uint16"},{"internalType":"uint16","name":"v","type":"uint16"},{"internalType":"uint16","name":"l","type":"uint16"},{"internalType":"bool","name":"sf","type":"bool"}],"name":"setAllFees","outputs":[],"stateMutability":"nonpayable","type":"function"},{"inputs":[{"internalType":"address","name":"a","type":"address"}],"name":"setChainlinkResolver","outputs":[],"stateMutability":"nonpayable","type":"function"},{"inputs":[{"internalType":"address","name":"a","type":"address"}],"name":"setTreasury","outputs":[],"stateMutability":"nonpayable","type":"function"},{"inputs":[{"internalType":"uint256","name":"id","type":"uint256"}],"name":"spotPriceNoE6","outputs":[{"internalType":"uint256","name":"","type":"uint256"}],"stateMutability":"view","type":"function"},{"inputs":[{"internalType":"uint256","name":"id","type":"uint256"}],"name":"spotPriceYesE18","outputs":[{"internalType":"uint256","name":"","type":"uint256"}],"stateMutability":"view","type":"function"},{"inputs":[{"internalType":"uint256","name":"id","type":"uint256"}],"name":"spotPriceYesE6","outputs":[{"internalType":"uint256","name":"","type":"uint256"}],"stateMutability":"view","type":"function"},{"inputs":[{"internalType":"bytes4","name":"interfaceId","type":"bytes4"}],"name":"supportsInterface","outputs":[{"internalType":"bool","name":"","type":"bool"}],"stateMutability":"view","type":"function"},{"inputs":[],"name":"treasury","outputs":[{"internalType":"address","name":"","type":"address"}],"stateMutability":"view","type":"function"},{"inputs":[],"name":"usdc","outputs":[{"internalType":"contract IERC20","name":"","type":"address"}],"stateMutability":"view","type":"function"}],"evm":{"bytecode":{"linkReferences":{},"object":"60a0346200012d57601f620046fa38819003918201601f19168301916001600160401b03831184841017620001325780849260409485528339810103126200012d576200005a6020620000528362000148565b920162000148565b600180556001600160a01b039182168015158062000121575b15620000f6576080521660018060a01b0319600254161760025562000098336200015d565b50620000a433620001dd565b5060405161445a908162000280823960805181818161027c0152818161071d015281816109c801528181610d3c01528181610dbe01528181610e07015281816119ec01528181611f9c01526122690152f35b606460405162461bcd60e51b81526020600482015260046024820152637a65726f60e01b6044820152fd5b50828216151562000073565b600080fd5b634e487b7160e01b600052604160045260246000fd5b51906001600160a01b03821682036200012d57565b6001600160a01b031660008181527fad3228b676f7d3cd4284a5443f17f1962b36e491b30a40b2405849e597ba5fb5602052604081205490919060ff16620001d957818052816020526040822081835260205260408220600160ff198254161790553391600080516020620046da8339815191528180a4600190565b5090565b6001600160a01b031660008181527f2412b2af58bf3b93d578a423d333d33fb94fb5093f9cda1aed2eaafb3215f92960205260408120549091907fd3065a24ad9e7725d223007135762d2902038999e3e5829146654498a58d97959060ff166200027a57808352826020526040832082845260205260408320600160ff19825416179055600080516020620046da833981519152339380a4600190565b50509056fe60808060405260043610156200001457600080fd5b600090813560e01c90816301ffc9a7146200245357508063047efcf3146200234e57806316fe69291462002108578063232e45d7146200208d578063248a9ca3146200205f5780632f2ff15d146200201a57806336568abe1462001fcb5780633e413bee1462001f8457806343abd9ea1462001f6257806357bde4461462001e8e57806361d027b31462001e635780636ad6c2541462001e385780637f8a3f8c1462001e0d57806391d148541462001dc1578063a217fddf1462001da3578063a27a4186146200134f578063ae42820c1462001323578063b06ea2eb14620012f1578063b1283e771462001102578063b4fb88b71462000eae578063bad260f514620010bc578063cab7cde91462000f3a578063d46a77211462000ea8578063d547741f1462000ef1578063de62967d1462000eae578063dfe0662a1462000ea8578063dffad4e21462000b12578063e43f80a514620008ba578063ea1758941462000675578063ec9790821462000655578063f0f44260146200060f578063f7d334ba14620004fd5763fb27260b14620001ae57600080fd5b34620004d057620001bf36620024bd565b620001cc929192620029bc565b60008281526003602052604081209060078201549060ff8260481c1680620004e3575b80620004d3575b15620004d05761ffff906127106200023781620002168686168b620028f9565b0493826200022a828860101c168c620028f9565b049560201c1689620028f9565b049162000255836200024f866200024f858d6200292e565b6200292e565b9264e8d4a510009485850294808604871481151715620004bc5781620002e4918c620002a57f00000000000000000000000000000000000000000000000000000000000000009130338462002d02565b866200049c575b858015158062000485575b62000461575b5050620002cb8282620027c7565b620002dc60048c01918254620027c7565b9055620027c7565b620002f560058901918254620027c7565b90556040519283526020830152604082015260016060820152867ff749f7bfd284883f652d37eb7d9972c4147ace6c383f5271e74efaa7e6de51f460803393a36200035260028501928354906003870154600688015492620030c7565b9384156200045d57546001600160a01b0316803b156200045d576040516340c10f1960e01b8152336004820152602481018690529082908290604490829084905af18015620004525762000440575b5090620003b0848254620027c7565b9055670de0b6b3a7640000908187029187830414871517156200042c57508291620004027ffb9b8b4ed1cd716f83a12f09d326e2639a0a8544566f6554a54fa17e45b18e6a95946200040d936200290d565b04928210156200278f565b6040805195865260208601919091528401523392606090a36001805580f35b634e487b7160e01b81526011600452602490fd5b6200044b90620025b2565b38620003a1565b6040513d84823e3d90fd5b5080fd5b60098c01546200047d926001600160a01b039091169062002d5f565b3885620002bd565b5060098c01546001600160a01b03161515620002b7565b600254620004b69088906001600160a01b03168362002d5f565b620002ac565b634e487b7160e01b85526011600452602485fd5b80fd5b5064174876e800861115620001f6565b5060ff8260401c16620004f681620024d8565b15620001ef565b5034620004d0576020366003190112620004d0576040600435918281526003602052209060078201549160ff8360481c169283620005f2575b5082620005de575b82620005ce575b82620005af575b506040519060208201526020815260408101918183106001600160401b038411176200059957826040521515825260406060820152603f199062000594608082018262002705565b030190f35b634e487b7160e01b600052604160045260246000fd5b60ff919250600b015416620005c481620024d8565b151590386200054c565b600a810154421015925062000545565b600e81015460101c60ff161592506200053e565b60ff91935060401c166200060681620024d8565b15913862000536565b5034620004d0576020366003190112620004d0576200062d6200257e565b620006376200293c565b60018060a01b03166001600160601b0360a01b600254161760025580f35b5034620004d05780600319360112620004d0576020600454604051908152f35b5034620004d0576200068736620024bd565b62000694929192620029bc565b60008281526003602052604081209060078201549060ff8260481c1680620008a0575b8062000890575b15620004d05761ffff90612710620006de81620002168686168b620028f9565b0491620006f6836200024f866200024f858d6200292e565b9264e8d4a510009485850294808604871481151715620004bc578162000746918c620002a57f00000000000000000000000000000000000000000000000000000000000000009130338462002d02565b6200075760058901918254620027c7565b90556040519283526020830152604082015260016060820152867ff749f7bfd284883f652d37eb7d9972c4147ace6c383f5271e74efaa7e6de51f460803393a390620007b560038501918254906002870154600688015492620030c7565b9384156200088b57600101546001600160a01b0316803b156200088b576040516340c10f1960e01b815233600482015260248101869052906000908290604490829084905af180156200087f5762000868575b5062000816848254620027c7565b9055670de0b6b3a7640000908187029187830414871517156200042c57508291620004027f256e0661fb6a98af4e43f60406497386f05cabeea9ac420f267c07a2093f87f195946200040d936200290d565b62000875919250620025b2565b6000903862000808565b6040513d6000823e3d90fd5b600080fd5b5064174876e800861115620006be565b5060ff8260401c16620008b381620024d8565b15620006b7565b5034620004d0576060366003190112620004d057600435620008db620024ad565b90604435620008e9620029bc565b8184526003602052604084209060ff600783015460481c168062000b00575b8062000af6575b8062000ade575b1562000a5757831562000a5b578460018060a01b036200093e83828654163090339062002d02565b835416803b156200045d57604051632770a7eb60e21b8152306004820152602481018490529082908290604490829084905af18015620004525762000a3f575b50505b64e8d4a510008104918215158062000a30575b1562000a2c5780600460059201620009ae8582546200292e565b905501620009be8382546200292e565b9055620009ed82337f000000000000000000000000000000000000000000000000000000000000000062002d5f565b6040519315158452602084015260408301527f4a82a8ccecb91df0e60674cc35673e8d01bc676c08474929b9fec55fa34c031860603393a36001805580f35b8580fd5b50600481015483111562000994565b62000a4a90620025b2565b62000a575784386200097e565b8480fd5b60018201805486916001600160a01b039162000a7f90859030903390861662002d02565b5416803b156200045d57604051632770a7eb60e21b8152306004820152602481018490529082908290604490829084905af18015620004525762000ac6575b505062000981565b62000ad190620025b2565b62000a5757843862000abe565b5060ff600e83015460081c1615158415151462000916565b508015156200090f565b5060ff600e83015460101c1662000908565b5034620004d05762000b2436620024bd565b62000b31929192620029bc565b60008083825260036020526040822060078101805460ff8160481c16908162000e8d575b508062000e83575b1562000e7f576002820180546003840154818a1162000e7b579062000bb88594939262000bb160068d9998015462000b9781848762002da4565b9262000bab64e8d4a510009b8c976200292e565b62002da4565b906200292e565b049160048401918254841162000e775784546001600160a01b03989062000be7908d90309033908d1662002d02565b88865416803b156200045d57604051632770a7eb60e21b8152306004820152602481018e90529082908290604490829084905af18015620004525762000e60575b505062000c378b82546200292e565b9055805460501c60ff161562000e325762000d31926005926200024f62000d2693549262000cac612710916200024f61ffff968462000c7989831685620028f9565b04958562000ca2889762000c938c8660101c1688620028f9565b049a8b9460201c1686620028f9565b049586946200292e565b9a8262000dfb575b818015158062000deb575b62000db1575b505060405191825283602083015260408201528760608201528b7ff749f7bfd284883f652d37eb7d9972c4147ace6c383f5271e74efaa7e6de51f460803393a362000d1d62000d15838b620027c7565b82546200292e565b905587620027c7565b92019182546200292e565b90555b62000d6183337f000000000000000000000000000000000000000000000000000000000000000062002d5f565b670de0b6b3a7640000908184029184830414841517156200042c57507f946065c3cdda2cb63655e58daa105de12ad021626b25178c20823b411d25108f93929162000402876200040d936200290d565b62000de39160098b0154167f000000000000000000000000000000000000000000000000000000000000000062002d5f565b388162000cc5565b508160098b015416151562000cbf565b62000e2c8382600254167f000000000000000000000000000000000000000000000000000000000000000062002d5f565b62000cb4565b50945090600562000e5891839662000e4c8582546200292e565b9055019182546200292e565b905562000d34565b62000e6e91929750620025b2565b94388062000c28565b8780fd5b8680fd5b8380fd5b5086151562000b5d565b60ff915060401c1662000ea081620024d8565b153862000b55565b62002747565b5034620004d0576020366003190112620004d05764e8d4a5100062000ed5600435620027d5565b0490620f42409182039182116200042c57602082604051908152f35b5034620004d0576040366003190112620004d05762000f3660043562000f1662002567565b908084528360205262000f30600160408620015462002995565b62002afc565b5080f35b5034620004d0576040366003190112620004d05760043560243560018060a01b0360055416331480156200109a575b156200109657818352600360205260408320600781019182549060ff8260481c168062001083575b8062001074575b1562000a2c57600e837f6d4d544f5a6dcf38d77a232d3ef7358625c74877a1ad954fcb507872e7a05eaf95600d60409601548085116000146200102a5750600160411b60ff848401541662000fed81620024d8565b15955b60ff60401b19161790550180546201000062ffff001990911661ff00941515600881901b959095161717905582519182526020820152a280f35b8410156200105457600160411b600160ff85850154166200104b81620024d8565b145b9562000ff0565b600160411b600260ff85850154166200106d81620024d8565b146200104d565b50600a83015442101562000f98565b5060ff600e84015460101c161562000f91565b8280fd5b5082805282602052604083203360005260205260ff6040600020541662000f69565b5034620004d0576020366003190112620004d057620010da6200257e565b620010e46200293c565b60018060a01b03166001600160601b0360a01b600554161760055580f35b5034620004d0576020366003190112620004d05760043581526003602052604081209060018060a01b038254169160018060a01b0360018201541691600282015490600383015460048401546005850154600686015491600787015493604051958060088a015490620011758262002643565b808a529160018116908115620012ca57506001146200128a575b50509360409a9360ff93620012739793620011b38a620012869c9b990389620025c6565b60098c01546001600160a01b03169b620011d090600a0162002680565b998e519e8f9e8f906103009a82526020820152015260608d015260808c015260a08b015260c08a015261ffff811660e08a015261ffff8160101c166101008a015261ffff8160201c166101208a015261ffff8160301c166101408a01526200123d828260401c16620024d8565b818160401c166101608a0152818160481c1615156101808a015260501c1615156101a0880152806101c088015286019062002705565b926101e0850152610200840190620024f9565b0390f35b915060088a018252602082205b818310620012af57505086016020018360ff6200118f565b6001816020929493945483858d010152019101919062001297565b60ff19166020808c019190915292151560051b8a01909201925085915060ff90506200118f565b5034620004d0576020366003190112620004d05762000f36620013136200257e565b6200131d6200293c565b620029e0565b5034620004d05780600319360112620004d0576020604051600080516020620044058339815191528152f35b5034620004d0576101e0366003190112620004d0576004356001600160401b0381116200045d5762001386903690600401620025e8565b906024356001600160401b0381116200045d57620013a9903690600401620025e8565b906044356001600160401b0381116200045d57620013cc903690600401620025e8565b906064356001600160401b0381116200045d57620013ef903690600401620025e8565b916084356001600160401b038111620010965762001412903690600401620025e8565b61ffff60c4351660c43503620010965761ffff60e4351660e4350362001096576003610144351015620010965761016435916001600160a01b038316830362000e7f5760036101c435101562000e7f57600080516020620044058339815191528452836020526040842033855260205260ff6040852054161562001d7657620f42406101043510158062001d63575b8062001d50575b1562000e7f57600454956000198714620004bc576001870160045560405191826112718101106001600160401b036112718501111762001d31578291620014ff91611271620031948539309161127185016200286a565b039084f093841562001d4557604051916112718301918383106001600160401b0384111762001d3157916200154191849361127162003194863930926200286a565b039083f091821562001d255760405163d539139360e01b81526020816004816001600160a01b0389165afa9081156200045257829162001ced575b506001600160a01b0385163b156200045d57604051632f2ff15d60e01b815260048101919091523060248201528181604481836001600160a01b038a165af18015620004525762001cdb575b5060405163282c51f360e01b81526020816004816001600160a01b0389165afa9081156200045257829162001ca3575b506001600160a01b0385163b156200045d57604051632f2ff15d60e01b815260048101919091523060248201528181604481836001600160a01b038a165af18015620004525790829162001c8b575b505060405163d539139360e01b81526020816004816001600160a01b0388165afa9081156200045257829162001c53575b506001600160a01b0384163b156200045d57604051632f2ff15d60e01b815260048101919091523060248201528181604481836001600160a01b0389165af18015620004525790829162001c3b575b505060405163282c51f360e01b81526020816004816001600160a01b0388165afa9081156200045257829162001c03575b506001600160a01b0384163b156200045d57604051632f2ff15d60e01b815260048101919091523060248201528181604481836001600160a01b0389165af18015620004525790829162001beb575b5050600185018152600360205260408120916001600160601b0360a01b60018060a01b038616818554161784556001840160018060a01b03861682825416179055603261ffff60c435160261ffff811690810362001bd55760649004601961ffff60c435160261ffff811690810362001bd55760078601805463ffffffff191661ffff8416176064909204601081901b63ffff0000169290921781559162001820916200180291620017fc9060c435620028a8565b620028a8565b825465ffff00000000191660209190911b65ffff0000000016178255565b805469ffffffff000000000000191660e43560301b67ffff000000000000161769010000000000000000001790556009840180549091163317905586516001600160401b03811162001bc1576200187b600885015462002643565b601f811162001b78575b50806020601f821160011462001b0857849162001afc575b508160011b916000199060031b1c19161760088401555b604051620018c28162002595565b610124358152620019c96020820192620018df61014435620024d8565b610144358452604083019060018060a01b031681526060830161018435815260808401906101a435825260a08501956200191c6101c435620024d8565b6101c435875260c086019388855260e087019689885251600a8b0155600b8a019151906200194a82620024d8565b6200195582620024d8565b60ff835491610100600160a81b03905160081b169216906affffffffffffffffffffff60a81b161717905551600c88015551600d870155600e860193516200199d81620024d8565b620019a881620024d8565b8454915161ffff1990921660ff919091161790151560081b61ff0016178355565b51815462ff0000191690151560101b62ff00001617905562001a116101043530337f000000000000000000000000000000000000000000000000000000000000000062002d02565b61010435600483015561010435600583015564e8d4a51000908161010435029161010435830414610104351517156200042c576c0c9f2c9cd04674edea40000000610104350291808304670de0b6b3a764000014901517156200042c5750947f8a671e50058538a6b89d0f6600aa6e9ddc0a3e80e63c1689a1514f5f3113d9269262001ad592600667099e8db03256ce5d602099049101556040519460018060a01b0316855260018060a01b03168685015260a0604085015260a084019062002705565b916101043560608201526101243560808201528060018501930390a2600160405191018152f35b9050880151386200189d565b91506008850184526020842084925b8a601f198416851062001b6057506001935082601f1981161062001b46575b5050811b016008840155620018b4565b8a015160001960f88460031b161c19169055388062001b36565b81015182556020938401936001909201910162001b17565b60088501845260208420601f830160051c81016020841062001bb9575b601f830160051c8201811062001bad57505062001885565b85815560010162001b95565b508062001b95565b634e487b7160e01b83526041600452602483fd5b634e487b7160e01b600052601160045260246000fd5b62001bf690620025b2565b620004d057803862001747565b90506020813d60201162001c32575b8162001c2160209383620025c6565b810103126200088b575138620016f8565b3d915062001c12565b62001c4690620025b2565b620004d0578038620016c7565b90506020813d60201162001c82575b8162001c7160209383620025c6565b810103126200088b57513862001678565b3d915062001c62565b62001c9690620025b2565b620004d057803862001647565b90506020813d60201162001cd2575b8162001cc160209383620025c6565b810103126200088b575138620015f8565b3d915062001cb2565b62001ce690620025b2565b38620015c8565b90506020813d60201162001d1c575b8162001d0b60209383620025c6565b810103126200045d5751386200157c565b3d915062001cfc565b604051903d90823e3d90fd5b634e487b7160e01b86526041600452602486fd5b6040513d85823e3d90fd5b5061271061ffff60e435161115620014a8565b506103e861ffff60c435161115620014a1565b60405163e2517d3f60e01b8152336004820152600080516020620044058339815191526024820152604490fd5b5034620004d05780600319360112620004d057602090604051908152f35b5034620004d0576040366003190112620004d05760ff604060209262001de662002567565b60043582528185528282206001600160a01b03909116825284522054604051911615158152f35b5034620004d05780600319360112620004d0576005546040516001600160a01b039091168152602090f35b5034620004d0576020366003190112620004d057602062001e5b600435620027d5565b604051908152f35b5034620004d05780600319360112620004d0576002546040516001600160a01b039091168152602090f35b5034620004d0576040366003190112620004d05760043562001eaf620024ad565b62001eb96200293c565b818352600360205260408320906007820190815460ff8160481c168062001f4f575b1562000a2c5760ff60401b1916600160411b17909155600e909101805461ff00191682151560081b61ff00161781557f6d4d544f5a6dcf38d77a232d3ef7358625c74877a1ad954fcb507872e7a05eaf916040916201000062ff00001982541617905581519015158152846020820152a280f35b5060ff600e85015460101c161562001edb565b5034620004d05780600319360112620004d057602060405164174876e8008152f35b5034620004d05780600319360112620004d0576040517f00000000000000000000000000000000000000000000000000000000000000006001600160a01b03168152602090f35b5034620004d0576040366003190112620004d05762001fe962002567565b336001600160a01b03821603620020085762000f369060043562002afc565b60405163334bd91960e11b8152600490fd5b5034620004d0576040366003190112620004d05762000f366004356200203f62002567565b908084528360205262002059600160408620015462002995565b62002a82565b5034620004d0576020366003190112620004d057600160406020926004358152808452200154604051908152f35b5034620004d0576020366003190112620004d057620020f7600a6040836101009460e08351620020bd8162002595565b82815282602082015282858201528260608201528260808201528260a08201528260c0820152015260043581526003602052200162002680565b620021066040518092620024f9565bf35b5034620004d0576200211a36620024bd565b62002127929192620029bc565b81845260036020526040842060078101805460ff8160481c16908162002333575b508062002329575b1562000a2c5785600383019283549260028201549380891162002325576200219d899562000bb160068601546200218981848762002da4565b9262000bab64e8d4a510009a8b976200292e565b04906004830190815483116200232157620021d0968b8b6001870160018060a01b039a8b92838354163090339062002d02565b5416803b156200045d57604051632770a7eb60e21b8152306004820152602481018e905291908290604490829084905af18015620023165762002300575b506200221c8b82546200292e565b9055805460501c60ff1615620022de576200225e926005926200024f62000d2693549262000cac612710916200024f61ffff968462000c7989831685620028f9565b90555b6200228e83337f000000000000000000000000000000000000000000000000000000000000000062002d5f565b670de0b6b3a7640000908184029184830414841517156200042c57507fd199bc925dd277d584f6bfa3edede8377c4f2e3aeed8c423cfccbc5ee068a1b893929162000402876200040d936200290d565b509450906005620022f891839662000e4c8582546200292e565b905562002261565b6200230d919650620025b2565b8a94386200220e565b6040513d8f823e3d90fd5b8a80fd5b8980fd5b5084151562002150565b60ff915060401c166200234681620024d8565b153862002148565b5034620004d05760a0366003190112620004d05760243561ffff80821680830362000e7f5760443591808316830362000a575760643590808216820362000a2c576084359384151580950362000e7b57620023a86200293c565b600435875260036020526007604088200195865492848360ff8660481c1693846200242a575b505050501562000e7b5760101b63ffff00001665ffffffff0000199390931665ffffffffffff1991909116179190911760209190911b65ffff0000000016178255815460ff60501b191660509190911b60ff60501b1617905580f35b6103e89450620024469291620024409162002778565b62002778565b16111538848382620023ce565b9050346200045d5760203660031901126200045d5760043563ffffffff60e01b8116809103620010965760209250637965db0b60e01b81149081156200249b575b5015158152f35b6301ffc9a760e01b1490503862002494565b6024359081151582036200088b57565b60609060031901126200088b57600435906024359060443590565b60031115620024e357565b634e487b7160e01b600052602160045260246000fd5b60e080918051845260208101516200251181620024d8565b60208501526040818101516001600160a01b031690850152606080820151908501526080808201519085015260a08101516200254d81620024d8565b60a085015260c0810151151560c085015201511515910152565b602435906001600160a01b03821682036200088b57565b600435906001600160a01b03821682036200088b57565b61010081019081106001600160401b038211176200059957604052565b6001600160401b0381116200059957604052565b90601f801991011681019081106001600160401b038211176200059957604052565b81601f820112156200088b578035906001600160401b03821162000599576040519262002620601f8401601f191660200185620025c6565b828452602083830101116200088b57816000926020809301838601378301015290565b90600182811c9216801562002675575b60208310146200265f57565b634e487b7160e01b600052602260045260246000fd5b91607f169162002653565b906040516200268f8162002595565b60e060ff60048395805485526001810154838116620026ae81620024d8565b602087015260081c6001600160a01b0316604086015260028101546060860152600381015460808601520154818116620026e881620024d8565b60a0850152818160081c16151560c085015260101c161515910152565b919082519283825260005b84811062002732575050826000602080949584010152601f8019910116010190565b60208183018101518483018201520162002710565b346200088b5760203660031901126200088b57602064e8d4a510006200276f600435620027d5565b04604051908152f35b91909161ffff8080941691160191821162001bd557565b156200279757565b60405162461bcd60e51b8152602060048201526008602482015267736c69707061676560c01b6044820152606490fd5b9190820180921162001bd557565b6000526003602052604060002060ff600782015460481c1615620028405780620028366200282f6200282060026200283d950154600362002826620028206006880154809462002b72565b62002b99565b95015462002b72565b82620027c7565b9062002b72565b90565b60405162461bcd60e51b81526020600482015260026024820152616e6f60f01b6044820152606490fd5b9162002898906200288960409396959660608652606086019062002705565b90848203602086015262002705565b6001600160a01b03909416910152565b61ffff918216908216039190821162001bd557565b9067099e8db03256ce5d9182810292818404149015171562001bd557565b90670de0b6b3a76400009182810292818404149015171562001bd557565b8181029291811591840414171562001bd557565b811562002918570490565b634e487b7160e01b600052601260045260246000fd5b9190820391821162001bd557565b3360009081527fad3228b676f7d3cd4284a5443f17f1962b36e491b30a40b2405849e597ba5fb5602052604081205460ff1615620029775750565b6044906040519063e2517d3f60e01b82523360048301526024820152fd5b80600052600060205260406000203360005260205260ff6040600020541615620029775750565b600260015414620029ce576002600155565b604051633ee5aeb560e01b8152600490fd5b6001600160a01b031660008181527f2412b2af58bf3b93d578a423d333d33fb94fb5093f9cda1aed2eaafb3215f9296020526040812054909190600080516020620044058339815191529060ff1662002a7d57808352826020526040832082845260205260408320600160ff198254161790557f2f8788117e7eff1d82e926ec794901d17c78024a50270940304540a733656f0d339380a4600190565b505090565b9060009180835282602052604083209160018060a01b03169182845260205260ff6040842054161560001462002a7d57808352826020526040832082845260205260408320600160ff198254161790557f2f8788117e7eff1d82e926ec794901d17c78024a50270940304540a733656f0d339380a4600190565b9060009180835282602052604083209160018060a01b03169182845260205260ff60408420541660001462002a7d5780835282602052604083208284526020526040832060ff1981541690557ff6391f5c32d9c69d2a47ea670b442974b53935d1edc7fd64eb21e047a839171b339380a4600190565b90670de0b6b3a76400009182810292818404149015171562001bd5576200283d916200290d565b6804c53ecdc18a600000811162002cd7576714057b7ef767814f9081810291818304149015171562001bd557670de0b6b3a764000080910490680a688906bd8b000000821162002cac578082049060ff9060ff831162002c81578092918162002c0581809706620028bd565b0460019283916001945b62002c2a575b50505050506200283d92506001901b620028f9565b9091929395848716976014891162002c7957948462002c6762002c5f83999a9b8762002c5888869c620028f9565b046200290d565b8094620027c7565b99011693929190979695939462002c0f565b509562002c15565b60405162461bcd60e51b81526020600482015260036024820152621a5b9d60ea1b6044820152606490fd5b606460405162461bcd60e51b815260206004820152600460248201526332bc381960e11b6044820152fd5b60405162461bcd60e51b815260206004820152600360248201526206578760ec1b6044820152606490fd5b6040516323b872dd60e01b60208201526001600160a01b03928316602482015292909116604483015260648083019390935291815260a08101918183106001600160401b03841117620005995762002d5d9260405262003067565b565b60405163a9059cbb60e01b60208201526001600160a01b0392909216602483015260448083019390935291815262002d5d9162002d9e606483620025c6565b62003067565b9190670de0b6b3a7640000928381029080820485149015171562001bd557620028208362002dd2926200290d565b8382029180830485149015171562001bd55762002df8620028208462002dff946200290d565b90620027c7565b9081156200303c57600091806503782dace9d960921b81101562003024575b506503782dace9d960521b81101562003005575b6b0de0b6b3a76400000000000081101562002fe6575b690de0b6b3a7640000000081101562002fc8575b680de0b6b3a76400000081101562002faa575b67de0b6b3a7640000081101562002f8c575b673782dace9d90000081101562002f6e575b671bc16d674ec8000081101562002f58575b670de0b6b3a763ffff1981019080821162001bd55784810180911162001bd55762002ed09162002b72565b8362002edd8280620028f9565b049060038562002eed84620028db565b040485019081861162001bd55762002f54948662002f3e62002f469362002f3762002f4c9660058562002f2e8162002f278d829e620028f9565b04620028db565b040490620027c7565b90620028f9565b0490620027c7565b620028bd565b0490620028f9565b0490565b9183810180911162001bd5579160011c62002ea5565b60021c91671bc16d674ec80000810180911162001bd5579162002e93565b60041c91673782dace9d900000810180911162001bd5579162002e81565b60081c91676f05b59d3b200000810180911162001bd5579162002e6f565b60101c9167de0b6b3a76400000810180911162001bd5579162002e5c565b60201c916801bc16d674ec800000810180911162001bd5579162002e48565b60401c916803782dace9d9000000810180911162001bd5579162002e32565b6806f05b59d3b2000000935060801c90503862002e1e565b60405162461bcd60e51b815260206004820152600360248201526206c6e360ec1b6044820152606490fd5b906000602091828151910182855af1156200087f576000513d620030bd57506001600160a01b0381163b155b6200309b5750565b604051635274afe760e01b81526001600160a01b039091166004820152602490fd5b6001141562003093565b919283156200318a576000926050820282810460501483151715620004bc5793929190620030f782848362002da4565b9584965b603c88106200311b575050505050620031159250620027c7565b60011c90565b9091929394956200312d8188620027c7565b90600191821c9062003146878962000bab858a620027c7565b84811162003160575050975b0196959493929190620030fb565b620031718587929c9b939c6200292e565b10156200318057509662003152565b9798509762003152565b5050505060009056fe6080604052346200035c5762001271803803806200001d8162000361565b92833981016060828203126200035c5781516001600160401b0391908281116200035c57816200004f91850162000387565b91602091828501518281116200035c576040916200006f91870162000387565b940151926001600160a01b03841684036200035c578051908282116200025c576003918254906001928383811c9316801562000351575b878410146200033b578190601f93848111620002e5575b5087908483116001146200027e5760009262000272575b505060001982861b1c191690831b1783555b86519384116200025c5760049485548381811c9116801562000251575b828210146200023c57828111620001f1575b50809185116001146200018157508392918391620001649860009562000175575b50501b92600019911b1c19161790555b6200015181620003f9565b506200015d816200047a565b506200051d565b50604051610c959081620005bc8239f35b01519350388062000136565b91939290601f198416978660005283600020936000905b8a8210620001d957505084620001649910620001be575b50505050811b01905562000146565b01519060f884600019921b161c1916905538808080620001af565b80888597829496860151815501960193019062000198565b86600052816000208380880160051c82019284891062000232575b0160051c019084905b8281106200022557505062000115565b6000815501849062000215565b925081926200020c565b602287634e487b7160e01b6000525260246000fd5b90607f169062000103565b634e487b7160e01b600052604160045260246000fd5b015190503880620000d4565b90859350601f1983169187600052896000209260005b8b828210620002ce5750508411620002b5575b505050811b018355620000e6565b015160001983881b60f8161c19169055388080620002a7565b838501518655899790950194938401930162000294565b90915085600052876000208480850160051c8201928a861062000331575b918791869594930160051c01915b82811062000321575050620000bd565b6000815585945087910162000311565b9250819262000303565b634e487b7160e01b600052602260045260246000fd5b92607f1692620000a6565b600080fd5b6040519190601f01601f191682016001600160401b038111838210176200025c57604052565b919080601f840112156200035c5782516001600160401b0381116200025c57602090620003bd601f8201601f1916830162000361565b928184528282870101116200035c5760005b818110620003e557508260009394955001015290565b8581018301518482018401528201620003cf565b6001600160a01b031660008181527f05b8ccbb9d4d8fb16ea74ce3c29a41f1b461fbdaff4714a0d9a8eb05499746bc602052604081205490919060ff16620004765781805260056020526040822081835260205260408220600160ff198254161790553391600080516020620012518339815191528180a4600190565b5090565b6001600160a01b031660008181527f15a28d26fa1bf736cf7edc9922607171ccb09c3c73b808e7772a3013e068a52260205260408120549091907f9f2df0fed2c77648de5860a4cc508cd0818c85b8b8a1ab4ceeef8d981c8956a69060ff16620005185780835260056020526040832082845260205260408320600160ff1982541617905560008051602062001251833981519152339380a4600190565b505090565b6001600160a01b031660008181527f847f481f687befb06ed3511f1a8dcef57e83007c0147ae5047583d705617093760205260408120549091907f3c11d16cbaffd01df69ce1c404f6340ee057498f5f00246190ea54220576a8489060ff16620005185780835260056020526040832082845260205260408320600160ff1982541617905560008051602062001251833981519152339380a460019056fe608060408181526004918236101561001657600080fd5b600092833560e01c91826301ffc9a7146109795750816306fdde031461089d578163095ea7b3146107f357816318160ddd146107d457816323b872dd146106dd578163248a9ca3146106b2578163282c51f3146106775781632f2ff15d1461064d578163313ce5671461063157816336568abe146105eb57816340c10f19146104e657816370a08231146104af57816391d148541461046857816395d89b41146103475781639dc29fac14610217578163a217fddf146101fc578163a9059cbb146101cb578163d539139314610190578163d547741f1461014c575063dd62ed3e1461010157600080fd5b346101485780600319360112610148578060209261011d610a15565b610125610a30565b6001600160a01b0391821683526001865283832091168252845220549051908152f35b5080fd5b9190503461018c578060031936011261018c5761018891356101836001610171610a30565b93838752600560205286200154610b24565b610be8565b5080f35b8280fd5b505034610148578160031936011261014857602090517f9f2df0fed2c77648de5860a4cc508cd0818c85b8b8a1ab4ceeef8d981c8956a68152f35b5050346101485780600319360112610148576020906101f56101eb610a15565b6024359033610a46565b5160018152f35b50503461014857816003193601126101485751908152602090f35b83915034610148578260031936011261014857610232610a15565b90602435907f3c11d16cbaffd01df69ce1c404f6340ee057498f5f00246190ea54220576a848808552600560205285852033865260205260ff86862054161561032a57506001600160a01b038316928315610313578385528460205285852054918383106102df5750508184957fddf252ad1be2c89b69c2b068fc378daa952ba7f163c4a11628f55a4df523b3ef936020938688528785520381872055816002540360025551908152a380f35b865163391434e360e21b81526001600160a01b03909216908201908152602081018390526040810184905281906060010390fd5b8551634b637e8f60e11b8152808301869052602490fd5b6044925085519163e2517d3f60e01b835233908301526024820152fd5b83833461014857816003193601126101485780519082845460018160011c906001831692831561045e575b602093848410811461044b5783885290811561042f57506001146103da575b505050829003601f01601f191682019267ffffffffffffffff8411838510176103c757508291826103c39252826109cc565b0390f35b634e487b7160e01b815260418552602490fd5b8787529192508591837f8a35acfbc15ff81a39ae7d344fd709f28e8600b4aa8c65c6b64bfe7fe36bd19b5b83851061041b5750505050830101858080610391565b805488860183015293019284908201610405565b60ff1916878501525050151560051b8401019050858080610391565b634e487b7160e01b895260228a52602489fd5b91607f1691610372565b90503461018c578160031936011261018c578160209360ff92610489610a30565b90358252600586528282206001600160a01b039091168252855220549151911615158152f35b5050346101485760203660031901126101485760209181906001600160a01b036104d7610a15565b16815280845220549051908152f35b9190503461018c578060031936011261018c57610501610a15565b90602435917f9f2df0fed2c77648de5860a4cc508cd0818c85b8b8a1ab4ceeef8d981c8956a6808652600560205282862033875260205260ff8387205416156105cd57506001600160a01b03169283156105b857600254908382018092116105a5575084927fddf252ad1be2c89b69c2b068fc378daa952ba7f163c4a11628f55a4df523b3ef9260209260025585855284835280852082815401905551908152a380f35b634e487b7160e01b865260119052602485fd5b84602492519163ec442f0560e01b8352820152fd5b825163e2517d3f60e01b815233818701526024810191909152604490fd5b838334610148578060031936011261014857610605610a30565b90336001600160a01b038316036106225750610188919235610be8565b5163334bd91960e11b81528390fd5b5050346101485781600319360112610148576020905160128152f35b9190503461018c578060031936011261018c5761018891356106726001610171610a30565b610b68565b505034610148578160031936011261014857602090517f3c11d16cbaffd01df69ce1c404f6340ee057498f5f00246190ea54220576a8488152f35b90503461018c57602036600319011261018c5781602093600192358152600585522001549051908152f35b905082346107d15760603660031901126107d1576106f9610a15565b610701610a30565b916044359360018060a01b03831680835260016020528683203384526020528683205491600019831061073d575b6020886101f5898989610a46565b8683106107a557811561078e573315610777575082526001602090815286832033845281529186902090859003905582906101f58761072f565b8751634a1406b160e11b8152908101849052602490fd5b875163e602df0560e01b8152908101849052602490fd5b8751637dc7a0d960e11b8152339181019182526020820193909352604081018790528291506060010390fd5b80fd5b5050346101485781600319360112610148576020906002549051908152f35b90503461018c578160031936011261018c5761080d610a15565b602435903315610886576001600160a01b031691821561086f57508083602095338152600187528181208582528752205582519081527f8c5be1e5ebec7d5bd14f71427d1e84f3dd0314c0f7b2291e5b200ac8c7c3b925843392a35160018152f35b8351634a1406b160e11b8152908101859052602490fd5b835163e602df0560e01b8152808401869052602490fd5b8383346101485781600319360112610148578051908260035460018160011c906001831692831561096f575b602093848410811461044b5783885290811561042f575060011461091957505050829003601f01601f191682019267ffffffffffffffff8411838510176103c757508291826103c39252826109cc565b600387529192508591837fc2575a0e9e593c00f959f8c92f12db2869c3395a3b0502d05e2516446f71f85b5b83851061095b5750505050830101858080610391565b805488860183015293019284908201610945565b91607f16916108c9565b84913461018c57602036600319011261018c573563ffffffff60e01b811680910361018c5760209250637965db0b60e01b81149081156109bb575b5015158152f35b6301ffc9a760e01b149050836109b4565b6020808252825181830181905290939260005b828110610a0157505060409293506000838284010152601f8019910116010190565b8181018601518482016040015285016109df565b600435906001600160a01b0382168203610a2b57565b600080fd5b602435906001600160a01b0382168203610a2b57565b916001600160a01b03808416928315610b0b5716928315610af25760009083825281602052604082205490838210610ac0575091604082827fddf252ad1be2c89b69c2b068fc378daa952ba7f163c4a11628f55a4df523b3ef958760209652828652038282205586815220818154019055604051908152a3565b60405163391434e360e21b81526001600160a01b03919091166004820152602481019190915260448101839052606490fd5b60405163ec442f0560e01b815260006004820152602490fd5b604051634b637e8f60e11b815260006004820152602490fd5b80600052600560205260406000203360005260205260ff6040600020541615610b4a5750565b6044906040519063e2517d3f60e01b82523360048301526024820152fd5b906000918083526005602052604083209160018060a01b03169182845260205260ff60408420541615600014610be35780835260056020526040832082845260205260408320600160ff198254161790557f2f8788117e7eff1d82e926ec794901d17c78024a50270940304540a733656f0d339380a4600190565b505090565b906000918083526005602052604083209160018060a01b03169182845260205260ff604084205416600014610be3578083526005602052604083208284526020526040832060ff1981541690557ff6391f5c32d9c69d2a47ea670b442974b53935d1edc7fd64eb21e047a839171b339380a460019056fea26469706673582212205854ad7a7ba14b2d05dd9f6ed2a635adb0eb50e35022788f3382cf94a5b836dc64736f6c634300081800332f8788117e7eff1d82e926ec794901d17c78024a50270940304540a733656f0dd3065a24ad9e7725d223007135762d2902038999e3e5829146654498a58d9795a26469706673582212208aeb8fa0faa0281376203d14dc4aa0be3260a6e5607530e96626852c8952d95e64736f6c634300081800332f8788117e7eff1d82e926ec794901d17c78024a50270940304540a733656f0d","opcodes":"PUSH1 0xA0 CALLVALUE PUSH3 0x12D JUMPI PUSH1 0x1F PUSH3 0x46FA CODESIZE DUP2 SWAP1 SUB SWAP2 DUP3 ADD PUSH1 0x1F NOT AND DUP4 ADD SWAP2 PUSH1 0x1 PUSH1 0x1 PUSH1 0x40 SHL SUB DUP4 GT DUP5 DUP5 LT OR PUSH3 0x132 JUMPI DUP1 DUP5 SWAP3 PUSH1 0x40 SWAP5 DUP6 MSTORE DUP4 CODECOPY DUP2 ADD SUB SLT PUSH3 0x12D JUMPI PUSH3 0x5A PUSH1 0x20 PUSH3 0x52 DUP4 PUSH3 0x148 JUMP JUMPDEST SWAP3 ADD PUSH3 0x148 JUMP JUMPDEST PUSH1 0x1 DUP1 SSTORE PUSH1 0x1 PUSH1 0x1 PUSH1 0xA0 SHL SUB SWAP2 DUP3 AND DUP1 ISZERO ISZERO DUP1 PUSH3 0x121 JUMPI JUMPDEST ISZERO PUSH3 0xF6 JUMPI PUSH1 0x80 MSTORE AND PUSH1 0x1 DUP1 PUSH1 0xA0 SHL SUB NOT PUSH1 0x2 SLOAD AND OR PUSH1 0x2 SSTORE PUSH3 0x98 CALLER PUSH3 0x15D JUMP JUMPDEST POP PUSH3 0xA4 CALLER PUSH3 0x1DD JUMP JUMPDEST POP PUSH1 0x40 MLOAD PUSH2 0x445A SWAP1 DUP2 PUSH3 0x280 DUP3 CODECOPY PUSH1 0x80 MLOAD DUP2 DUP2 DUP2 PUSH2 0x27C ADD MSTORE DUP2 DUP2 PUSH2 0x71D ADD MSTORE DUP2 DUP2 PUSH2 0x9C8 ADD MSTORE DUP2 DUP2 PUSH2 0xD3C ADD MSTORE DUP2 DUP2 PUSH2 0xDBE ADD MSTORE DUP2 DUP2 PUSH2 0xE07 ADD MSTORE DUP2 DUP2 PUSH2 0x19EC ADD MSTORE DUP2 DUP2 PUSH2 0x1F9C ADD MSTORE PUSH2 0x2269 ADD MSTORE RETURN JUMPDEST PUSH1 0x64 PUSH1 0x40 MLOAD PUSH3 0x461BCD PUSH1 0xE5 SHL DUP2 MSTORE PUSH1 0x20 PUSH1 0x4 DUP3 ADD MSTORE PUSH1 0x4 PUSH1 0x24 DUP3 ADD MSTORE PUSH4 0x7A65726F PUSH1 0xE0 SHL PUSH1 0x44 DUP3 ADD MSTORE REVERT JUMPDEST POP DUP3 DUP3 AND ISZERO ISZERO PUSH3 0x73 JUMP JUMPDEST PUSH1 0x0 DUP1 REVERT JUMPDEST PUSH4 0x4E487B71 PUSH1 0xE0 SHL PUSH1 0x0 MSTORE PUSH1 0x41 PUSH1 0x4 MSTORE PUSH1 0x24 PUSH1 0x0 REVERT JUMPDEST MLOAD SWAP1 PUSH1 0x1 PUSH1 0x1 PUSH1 0xA0 SHL SUB DUP3 AND DUP3 SUB PUSH3 0x12D JUMPI JUMP JUMPDEST PUSH1 0x1 PUSH1 0x1 PUSH1 0xA0 SHL SUB AND PUSH1 0x0 DUP2 DUP2 MSTORE PUSH32 0xAD3228B676F7D3CD4284A5443F17F1962B36E491B30A40B2405849E597BA5FB5 PUSH1 0x20 MSTORE PUSH1 0x40 DUP2 KECCAK256 SLOAD SWAP1 SWAP2 SWAP1 PUSH1 0xFF AND PUSH3 0x1D9 JUMPI DUP2 DUP1 MSTORE DUP2 PUSH1 0x20 MSTORE PUSH1 0x40 DUP3 KECCAK256 DUP2 DUP4 MSTORE PUSH1 0x20 MSTORE PUSH1 0x40 DUP3 KECCAK256 PUSH1 0x1 PUSH1 0xFF NOT DUP3 SLOAD AND OR SWAP1 SSTORE CALLER SWAP2 PUSH1 0x0 DUP1 MLOAD PUSH1 0x20 PUSH3 0x46DA DUP4 CODECOPY DUP2 MLOAD SWAP2 MSTORE DUP2 DUP1 LOG4 PUSH1 0x1 SWAP1 JUMP JUMPDEST POP SWAP1 JUMP JUMPDEST PUSH1 0x1 PUSH1 0x1 PUSH1 0xA0 SHL SUB AND PUSH1 0x0 DUP2 DUP2 MSTORE PUSH32 0x2412B2AF58BF3B93D578A423D333D33FB94FB5093F9CDA1AED2EAAFB3215F929 PUSH1 0x20 MSTORE PUSH1 0x40 DUP2 KECCAK256 SLOAD SWAP1 SWAP2 SWAP1 PUSH32 0xD3065A24AD9E7725D223007135762D2902038999E3E5829146654498A58D9795 SWAP1 PUSH1 0xFF AND PUSH3 0x27A JUMPI DUP1 DUP4 MSTORE DUP3 PUSH1 0x20 MSTORE PUSH1 0x40 DUP4 KECCAK256 DUP3 DUP5 MSTORE PUSH1 0x20 MSTORE PUSH1 0x40 DUP4 KECCAK256 PUSH1 0x1 PUSH1 0xFF NOT DUP3 SLOAD AND OR SWAP1 SSTORE PUSH1 0x0 DUP1 MLOAD PUSH1 0x20 PUSH3 0x46DA DUP4 CODECOPY DUP2 MLOAD SWAP2 MSTORE CALLER SWAP4 DUP1 LOG4 PUSH1 0x1 SWAP1 JUMP JUMPDEST POP POP SWAP1 JUMP INVALID PUSH1 0x80 DUP1 PUSH1 0x40 MSTORE PUSH1 0x4 CALLDATASIZE LT ISZERO PUSH3 0x14 JUMPI PUSH1 0x0 DUP1 REVERT JUMPDEST PUSH1 0x0 SWAP1 DUP2 CALLDATALOAD PUSH1 0xE0 SHR SWAP1 DUP2 PUSH4 0x1FFC9A7 EQ PUSH3 0x2453 JUMPI POP DUP1 PUSH4 0x47EFCF3 EQ PUSH3 0x234E JUMPI DUP1 PUSH4 0x16FE6929 EQ PUSH3 0x2108 JUMPI DUP1 PUSH4 0x232E45D7 EQ PUSH3 0x208D JUMPI DUP1 PUSH4 0x248A9CA3 EQ PUSH3 0x205F JUMPI DUP1 PUSH4 0x2F2FF15D EQ PUSH3 0x201A JUMPI DUP1 PUSH4 0x36568ABE EQ PUSH3 0x1FCB JUMPI DUP1 PUSH4 0x3E413BEE EQ PUSH3 0x1F84 JUMPI DUP1 PUSH4 0x43ABD9EA EQ PUSH3 0x1F62 JUMPI DUP1 PUSH4 0x57BDE446 EQ PUSH3 0x1E8E JUMPI DUP1 PUSH4 0x61D027B3 EQ PUSH3 0x1E63 JUMPI DUP1 PUSH4 0x6AD6C254 EQ PUSH3 0x1E38 JUMPI DUP1 PUSH4 0x7F8A3F8C EQ PUSH3 0x1E0D JUMPI DUP1 PUSH4 0x91D14854 EQ PUSH3 0x1DC1 JUMPI DUP1 PUSH4 0xA217FDDF EQ PUSH3 0x1DA3 JUMPI DUP1 PUSH4 0xA27A4186 EQ PUSH3 0x134F JUMPI DUP1 PUSH4 0xAE42820C EQ PUSH3 0x1323 JUMPI DUP1 PUSH4 0xB06EA2EB EQ PUSH3 0x12F1 JUMPI DUP1 PUSH4 0xB1283E77 EQ PUSH3 0x1102 JUMPI DUP1 PUSH4 0xB4FB88B7 EQ PUSH3 0xEAE JUMPI DUP1 PUSH4 0xBAD260F5 EQ PUSH3 0x10BC JUMPI DUP1 PUSH4 0xCAB7CDE9 EQ PUSH3 0xF3A JUMPI DUP1 PUSH4 0xD46A7721 EQ PUSH3 0xEA8 JUMPI DUP1 PUSH4 0xD547741F EQ PUSH3 0xEF1 JUMPI DUP1 PUSH4 0xDE62967D EQ PUSH3 0xEAE JUMPI DUP1 PUSH4 0xDFE0662A EQ PUSH3 0xEA8 JUMPI DUP1 PUSH4 0xDFFAD4E2 EQ PUSH3 0xB12 JUMPI DUP1 PUSH4 0xE43F80A5 EQ PUSH3 0x8BA JUMPI DUP1 PUSH4 0xEA175894 EQ PUSH3 0x675 JUMPI DUP1 PUSH4 0xEC979082 EQ PUSH3 0x655 JUMPI DUP1 PUSH4 0xF0F44260 EQ PUSH3 0x60F JUMPI DUP1 PUSH4 0xF7D334BA EQ PUSH3 0x4FD JUMPI PUSH4 0xFB27260B EQ PUSH3 0x1AE JUMPI PUSH1 0x0 DUP1 REVERT JUMPDEST CALLVALUE PUSH3 0x4D0 JUMPI PUSH3 0x1BF CALLDATASIZE PUSH3 0x24BD JUMP JUMPDEST PUSH3 0x1CC SWAP3 SWAP2 SWAP3 PUSH3 0x29BC JUMP JUMPDEST PUSH1 0x0 DUP3 DUP2 MSTORE PUSH1 0x3 PUSH1 0x20 MSTORE PUSH1 0x40 DUP2 KECCAK256 SWAP1 PUSH1 0x7 DUP3 ADD SLOAD SWAP1 PUSH1 0xFF DUP3 PUSH1 0x48 SHR AND DUP1 PUSH3 0x4E3 JUMPI JUMPDEST DUP1 PUSH3 0x4D3 JUMPI JUMPDEST ISZERO PUSH3 0x4D0 JUMPI PUSH2 0xFFFF SWAP1 PUSH2 0x2710 PUSH3 0x237 DUP2 PUSH3 0x216 DUP7 DUP7 AND DUP12 PUSH3 0x28F9 JUMP JUMPDEST DIV SWAP4 DUP3 PUSH3 0x22A DUP3 DUP9 PUSH1 0x10 SHR AND DUP13 PUSH3 0x28F9 JUMP JUMPDEST DIV SWAP6 PUSH1 0x20 SHR AND DUP10 PUSH3 0x28F9 JUMP JUMPDEST DIV SWAP2 PUSH3 0x255 DUP4 PUSH3 0x24F DUP7 PUSH3 0x24F DUP6 DUP14 PUSH3 0x292E JUMP JUMPDEST PUSH3 0x292E JUMP JUMPDEST SWAP3 PUSH5 0xE8D4A51000 SWAP5 DUP6 DUP6 MUL SWAP5 DUP1 DUP7 DIV DUP8 EQ DUP2 ISZERO OR ISZERO PUSH3 0x4BC JUMPI DUP2 PUSH3 0x2E4 SWAP2 DUP13 PUSH3 0x2A5 PUSH32 0x0 SWAP2 ADDRESS CALLER DUP5 PUSH3 0x2D02 JUMP JUMPDEST DUP7 PUSH3 0x49C JUMPI JUMPDEST DUP6 DUP1 ISZERO ISZERO DUP1 PUSH3 0x485 JUMPI JUMPDEST PUSH3 0x461 JUMPI JUMPDEST POP POP PUSH3 0x2CB DUP3 DUP3 PUSH3 0x27C7 JUMP JUMPDEST PUSH3 0x2DC PUSH1 0x4 DUP13 ADD SWAP2 DUP3 SLOAD PUSH3 0x27C7 JUMP JUMPDEST SWAP1 SSTORE PUSH3 0x27C7 JUMP JUMPDEST PUSH3 0x2F5 PUSH1 0x5 DUP10 ADD SWAP2 DUP3 SLOAD PUSH3 0x27C7 JUMP JUMPDEST SWAP1 SSTORE PUSH1 0x40 MLOAD SWAP3 DUP4 MSTORE PUSH1 0x20 DUP4 ADD MSTORE PUSH1 0x40 DUP3 ADD MSTORE PUSH1 0x1 PUSH1 0x60 DUP3 ADD MSTORE DUP7 PUSH32 0xF749F7BFD284883F652D37EB7D9972C4147ACE6C383F5271E74EFAA7E6DE51F4 PUSH1 0x80 CALLER SWAP4 LOG3 PUSH3 0x352 PUSH1 0x2 DUP6 ADD SWAP3 DUP4 SLOAD SWAP1 PUSH1 0x3 DUP8 ADD SLOAD PUSH1 0x6 DUP9 ADD SLOAD SWAP3 PUSH3 0x30C7 JUMP JUMPDEST SWAP4 DUP5 ISZERO PUSH3 0x45D JUMPI SLOAD PUSH1 0x1 PUSH1 0x1 PUSH1 0xA0 SHL SUB AND DUP1 EXTCODESIZE ISZERO PUSH3 0x45D JUMPI PUSH1 0x40 MLOAD PUSH4 0x40C10F19 PUSH1 0xE0 SHL DUP2 MSTORE CALLER PUSH1 0x4 DUP3 ADD MSTORE PUSH1 0x24 DUP2 ADD DUP7 SWAP1 MSTORE SWAP1 DUP3 SWAP1 DUP3 SWAP1 PUSH1 0x44 SWAP1 DUP3 SWAP1 DUP5 SWAP1 GAS CALL DUP1 ISZERO PUSH3 0x452 JUMPI PUSH3 0x440 JUMPI JUMPDEST POP SWAP1 PUSH3 0x3B0 DUP5 DUP3 SLOAD PUSH3 0x27C7 JUMP JUMPDEST SWAP1 SSTORE PUSH8 0xDE0B6B3A7640000 SWAP1 DUP2 DUP8 MUL SWAP2 DUP8 DUP4 DIV EQ DUP8 ISZERO OR ISZERO PUSH3 0x42C JUMPI POP DUP3 SWAP2 PUSH3 0x402 PUSH32 0xFB9B8B4ED1CD716F83A12F09D326E2639A0A8544566F6554A54FA17E45B18E6A SWAP6 SWAP5 PUSH3 0x40D SWAP4 PUSH3 0x290D JUMP JUMPDEST DIV SWAP3 DUP3 LT ISZERO PUSH3 0x278F JUMP JUMPDEST PUSH1 0x40 DUP1 MLOAD SWAP6 DUP7 MSTORE PUSH1 0x20 DUP7 ADD SWAP2 SWAP1 SWAP2 MSTORE DUP5 ADD MSTORE CALLER SWAP3 PUSH1 0x60 SWAP1 LOG3 PUSH1 0x1 DUP1 SSTORE DUP1 RETURN JUMPDEST PUSH4 0x4E487B71 PUSH1 0xE0 SHL DUP2 MSTORE PUSH1 0x11 PUSH1 0x4 MSTORE PUSH1 0x24 SWAP1 REVERT JUMPDEST PUSH3 0x44B SWAP1 PUSH3 0x25B2 JUMP JUMPDEST CODESIZE PUSH3 0x3A1 JUMP JUMPDEST PUSH1 0x40 MLOAD RETURNDATASIZE DUP5 DUP3 RETURNDATACOPY RETURNDATASIZE SWAP1 REVERT JUMPDEST POP DUP1 REVERT JUMPDEST PUSH1 0x9 DUP13 ADD SLOAD PUSH3 0x47D SWAP3 PUSH1 0x1 PUSH1 0x1 PUSH1 0xA0 SHL SUB SWAP1 SWAP2 AND SWAP1 PUSH3 0x2D5F JUMP JUMPDEST CODESIZE DUP6 PUSH3 0x2BD JUMP JUMPDEST POP PUSH1 0x9 DUP13 ADD SLOAD PUSH1 0x1 PUSH1 0x1 PUSH1 0xA0 SHL SUB AND ISZERO ISZERO PUSH3 0x2B7 JUMP JUMPDEST PUSH1 0x2 SLOAD PUSH3 0x4B6 SWAP1 DUP9 SWAP1 PUSH1 0x1 PUSH1 0x1 PUSH1 0xA0 SHL SUB AND DUP4 PUSH3 0x2D5F JUMP JUMPDEST PUSH3 0x2AC JUMP JUMPDEST PUSH4 0x4E487B71 PUSH1 0xE0 SHL DUP6 MSTORE PUSH1 0x11 PUSH1 0x4 MSTORE PUSH1 0x24 DUP6 REVERT JUMPDEST DUP1 REVERT JUMPDEST POP PUSH5 0x174876E800 DUP7 GT ISZERO PUSH3 0x1F6 JUMP JUMPDEST POP PUSH1 0xFF DUP3 PUSH1 0x40 SHR AND PUSH3 0x4F6 DUP2 PUSH3 0x24D8 JUMP JUMPDEST ISZERO PUSH3 0x1EF JUMP JUMPDEST POP CALLVALUE PUSH3 0x4D0 JUMPI PUSH1 0x20 CALLDATASIZE PUSH1 0x3 NOT ADD SLT PUSH3 0x4D0 JUMPI PUSH1 0x40 PUSH1 0x4 CALLDATALOAD SWAP2 DUP3 DUP2 MSTORE PUSH1 0x3 PUSH1 0x20 MSTORE KECCAK256 SWAP1 PUSH1 0x7 DUP3 ADD SLOAD SWAP2 PUSH1 0xFF DUP4 PUSH1 0x48 SHR AND SWAP3 DUP4 PUSH3 0x5F2 JUMPI JUMPDEST POP DUP3 PUSH3 0x5DE JUMPI JUMPDEST DUP3 PUSH3 0x5CE JUMPI JUMPDEST DUP3 PUSH3 0x5AF JUMPI JUMPDEST POP PUSH1 0x40 MLOAD SWAP1 PUSH1 0x20 DUP3 ADD MSTORE PUSH1 0x20 DUP2 MSTORE PUSH1 0x40 DUP2 ADD SWAP2 DUP2 DUP4 LT PUSH1 0x1 PUSH1 0x1 PUSH1 0x40 SHL SUB DUP5 GT OR PUSH3 0x599 JUMPI DUP3 PUSH1 0x40 MSTORE ISZERO ISZERO DUP3 MSTORE PUSH1 0x40 PUSH1 0x60 DUP3 ADD MSTORE PUSH1 0x3F NOT SWAP1 PUSH3 0x594 PUSH1 0x80 DUP3 ADD DUP3 PUSH3 0x2705 JUMP JUMPDEST SUB ADD SWAP1 RETURN JUMPDEST PUSH4 0x4E487B71 PUSH1 0xE0 SHL PUSH1 0x0 MSTORE PUSH1 0x41 PUSH1 0x4 MSTORE PUSH1 0x24 PUSH1 0x0 REVERT JUMPDEST PUSH1 0xFF SWAP2 SWAP3 POP PUSH1 0xB ADD SLOAD AND PUSH3 0x5C4 DUP2 PUSH3 0x24D8 JUMP JUMPDEST ISZERO ISZERO SWAP1 CODESIZE PUSH3 0x54C JUMP JUMPDEST PUSH1 0xA DUP2 ADD SLOAD TIMESTAMP LT ISZERO SWAP3 POP PUSH3 0x545 JUMP JUMPDEST PUSH1 0xE DUP2 ADD SLOAD PUSH1 0x10 SHR PUSH1 0xFF AND ISZERO SWAP3 POP PUSH3 0x53E JUMP JUMPDEST PUSH1 0xFF SWAP2 SWAP4 POP PUSH1 0x40 SHR AND PUSH3 0x606 DUP2 PUSH3 0x24D8 JUMP JUMPDEST ISZERO SWAP2 CODESIZE PUSH3 0x536 JUMP JUMPDEST POP CALLVALUE PUSH3 0x4D0 JUMPI PUSH1 0x20 CALLDATASIZE PUSH1 0x3 NOT ADD SLT PUSH3 0x4D0 JUMPI PUSH3 0x62D PUSH3 0x257E JUMP JUMPDEST PUSH3 0x637 PUSH3 0x293C JUMP JUMPDEST PUSH1 0x1 DUP1 PUSH1 0xA0 SHL SUB AND PUSH1 0x1 PUSH1 0x1 PUSH1 0x60 SHL SUB PUSH1 0xA0 SHL PUSH1 0x2 SLOAD AND OR PUSH1 0x2 SSTORE DUP1 RETURN JUMPDEST POP CALLVALUE PUSH3 0x4D0 JUMPI DUP1 PUSH1 0x3 NOT CALLDATASIZE ADD SLT PUSH3 0x4D0 JUMPI PUSH1 0x20 PUSH1 0x4 SLOAD PUSH1 0x40 MLOAD SWAP1 DUP2 MSTORE RETURN JUMPDEST POP CALLVALUE PUSH3 0x4D0 JUMPI PUSH3 0x687 CALLDATASIZE PUSH3 0x24BD JUMP JUMPDEST PUSH3 0x694 SWAP3 SWAP2 SWAP3 PUSH3 0x29BC JUMP JUMPDEST PUSH1 0x0 DUP3 DUP2 MSTORE PUSH1 0x3 PUSH1 0x20 MSTORE PUSH1 0x40 DUP2 KECCAK256 SWAP1 PUSH1 0x7 DUP3 ADD SLOAD SWAP1 PUSH1 0xFF DUP3 PUSH1 0x48 SHR AND DUP1 PUSH3 0x8A0 JUMPI JUMPDEST DUP1 PUSH3 0x890 JUMPI JUMPDEST ISZERO PUSH3 0x4D0 JUMPI PUSH2 0xFFFF SWAP1 PUSH2 0x2710 PUSH3 0x6DE DUP2 PUSH3 0x216 DUP7 DUP7 AND DUP12 PUSH3 0x28F9 JUMP JUMPDEST DIV SWAP2 PUSH3 0x6F6 DUP4 PUSH3 0x24F DUP7 PUSH3 0x24F DUP6 DUP14 PUSH3 0x292E JUMP JUMPDEST SWAP3 PUSH5 0xE8D4A51000 SWAP5 DUP6 DUP6 MUL SWAP5 DUP1 DUP7 DIV DUP8 EQ DUP2 ISZERO OR ISZERO PUSH3 0x4BC JUMPI DUP2 PUSH3 0x746 SWAP2 DUP13 PUSH3 0x2A5 PUSH32 0x0 SWAP2 ADDRESS CALLER DUP5 PUSH3 0x2D02 JUMP JUMPDEST PUSH3 0x757 PUSH1 0x5 DUP10 ADD SWAP2 DUP3 SLOAD PUSH3 0x27C7 JUMP JUMPDEST SWAP1 SSTORE PUSH1 0x40 MLOAD SWAP3 DUP4 MSTORE PUSH1 0x20 DUP4 ADD MSTORE PUSH1 0x40 DUP3 ADD MSTORE PUSH1 0x1 PUSH1 0x60 DUP3 ADD MSTORE DUP7 PUSH32 0xF749F7BFD284883F652D37EB7D9972C4147ACE6C383F5271E74EFAA7E6DE51F4 PUSH1 0x80 CALLER SWAP4 LOG3 SWAP1 PUSH3 0x7B5 PUSH1 0x3 DUP6 ADD SWAP2 DUP3 SLOAD SWAP1 PUSH1 0x2 DUP8 ADD SLOAD PUSH1 0x6 DUP9 ADD SLOAD SWAP3 PUSH3 0x30C7 JUMP JUMPDEST SWAP4 DUP5 ISZERO PUSH3 0x88B JUMPI PUSH1 0x1 ADD SLOAD PUSH1 0x1 PUSH1 0x1 PUSH1 0xA0 SHL SUB AND DUP1 EXTCODESIZE ISZERO PUSH3 0x88B JUMPI PUSH1 0x40 MLOAD PUSH4 0x40C10F19 PUSH1 0xE0 SHL DUP2 MSTORE CALLER PUSH1 0x4 DUP3 ADD MSTORE PUSH1 0x24 DUP2 ADD DUP7 SWAP1 MSTORE SWAP1 PUSH1 0x0 SWAP1 DUP3 SWAP1 PUSH1 0x44 SWAP1 DUP3 SWAP1 DUP5 SWAP1 GAS CALL DUP1 ISZERO PUSH3 0x87F JUMPI PUSH3 0x868 JUMPI JUMPDEST POP PUSH3 0x816 DUP5 DUP3 SLOAD PUSH3 0x27C7 JUMP JUMPDEST SWAP1 SSTORE PUSH8 0xDE0B6B3A7640000 SWAP1 DUP2 DUP8 MUL SWAP2 DUP8 DUP4 DIV EQ DUP8 ISZERO OR ISZERO PUSH3 0x42C JUMPI POP DUP3 SWAP2 PUSH3 0x402 PUSH32 0x256E0661FB6A98AF4E43F60406497386F05CABEEA9AC420F267C07A2093F87F1 SWAP6 SWAP5 PUSH3 0x40D SWAP4 PUSH3 0x290D JUMP JUMPDEST PUSH3 0x875 SWAP2 SWAP3 POP PUSH3 0x25B2 JUMP JUMPDEST PUSH1 0x0 SWAP1 CODESIZE PUSH3 0x808 JUMP JUMPDEST PUSH1 0x40 MLOAD RETURNDATASIZE PUSH1 0x0 DUP3 RETURNDATACOPY RETURNDATASIZE SWAP1 REVERT JUMPDEST PUSH1 0x0 DUP1 REVERT JUMPDEST POP PUSH5 0x174876E800 DUP7 GT ISZERO PUSH3 0x6BE JUMP JUMPDEST POP PUSH1 0xFF DUP3 PUSH1 0x40 SHR AND PUSH3 0x8B3 DUP2 PUSH3 0x24D8 JUMP JUMPDEST ISZERO PUSH3 0x6B7 JUMP JUMPDEST POP CALLVALUE PUSH3 0x4D0 JUMPI PUSH1 0x60 CALLDATASIZE PUSH1 0x3 NOT ADD SLT PUSH3 0x4D0 JUMPI PUSH1 0x4 CALLDATALOAD PUSH3 0x8DB PUSH3 0x24AD JUMP JUMPDEST SWAP1 PUSH1 0x44 CALLDATALOAD PUSH3 0x8E9 PUSH3 0x29BC JUMP JUMPDEST DUP2 DUP5 MSTORE PUSH1 0x3 PUSH1 0x20 MSTORE PUSH1 0x40 DUP5 KECCAK256 SWAP1 PUSH1 0xFF PUSH1 0x7 DUP4 ADD SLOAD PUSH1 0x48 SHR AND DUP1 PUSH3 0xB00 JUMPI JUMPDEST DUP1 PUSH3 0xAF6 JUMPI JUMPDEST DUP1 PUSH3 0xADE JUMPI JUMPDEST ISZERO PUSH3 0xA57 JUMPI DUP4 ISZERO PUSH3 0xA5B JUMPI DUP5 PUSH1 0x1 DUP1 PUSH1 0xA0 SHL SUB PUSH3 0x93E DUP4 DUP3 DUP7 SLOAD AND ADDRESS SWAP1 CALLER SWAP1 PUSH3 0x2D02 JUMP JUMPDEST DUP4 SLOAD AND DUP1 EXTCODESIZE ISZERO PUSH3 0x45D JUMPI PUSH1 0x40 MLOAD PUSH4 0x2770A7EB PUSH1 0xE2 SHL DUP2 MSTORE ADDRESS PUSH1 0x4 DUP3 ADD MSTORE PUSH1 0x24 DUP2 ADD DUP5 SWAP1 MSTORE SWAP1 DUP3 SWAP1 DUP3 SWAP1 PUSH1 0x44 SWAP1 DUP3 SWAP1 DUP5 SWAP1 GAS CALL DUP1 ISZERO PUSH3 0x452 JUMPI PUSH3 0xA3F JUMPI JUMPDEST POP POP JUMPDEST PUSH5 0xE8D4A51000 DUP2 DIV SWAP2 DUP3 ISZERO ISZERO DUP1 PUSH3 0xA30 JUMPI JUMPDEST ISZERO PUSH3 0xA2C JUMPI DUP1 PUSH1 0x4 PUSH1 0x5 SWAP3 ADD PUSH3 0x9AE DUP6 DUP3 SLOAD PUSH3 0x292E JUMP JUMPDEST SWAP1 SSTORE ADD PUSH3 0x9BE DUP4 DUP3 SLOAD PUSH3 0x292E JUMP JUMPDEST SWAP1 SSTORE PUSH3 0x9ED DUP3 CALLER PUSH32 0x0 PUSH3 0x2D5F JUMP JUMPDEST PUSH1 0x40 MLOAD SWAP4 ISZERO ISZERO DUP5 MSTORE PUSH1 0x20 DUP5 ADD MSTORE PUSH1 0x40 DUP4 ADD MSTORE PUSH32 0x4A82A8CCECB91DF0E60674CC35673E8D01BC676C08474929B9FEC55FA34C0318 PUSH1 0x60 CALLER SWAP4 LOG3 PUSH1 0x1 DUP1 SSTORE DUP1 RETURN JUMPDEST DUP6 DUP1 REVERT JUMPDEST POP PUSH1 0x4 DUP2 ADD SLOAD DUP4 GT ISZERO PUSH3 0x994 JUMP JUMPDEST PUSH3 0xA4A SWAP1 PUSH3 0x25B2 JUMP JUMPDEST PUSH3 0xA57 JUMPI DUP5 CODESIZE PUSH3 0x97E JUMP JUMPDEST DUP5 DUP1 REVERT JUMPDEST PUSH1 0x1 DUP3 ADD DUP1 SLOAD DUP7 SWAP2 PUSH1 0x1 PUSH1 0x1 PUSH1 0xA0 SHL SUB SWAP2 PUSH3 0xA7F SWAP1 DUP6 SWAP1 ADDRESS SWAP1 CALLER SWAP1 DUP7 AND PUSH3 0x2D02 JUMP JUMPDEST SLOAD AND DUP1 EXTCODESIZE ISZERO PUSH3 0x45D JUMPI PUSH1 0x40 MLOAD PUSH4 0x2770A7EB PUSH1 0xE2 SHL DUP2 MSTORE ADDRESS PUSH1 0x4 DUP3 ADD MSTORE PUSH1 0x24 DUP2 ADD DUP5 SWAP1 MSTORE SWAP1 DUP3 SWAP1 DUP3 SWAP1 PUSH1 0x44 SWAP1 DUP3 SWAP1 DUP5 SWAP1 GAS CALL DUP1 ISZERO PUSH3 0x452 JUMPI PUSH3 0xAC6 JUMPI JUMPDEST POP POP PUSH3 0x981 JUMP JUMPDEST PUSH3 0xAD1 SWAP1 PUSH3 0x25B2 JUMP JUMPDEST PUSH3 0xA57 JUMPI DUP5 CODESIZE PUSH3 0xABE JUMP JUMPDEST POP PUSH1 0xFF PUSH1 0xE DUP4 ADD SLOAD PUSH1 0x8 SHR AND ISZERO ISZERO DUP5 ISZERO ISZERO EQ PUSH3 0x916 JUMP JUMPDEST POP DUP1 ISZERO ISZERO PUSH3 0x90F JUMP JUMPDEST POP PUSH1 0xFF PUSH1 0xE DUP4 ADD SLOAD PUSH1 0x10 SHR AND PUSH3 0x908 JUMP JUMPDEST POP CALLVALUE PUSH3 0x4D0 JUMPI PUSH3 0xB24 CALLDATASIZE PUSH3 0x24BD JUMP JUMPDEST PUSH3 0xB31 SWAP3 SWAP2 SWAP3 PUSH3 0x29BC JUMP JUMPDEST PUSH1 0x0 DUP1 DUP4 DUP3 MSTORE PUSH1 0x3 PUSH1 0x20 MSTORE PUSH1 0x40 DUP3 KECCAK256 PUSH1 0x7 DUP2 ADD DUP1 SLOAD PUSH1 0xFF DUP2 PUSH1 0x48 SHR AND SWAP1 DUP2 PUSH3 0xE8D JUMPI JUMPDEST POP DUP1 PUSH3 0xE83 JUMPI JUMPDEST ISZERO PUSH3 0xE7F JUMPI PUSH1 0x2 DUP3 ADD DUP1 SLOAD PUSH1 0x3 DUP5 ADD SLOAD DUP2 DUP11 GT PUSH3 0xE7B JUMPI SWAP1 PUSH3 0xBB8 DUP6 SWAP5 SWAP4 SWAP3 PUSH3 0xBB1 PUSH1 0x6 DUP14 SWAP10 SWAP9 ADD SLOAD PUSH3 0xB97 DUP2 DUP5 DUP8 PUSH3 0x2DA4 JUMP JUMPDEST SWAP3 PUSH3 0xBAB PUSH5 0xE8D4A51000 SWAP12 DUP13 SWAP8 PUSH3 0x292E JUMP JUMPDEST PUSH3 0x2DA4 JUMP JUMPDEST SWAP1 PUSH3 0x292E JUMP JUMPDEST DIV SWAP2 PUSH1 0x4 DUP5 ADD SWAP2 DUP3 SLOAD DUP5 GT PUSH3 0xE77 JUMPI DUP5 SLOAD PUSH1 0x1 PUSH1 0x1 PUSH1 0xA0 SHL SUB SWAP9 SWAP1 PUSH3 0xBE7 SWAP1 DUP14 SWAP1 ADDRESS SWAP1 CALLER SWAP1 DUP14 AND PUSH3 0x2D02 JUMP JUMPDEST DUP9 DUP7 SLOAD AND DUP1 EXTCODESIZE ISZERO PUSH3 0x45D JUMPI PUSH1 0x40 MLOAD PUSH4 0x2770A7EB PUSH1 0xE2 SHL DUP2 MSTORE ADDRESS PUSH1 0x4 DUP3 ADD MSTORE PUSH1 0x24 DUP2 ADD DUP15 SWAP1 MSTORE SWAP1 DUP3 SWAP1 DUP3 SWAP1 PUSH1 0x44 SWAP1 DUP3 SWAP1 DUP5 SWAP1 GAS CALL DUP1 ISZERO PUSH3 0x452 JUMPI PUSH3 0xE60 JUMPI JUMPDEST POP POP PUSH3 0xC37 DUP12 DUP3 SLOAD PUSH3 0x292E JUMP JUMPDEST SWAP1 SSTORE DUP1 SLOAD PUSH1 0x50 SHR PUSH1 0xFF AND ISZERO PUSH3 0xE32 JUMPI PUSH3 0xD31 SWAP3 PUSH1 0x5 SWAP3 PUSH3 0x24F PUSH3 0xD26 SWAP4 SLOAD SWAP3 PUSH3 0xCAC PUSH2 0x2710 SWAP2 PUSH3 0x24F PUSH2 0xFFFF SWAP7 DUP5 PUSH3 0xC79 DUP10 DUP4 AND DUP6 PUSH3 0x28F9 JUMP JUMPDEST DIV SWAP6 DUP6 PUSH3 0xCA2 DUP9 SWAP8 PUSH3 0xC93 DUP13 DUP7 PUSH1 0x10 SHR AND DUP9 PUSH3 0x28F9 JUMP JUMPDEST DIV SWAP11 DUP12 SWAP5 PUSH1 0x20 SHR AND DUP7 PUSH3 0x28F9 JUMP JUMPDEST DIV SWAP6 DUP7 SWAP5 PUSH3 0x292E JUMP JUMPDEST SWAP11 DUP3 PUSH3 0xDFB JUMPI JUMPDEST DUP2 DUP1 ISZERO ISZERO DUP1 PUSH3 0xDEB JUMPI JUMPDEST PUSH3 0xDB1 JUMPI JUMPDEST POP POP PUSH1 0x40 MLOAD SWAP2 DUP3 MSTORE DUP4 PUSH1 0x20 DUP4 ADD MSTORE PUSH1 0x40 DUP3 ADD MSTORE DUP8 PUSH1 0x60 DUP3 ADD MSTORE DUP12 PUSH32 0xF749F7BFD284883F652D37EB7D9972C4147ACE6C383F5271E74EFAA7E6DE51F4 PUSH1 0x80 CALLER SWAP4 LOG3 PUSH3 0xD1D PUSH3 0xD15 DUP4 DUP12 PUSH3 0x27C7 JUMP JUMPDEST DUP3 SLOAD PUSH3 0x292E JUMP JUMPDEST SWAP1 SSTORE DUP8 PUSH3 0x27C7 JUMP JUMPDEST SWAP3 ADD SWAP2 DUP3 SLOAD PUSH3 0x292E JUMP JUMPDEST SWAP1 SSTORE JUMPDEST PUSH3 0xD61 DUP4 CALLER PUSH32 0x0 PUSH3 0x2D5F JUMP JUMPDEST PUSH8 0xDE0B6B3A7640000 SWAP1 DUP2 DUP5 MUL SWAP2 DUP5 DUP4 DIV EQ DUP5 ISZERO OR ISZERO PUSH3 0x42C JUMPI POP PUSH32 0x946065C3CDDA2CB63655E58DAA105DE12AD021626B25178C20823B411D25108F SWAP4 SWAP3 SWAP2 PUSH3 0x402 DUP8 PUSH3 0x40D SWAP4 PUSH3 0x290D JUMP JUMPDEST PUSH3 0xDE3 SWAP2 PUSH1 0x9 DUP12 ADD SLOAD AND PUSH32 0x0 PUSH3 0x2D5F JUMP JUMPDEST CODESIZE DUP2 PUSH3 0xCC5 JUMP JUMPDEST POP DUP2 PUSH1 0x9 DUP12 ADD SLOAD AND ISZERO ISZERO PUSH3 0xCBF JUMP JUMPDEST PUSH3 0xE2C DUP4 DUP3 PUSH1 0x2 SLOAD AND PUSH32 0x0 PUSH3 0x2D5F JUMP JUMPDEST PUSH3 0xCB4 JUMP JUMPDEST POP SWAP5 POP SWAP1 PUSH1 0x5 PUSH3 0xE58 SWAP2 DUP4 SWAP7 PUSH3 0xE4C DUP6 DUP3 SLOAD PUSH3 0x292E JUMP JUMPDEST SWAP1 SSTORE ADD SWAP2 DUP3 SLOAD PUSH3 0x292E JUMP JUMPDEST SWAP1 SSTORE PUSH3 0xD34 JUMP JUMPDEST PUSH3 0xE6E SWAP2 SWAP3 SWAP8 POP PUSH3 0x25B2 JUMP JUMPDEST SWAP5 CODESIZE DUP1 PUSH3 0xC28 JUMP JUMPDEST DUP8 DUP1 REVERT JUMPDEST DUP7 DUP1 REVERT JUMPDEST DUP4 DUP1 REVERT JUMPDEST POP DUP7 ISZERO ISZERO PUSH3 0xB5D JUMP JUMPDEST PUSH1 0xFF SWAP2 POP PUSH1 0x40 SHR AND PUSH3 0xEA0 DUP2 PUSH3 0x24D8 JUMP JUMPDEST ISZERO CODESIZE PUSH3 0xB55 JUMP JUMPDEST PUSH3 0x2747 JUMP JUMPDEST POP CALLVALUE PUSH3 0x4D0 JUMPI PUSH1 0x20 CALLDATASIZE PUSH1 0x3 NOT ADD SLT PUSH3 0x4D0 JUMPI PUSH5 0xE8D4A51000 PUSH3 0xED5 PUSH1 0x4 CALLDATALOAD PUSH3 0x27D5 JUMP JUMPDEST DIV SWAP1 PUSH3 0xF4240 SWAP2 DUP3 SUB SWAP2 DUP3 GT PUSH3 0x42C JUMPI PUSH1 0x20 DUP3 PUSH1 0x40 MLOAD SWAP1 DUP2 MSTORE RETURN JUMPDEST POP CALLVALUE PUSH3 0x4D0 JUMPI PUSH1 0x40 CALLDATASIZE PUSH1 0x3 NOT ADD SLT PUSH3 0x4D0 JUMPI PUSH3 0xF36 PUSH1 0x4 CALLDATALOAD PUSH3 0xF16 PUSH3 0x2567 JUMP JUMPDEST SWAP1 DUP1 DUP5 MSTORE DUP4 PUSH1 0x20 MSTORE PUSH3 0xF30 PUSH1 0x1 PUSH1 0x40 DUP7 KECCAK256 ADD SLOAD PUSH3 0x2995 JUMP JUMPDEST PUSH3 0x2AFC JUMP JUMPDEST POP DUP1 RETURN JUMPDEST POP CALLVALUE PUSH3 0x4D0 JUMPI PUSH1 0x40 CALLDATASIZE PUSH1 0x3 NOT ADD SLT PUSH3 0x4D0 JUMPI PUSH1 0x4 CALLDATALOAD PUSH1 0x24 CALLDATALOAD PUSH1 0x1 DUP1 PUSH1 0xA0 SHL SUB PUSH1 0x5 SLOAD AND CALLER EQ DUP1 ISZERO PUSH3 0x109A JUMPI JUMPDEST ISZERO PUSH3 0x1096 JUMPI DUP2 DUP4 MSTORE PUSH1 0x3 PUSH1 0x20 MSTORE PUSH1 0x40 DUP4 KECCAK256 PUSH1 0x7 DUP2 ADD SWAP2 DUP3 SLOAD SWAP1 PUSH1 0xFF DUP3 PUSH1 0x48 SHR AND DUP1 PUSH3 0x1083 JUMPI JUMPDEST DUP1 PUSH3 0x1074 JUMPI JUMPDEST ISZERO PUSH3 0xA2C JUMPI PUSH1 0xE DUP4 PUSH32 0x6D4D544F5A6DCF38D77A232D3EF7358625C74877A1AD954FCB507872E7A05EAF SWAP6 PUSH1 0xD PUSH1 0x40 SWAP7 ADD SLOAD DUP1 DUP6 GT PUSH1 0x0 EQ PUSH3 0x102A JUMPI POP PUSH1 0x1 PUSH1 0x41 SHL PUSH1 0xFF DUP5 DUP5 ADD SLOAD AND PUSH3 0xFED DUP2 PUSH3 0x24D8 JUMP JUMPDEST ISZERO SWAP6 JUMPDEST PUSH1 0xFF PUSH1 0x40 SHL NOT AND OR SWAP1 SSTORE ADD DUP1 SLOAD PUSH3 0x10000 PUSH3 0xFFFF00 NOT SWAP1 SWAP2 AND PUSH2 0xFF00 SWAP5 ISZERO ISZERO PUSH1 0x8 DUP2 SWAP1 SHL SWAP6 SWAP1 SWAP6 AND OR OR SWAP1 SSTORE DUP3 MLOAD SWAP2 DUP3 MSTORE PUSH1 0x20 DUP3 ADD MSTORE LOG2 DUP1 RETURN JUMPDEST DUP5 LT ISZERO PUSH3 0x1054 JUMPI PUSH1 0x1 PUSH1 0x41 SHL PUSH1 0x1 PUSH1 0xFF DUP6 DUP6 ADD SLOAD AND PUSH3 0x104B DUP2 PUSH3 0x24D8 JUMP JUMPDEST EQ JUMPDEST SWAP6 PUSH3 0xFF0 JUMP JUMPDEST PUSH1 0x1 PUSH1 0x41 SHL PUSH1 0x2 PUSH1 0xFF DUP6 DUP6 ADD SLOAD AND PUSH3 0x106D DUP2 PUSH3 0x24D8 JUMP JUMPDEST EQ PUSH3 0x104D JUMP JUMPDEST POP PUSH1 0xA DUP4 ADD SLOAD TIMESTAMP LT ISZERO PUSH3 0xF98 JUMP JUMPDEST POP PUSH1 0xFF PUSH1 0xE DUP5 ADD SLOAD PUSH1 0x10 SHR AND ISZERO PUSH3 0xF91 JUMP JUMPDEST DUP3 DUP1 REVERT JUMPDEST POP DUP3 DUP1 MSTORE DUP3 PUSH1 0x20 MSTORE PUSH1 0x40 DUP4 KECCAK256 CALLER PUSH1 0x0 MSTORE PUSH1 0x20 MSTORE PUSH1 0xFF PUSH1 0x40 PUSH1 0x0 KECCAK256 SLOAD AND PUSH3 0xF69 JUMP JUMPDEST POP CALLVALUE PUSH3 0x4D0 JUMPI PUSH1 0x20 CALLDATASIZE PUSH1 0x3 NOT ADD SLT PUSH3 0x4D0 JUMPI PUSH3 0x10DA PUSH3 0x257E JUMP JUMPDEST PUSH3 0x10E4 PUSH3 0x293C JUMP JUMPDEST PUSH1 0x1 DUP1 PUSH1 0xA0 SHL SUB AND PUSH1 0x1 PUSH1 0x1 PUSH1 0x60 SHL SUB PUSH1 0xA0 SHL PUSH1 0x5 SLOAD AND OR PUSH1 0x5 SSTORE DUP1 RETURN JUMPDEST POP CALLVALUE PUSH3 0x4D0 JUMPI PUSH1 0x20 CALLDATASIZE PUSH1 0x3 NOT ADD SLT PUSH3 0x4D0 JUMPI PUSH1 0x4 CALLDATALOAD DUP2 MSTORE PUSH1 0x3 PUSH1 0x20 MSTORE PUSH1 0x40 DUP2 KECCAK256 SWAP1 PUSH1 0x1 DUP1 PUSH1 0xA0 SHL SUB DUP3 SLOAD AND SWAP2 PUSH1 0x1 DUP1 PUSH1 0xA0 SHL SUB PUSH1 0x1 DUP3 ADD SLOAD AND SWAP2 PUSH1 0x2 DUP3 ADD SLOAD SWAP1 PUSH1 0x3 DUP4 ADD SLOAD PUSH1 0x4 DUP5 ADD SLOAD PUSH1 0x5 DUP6 ADD SLOAD PUSH1 0x6 DUP7 ADD SLOAD SWAP2 PUSH1 0x7 DUP8 ADD SLOAD SWAP4 PUSH1 0x40 MLOAD SWAP6 DUP1 PUSH1 0x8 DUP11 ADD SLOAD SWAP1 PUSH3 0x1175 DUP3 PUSH3 0x2643 JUMP JUMPDEST DUP1 DUP11 MSTORE SWAP2 PUSH1 0x1 DUP2 AND SWAP1 DUP2 ISZERO PUSH3 0x12CA JUMPI POP PUSH1 0x1 EQ PUSH3 0x128A JUMPI JUMPDEST POP POP SWAP4 PUSH1 0x40 SWAP11 SWAP4 PUSH1 0xFF SWAP4 PUSH3 0x1273 SWAP8 SWAP4 PUSH3 0x11B3 DUP11 PUSH3 0x1286 SWAP13 SWAP12 SWAP10 SUB DUP10 PUSH3 0x25C6 JUMP JUMPDEST PUSH1 0x9 DUP13 ADD SLOAD PUSH1 0x1 PUSH1 0x1 PUSH1 0xA0 SHL SUB AND SWAP12 PUSH3 0x11D0 SWAP1 PUSH1 0xA ADD PUSH3 0x2680 JUMP JUMPDEST SWAP10 DUP15 MLOAD SWAP15 DUP16 SWAP15 DUP16 SWAP1 PUSH2 0x300 SWAP11 DUP3 MSTORE PUSH1 0x20 DUP3 ADD MSTORE ADD MSTORE PUSH1 0x60 DUP14 ADD MSTORE PUSH1 0x80 DUP13 ADD MSTORE PUSH1 0xA0 DUP12 ADD MSTORE PUSH1 0xC0 DUP11 ADD MSTORE PUSH2 0xFFFF DUP2 AND PUSH1 0xE0 DUP11 ADD MSTORE PUSH2 0xFFFF DUP2 PUSH1 0x10 SHR AND PUSH2 0x100 DUP11 ADD MSTORE PUSH2 0xFFFF DUP2 PUSH1 0x20 SHR AND PUSH2 0x120 DUP11 ADD MSTORE PUSH2 0xFFFF DUP2 PUSH1 0x30 SHR AND PUSH2 0x140 DUP11 ADD MSTORE PUSH3 0x123D DUP3 DUP3 PUSH1 0x40 SHR AND PUSH3 0x24D8 JUMP JUMPDEST DUP2 DUP2 PUSH1 0x40 SHR AND PUSH2 0x160 DUP11 ADD MSTORE DUP2 DUP2 PUSH1 0x48 SHR AND ISZERO ISZERO PUSH2 0x180 DUP11 ADD MSTORE PUSH1 0x50 SHR AND ISZERO ISZERO PUSH2 0x1A0 DUP9 ADD MSTORE DUP1 PUSH2 0x1C0 DUP9 ADD MSTORE DUP7 ADD SWAP1 PUSH3 0x2705 JUMP JUMPDEST SWAP3 PUSH2 0x1E0 DUP6 ADD MSTORE PUSH2 0x200 DUP5 ADD SWAP1 PUSH3 0x24F9 JUMP JUMPDEST SUB SWAP1 RETURN JUMPDEST SWAP2 POP PUSH1 0x8 DUP11 ADD DUP3 MSTORE PUSH1 0x20 DUP3 KECCAK256 JUMPDEST DUP2 DUP4 LT PUSH3 0x12AF JUMPI POP POP DUP7 ADD PUSH1 0x20 ADD DUP4 PUSH1 0xFF PUSH3 0x118F JUMP JUMPDEST PUSH1 0x1 DUP2 PUSH1 0x20 SWAP3 SWAP5 SWAP4 SWAP5 SLOAD DUP4 DUP6 DUP14 ADD ADD MSTORE ADD SWAP2 ADD SWAP2 SWAP1 PUSH3 0x1297 JUMP JUMPDEST PUSH1 0xFF NOT AND PUSH1 0x20 DUP1 DUP13 ADD SWAP2 SWAP1 SWAP2 MSTORE SWAP3 ISZERO ISZERO PUSH1 0x5 SHL DUP11 ADD SWAP1 SWAP3 ADD SWAP3 POP DUP6 SWAP2 POP PUSH1 0xFF SWAP1 POP PUSH3 0x118F JUMP JUMPDEST POP CALLVALUE PUSH3 0x4D0 JUMPI PUSH1 0x20 CALLDATASIZE PUSH1 0x3 NOT ADD SLT PUSH3 0x4D0 JUMPI PUSH3 0xF36 PUSH3 0x1313 PUSH3 0x257E JUMP JUMPDEST PUSH3 0x131D PUSH3 0x293C JUMP JUMPDEST PUSH3 0x29E0 JUMP JUMPDEST POP CALLVALUE PUSH3 0x4D0 JUMPI DUP1 PUSH1 0x3 NOT CALLDATASIZE ADD SLT PUSH3 0x4D0 JUMPI PUSH1 0x20 PUSH1 0x40 MLOAD PUSH1 0x0 DUP1 MLOAD PUSH1 0x20 PUSH3 0x4405 DUP4 CODECOPY DUP2 MLOAD SWAP2 MSTORE DUP2 MSTORE RETURN JUMPDEST POP CALLVALUE PUSH3 0x4D0 JUMPI PUSH2 0x1E0 CALLDATASIZE PUSH1 0x3 NOT ADD SLT PUSH3 0x4D0 JUMPI PUSH1 0x4 CALLDATALOAD PUSH1 0x1 PUSH1 0x1 PUSH1 0x40 SHL SUB DUP2 GT PUSH3 0x45D JUMPI PUSH3 0x1386 SWAP1 CALLDATASIZE SWAP1 PUSH1 0x4 ADD PUSH3 0x25E8 JUMP JUMPDEST SWAP1 PUSH1 0x24 CALLDATALOAD PUSH1 0x1 PUSH1 0x1 PUSH1 0x40 SHL SUB DUP2 GT PUSH3 0x45D JUMPI PUSH3 0x13A9 SWAP1 CALLDATASIZE SWAP1 PUSH1 0x4 ADD PUSH3 0x25E8 JUMP JUMPDEST SWAP1 PUSH1 0x44 CALLDATALOAD PUSH1 0x1 PUSH1 0x1 PUSH1 0x40 SHL SUB DUP2 GT PUSH3 0x45D JUMPI PUSH3 0x13CC SWAP1 CALLDATASIZE SWAP1 PUSH1 0x4 ADD PUSH3 0x25E8 JUMP JUMPDEST SWAP1 PUSH1 0x64 CALLDATALOAD PUSH1 0x1 PUSH1 0x1 PUSH1 0x40 SHL SUB DUP2 GT PUSH3 0x45D JUMPI PUSH3 0x13EF SWAP1 CALLDATASIZE SWAP1 PUSH1 0x4 ADD PUSH3 0x25E8 JUMP JUMPDEST SWAP2 PUSH1 0x84 CALLDATALOAD PUSH1 0x1 PUSH1 0x1 PUSH1 0x40 SHL SUB DUP2 GT PUSH3 0x1096 JUMPI PUSH3 0x1412 SWAP1 CALLDATASIZE SWAP1 PUSH1 0x4 ADD PUSH3 0x25E8 JUMP JUMPDEST PUSH2 0xFFFF PUSH1 0xC4 CALLDATALOAD AND PUSH1 0xC4 CALLDATALOAD SUB PUSH3 0x1096 JUMPI PUSH2 0xFFFF PUSH1 0xE4 CALLDATALOAD AND PUSH1 0xE4 CALLDATALOAD SUB PUSH3 0x1096 JUMPI PUSH1 0x3 PUSH2 0x144 CALLDATALOAD LT ISZERO PUSH3 0x1096 JUMPI PUSH2 0x164 CALLDATALOAD SWAP2 PUSH1 0x1 PUSH1 0x1 PUSH1 0xA0 SHL SUB DUP4 AND DUP4 SUB PUSH3 0xE7F JUMPI PUSH1 0x3 PUSH2 0x1C4 CALLDATALOAD LT ISZERO PUSH3 0xE7F JUMPI PUSH1 0x0 DUP1 MLOAD PUSH1 0x20 PUSH3 0x4405 DUP4 CODECOPY DUP2 MLOAD SWAP2 MSTORE DUP5 MSTORE DUP4 PUSH1 0x20 MSTORE PUSH1 0x40 DUP5 KECCAK256 CALLER DUP6 MSTORE PUSH1 0x20 MSTORE PUSH1 0xFF PUSH1 0x40 DUP6 KECCAK256 SLOAD AND ISZERO PUSH3 0x1D76 JUMPI PUSH3 0xF4240 PUSH2 0x104 CALLDATALOAD LT ISZERO DUP1 PUSH3 0x1D63 JUMPI JUMPDEST DUP1 PUSH3 0x1D50 JUMPI JUMPDEST ISZERO PUSH3 0xE7F JUMPI PUSH1 0x4 SLOAD SWAP6 PUSH1 0x0 NOT DUP8 EQ PUSH3 0x4BC JUMPI PUSH1 0x1 DUP8 ADD PUSH1 0x4 SSTORE PUSH1 0x40 MLOAD SWAP2 DUP3 PUSH2 0x1271 DUP2 ADD LT PUSH1 0x1 PUSH1 0x1 PUSH1 0x40 SHL SUB PUSH2 0x1271 DUP6 ADD GT OR PUSH3 0x1D31 JUMPI DUP3 SWAP2 PUSH3 0x14FF SWAP2 PUSH2 0x1271 PUSH3 0x3194 DUP6 CODECOPY ADDRESS SWAP2 PUSH2 0x1271 DUP6 ADD PUSH3 0x286A JUMP JUMPDEST SUB SWAP1 DUP5 CREATE SWAP4 DUP5 ISZERO PUSH3 0x1D45 JUMPI PUSH1 0x40 MLOAD SWAP2 PUSH2 0x1271 DUP4 ADD SWAP2 DUP4 DUP4 LT PUSH1 0x1 PUSH1 0x1 PUSH1 0x40 SHL SUB DUP5 GT OR PUSH3 0x1D31 JUMPI SWAP2 PUSH3 0x1541 SWAP2 DUP5 SWAP4 PUSH2 0x1271 PUSH3 0x3194 DUP7 CODECOPY ADDRESS SWAP3 PUSH3 0x286A JUMP JUMPDEST SUB SWAP1 DUP4 CREATE SWAP2 DUP3 ISZERO PUSH3 0x1D25 JUMPI PUSH1 0x40 MLOAD PUSH4 0xD5391393 PUSH1 0xE0 SHL DUP2 MSTORE PUSH1 0x20 DUP2 PUSH1 0x4 DUP2 PUSH1 0x1 PUSH1 0x1 PUSH1 0xA0 SHL SUB DUP10 AND GAS STATICCALL SWAP1 DUP2 ISZERO PUSH3 0x452 JUMPI DUP3 SWAP2 PUSH3 0x1CED JUMPI JUMPDEST POP PUSH1 0x1 PUSH1 0x1 PUSH1 0xA0 SHL SUB DUP6 AND EXTCODESIZE ISZERO PUSH3 0x45D JUMPI PUSH1 0x40 MLOAD PUSH4 0x2F2FF15D PUSH1 0xE0 SHL DUP2 MSTORE PUSH1 0x4 DUP2 ADD SWAP2 SWAP1 SWAP2 MSTORE ADDRESS PUSH1 0x24 DUP3 ADD MSTORE DUP2 DUP2 PUSH1 0x44 DUP2 DUP4 PUSH1 0x1 PUSH1 0x1 PUSH1 0xA0 SHL SUB DUP11 AND GAS CALL DUP1 ISZERO PUSH3 0x452 JUMPI PUSH3 0x1CDB JUMPI JUMPDEST POP PUSH1 0x40 MLOAD PUSH4 0x282C51F3 PUSH1 0xE0 SHL DUP2 MSTORE PUSH1 0x20 DUP2 PUSH1 0x4 DUP2 PUSH1 0x1 PUSH1 0x1 PUSH1 0xA0 SHL SUB DUP10 AND GAS STATICCALL SWAP1 DUP2 ISZERO PUSH3 0x452 JUMPI DUP3 SWAP2 PUSH3 0x1CA3 JUMPI JUMPDEST POP PUSH1 0x1 PUSH1 0x1 PUSH1 0xA0 SHL SUB DUP6 AND EXTCODESIZE ISZERO PUSH3 0x45D JUMPI PUSH1 0x40 MLOAD PUSH4 0x2F2FF15D PUSH1 0xE0 SHL DUP2 MSTORE PUSH1 0x4 DUP2 ADD SWAP2 SWAP1 SWAP2 MSTORE ADDRESS PUSH1 0x24 DUP3 ADD MSTORE DUP2 DUP2 PUSH1 0x44 DUP2 DUP4 PUSH1 0x1 PUSH1 0x1 PUSH1 0xA0 SHL SUB DUP11 AND GAS CALL DUP1 ISZERO PUSH3 0x452 JUMPI SWAP1 DUP3 SWAP2 PUSH3 0x1C8B JUMPI JUMPDEST POP POP PUSH1 0x40 MLOAD PUSH4 0xD5391393 PUSH1 0xE0 SHL DUP2 MSTORE PUSH1 0x20 DUP2 PUSH1 0x4 DUP2 PUSH1 0x1 PUSH1 0x1 PUSH1 0xA0 SHL SUB DUP9 AND GAS STATICCALL SWAP1 DUP2 ISZERO PUSH3 0x452 JUMPI DUP3 SWAP2 PUSH3 0x1C53 JUMPI JUMPDEST POP PUSH1 0x1 PUSH1 0x1 PUSH1 0xA0 SHL SUB DUP5 AND EXTCODESIZE ISZERO PUSH3 0x45D JUMPI PUSH1 0x40 MLOAD PUSH4 0x2F2FF15D PUSH1 0xE0 SHL DUP2 MSTORE PUSH1 0x4 DUP2 ADD SWAP2 SWAP1 SWAP2 MSTORE ADDRESS PUSH1 0x24 DUP3 ADD MSTORE DUP2 DUP2 PUSH1 0x44 DUP2 DUP4 PUSH1 0x1 PUSH1 0x1 PUSH1 0xA0 SHL SUB DUP10 AND GAS CALL DUP1 ISZERO PUSH3 0x452 JUMPI SWAP1 DUP3 SWAP2 PUSH3 0x1C3B JUMPI JUMPDEST POP POP PUSH1 0x40 MLOAD PUSH4 0x282C51F3 PUSH1 0xE0 SHL DUP2 MSTORE PUSH1 0x20 DUP2 PUSH1 0x4 DUP2 PUSH1 0x1 PUSH1 0x1 PUSH1 0xA0 SHL SUB DUP9 AND GAS STATICCALL SWAP1 DUP2 ISZERO PUSH3 0x452 JUMPI DUP3 SWAP2 PUSH3 0x1C03 JUMPI JUMPDEST POP PUSH1 0x1 PUSH1 0x1 PUSH1 0xA0 SHL SUB DUP5 AND EXTCODESIZE ISZERO PUSH3 0x45D JUMPI PUSH1 0x40 MLOAD PUSH4 0x2F2FF15D PUSH1 0xE0 SHL DUP2 MSTORE PUSH1 0x4 DUP2 ADD SWAP2 SWAP1 SWAP2 MSTORE ADDRESS PUSH1 0x24 DUP3 ADD MSTORE DUP2 DUP2 PUSH1 0x44 DUP2 DUP4 PUSH1 0x1 PUSH1 0x1 PUSH1 0xA0 SHL SUB DUP10 AND GAS CALL DUP1 ISZERO PUSH3 0x452 JUMPI SWAP1 DUP3 SWAP2 PUSH3 0x1BEB JUMPI JUMPDEST POP POP PUSH1 0x1 DUP6 ADD DUP2 MSTORE PUSH1 0x3 PUSH1 0x20 MSTORE PUSH1 0x40 DUP2 KECCAK256 SWAP2 PUSH1 0x1 PUSH1 0x1 PUSH1 0x60 SHL SUB PUSH1 0xA0 SHL PUSH1 0x1 DUP1 PUSH1 0xA0 SHL SUB DUP7 AND DUP2 DUP6 SLOAD AND OR DUP5 SSTORE PUSH1 0x1 DUP5 ADD PUSH1 0x1 DUP1 PUSH1 0xA0 SHL SUB DUP7 AND DUP3 DUP3 SLOAD AND OR SWAP1 SSTORE PUSH1 0x32 PUSH2 0xFFFF PUSH1 0xC4 CALLDATALOAD AND MUL PUSH2 0xFFFF DUP2 AND SWAP1 DUP2 SUB PUSH3 0x1BD5 JUMPI PUSH1 0x64 SWAP1 DIV PUSH1 0x19 PUSH2 0xFFFF PUSH1 0xC4 CALLDATALOAD AND MUL PUSH2 0xFFFF DUP2 AND SWAP1 DUP2 SUB PUSH3 0x1BD5 JUMPI PUSH1 0x7 DUP7 ADD DUP1 SLOAD PUSH4 0xFFFFFFFF NOT AND PUSH2 0xFFFF DUP5 AND OR PUSH1 0x64 SWAP1 SWAP3 DIV PUSH1 0x10 DUP2 SWAP1 SHL PUSH4 0xFFFF0000 AND SWAP3 SWAP1 SWAP3 OR DUP2 SSTORE SWAP2 PUSH3 0x1820 SWAP2 PUSH3 0x1802 SWAP2 PUSH3 0x17FC SWAP1 PUSH1 0xC4 CALLDATALOAD PUSH3 0x28A8 JUMP JUMPDEST PUSH3 0x28A8 JUMP JUMPDEST DUP3 SLOAD PUSH6 0xFFFF00000000 NOT AND PUSH1 0x20 SWAP2 SWAP1 SWAP2 SHL PUSH6 0xFFFF00000000 AND OR DUP3 SSTORE JUMP JUMPDEST DUP1 SLOAD PUSH10 0xFFFFFFFF000000000000 NOT AND PUSH1 0xE4 CALLDATALOAD PUSH1 0x30 SHL PUSH8 0xFFFF000000000000 AND OR PUSH10 0x1000000000000000000 OR SWAP1 SSTORE PUSH1 0x9 DUP5 ADD DUP1 SLOAD SWAP1 SWAP2 AND CALLER OR SWAP1 SSTORE DUP7 MLOAD PUSH1 0x1 PUSH1 0x1 PUSH1 0x40 SHL SUB DUP2 GT PUSH3 0x1BC1 JUMPI PUSH3 0x187B PUSH1 0x8 DUP6 ADD SLOAD PUSH3 0x2643 JUMP JUMPDEST PUSH1 0x1F DUP2 GT PUSH3 0x1B78 JUMPI JUMPDEST POP DUP1 PUSH1 0x20 PUSH1 0x1F DUP3 GT PUSH1 0x1 EQ PUSH3 0x1B08 JUMPI DUP5 SWAP2 PUSH3 0x1AFC JUMPI JUMPDEST POP DUP2 PUSH1 0x1 SHL SWAP2 PUSH1 0x0 NOT SWAP1 PUSH1 0x3 SHL SHR NOT AND OR PUSH1 0x8 DUP5 ADD SSTORE JUMPDEST PUSH1 0x40 MLOAD PUSH3 0x18C2 DUP2 PUSH3 0x2595 JUMP JUMPDEST PUSH2 0x124 CALLDATALOAD DUP2 MSTORE PUSH3 0x19C9 PUSH1 0x20 DUP3 ADD SWAP3 PUSH3 0x18DF PUSH2 0x144 CALLDATALOAD PUSH3 0x24D8 JUMP JUMPDEST PUSH2 0x144 CALLDATALOAD DUP5 MSTORE PUSH1 0x40 DUP4 ADD SWAP1 PUSH1 0x1 DUP1 PUSH1 0xA0 SHL SUB AND DUP2 MSTORE PUSH1 0x60 DUP4 ADD PUSH2 0x184 CALLDATALOAD DUP2 MSTORE PUSH1 0x80 DUP5 ADD SWAP1 PUSH2 0x1A4 CALLDATALOAD DUP3 MSTORE PUSH1 0xA0 DUP6 ADD SWAP6 PUSH3 0x191C PUSH2 0x1C4 CALLDATALOAD PUSH3 0x24D8 JUMP JUMPDEST PUSH2 0x1C4 CALLDATALOAD DUP8 MSTORE PUSH1 0xC0 DUP7 ADD SWAP4 DUP9 DUP6 MSTORE PUSH1 0xE0 DUP8 ADD SWAP7 DUP10 DUP9 MSTORE MLOAD PUSH1 0xA DUP12 ADD SSTORE PUSH1 0xB DUP11 ADD SWAP2 MLOAD SWAP1 PUSH3 0x194A DUP3 PUSH3 0x24D8 JUMP JUMPDEST PUSH3 0x1955 DUP3 PUSH3 0x24D8 JUMP JUMPDEST PUSH1 0xFF DUP4 SLOAD SWAP2 PUSH2 0x100 PUSH1 0x1 PUSH1 0xA8 SHL SUB SWAP1 MLOAD PUSH1 0x8 SHL AND SWAP3 AND SWAP1 PUSH11 0xFFFFFFFFFFFFFFFFFFFFFF PUSH1 0xA8 SHL AND OR OR SWAP1 SSTORE MLOAD PUSH1 0xC DUP9 ADD SSTORE MLOAD PUSH1 0xD DUP8 ADD SSTORE PUSH1 0xE DUP7 ADD SWAP4 MLOAD PUSH3 0x199D DUP2 PUSH3 0x24D8 JUMP JUMPDEST PUSH3 0x19A8 DUP2 PUSH3 0x24D8 JUMP JUMPDEST DUP5 SLOAD SWAP2 MLOAD PUSH2 0xFFFF NOT SWAP1 SWAP3 AND PUSH1 0xFF SWAP2 SWAP1 SWAP2 AND OR SWAP1 ISZERO ISZERO PUSH1 0x8 SHL PUSH2 0xFF00 AND OR DUP4 SSTORE JUMP JUMPDEST MLOAD DUP2 SLOAD PUSH3 0xFF0000 NOT AND SWAP1 ISZERO ISZERO PUSH1 0x10 SHL PUSH3 0xFF0000 AND OR SWAP1 SSTORE PUSH3 0x1A11 PUSH2 0x104 CALLDATALOAD ADDRESS CALLER PUSH32 0x0 PUSH3 0x2D02 JUMP JUMPDEST PUSH2 0x104 CALLDATALOAD PUSH1 0x4 DUP4 ADD SSTORE PUSH2 0x104 CALLDATALOAD PUSH1 0x5 DUP4 ADD SSTORE PUSH5 0xE8D4A51000 SWAP1 DUP2 PUSH2 0x104 CALLDATALOAD MUL SWAP2 PUSH2 0x104 CALLDATALOAD DUP4 DIV EQ PUSH2 0x104 CALLDATALOAD ISZERO OR ISZERO PUSH3 0x42C JUMPI PUSH13 0xC9F2C9CD04674EDEA40000000 PUSH2 0x104 CALLDATALOAD MUL SWAP2 DUP1 DUP4 DIV PUSH8 0xDE0B6B3A7640000 EQ SWAP1 ISZERO OR ISZERO PUSH3 0x42C JUMPI POP SWAP5 PUSH32 0x8A671E50058538A6B89D0F6600AA6E9DDC0A3E80E63C1689A1514F5F3113D926 SWAP3 PUSH3 0x1AD5 SWAP3 PUSH1 0x6 PUSH8 0x99E8DB03256CE5D PUSH1 0x20 SWAP10 DIV SWAP2 ADD SSTORE PUSH1 0x40 MLOAD SWAP5 PUSH1 0x1 DUP1 PUSH1 0xA0 SHL SUB AND DUP6 MSTORE PUSH1 0x1 DUP1 PUSH1 0xA0 SHL SUB AND DUP7 DUP6 ADD MSTORE PUSH1 0xA0 PUSH1 0x40 DUP6 ADD MSTORE PUSH1 0xA0 DUP5 ADD SWAP1 PUSH3 0x2705 JUMP JUMPDEST SWAP2 PUSH2 0x104 CALLDATALOAD PUSH1 0x60 DUP3 ADD MSTORE PUSH2 0x124 CALLDATALOAD PUSH1 0x80 DUP3 ADD MSTORE DUP1 PUSH1 0x1 DUP6 ADD SWAP4 SUB SWAP1 LOG2 PUSH1 0x1 PUSH1 0x40 MLOAD SWAP2 ADD DUP2 MSTORE RETURN JUMPDEST SWAP1 POP DUP9 ADD MLOAD CODESIZE PUSH3 0x189D JUMP JUMPDEST SWAP2 POP PUSH1 0x8 DUP6 ADD DUP5 MSTORE PUSH1 0x20 DUP5 KECCAK256 DUP5 SWAP3 JUMPDEST DUP11 PUSH1 0x1F NOT DUP5 AND DUP6 LT PUSH3 0x1B60 JUMPI POP PUSH1 0x1 SWAP4 POP DUP3 PUSH1 0x1F NOT DUP2 AND LT PUSH3 0x1B46 JUMPI JUMPDEST POP POP DUP2 SHL ADD PUSH1 0x8 DUP5 ADD SSTORE PUSH3 0x18B4 JUMP JUMPDEST DUP11 ADD MLOAD PUSH1 0x0 NOT PUSH1 0xF8 DUP5 PUSH1 0x3 SHL AND SHR NOT AND SWAP1 SSTORE CODESIZE DUP1 PUSH3 0x1B36 JUMP JUMPDEST DUP2 ADD MLOAD DUP3 SSTORE PUSH1 0x20 SWAP4 DUP5 ADD SWAP4 PUSH1 0x1 SWAP1 SWAP3 ADD SWAP2 ADD PUSH3 0x1B17 JUMP JUMPDEST PUSH1 0x8 DUP6 ADD DUP5 MSTORE PUSH1 0x20 DUP5 KECCAK256 PUSH1 0x1F DUP4 ADD PUSH1 0x5 SHR DUP2 ADD PUSH1 0x20 DUP5 LT PUSH3 0x1BB9 JUMPI JUMPDEST PUSH1 0x1F DUP4 ADD PUSH1 0x5 SHR DUP3 ADD DUP2 LT PUSH3 0x1BAD JUMPI POP POP PUSH3 0x1885 JUMP JUMPDEST DUP6 DUP2 SSTORE PUSH1 0x1 ADD PUSH3 0x1B95 JUMP JUMPDEST POP DUP1 PUSH3 0x1B95 JUMP JUMPDEST PUSH4 0x4E487B71 PUSH1 0xE0 SHL DUP4 MSTORE PUSH1 0x41 PUSH1 0x4 MSTORE PUSH1 0x24 DUP4 REVERT JUMPDEST PUSH4 0x4E487B71 PUSH1 0xE0 SHL PUSH1 0x0 MSTORE PUSH1 0x11 PUSH1 0x4 MSTORE PUSH1 0x24 PUSH1 0x0 REVERT JUMPDEST PUSH3 0x1BF6 SWAP1 PUSH3 0x25B2 JUMP JUMPDEST PUSH3 0x4D0 JUMPI DUP1 CODESIZE PUSH3 0x1747 JUMP JUMPDEST SWAP1 POP PUSH1 0x20 DUP2 RETURNDATASIZE PUSH1 0x20 GT PUSH3 0x1C32 JUMPI JUMPDEST DUP2 PUSH3 0x1C21 PUSH1 0x20 SWAP4 DUP4 PUSH3 0x25C6 JUMP JUMPDEST DUP2 ADD SUB SLT PUSH3 0x88B JUMPI MLOAD CODESIZE PUSH3 0x16F8 JUMP JUMPDEST RETURNDATASIZE SWAP2 POP PUSH3 0x1C12 JUMP JUMPDEST PUSH3 0x1C46 SWAP1 PUSH3 0x25B2 JUMP JUMPDEST PUSH3 0x4D0 JUMPI DUP1 CODESIZE PUSH3 0x16C7 JUMP JUMPDEST SWAP1 POP PUSH1 0x20 DUP2 RETURNDATASIZE PUSH1 0x20 GT PUSH3 0x1C82 JUMPI JUMPDEST DUP2 PUSH3 0x1C71 PUSH1 0x20 SWAP4 DUP4 PUSH3 0x25C6 JUMP JUMPDEST DUP2 ADD SUB SLT PUSH3 0x88B JUMPI MLOAD CODESIZE PUSH3 0x1678 JUMP JUMPDEST RETURNDATASIZE SWAP2 POP PUSH3 0x1C62 JUMP JUMPDEST PUSH3 0x1C96 SWAP1 PUSH3 0x25B2 JUMP JUMPDEST PUSH3 0x4D0 JUMPI DUP1 CODESIZE PUSH3 0x1647 JUMP JUMPDEST SWAP1 POP PUSH1 0x20 DUP2 RETURNDATASIZE PUSH1 0x20 GT PUSH3 0x1CD2 JUMPI JUMPDEST DUP2 PUSH3 0x1CC1 PUSH1 0x20 SWAP4 DUP4 PUSH3 0x25C6 JUMP JUMPDEST DUP2 ADD SUB SLT PUSH3 0x88B JUMPI MLOAD CODESIZE PUSH3 0x15F8 JUMP JUMPDEST RETURNDATASIZE SWAP2 POP PUSH3 0x1CB2 JUMP JUMPDEST PUSH3 0x1CE6 SWAP1 PUSH3 0x25B2 JUMP JUMPDEST CODESIZE PUSH3 0x15C8 JUMP JUMPDEST SWAP1 POP PUSH1 0x20 DUP2 RETURNDATASIZE PUSH1 0x20 GT PUSH3 0x1D1C JUMPI JUMPDEST DUP2 PUSH3 0x1D0B PUSH1 0x20 SWAP4 DUP4 PUSH3 0x25C6 JUMP JUMPDEST DUP2 ADD SUB SLT PUSH3 0x45D JUMPI MLOAD CODESIZE PUSH3 0x157C JUMP JUMPDEST RETURNDATASIZE SWAP2 POP PUSH3 0x1CFC JUMP JUMPDEST PUSH1 0x40 MLOAD SWAP1 RETURNDATASIZE SWAP1 DUP3 RETURNDATACOPY RETURNDATASIZE SWAP1 REVERT JUMPDEST PUSH4 0x4E487B71 PUSH1 0xE0 SHL DUP7 MSTORE PUSH1 0x41 PUSH1 0x4 MSTORE PUSH1 0x24 DUP7 REVERT JUMPDEST PUSH1 0x40 MLOAD RETURNDATASIZE DUP6 DUP3 RETURNDATACOPY RETURNDATASIZE SWAP1 REVERT JUMPDEST POP PUSH2 0x2710 PUSH2 0xFFFF PUSH1 0xE4 CALLDATALOAD AND GT ISZERO PUSH3 0x14A8 JUMP JUMPDEST POP PUSH2 0x3E8 PUSH2 0xFFFF PUSH1 0xC4 CALLDATALOAD AND GT ISZERO PUSH3 0x14A1 JUMP JUMPDEST PUSH1 0x40 MLOAD PUSH4 0xE2517D3F PUSH1 0xE0 SHL DUP2 MSTORE CALLER PUSH1 0x4 DUP3 ADD MSTORE PUSH1 0x0 DUP1 MLOAD PUSH1 0x20 PUSH3 0x4405 DUP4 CODECOPY DUP2 MLOAD SWAP2 MSTORE PUSH1 0x24 DUP3 ADD MSTORE PUSH1 0x44 SWAP1 REVERT JUMPDEST POP CALLVALUE PUSH3 0x4D0 JUMPI DUP1 PUSH1 0x3 NOT CALLDATASIZE ADD SLT PUSH3 0x4D0 JUMPI PUSH1 0x20 SWAP1 PUSH1 0x40 MLOAD SWAP1 DUP2 MSTORE RETURN JUMPDEST POP CALLVALUE PUSH3 0x4D0 JUMPI PUSH1 0x40 CALLDATASIZE PUSH1 0x3 NOT ADD SLT PUSH3 0x4D0 JUMPI PUSH1 0xFF PUSH1 0x40 PUSH1 0x20 SWAP3 PUSH3 0x1DE6 PUSH3 0x2567 JUMP JUMPDEST PUSH1 0x4 CALLDATALOAD DUP3 MSTORE DUP2 DUP6 MSTORE DUP3 DUP3 KECCAK256 PUSH1 0x1 PUSH1 0x1 PUSH1 0xA0 SHL SUB SWAP1 SWAP2 AND DUP3 MSTORE DUP5 MSTORE KECCAK256 SLOAD PUSH1 0x40 MLOAD SWAP2 AND ISZERO ISZERO DUP2 MSTORE RETURN JUMPDEST POP CALLVALUE PUSH3 0x4D0 JUMPI DUP1 PUSH1 0x3 NOT CALLDATASIZE ADD SLT PUSH3 0x4D0 JUMPI PUSH1 0x5 SLOAD PUSH1 0x40 MLOAD PUSH1 0x1 PUSH1 0x1 PUSH1 0xA0 SHL SUB SWAP1 SWAP2 AND DUP2 MSTORE PUSH1 0x20 SWAP1 RETURN JUMPDEST POP CALLVALUE PUSH3 0x4D0 JUMPI PUSH1 0x20 CALLDATASIZE PUSH1 0x3 NOT ADD SLT PUSH3 0x4D0 JUMPI PUSH1 0x20 PUSH3 0x1E5B PUSH1 0x4 CALLDATALOAD PUSH3 0x27D5 JUMP JUMPDEST PUSH1 0x40 MLOAD SWAP1 DUP2 MSTORE RETURN JUMPDEST POP CALLVALUE PUSH3 0x4D0 JUMPI DUP1 PUSH1 0x3 NOT CALLDATASIZE ADD SLT PUSH3 0x4D0 JUMPI PUSH1 0x2 SLOAD PUSH1 0x40 MLOAD PUSH1 0x1 PUSH1 0x1 PUSH1 0xA0 SHL SUB SWAP1 SWAP2 AND DUP2 MSTORE PUSH1 0x20 SWAP1 RETURN JUMPDEST POP CALLVALUE PUSH3 0x4D0 JUMPI PUSH1 0x40 CALLDATASIZE PUSH1 0x3 NOT ADD SLT PUSH3 0x4D0 JUMPI PUSH1 0x4 CALLDATALOAD PUSH3 0x1EAF PUSH3 0x24AD JUMP JUMPDEST PUSH3 0x1EB9 PUSH3 0x293C JUMP JUMPDEST DUP2 DUP4 MSTORE PUSH1 0x3 PUSH1 0x20 MSTORE PUSH1 0x40 DUP4 KECCAK256 SWAP1 PUSH1 0x7 DUP3 ADD SWAP1 DUP2 SLOAD PUSH1 0xFF DUP2 PUSH1 0x48 SHR AND DUP1 PUSH3 0x1F4F JUMPI JUMPDEST ISZERO PUSH3 0xA2C JUMPI PUSH1 0xFF PUSH1 0x40 SHL NOT AND PUSH1 0x1 PUSH1 0x41 SHL OR SWAP1 SWAP2 SSTORE PUSH1 0xE SWAP1 SWAP2 ADD DUP1 SLOAD PUSH2 0xFF00 NOT AND DUP3 ISZERO ISZERO PUSH1 0x8 SHL PUSH2 0xFF00 AND OR DUP2 SSTORE PUSH32 0x6D4D544F5A6DCF38D77A232D3EF7358625C74877A1AD954FCB507872E7A05EAF SWAP2 PUSH1 0x40 SWAP2 PUSH3 0x10000 PUSH3 0xFF0000 NOT DUP3 SLOAD AND OR SWAP1 SSTORE DUP2 MLOAD SWAP1 ISZERO ISZERO DUP2 MSTORE DUP5 PUSH1 0x20 DUP3 ADD MSTORE LOG2 DUP1 RETURN JUMPDEST POP PUSH1 0xFF PUSH1 0xE DUP6 ADD SLOAD PUSH1 0x10 SHR AND ISZERO PUSH3 0x1EDB JUMP JUMPDEST POP CALLVALUE PUSH3 0x4D0 JUMPI DUP1 PUSH1 0x3 NOT CALLDATASIZE ADD SLT PUSH3 0x4D0 JUMPI PUSH1 0x20 PUSH1 0x40 MLOAD PUSH5 0x174876E800 DUP2 MSTORE RETURN JUMPDEST POP CALLVALUE PUSH3 0x4D0 JUMPI DUP1 PUSH1 0x3 NOT CALLDATASIZE ADD SLT PUSH3 0x4D0 JUMPI PUSH1 0x40 MLOAD PUSH32 0x0 PUSH1 0x1 PUSH1 0x1 PUSH1 0xA0 SHL SUB AND DUP2 MSTORE PUSH1 0x20 SWAP1 RETURN JUMPDEST POP CALLVALUE PUSH3 0x4D0 JUMPI PUSH1 0x40 CALLDATASIZE PUSH1 0x3 NOT ADD SLT PUSH3 0x4D0 JUMPI PUSH3 0x1FE9 PUSH3 0x2567 JUMP JUMPDEST CALLER PUSH1 0x1 PUSH1 0x1 PUSH1 0xA0 SHL SUB DUP3 AND SUB PUSH3 0x2008 JUMPI PUSH3 0xF36 SWAP1 PUSH1 0x4 CALLDATALOAD PUSH3 0x2AFC JUMP JUMPDEST PUSH1 0x40 MLOAD PUSH4 0x334BD919 PUSH1 0xE1 SHL DUP2 MSTORE PUSH1 0x4 SWAP1 REVERT JUMPDEST POP CALLVALUE PUSH3 0x4D0 JUMPI PUSH1 0x40 CALLDATASIZE PUSH1 0x3 NOT ADD SLT PUSH3 0x4D0 JUMPI PUSH3 0xF36 PUSH1 0x4 CALLDATALOAD PUSH3 0x203F PUSH3 0x2567 JUMP JUMPDEST SWAP1 DUP1 DUP5 MSTORE DUP4 PUSH1 0x20 MSTORE PUSH3 0x2059 PUSH1 0x1 PUSH1 0x40 DUP7 KECCAK256 ADD SLOAD PUSH3 0x2995 JUMP JUMPDEST PUSH3 0x2A82 JUMP JUMPDEST POP CALLVALUE PUSH3 0x4D0 JUMPI PUSH1 0x20 CALLDATASIZE PUSH1 0x3 NOT ADD SLT PUSH3 0x4D0 JUMPI PUSH1 0x1 PUSH1 0x40 PUSH1 0x20 SWAP3 PUSH1 0x4 CALLDATALOAD DUP2 MSTORE DUP1 DUP5 MSTORE KECCAK256 ADD SLOAD PUSH1 0x40 MLOAD SWAP1 DUP2 MSTORE RETURN JUMPDEST POP CALLVALUE PUSH3 0x4D0 JUMPI PUSH1 0x20 CALLDATASIZE PUSH1 0x3 NOT ADD SLT PUSH3 0x4D0 JUMPI PUSH3 0x20F7 PUSH1 0xA PUSH1 0x40 DUP4 PUSH2 0x100 SWAP5 PUSH1 0xE0 DUP4 MLOAD PUSH3 0x20BD DUP2 PUSH3 0x2595 JUMP JUMPDEST DUP3 DUP2 MSTORE DUP3 PUSH1 0x20 DUP3 ADD MSTORE DUP3 DUP6 DUP3 ADD MSTORE DUP3 PUSH1 0x60 DUP3 ADD MSTORE DUP3 PUSH1 0x80 DUP3 ADD MSTORE DUP3 PUSH1 0xA0 DUP3 ADD MSTORE DUP3 PUSH1 0xC0 DUP3 ADD MSTORE ADD MSTORE PUSH1 0x4 CALLDATALOAD DUP2 MSTORE PUSH1 0x3 PUSH1 0x20 MSTORE KECCAK256 ADD PUSH3 0x2680 JUMP JUMPDEST PUSH3 0x2106 PUSH1 0x40 MLOAD DUP1 SWAP3 PUSH3 0x24F9 JUMP JUMPDEST RETURN JUMPDEST POP CALLVALUE PUSH3 0x4D0 JUMPI PUSH3 0x211A CALLDATASIZE PUSH3 0x24BD JUMP JUMPDEST PUSH3 0x2127 SWAP3 SWAP2 SWAP3 PUSH3 0x29BC JUMP JUMPDEST DUP2 DUP5 MSTORE PUSH1 0x3 PUSH1 0x20 MSTORE PUSH1 0x40 DUP5 KECCAK256 PUSH1 0x7 DUP2 ADD DUP1 SLOAD PUSH1 0xFF DUP2 PUSH1 0x48 SHR AND SWAP1 DUP2 PUSH3 0x2333 JUMPI JUMPDEST POP DUP1 PUSH3 0x2329 JUMPI JUMPDEST ISZERO PUSH3 0xA2C JUMPI DUP6 PUSH1 0x3 DUP4 ADD SWAP3 DUP4 SLOAD SWAP3 PUSH1 0x2 DUP3 ADD SLOAD SWAP4 DUP1 DUP10 GT PUSH3 0x2325 JUMPI PUSH3 0x219D DUP10 SWAP6 PUSH3 0xBB1 PUSH1 0x6 DUP7 ADD SLOAD PUSH3 0x2189 DUP2 DUP5 DUP8 PUSH3 0x2DA4 JUMP JUMPDEST SWAP3 PUSH3 0xBAB PUSH5 0xE8D4A51000 SWAP11 DUP12 SWAP8 PUSH3 0x292E JUMP JUMPDEST DIV SWAP1 PUSH1 0x4 DUP4 ADD SWAP1 DUP2 SLOAD DUP4 GT PUSH3 0x2321 JUMPI PUSH3 0x21D0 SWAP7 DUP12 DUP12 PUSH1 0x1 DUP8 ADD PUSH1 0x1 DUP1 PUSH1 0xA0 SHL SUB SWAP11 DUP12 SWAP3 DUP4 DUP4 SLOAD AND ADDRESS SWAP1 CALLER SWAP1 PUSH3 0x2D02 JUMP JUMPDEST SLOAD AND DUP1 EXTCODESIZE ISZERO PUSH3 0x45D JUMPI PUSH1 0x40 MLOAD PUSH4 0x2770A7EB PUSH1 0xE2 SHL DUP2 MSTORE ADDRESS PUSH1 0x4 DUP3 ADD MSTORE PUSH1 0x24 DUP2 ADD DUP15 SWAP1 MSTORE SWAP2 SWAP1 DUP3 SWAP1 PUSH1 0x44 SWAP1 DUP3 SWAP1 DUP5 SWAP1 GAS CALL DUP1 ISZERO PUSH3 0x2316 JUMPI PUSH3 0x2300 JUMPI JUMPDEST POP PUSH3 0x221C DUP12 DUP3 SLOAD PUSH3 0x292E JUMP JUMPDEST SWAP1 SSTORE DUP1 SLOAD PUSH1 0x50 SHR PUSH1 0xFF AND ISZERO PUSH3 0x22DE JUMPI PUSH3 0x225E SWAP3 PUSH1 0x5 SWAP3 PUSH3 0x24F PUSH3 0xD26 SWAP4 SLOAD SWAP3 PUSH3 0xCAC PUSH2 0x2710 SWAP2 PUSH3 0x24F PUSH2 0xFFFF SWAP7 DUP5 PUSH3 0xC79 DUP10 DUP4 AND DUP6 PUSH3 0x28F9 JUMP JUMPDEST SWAP1 SSTORE JUMPDEST PUSH3 0x228E DUP4 CALLER PUSH32 0x0 PUSH3 0x2D5F JUMP JUMPDEST PUSH8 0xDE0B6B3A7640000 SWAP1 DUP2 DUP5 MUL SWAP2 DUP5 DUP4 DIV EQ DUP5 ISZERO OR ISZERO PUSH3 0x42C JUMPI POP PUSH32 0xD199BC925DD277D584F6BFA3EDEDE8377C4F2E3AEED8C423CFCCBC5EE068A1B8 SWAP4 SWAP3 SWAP2 PUSH3 0x402 DUP8 PUSH3 0x40D SWAP4 PUSH3 0x290D JUMP JUMPDEST POP SWAP5 POP SWAP1 PUSH1 0x5 PUSH3 0x22F8 SWAP2 DUP4 SWAP7 PUSH3 0xE4C DUP6 DUP3 SLOAD PUSH3 0x292E JUMP JUMPDEST SWAP1 SSTORE PUSH3 0x2261 JUMP JUMPDEST PUSH3 0x230D SWAP2 SWAP7 POP PUSH3 0x25B2 JUMP JUMPDEST DUP11 SWAP5 CODESIZE PUSH3 0x220E JUMP JUMPDEST PUSH1 0x40 MLOAD RETURNDATASIZE DUP16 DUP3 RETURNDATACOPY RETURNDATASIZE SWAP1 REVERT JUMPDEST DUP11 DUP1 REVERT JUMPDEST DUP10 DUP1 REVERT JUMPDEST POP DUP5 ISZERO ISZERO PUSH3 0x2150 JUMP JUMPDEST PUSH1 0xFF SWAP2 POP PUSH1 0x40 SHR AND PUSH3 0x2346 DUP2 PUSH3 0x24D8 JUMP JUMPDEST ISZERO CODESIZE PUSH3 0x2148 JUMP JUMPDEST POP CALLVALUE PUSH3 0x4D0 JUMPI PUSH1 0xA0 CALLDATASIZE PUSH1 0x3 NOT ADD SLT PUSH3 0x4D0 JUMPI PUSH1 0x24 CALLDATALOAD PUSH2 0xFFFF DUP1 DUP3 AND DUP1 DUP4 SUB PUSH3 0xE7F JUMPI PUSH1 0x44 CALLDATALOAD SWAP2 DUP1 DUP4 AND DUP4 SUB PUSH3 0xA57 JUMPI PUSH1 0x64 CALLDATALOAD SWAP1 DUP1 DUP3 AND DUP3 SUB PUSH3 0xA2C JUMPI PUSH1 0x84 CALLDATALOAD SWAP4 DUP5 ISZERO ISZERO DUP1 SWAP6 SUB PUSH3 0xE7B JUMPI PUSH3 0x23A8 PUSH3 0x293C JUMP JUMPDEST PUSH1 0x4 CALLDATALOAD DUP8 MSTORE PUSH1 0x3 PUSH1 0x20 MSTORE PUSH1 0x7 PUSH1 0x40 DUP9 KECCAK256 ADD SWAP6 DUP7 SLOAD SWAP3 DUP5 DUP4 PUSH1 0xFF DUP7 PUSH1 0x48 SHR AND SWAP4 DUP5 PUSH3 0x242A JUMPI JUMPDEST POP POP POP POP ISZERO PUSH3 0xE7B JUMPI PUSH1 0x10 SHL PUSH4 0xFFFF0000 AND PUSH6 0xFFFFFFFF0000 NOT SWAP4 SWAP1 SWAP4 AND PUSH6 0xFFFFFFFFFFFF NOT SWAP2 SWAP1 SWAP2 AND OR SWAP2 SWAP1 SWAP2 OR PUSH1 0x20 SWAP2 SWAP1 SWAP2 SHL PUSH6 0xFFFF00000000 AND OR DUP3 SSTORE DUP2 SLOAD PUSH1 0xFF PUSH1 0x50 SHL NOT AND PUSH1 0x50 SWAP2 SWAP1 SWAP2 SHL PUSH1 0xFF PUSH1 0x50 SHL AND OR SWAP1 SSTORE DUP1 RETURN JUMPDEST PUSH2 0x3E8 SWAP5 POP PUSH3 0x2446 SWAP3 SWAP2 PUSH3 0x2440 SWAP2 PUSH3 0x2778 JUMP JUMPDEST PUSH3 0x2778 JUMP JUMPDEST AND GT ISZERO CODESIZE DUP5 DUP4 DUP3 PUSH3 0x23CE JUMP JUMPDEST SWAP1 POP CALLVALUE PUSH3 0x45D JUMPI PUSH1 0x20 CALLDATASIZE PUSH1 0x3 NOT ADD SLT PUSH3 0x45D JUMPI PUSH1 0x4 CALLDATALOAD PUSH4 0xFFFFFFFF PUSH1 0xE0 SHL DUP2 AND DUP1 SWAP2 SUB PUSH3 0x1096 JUMPI PUSH1 0x20 SWAP3 POP PUSH4 0x7965DB0B PUSH1 0xE0 SHL DUP2 EQ SWAP1 DUP2 ISZERO PUSH3 0x249B JUMPI JUMPDEST POP ISZERO ISZERO DUP2 MSTORE RETURN JUMPDEST PUSH4 0x1FFC9A7 PUSH1 0xE0 SHL EQ SWAP1 POP CODESIZE PUSH3 0x2494 JUMP JUMPDEST PUSH1 0x24 CALLDATALOAD SWAP1 DUP2 ISZERO ISZERO DUP3 SUB PUSH3 0x88B JUMPI JUMP JUMPDEST PUSH1 0x60 SWAP1 PUSH1 0x3 NOT ADD SLT PUSH3 0x88B JUMPI PUSH1 0x4 CALLDATALOAD SWAP1 PUSH1 0x24 CALLDATALOAD SWAP1 PUSH1 0x44 CALLDATALOAD SWAP1 JUMP JUMPDEST PUSH1 0x3 GT ISZERO PUSH3 0x24E3 JUMPI JUMP JUMPDEST PUSH4 0x4E487B71 PUSH1 0xE0 SHL PUSH1 0x0 MSTORE PUSH1 0x21 PUSH1 0x4 MSTORE PUSH1 0x24 PUSH1 0x0 REVERT JUMPDEST PUSH1 0xE0 DUP1 SWAP2 DUP1 MLOAD DUP5 MSTORE PUSH1 0x20 DUP2 ADD MLOAD PUSH3 0x2511 DUP2 PUSH3 0x24D8 JUMP JUMPDEST PUSH1 0x20 DUP6 ADD MSTORE PUSH1 0x40 DUP2 DUP2 ADD MLOAD PUSH1 0x1 PUSH1 0x1 PUSH1 0xA0 SHL SUB AND SWAP1 DUP6 ADD MSTORE PUSH1 0x60 DUP1 DUP3 ADD MLOAD SWAP1 DUP6 ADD MSTORE PUSH1 0x80 DUP1 DUP3 ADD MLOAD SWAP1 DUP6 ADD MSTORE PUSH1 0xA0 DUP2 ADD MLOAD PUSH3 0x254D DUP2 PUSH3 0x24D8 JUMP JUMPDEST PUSH1 0xA0 DUP6 ADD MSTORE PUSH1 0xC0 DUP2 ADD MLOAD ISZERO ISZERO PUSH1 0xC0 DUP6 ADD MSTORE ADD MLOAD ISZERO ISZERO SWAP2 ADD MSTORE JUMP JUMPDEST PUSH1 0x24 CALLDATALOAD SWAP1 PUSH1 0x1 PUSH1 0x1 PUSH1 0xA0 SHL SUB DUP3 AND DUP3 SUB PUSH3 0x88B JUMPI JUMP JUMPDEST PUSH1 0x4 CALLDATALOAD SWAP1 PUSH1 0x1 PUSH1 0x1 PUSH1 0xA0 SHL SUB DUP3 AND DUP3 SUB PUSH3 0x88B JUMPI JUMP JUMPDEST PUSH2 0x100 DUP2 ADD SWAP1 DUP2 LT PUSH1 0x1 PUSH1 0x1 PUSH1 0x40 SHL SUB DUP3 GT OR PUSH3 0x599 JUMPI PUSH1 0x40 MSTORE JUMP JUMPDEST PUSH1 0x1 PUSH1 0x1 PUSH1 0x40 SHL SUB DUP2 GT PUSH3 0x599 JUMPI PUSH1 0x40 MSTORE JUMP JUMPDEST SWAP1 PUSH1 0x1F DUP1 NOT SWAP2 ADD AND DUP2 ADD SWAP1 DUP2 LT PUSH1 0x1 PUSH1 0x1 PUSH1 0x40 SHL SUB DUP3 GT OR PUSH3 0x599 JUMPI PUSH1 0x40 MSTORE JUMP JUMPDEST DUP2 PUSH1 0x1F DUP3 ADD SLT ISZERO PUSH3 0x88B JUMPI DUP1 CALLDATALOAD SWAP1 PUSH1 0x1 PUSH1 0x1 PUSH1 0x40 SHL SUB DUP3 GT PUSH3 0x599 JUMPI PUSH1 0x40 MLOAD SWAP3 PUSH3 0x2620 PUSH1 0x1F DUP5 ADD PUSH1 0x1F NOT AND PUSH1 0x20 ADD DUP6 PUSH3 0x25C6 JUMP JUMPDEST DUP3 DUP5 MSTORE PUSH1 0x20 DUP4 DUP4 ADD ADD GT PUSH3 0x88B JUMPI DUP2 PUSH1 0x0 SWAP3 PUSH1 0x20 DUP1 SWAP4 ADD DUP4 DUP7 ADD CALLDATACOPY DUP4 ADD ADD MSTORE SWAP1 JUMP JUMPDEST SWAP1 PUSH1 0x1 DUP3 DUP2 SHR SWAP3 AND DUP1 ISZERO PUSH3 0x2675 JUMPI JUMPDEST PUSH1 0x20 DUP4 LT EQ PUSH3 0x265F JUMPI JUMP JUMPDEST PUSH4 0x4E487B71 PUSH1 0xE0 SHL PUSH1 0x0 MSTORE PUSH1 0x22 PUSH1 0x4 MSTORE PUSH1 0x24 PUSH1 0x0 REVERT JUMPDEST SWAP2 PUSH1 0x7F AND SWAP2 PUSH3 0x2653 JUMP JUMPDEST SWAP1 PUSH1 0x40 MLOAD PUSH3 0x268F DUP2 PUSH3 0x2595 JUMP JUMPDEST PUSH1 0xE0 PUSH1 0xFF PUSH1 0x4 DUP4 SWAP6 DUP1 SLOAD DUP6 MSTORE PUSH1 0x1 DUP2 ADD SLOAD DUP4 DUP2 AND PUSH3 0x26AE DUP2 PUSH3 0x24D8 JUMP JUMPDEST PUSH1 0x20 DUP8 ADD MSTORE PUSH1 0x8 SHR PUSH1 0x1 PUSH1 0x1 PUSH1 0xA0 SHL SUB AND PUSH1 0x40 DUP7 ADD MSTORE PUSH1 0x2 DUP2 ADD SLOAD PUSH1 0x60 DUP7 ADD MSTORE PUSH1 0x3 DUP2 ADD SLOAD PUSH1 0x80 DUP7 ADD MSTORE ADD SLOAD DUP2 DUP2 AND PUSH3 0x26E8 DUP2 PUSH3 0x24D8 JUMP JUMPDEST PUSH1 0xA0 DUP6 ADD MSTORE DUP2 DUP2 PUSH1 0x8 SHR AND ISZERO ISZERO PUSH1 0xC0 DUP6 ADD MSTORE PUSH1 0x10 SHR AND ISZERO ISZERO SWAP2 ADD MSTORE JUMP JUMPDEST SWAP2 SWAP1 DUP3 MLOAD SWAP3 DUP4 DUP3 MSTORE PUSH1 0x0 JUMPDEST DUP5 DUP2 LT PUSH3 0x2732 JUMPI POP POP DUP3 PUSH1 0x0 PUSH1 0x20 DUP1 SWAP5 SWAP6 DUP5 ADD ADD MSTORE PUSH1 0x1F DUP1 NOT SWAP2 ADD AND ADD ADD SWAP1 JUMP JUMPDEST PUSH1 0x20 DUP2 DUP4 ADD DUP2 ADD MLOAD DUP5 DUP4 ADD DUP3 ADD MSTORE ADD PUSH3 0x2710 JUMP JUMPDEST CALLVALUE PUSH3 0x88B JUMPI PUSH1 0x20 CALLDATASIZE PUSH1 0x3 NOT ADD SLT PUSH3 0x88B JUMPI PUSH1 0x20 PUSH5 0xE8D4A51000 PUSH3 0x276F PUSH1 0x4 CALLDATALOAD PUSH3 0x27D5 JUMP JUMPDEST DIV PUSH1 0x40 MLOAD SWAP1 DUP2 MSTORE RETURN JUMPDEST SWAP2 SWAP1 SWAP2 PUSH2 0xFFFF DUP1 DUP1 SWAP5 AND SWAP2 AND ADD SWAP2 DUP3 GT PUSH3 0x1BD5 JUMPI JUMP JUMPDEST ISZERO PUSH3 0x2797 JUMPI JUMP JUMPDEST PUSH1 0x40 MLOAD PUSH3 0x461BCD PUSH1 0xE5 SHL DUP2 MSTORE PUSH1 0x20 PUSH1 0x4 DUP3 ADD MSTORE PUSH1 0x8 PUSH1 0x24 DUP3 ADD MSTORE PUSH8 0x736C697070616765 PUSH1 0xC0 SHL PUSH1 0x44 DUP3 ADD MSTORE PUSH1 0x64 SWAP1 REVERT JUMPDEST SWAP2 SWAP1 DUP3 ADD DUP1 SWAP3 GT PUSH3 0x1BD5 JUMPI JUMP JUMPDEST PUSH1 0x0 MSTORE PUSH1 0x3 PUSH1 0x20 MSTORE PUSH1 0x40 PUSH1 0x0 KECCAK256 PUSH1 0xFF PUSH1 0x7 DUP3 ADD SLOAD PUSH1 0x48 SHR AND ISZERO PUSH3 0x2840 JUMPI DUP1 PUSH3 0x2836 PUSH3 0x282F PUSH3 0x2820 PUSH1 0x2 PUSH3 0x283D SWAP6 ADD SLOAD PUSH1 0x3 PUSH3 0x2826 PUSH3 0x2820 PUSH1 0x6 DUP9 ADD SLOAD DUP1 SWAP5 PUSH3 0x2B72 JUMP JUMPDEST PUSH3 0x2B99 JUMP JUMPDEST SWAP6 ADD SLOAD PUSH3 0x2B72 JUMP JUMPDEST DUP3 PUSH3 0x27C7 JUMP JUMPDEST SWAP1 PUSH3 0x2B72 JUMP JUMPDEST SWAP1 JUMP JUMPDEST PUSH1 0x40 MLOAD PUSH3 0x461BCD PUSH1 0xE5 SHL DUP2 MSTORE PUSH1 0x20 PUSH1 0x4 DUP3 ADD MSTORE PUSH1 0x2 PUSH1 0x24 DUP3 ADD MSTORE PUSH2 0x6E6F PUSH1 0xF0 SHL PUSH1 0x44 DUP3 ADD MSTORE PUSH1 0x64 SWAP1 REVERT JUMPDEST SWAP2 PUSH3 0x2898 SWAP1 PUSH3 0x2889 PUSH1 0x40 SWAP4 SWAP7 SWAP6 SWAP7 PUSH1 0x60 DUP7 MSTORE PUSH1 0x60 DUP7 ADD SWAP1 PUSH3 0x2705 JUMP JUMPDEST SWAP1 DUP5 DUP3 SUB PUSH1 0x20 DUP7 ADD MSTORE PUSH3 0x2705 JUMP JUMPDEST PUSH1 0x1 PUSH1 0x1 PUSH1 0xA0 SHL SUB SWAP1 SWAP5 AND SWAP2 ADD MSTORE JUMP JUMPDEST PUSH2 0xFFFF SWAP2 DUP3 AND SWAP1 DUP3 AND SUB SWAP2 SWAP1 DUP3 GT PUSH3 0x1BD5 JUMPI JUMP JUMPDEST SWAP1 PUSH8 0x99E8DB03256CE5D SWAP2 DUP3 DUP2 MUL SWAP3 DUP2 DUP5 DIV EQ SWAP1 ISZERO OR ISZERO PUSH3 0x1BD5 JUMPI JUMP JUMPDEST SWAP1 PUSH8 0xDE0B6B3A7640000 SWAP2 DUP3 DUP2 MUL SWAP3 DUP2 DUP5 DIV EQ SWAP1 ISZERO OR ISZERO PUSH3 0x1BD5 JUMPI JUMP JUMPDEST DUP2 DUP2 MUL SWAP3 SWAP2 DUP2 ISZERO SWAP2 DUP5 DIV EQ OR ISZERO PUSH3 0x1BD5 JUMPI JUMP JUMPDEST DUP2 ISZERO PUSH3 0x2918 JUMPI DIV SWAP1 JUMP JUMPDEST PUSH4 0x4E487B71 PUSH1 0xE0 SHL PUSH1 0x0 MSTORE PUSH1 0x12 PUSH1 0x4 MSTORE PUSH1 0x24 PUSH1 0x0 REVERT JUMPDEST SWAP2 SWAP1 DUP3 SUB SWAP2 DUP3 GT PUSH3 0x1BD5 JUMPI JUMP JUMPDEST CALLER PUSH1 0x0 SWAP1 DUP2 MSTORE PUSH32 0xAD3228B676F7D3CD4284A5443F17F1962B36E491B30A40B2405849E597BA5FB5 PUSH1 0x20 MSTORE PUSH1 0x40 DUP2 KECCAK256 SLOAD PUSH1 0xFF AND ISZERO PUSH3 0x2977 JUMPI POP JUMP JUMPDEST PUSH1 0x44 SWAP1 PUSH1 0x40 MLOAD SWAP1 PUSH4 0xE2517D3F PUSH1 0xE0 SHL DUP3 MSTORE CALLER PUSH1 0x4 DUP4 ADD MSTORE PUSH1 0x24 DUP3 ADD MSTORE REVERT JUMPDEST DUP1 PUSH1 0x0 MSTORE PUSH1 0x0 PUSH1 0x20 MSTORE PUSH1 0x40 PUSH1 0x0 KECCAK256 CALLER PUSH1 0x0 MSTORE PUSH1 0x20 MSTORE PUSH1 0xFF PUSH1 0x40 PUSH1 0x0 KECCAK256 SLOAD AND ISZERO PUSH3 0x2977 JUMPI POP JUMP JUMPDEST PUSH1 0x2 PUSH1 0x1 SLOAD EQ PUSH3 0x29CE JUMPI PUSH1 0x2 PUSH1 0x1 SSTORE JUMP JUMPDEST PUSH1 0x40 MLOAD PUSH4 0x3EE5AEB5 PUSH1 0xE0 SHL DUP2 MSTORE PUSH1 0x4 SWAP1 REVERT JUMPDEST PUSH1 0x1 PUSH1 0x1 PUSH1 0xA0 SHL SUB AND PUSH1 0x0 DUP2 DUP2 MSTORE PUSH32 0x2412B2AF58BF3B93D578A423D333D33FB94FB5093F9CDA1AED2EAAFB3215F929 PUSH1 0x20 MSTORE PUSH1 0x40 DUP2 KECCAK256 SLOAD SWAP1 SWAP2 SWAP1 PUSH1 0x0 DUP1 MLOAD PUSH1 0x20 PUSH3 0x4405 DUP4 CODECOPY DUP2 MLOAD SWAP2 MSTORE SWAP1 PUSH1 0xFF AND PUSH3 0x2A7D JUMPI DUP1 DUP4 MSTORE DUP3 PUSH1 0x20 MSTORE PUSH1 0x40 DUP4 KECCAK256 DUP3 DUP5 MSTORE PUSH1 0x20 MSTORE PUSH1 0x40 DUP4 KECCAK256 PUSH1 0x1 PUSH1 0xFF NOT DUP3 SLOAD AND OR SWAP1 SSTORE PUSH32 0x2F8788117E7EFF1D82E926EC794901D17C78024A50270940304540A733656F0D CALLER SWAP4 DUP1 LOG4 PUSH1 0x1 SWAP1 JUMP JUMPDEST POP POP SWAP1 JUMP JUMPDEST SWAP1 PUSH1 0x0 SWAP2 DUP1 DUP4 MSTORE DUP3 PUSH1 0x20 MSTORE PUSH1 0x40 DUP4 KECCAK256 SWAP2 PUSH1 0x1 DUP1 PUSH1 0xA0 SHL SUB AND SWAP2 DUP3 DUP5 MSTORE PUSH1 0x20 MSTORE PUSH1 0xFF PUSH1 0x40 DUP5 KECCAK256 SLOAD AND ISZERO PUSH1 0x0 EQ PUSH3 0x2A7D JUMPI DUP1 DUP4 MSTORE DUP3 PUSH1 0x20 MSTORE PUSH1 0x40 DUP4 KECCAK256 DUP3 DUP5 MSTORE PUSH1 0x20 MSTORE PUSH1 0x40 DUP4 KECCAK256 PUSH1 0x1 PUSH1 0xFF NOT DUP3 SLOAD AND OR SWAP1 SSTORE PUSH32 0x2F8788117E7EFF1D82E926EC794901D17C78024A50270940304540A733656F0D CALLER SWAP4 DUP1 LOG4 PUSH1 0x1 SWAP1 JUMP JUMPDEST SWAP1 PUSH1 0x0 SWAP2 DUP1 DUP4 MSTORE DUP3 PUSH1 0x20 MSTORE PUSH1 0x40 DUP4 KECCAK256 SWAP2 PUSH1 0x1 DUP1 PUSH1 0xA0 SHL SUB AND SWAP2 DUP3 DUP5 MSTORE PUSH1 0x20 MSTORE PUSH1 0xFF PUSH1 0x40 DUP5 KECCAK256 SLOAD AND PUSH1 0x0 EQ PUSH3 0x2A7D JUMPI DUP1 DUP4 MSTORE DUP3 PUSH1 0x20 MSTORE PUSH1 0x40 DUP4 KECCAK256 DUP3 DUP5 MSTORE PUSH1 0x20 MSTORE PUSH1 0x40 DUP4 KECCAK256 PUSH1 0xFF NOT DUP2 SLOAD AND SWAP1 SSTORE PUSH32 0xF6391F5C32D9C69D2A47EA670B442974B53935D1EDC7FD64EB21E047A839171B CALLER SWAP4 DUP1 LOG4 PUSH1 0x1 SWAP1 JUMP JUMPDEST SWAP1 PUSH8 0xDE0B6B3A7640000 SWAP2 DUP3 DUP2 MUL SWAP3 DUP2 DUP5 DIV EQ SWAP1 ISZERO OR ISZERO PUSH3 0x1BD5 JUMPI PUSH3 0x283D SWAP2 PUSH3 0x290D JUMP JUMPDEST PUSH9 0x4C53ECDC18A600000 DUP2 GT PUSH3 0x2CD7 JUMPI PUSH8 0x14057B7EF767814F SWAP1 DUP2 DUP2 MUL SWAP2 DUP2 DUP4 DIV EQ SWAP1 ISZERO OR ISZERO PUSH3 0x1BD5 JUMPI PUSH8 0xDE0B6B3A7640000 DUP1 SWAP2 DIV SWAP1 PUSH9 0xA688906BD8B000000 DUP3 GT PUSH3 0x2CAC JUMPI DUP1 DUP3 DIV SWAP1 PUSH1 0xFF SWAP1 PUSH1 0xFF DUP4 GT PUSH3 0x2C81 JUMPI DUP1 SWAP3 SWAP2 DUP2 PUSH3 0x2C05 DUP2 DUP1 SWAP8 MOD PUSH3 0x28BD JUMP JUMPDEST DIV PUSH1 0x1 SWAP3 DUP4 SWAP2 PUSH1 0x1 SWAP5 JUMPDEST PUSH3 0x2C2A JUMPI JUMPDEST POP POP POP POP POP PUSH3 0x283D SWAP3 POP PUSH1 0x1 SWAP1 SHL PUSH3 0x28F9 JUMP JUMPDEST SWAP1 SWAP2 SWAP3 SWAP4 SWAP6 DUP5 DUP8 AND SWAP8 PUSH1 0x14 DUP10 GT PUSH3 0x2C79 JUMPI SWAP5 DUP5 PUSH3 0x2C67 PUSH3 0x2C5F DUP4 SWAP10 SWAP11 SWAP12 DUP8 PUSH3 0x2C58 DUP9 DUP7 SWAP13 PUSH3 0x28F9 JUMP JUMPDEST DIV PUSH3 0x290D JUMP JUMPDEST DUP1 SWAP5 PUSH3 0x27C7 JUMP JUMPDEST SWAP10 ADD AND SWAP4 SWAP3 SWAP2 SWAP1 SWAP8 SWAP7 SWAP6 SWAP4 SWAP5 PUSH3 0x2C0F JUMP JUMPDEST POP SWAP6 PUSH3 0x2C15 JUMP JUMPDEST PUSH1 0x40 MLOAD PUSH3 0x461BCD PUSH1 0xE5 SHL DUP2 MSTORE PUSH1 0x20 PUSH1 0x4 DUP3 ADD MSTORE PUSH1 0x3 PUSH1 0x24 DUP3 ADD MSTORE PUSH3 0x1A5B9D PUSH1 0xEA SHL PUSH1 0x44 DUP3 ADD MSTORE PUSH1 0x64 SWAP1 REVERT JUMPDEST PUSH1 0x64 PUSH1 0x40 MLOAD PUSH3 0x461BCD PUSH1 0xE5 SHL DUP2 MSTORE PUSH1 0x20 PUSH1 0x4 DUP3 ADD MSTORE PUSH1 0x4 PUSH1 0x24 DUP3 ADD MSTORE PUSH4 0x32BC3819 PUSH1 0xE1 SHL PUSH1 0x44 DUP3 ADD MSTORE REVERT JUMPDEST PUSH1 0x40 MLOAD PUSH3 0x461BCD PUSH1 0xE5 SHL DUP2 MSTORE PUSH1 0x20 PUSH1 0x4 DUP3 ADD MSTORE PUSH1 0x3 PUSH1 0x24 DUP3 ADD MSTORE PUSH3 0x65787 PUSH1 0xEC SHL PUSH1 0x44 DUP3 ADD MSTORE PUSH1 0x64 SWAP1 REVERT JUMPDEST PUSH1 0x40 MLOAD PUSH4 0x23B872DD PUSH1 0xE0 SHL PUSH1 0x20 DUP3 ADD MSTORE PUSH1 0x1 PUSH1 0x1 PUSH1 0xA0 SHL SUB SWAP3 DUP4 AND PUSH1 0x24 DUP3 ADD MSTORE SWAP3 SWAP1 SWAP2 AND PUSH1 0x44 DUP4 ADD MSTORE PUSH1 0x64 DUP1 DUP4 ADD SWAP4 SWAP1 SWAP4 MSTORE SWAP2 DUP2 MSTORE PUSH1 0xA0 DUP2 ADD SWAP2 DUP2 DUP4 LT PUSH1 0x1 PUSH1 0x1 PUSH1 0x40 SHL SUB DUP5 GT OR PUSH3 0x599 JUMPI PUSH3 0x2D5D SWAP3 PUSH1 0x40 MSTORE PUSH3 0x3067 JUMP JUMPDEST JUMP JUMPDEST PUSH1 0x40 MLOAD PUSH4 0xA9059CBB PUSH1 0xE0 SHL PUSH1 0x20 DUP3 ADD MSTORE PUSH1 0x1 PUSH1 0x1 PUSH1 0xA0 SHL SUB SWAP3 SWAP1 SWAP3 AND PUSH1 0x24 DUP4 ADD MSTORE PUSH1 0x44 DUP1 DUP4 ADD SWAP4 SWAP1 SWAP4 MSTORE SWAP2 DUP2 MSTORE PUSH3 0x2D5D SWAP2 PUSH3 0x2D9E PUSH1 0x64 DUP4 PUSH3 0x25C6 JUMP JUMPDEST PUSH3 0x3067 JUMP JUMPDEST SWAP2 SWAP1 PUSH8 0xDE0B6B3A7640000 SWAP3 DUP4 DUP2 MUL SWAP1 DUP1 DUP3 DIV DUP6 EQ SWAP1 ISZERO OR ISZERO PUSH3 0x1BD5 JUMPI PUSH3 0x2820 DUP4 PUSH3 0x2DD2 SWAP3 PUSH3 0x290D JUMP JUMPDEST DUP4 DUP3 MUL SWAP2 DUP1 DUP4 DIV DUP6 EQ SWAP1 ISZERO OR ISZERO PUSH3 0x1BD5 JUMPI PUSH3 0x2DF8 PUSH3 0x2820 DUP5 PUSH3 0x2DFF SWAP5 PUSH3 0x290D JUMP JUMPDEST SWAP1 PUSH3 0x27C7 JUMP JUMPDEST SWAP1 DUP2 ISZERO PUSH3 0x303C JUMPI PUSH1 0x0 SWAP2 DUP1 PUSH6 0x3782DACE9D9 PUSH1 0x92 SHL DUP2 LT ISZERO PUSH3 0x3024 JUMPI JUMPDEST POP PUSH6 0x3782DACE9D9 PUSH1 0x52 SHL DUP2 LT ISZERO PUSH3 0x3005 JUMPI JUMPDEST PUSH12 0xDE0B6B3A764000000000000 DUP2 LT ISZERO PUSH3 0x2FE6 JUMPI JUMPDEST PUSH10 0xDE0B6B3A76400000000 DUP2 LT ISZERO PUSH3 0x2FC8 JUMPI JUMPDEST PUSH9 0xDE0B6B3A764000000 DUP2 LT ISZERO PUSH3 0x2FAA JUMPI JUMPDEST PUSH8 0xDE0B6B3A76400000 DUP2 LT ISZERO PUSH3 0x2F8C JUMPI JUMPDEST PUSH8 0x3782DACE9D900000 DUP2 LT ISZERO PUSH3 0x2F6E JUMPI JUMPDEST PUSH8 0x1BC16D674EC80000 DUP2 LT ISZERO PUSH3 0x2F58 JUMPI JUMPDEST PUSH8 0xDE0B6B3A763FFFF NOT DUP2 ADD SWAP1 DUP1 DUP3 GT PUSH3 0x1BD5 JUMPI DUP5 DUP2 ADD DUP1 SWAP2 GT PUSH3 0x1BD5 JUMPI PUSH3 0x2ED0 SWAP2 PUSH3 0x2B72 JUMP JUMPDEST DUP4 PUSH3 0x2EDD DUP3 DUP1 PUSH3 0x28F9 JUMP JUMPDEST DIV SWAP1 PUSH1 0x3 DUP6 PUSH3 0x2EED DUP5 PUSH3 0x28DB JUMP JUMPDEST DIV DIV DUP6 ADD SWAP1 DUP2 DUP7 GT PUSH3 0x1BD5 JUMPI PUSH3 0x2F54 SWAP5 DUP7 PUSH3 0x2F3E PUSH3 0x2F46 SWAP4 PUSH3 0x2F37 PUSH3 0x2F4C SWAP7 PUSH1 0x5 DUP6 PUSH3 0x2F2E DUP2 PUSH3 0x2F27 DUP14 DUP3 SWAP15 PUSH3 0x28F9 JUMP JUMPDEST DIV PUSH3 0x28DB JUMP JUMPDEST DIV DIV SWAP1 PUSH3 0x27C7 JUMP JUMPDEST SWAP1 PUSH3 0x28F9 JUMP JUMPDEST DIV SWAP1 PUSH3 0x27C7 JUMP JUMPDEST PUSH3 0x28BD JUMP JUMPDEST DIV SWAP1 PUSH3 0x28F9 JUMP JUMPDEST DIV SWAP1 JUMP JUMPDEST SWAP2 DUP4 DUP2 ADD DUP1 SWAP2 GT PUSH3 0x1BD5 JUMPI SWAP2 PUSH1 0x1 SHR PUSH3 0x2EA5 JUMP JUMPDEST PUSH1 0x2 SHR SWAP2 PUSH8 0x1BC16D674EC80000 DUP2 ADD DUP1 SWAP2 GT PUSH3 0x1BD5 JUMPI SWAP2 PUSH3 0x2E93 JUMP JUMPDEST PUSH1 0x4 SHR SWAP2 PUSH8 0x3782DACE9D900000 DUP2 ADD DUP1 SWAP2 GT PUSH3 0x1BD5 JUMPI SWAP2 PUSH3 0x2E81 JUMP JUMPDEST PUSH1 0x8 SHR SWAP2 PUSH8 0x6F05B59D3B200000 DUP2 ADD DUP1 SWAP2 GT PUSH3 0x1BD5 JUMPI SWAP2 PUSH3 0x2E6F JUMP JUMPDEST PUSH1 0x10 SHR SWAP2 PUSH8 0xDE0B6B3A76400000 DUP2 ADD DUP1 SWAP2 GT PUSH3 0x1BD5 JUMPI SWAP2 PUSH3 0x2E5C JUMP JUMPDEST PUSH1 0x20 SHR SWAP2 PUSH9 0x1BC16D674EC800000 DUP2 ADD DUP1 SWAP2 GT PUSH3 0x1BD5 JUMPI SWAP2 PUSH3 0x2E48 JUMP JUMPDEST PUSH1 0x40 SHR SWAP2 PUSH9 0x3782DACE9D9000000 DUP2 ADD DUP1 SWAP2 GT PUSH3 0x1BD5 JUMPI SWAP2 PUSH3 0x2E32 JUMP JUMPDEST PUSH9 0x6F05B59D3B2000000 SWAP4 POP PUSH1 0x80 SHR SWAP1 POP CODESIZE PUSH3 0x2E1E JUMP JUMPDEST PUSH1 0x40 MLOAD PUSH3 0x461BCD PUSH1 0xE5 SHL DUP2 MSTORE PUSH1 0x20 PUSH1 0x4 DUP3 ADD MSTORE PUSH1 0x3 PUSH1 0x24 DUP3 ADD MSTORE PUSH3 0x6C6E3 PUSH1 0xEC SHL PUSH1 0x44 DUP3 ADD MSTORE PUSH1 0x64 SWAP1 REVERT JUMPDEST SWAP1 PUSH1 0x0 PUSH1 0x20 SWAP2 DUP3 DUP2 MLOAD SWAP2 ADD DUP3 DUP6 GAS CALL ISZERO PUSH3 0x87F JUMPI PUSH1 0x0 MLOAD RETURNDATASIZE PUSH3 0x30BD JUMPI POP PUSH1 0x1 PUSH1 0x1 PUSH1 0xA0 SHL SUB DUP2 AND EXTCODESIZE ISZERO JUMPDEST PUSH3 0x309B JUMPI POP JUMP JUMPDEST PUSH1 0x40 MLOAD PUSH4 0x5274AFE7 PUSH1 0xE0 SHL DUP2 MSTORE PUSH1 0x1 PUSH1 0x1 PUSH1 0xA0 SHL SUB SWAP1 SWAP2 AND PUSH1 0x4 DUP3 ADD MSTORE PUSH1 0x24 SWAP1 REVERT JUMPDEST PUSH1 0x1 EQ ISZERO PUSH3 0x3093 JUMP JUMPDEST SWAP2 SWAP3 DUP4 ISZERO PUSH3 0x318A JUMPI PUSH1 0x0 SWAP3 PUSH1 0x50 DUP3 MUL DUP3 DUP2 DIV PUSH1 0x50 EQ DUP4 ISZERO OR ISZERO PUSH3 0x4BC JUMPI SWAP4 SWAP3 SWAP2 SWAP1 PUSH3 0x30F7 DUP3 DUP5 DUP4 PUSH3 0x2DA4 JUMP JUMPDEST SWAP6 DUP5 SWAP7 JUMPDEST PUSH1 0x3C DUP9 LT PUSH3 0x311B JUMPI POP POP POP POP POP PUSH3 0x3115 SWAP3 POP PUSH3 0x27C7 JUMP JUMPDEST PUSH1 0x1 SHR SWAP1 JUMP JUMPDEST SWAP1 SWAP2 SWAP3 SWAP4 SWAP5 SWAP6 PUSH3 0x312D DUP2 DUP9 PUSH3 0x27C7 JUMP JUMPDEST SWAP1 PUSH1 0x1 SWAP2 DUP3 SHR SWAP1 PUSH3 0x3146 DUP8 DUP10 PUSH3 0xBAB DUP6 DUP11 PUSH3 0x27C7 JUMP JUMPDEST DUP5 DUP2 GT PUSH3 0x3160 JUMPI POP POP SWAP8 JUMPDEST ADD SWAP7 SWAP6 SWAP5 SWAP4 SWAP3 SWAP2 SWAP1 PUSH3 0x30FB JUMP JUMPDEST PUSH3 0x3171 DUP6 DUP8 SWAP3 SWAP13 SWAP12 SWAP4 SWAP13 PUSH3 0x292E JUMP JUMPDEST LT ISZERO PUSH3 0x3180 JUMPI POP SWAP7 PUSH3 0x3152 JUMP JUMPDEST SWAP8 SWAP9 POP SWAP8 PUSH3 0x3152 JUMP JUMPDEST POP POP POP POP PUSH1 0x0 SWAP1 JUMP INVALID PUSH1 0x80 PUSH1 0x40 MSTORE CALLVALUE PUSH3 0x35C JUMPI PUSH3 0x1271 DUP1 CODESIZE SUB DUP1 PUSH3 0x1D DUP2 PUSH3 0x361 JUMP JUMPDEST SWAP3 DUP4 CODECOPY DUP2 ADD PUSH1 0x60 DUP3 DUP3 SUB SLT PUSH3 0x35C JUMPI DUP2 MLOAD PUSH1 0x1 PUSH1 0x1 PUSH1 0x40 SHL SUB SWAP2 SWAP1 DUP3 DUP2 GT PUSH3 0x35C JUMPI DUP2 PUSH3 0x4F SWAP2 DUP6 ADD PUSH3 0x387 JUMP JUMPDEST SWAP2 PUSH1 0x20 SWAP2 DUP3 DUP6 ADD MLOAD DUP3 DUP2 GT PUSH3 0x35C JUMPI PUSH1 0x40 SWAP2 PUSH3 0x6F SWAP2 DUP8 ADD PUSH3 0x387 JUMP JUMPDEST SWAP5 ADD MLOAD SWAP3 PUSH1 0x1 PUSH1 0x1 PUSH1 0xA0 SHL SUB DUP5 AND DUP5 SUB PUSH3 0x35C JUMPI DUP1 MLOAD SWAP1 DUP3 DUP3 GT PUSH3 0x25C JUMPI PUSH1 0x3 SWAP2 DUP3 SLOAD SWAP1 PUSH1 0x1 SWAP3 DUP4 DUP4 DUP2 SHR SWAP4 AND DUP1 ISZERO PUSH3 0x351 JUMPI JUMPDEST DUP8 DUP5 LT EQ PUSH3 0x33B JUMPI DUP2 SWAP1 PUSH1 0x1F SWAP4 DUP5 DUP2 GT PUSH3 0x2E5 JUMPI JUMPDEST POP DUP8 SWAP1 DUP5 DUP4 GT PUSH1 0x1 EQ PUSH3 0x27E JUMPI PUSH1 0x0 SWAP3 PUSH3 0x272 JUMPI JUMPDEST POP POP PUSH1 0x0 NOT DUP3 DUP7 SHL SHR NOT AND SWAP1 DUP4 SHL OR DUP4 SSTORE JUMPDEST DUP7 MLOAD SWAP4 DUP5 GT PUSH3 0x25C JUMPI PUSH1 0x4 SWAP5 DUP6 SLOAD DUP4 DUP2 DUP2 SHR SWAP2 AND DUP1 ISZERO PUSH3 0x251 JUMPI JUMPDEST DUP3 DUP3 LT EQ PUSH3 0x23C JUMPI DUP3 DUP2 GT PUSH3 0x1F1 JUMPI JUMPDEST POP DUP1 SWAP2 DUP6 GT PUSH1 0x1 EQ PUSH3 0x181 JUMPI POP DUP4 SWAP3 SWAP2 DUP4 SWAP2 PUSH3 0x164 SWAP9 PUSH1 0x0 SWAP6 PUSH3 0x175 JUMPI JUMPDEST POP POP SHL SWAP3 PUSH1 0x0 NOT SWAP2 SHL SHR NOT AND OR SWAP1 SSTORE JUMPDEST PUSH3 0x151 DUP2 PUSH3 0x3F9 JUMP JUMPDEST POP PUSH3 0x15D DUP2 PUSH3 0x47A JUMP JUMPDEST POP PUSH3 0x51D JUMP JUMPDEST POP PUSH1 0x40 MLOAD PUSH2 0xC95 SWAP1 DUP2 PUSH3 0x5BC DUP3 CODECOPY RETURN JUMPDEST ADD MLOAD SWAP4 POP CODESIZE DUP1 PUSH3 0x136 JUMP JUMPDEST SWAP2 SWAP4 SWAP3 SWAP1 PUSH1 0x1F NOT DUP5 AND SWAP8 DUP7 PUSH1 0x0 MSTORE DUP4 PUSH1 0x0 KECCAK256 SWAP4 PUSH1 0x0 SWAP1 JUMPDEST DUP11 DUP3 LT PUSH3 0x1D9 JUMPI POP POP DUP5 PUSH3 0x164 SWAP10 LT PUSH3 0x1BE JUMPI JUMPDEST POP POP POP POP DUP2 SHL ADD SWAP1 SSTORE PUSH3 0x146 JUMP JUMPDEST ADD MLOAD SWAP1 PUSH1 0xF8 DUP5 PUSH1 0x0 NOT SWAP3 SHL AND SHR NOT AND SWAP1 SSTORE CODESIZE DUP1 DUP1 DUP1 PUSH3 0x1AF JUMP JUMPDEST DUP1 DUP9 DUP6 SWAP8 DUP3 SWAP5 SWAP7 DUP7 ADD MLOAD DUP2 SSTORE ADD SWAP7 ADD SWAP4 ADD SWAP1 PUSH3 0x198 JUMP JUMPDEST DUP7 PUSH1 0x0 MSTORE DUP2 PUSH1 0x0 KECCAK256 DUP4 DUP1 DUP9 ADD PUSH1 0x5 SHR DUP3 ADD SWAP3 DUP5 DUP10 LT PUSH3 0x232 JUMPI JUMPDEST ADD PUSH1 0x5 SHR ADD SWAP1 DUP5 SWAP1 JUMPDEST DUP3 DUP2 LT PUSH3 0x225 JUMPI POP POP PUSH3 0x115 JUMP JUMPDEST PUSH1 0x0 DUP2 SSTORE ADD DUP5 SWAP1 PUSH3 0x215 JUMP JUMPDEST SWAP3 POP DUP2 SWAP3 PUSH3 0x20C JUMP JUMPDEST PUSH1 0x22 DUP8 PUSH4 0x4E487B71 PUSH1 0xE0 SHL PUSH1 0x0 MSTORE MSTORE PUSH1 0x24 PUSH1 0x0 REVERT JUMPDEST SWAP1 PUSH1 0x7F AND SWAP1 PUSH3 0x103 JUMP JUMPDEST PUSH4 0x4E487B71 PUSH1 0xE0 SHL PUSH1 0x0 MSTORE PUSH1 0x41 PUSH1 0x4 MSTORE PUSH1 0x24 PUSH1 0x0 REVERT JUMPDEST ADD MLOAD SWAP1 POP CODESIZE DUP1 PUSH3 0xD4 JUMP JUMPDEST SWAP1 DUP6 SWAP4 POP PUSH1 0x1F NOT DUP4 AND SWAP2 DUP8 PUSH1 0x0 MSTORE DUP10 PUSH1 0x0 KECCAK256 SWAP3 PUSH1 0x0 JUMPDEST DUP12 DUP3 DUP3 LT PUSH3 0x2CE JUMPI POP POP DUP5 GT PUSH3 0x2B5 JUMPI JUMPDEST POP POP POP DUP2 SHL ADD DUP4 SSTORE PUSH3 0xE6 JUMP JUMPDEST ADD MLOAD PUSH1 0x0 NOT DUP4 DUP9 SHL PUSH1 0xF8 AND SHR NOT AND SWAP1 SSTORE CODESIZE DUP1 DUP1 PUSH3 0x2A7 JUMP JUMPDEST DUP4 DUP6 ADD MLOAD DUP7 SSTORE DUP10 SWAP8 SWAP1 SWAP6 ADD SWAP5 SWAP4 DUP5 ADD SWAP4 ADD PUSH3 0x294 JUMP JUMPDEST SWAP1 SWAP2 POP DUP6 PUSH1 0x0 MSTORE DUP8 PUSH1 0x0 KECCAK256 DUP5 DUP1 DUP6 ADD PUSH1 0x5 SHR DUP3 ADD SWAP3 DUP11 DUP7 LT PUSH3 0x331 JUMPI JUMPDEST SWAP2 DUP8 SWAP2 DUP7 SWAP6 SWAP5 SWAP4 ADD PUSH1 0x5 SHR ADD SWAP2 JUMPDEST DUP3 DUP2 LT PUSH3 0x321 JUMPI POP POP PUSH3 0xBD JUMP JUMPDEST PUSH1 0x0 DUP2 SSTORE DUP6 SWAP5 POP DUP8 SWAP2 ADD PUSH3 0x311 JUMP JUMPDEST SWAP3 POP DUP2 SWAP3 PUSH3 0x303 JUMP JUMPDEST PUSH4 0x4E487B71 PUSH1 0xE0 SHL PUSH1 0x0 MSTORE PUSH1 0x22 PUSH1 0x4 MSTORE PUSH1 0x24 PUSH1 0x0 REVERT JUMPDEST SWAP3 PUSH1 0x7F AND SWAP3 PUSH3 0xA6 JUMP JUMPDEST PUSH1 0x0 DUP1 REVERT JUMPDEST PUSH1 0x40 MLOAD SWAP2 SWAP1 PUSH1 0x1F ADD PUSH1 0x1F NOT AND DUP3 ADD PUSH1 0x1 PUSH1 0x1 PUSH1 0x40 SHL SUB DUP2 GT DUP4 DUP3 LT OR PUSH3 0x25C JUMPI PUSH1 0x40 MSTORE JUMP JUMPDEST SWAP2 SWAP1 DUP1 PUSH1 0x1F DUP5 ADD SLT ISZERO PUSH3 0x35C JUMPI DUP3 MLOAD PUSH1 0x1 PUSH1 0x1 PUSH1 0x40 SHL SUB DUP2 GT PUSH3 0x25C JUMPI PUSH1 0x20 SWAP1 PUSH3 0x3BD PUSH1 0x1F DUP3 ADD PUSH1 0x1F NOT AND DUP4 ADD PUSH3 0x361 JUMP JUMPDEST SWAP3 DUP2 DUP5 MSTORE DUP3 DUP3 DUP8 ADD ADD GT PUSH3 0x35C JUMPI PUSH1 0x0 JUMPDEST DUP2 DUP2 LT PUSH3 0x3E5 JUMPI POP DUP3 PUSH1 0x0 SWAP4 SWAP5 SWAP6 POP ADD ADD MSTORE SWAP1 JUMP JUMPDEST DUP6 DUP2 ADD DUP4 ADD MLOAD DUP5 DUP3 ADD DUP5 ADD MSTORE DUP3 ADD PUSH3 0x3CF JUMP JUMPDEST PUSH1 0x1 PUSH1 0x1 PUSH1 0xA0 SHL SUB AND PUSH1 0x0 DUP2 DUP2 MSTORE PUSH32 0x5B8CCBB9D4D8FB16EA74CE3C29A41F1B461FBDAFF4714A0D9A8EB05499746BC PUSH1 0x20 MSTORE PUSH1 0x40 DUP2 KECCAK256 SLOAD SWAP1 SWAP2 SWAP1 PUSH1 0xFF AND PUSH3 0x476 JUMPI DUP2 DUP1 MSTORE PUSH1 0x5 PUSH1 0x20 MSTORE PUSH1 0x40 DUP3 KECCAK256 DUP2 DUP4 MSTORE PUSH1 0x20 MSTORE PUSH1 0x40 DUP3 KECCAK256 PUSH1 0x1 PUSH1 0xFF NOT DUP3 SLOAD AND OR SWAP1 SSTORE CALLER SWAP2 PUSH1 0x0 DUP1 MLOAD PUSH1 0x20 PUSH3 0x1251 DUP4 CODECOPY DUP2 MLOAD SWAP2 MSTORE DUP2 DUP1 LOG4 PUSH1 0x1 SWAP1 JUMP JUMPDEST POP SWAP1 JUMP JUMPDEST PUSH1 0x1 PUSH1 0x1 PUSH1 0xA0 SHL SUB AND PUSH1 0x0 DUP2 DUP2 MSTORE PUSH32 0x15A28D26FA1BF736CF7EDC9922607171CCB09C3C73B808E7772A3013E068A522 PUSH1 0x20 MSTORE PUSH1 0x40 DUP2 KECCAK256 SLOAD SWAP1 SWAP2 SWAP1 PUSH32 0x9F2DF0FED2C77648DE5860A4CC508CD0818C85B8B8A1AB4CEEEF8D981C8956A6 SWAP1 PUSH1 0xFF AND PUSH3 0x518 JUMPI DUP1 DUP4 MSTORE PUSH1 0x5 PUSH1 0x20 MSTORE PUSH1 0x40 DUP4 KECCAK256 DUP3 DUP5 MSTORE PUSH1 0x20 MSTORE PUSH1 0x40 DUP4 KECCAK256 PUSH1 0x1 PUSH1 0xFF NOT DUP3 SLOAD AND OR SWAP1 SSTORE PUSH1 0x0 DUP1 MLOAD PUSH1 0x20 PUSH3 0x1251 DUP4 CODECOPY DUP2 MLOAD SWAP2 MSTORE CALLER SWAP4 DUP1 LOG4 PUSH1 0x1 SWAP1 JUMP JUMPDEST POP POP SWAP1 JUMP JUMPDEST PUSH1 0x1 PUSH1 0x1 PUSH1 0xA0 SHL SUB AND PUSH1 0x0 DUP2 DUP2 MSTORE PUSH32 0x847F481F687BEFB06ED3511F1A8DCEF57E83007C0147AE5047583D7056170937 PUSH1 0x20 MSTORE PUSH1 0x40 DUP2 KECCAK256 SLOAD SWAP1 SWAP2 SWAP1 PUSH32 0x3C11D16CBAFFD01DF69CE1C404F6340EE057498F5F00246190EA54220576A848 SWAP1 PUSH1 0xFF AND PUSH3 0x518 JUMPI DUP1 DUP4 MSTORE PUSH1 0x5 PUSH1 0x20 MSTORE PUSH1 0x40 DUP4 KECCAK256 DUP3 DUP5 MSTORE PUSH1 0x20 MSTORE PUSH1 0x40 DUP4 KECCAK256 PUSH1 0x1 PUSH1 0xFF NOT DUP3 SLOAD AND OR SWAP1 SSTORE PUSH1 0x0 DUP1 MLOAD PUSH1 0x20 PUSH3 0x1251 DUP4 CODECOPY DUP2 MLOAD SWAP2 MSTORE CALLER SWAP4 DUP1 LOG4 PUSH1 0x1 SWAP1 JUMP INVALID PUSH1 0x80 PUSH1 0x40 DUP2 DUP2 MSTORE PUSH1 0x4 SWAP2 DUP3 CALLDATASIZE LT ISZERO PUSH2 0x16 JUMPI PUSH1 0x0 DUP1 REVERT JUMPDEST PUSH1 0x0 SWAP3 DUP4 CALLDATALOAD PUSH1 0xE0 SHR SWAP2 DUP3 PUSH4 0x1FFC9A7 EQ PUSH2 0x979 JUMPI POP DUP2 PUSH4 0x6FDDE03 EQ PUSH2 0x89D JUMPI DUP2 PUSH4 0x95EA7B3 EQ PUSH2 0x7F3 JUMPI DUP2 PUSH4 0x18160DDD EQ PUSH2 0x7D4 JUMPI DUP2 PUSH4 0x23B872DD EQ PUSH2 0x6DD JUMPI DUP2 PUSH4 0x248A9CA3 EQ PUSH2 0x6B2 JUMPI DUP2 PUSH4 0x282C51F3 EQ PUSH2 0x677 JUMPI DUP2 PUSH4 0x2F2FF15D EQ PUSH2 0x64D JUMPI DUP2 PUSH4 0x313CE567 EQ PUSH2 0x631 JUMPI DUP2 PUSH4 0x36568ABE EQ PUSH2 0x5EB JUMPI DUP2 PUSH4 0x40C10F19 EQ PUSH2 0x4E6 JUMPI DUP2 PUSH4 0x70A08231 EQ PUSH2 0x4AF JUMPI DUP2 PUSH4 0x91D14854 EQ PUSH2 0x468 JUMPI DUP2 PUSH4 0x95D89B41 EQ PUSH2 0x347 JUMPI DUP2 PUSH4 0x9DC29FAC EQ PUSH2 0x217 JUMPI DUP2 PUSH4 0xA217FDDF EQ PUSH2 0x1FC JUMPI DUP2 PUSH4 0xA9059CBB EQ PUSH2 0x1CB JUMPI DUP2 PUSH4 0xD5391393 EQ PUSH2 0x190 JUMPI DUP2 PUSH4 0xD547741F EQ PUSH2 0x14C JUMPI POP PUSH4 0xDD62ED3E EQ PUSH2 0x101 JUMPI PUSH1 0x0 DUP1 REVERT JUMPDEST CALLVALUE PUSH2 0x148 JUMPI DUP1 PUSH1 0x3 NOT CALLDATASIZE ADD SLT PUSH2 0x148 JUMPI DUP1 PUSH1 0x20 SWAP3 PUSH2 0x11D PUSH2 0xA15 JUMP JUMPDEST PUSH2 0x125 PUSH2 0xA30 JUMP JUMPDEST PUSH1 0x1 PUSH1 0x1 PUSH1 0xA0 SHL SUB SWAP2 DUP3 AND DUP4 MSTORE PUSH1 0x1 DUP7 MSTORE DUP4 DUP4 KECCAK256 SWAP2 AND DUP3 MSTORE DUP5 MSTORE KECCAK256 SLOAD SWAP1 MLOAD SWAP1 DUP2 MSTORE RETURN JUMPDEST POP DUP1 REVERT JUMPDEST SWAP2 SWAP1 POP CALLVALUE PUSH2 0x18C JUMPI DUP1 PUSH1 0x3 NOT CALLDATASIZE ADD SLT PUSH2 0x18C JUMPI PUSH2 0x188 SWAP2 CALLDATALOAD PUSH2 0x183 PUSH1 0x1 PUSH2 0x171 PUSH2 0xA30 JUMP JUMPDEST SWAP4 DUP4 DUP8 MSTORE PUSH1 0x5 PUSH1 0x20 MSTORE DUP7 KECCAK256 ADD SLOAD PUSH2 0xB24 JUMP JUMPDEST PUSH2 0xBE8 JUMP JUMPDEST POP DUP1 RETURN JUMPDEST DUP3 DUP1 REVERT JUMPDEST POP POP CALLVALUE PUSH2 0x148 JUMPI DUP2 PUSH1 0x3 NOT CALLDATASIZE ADD SLT PUSH2 0x148 JUMPI PUSH1 0x20 SWAP1 MLOAD PUSH32 0x9F2DF0FED2C77648DE5860A4CC508CD0818C85B8B8A1AB4CEEEF8D981C8956A6 DUP2 MSTORE RETURN JUMPDEST POP POP CALLVALUE PUSH2 0x148 JUMPI DUP1 PUSH1 0x3 NOT CALLDATASIZE ADD SLT PUSH2 0x148 JUMPI PUSH1 0x20 SWAP1 PUSH2 0x1F5 PUSH2 0x1EB PUSH2 0xA15 JUMP JUMPDEST PUSH1 0x24 CALLDATALOAD SWAP1 CALLER PUSH2 0xA46 JUMP JUMPDEST MLOAD PUSH1 0x1 DUP2 MSTORE RETURN JUMPDEST POP POP CALLVALUE PUSH2 0x148 JUMPI DUP2 PUSH1 0x3 NOT CALLDATASIZE ADD SLT PUSH2 0x148 JUMPI MLOAD SWAP1 DUP2 MSTORE PUSH1 0x20 SWAP1 RETURN JUMPDEST DUP4 SWAP2 POP CALLVALUE PUSH2 0x148 JUMPI DUP3 PUSH1 0x3 NOT CALLDATASIZE ADD SLT PUSH2 0x148 JUMPI PUSH2 0x232 PUSH2 0xA15 JUMP JUMPDEST SWAP1 PUSH1 0x24 CALLDATALOAD SWAP1 PUSH32 0x3C11D16CBAFFD01DF69CE1C404F6340EE057498F5F00246190EA54220576A848 DUP1 DUP6 MSTORE PUSH1 0x5 PUSH1 0x20 MSTORE DUP6 DUP6 KECCAK256 CALLER DUP7 MSTORE PUSH1 0x20 MSTORE PUSH1 0xFF DUP7 DUP7 KECCAK256 SLOAD AND ISZERO PUSH2 0x32A JUMPI POP PUSH1 0x1 PUSH1 0x1 PUSH1 0xA0 SHL SUB DUP4 AND SWAP3 DUP4 ISZERO PUSH2 0x313 JUMPI DUP4 DUP6 MSTORE DUP5 PUSH1 0x20 MSTORE DUP6 DUP6 KECCAK256 SLOAD SWAP2 DUP4 DUP4 LT PUSH2 0x2DF JUMPI POP POP DUP2 DUP5 SWAP6 PUSH32 0xDDF252AD1BE2C89B69C2B068FC378DAA952BA7F163C4A11628F55A4DF523B3EF SWAP4 PUSH1 0x20 SWAP4 DUP7 DUP9 MSTORE DUP8 DUP6 MSTORE SUB DUP2 DUP8 KECCAK256 SSTORE DUP2 PUSH1 0x2 SLOAD SUB PUSH1 0x2 SSTORE MLOAD SWAP1 DUP2 MSTORE LOG3 DUP1 RETURN JUMPDEST DUP7 MLOAD PUSH4 0x391434E3 PUSH1 0xE2 SHL DUP2 MSTORE PUSH1 0x1 PUSH1 0x1 PUSH1 0xA0 SHL SUB SWAP1 SWAP3 AND SWAP1 DUP3 ADD SWAP1 DUP2 MSTORE PUSH1 0x20 DUP2 ADD DUP4 SWAP1 MSTORE PUSH1 0x40 DUP2 ADD DUP5 SWAP1 MSTORE DUP2 SWAP1 PUSH1 0x60 ADD SUB SWAP1 REVERT JUMPDEST DUP6 MLOAD PUSH4 0x4B637E8F PUSH1 0xE1 SHL DUP2 MSTORE DUP1 DUP4 ADD DUP7 SWAP1 MSTORE PUSH1 0x24 SWAP1 REVERT JUMPDEST PUSH1 0x44 SWAP3 POP DUP6 MLOAD SWAP2 PUSH4 0xE2517D3F PUSH1 0xE0 SHL DUP4 MSTORE CALLER SWAP1 DUP4 ADD MSTORE PUSH1 0x24 DUP3 ADD MSTORE REVERT JUMPDEST DUP4 DUP4 CALLVALUE PUSH2 0x148 JUMPI DUP2 PUSH1 0x3 NOT CALLDATASIZE ADD SLT PUSH2 0x148 JUMPI DUP1 MLOAD SWAP1 DUP3 DUP5 SLOAD PUSH1 0x1 DUP2 PUSH1 0x1 SHR SWAP1 PUSH1 0x1 DUP4 AND SWAP3 DUP4 ISZERO PUSH2 0x45E JUMPI JUMPDEST PUSH1 0x20 SWAP4 DUP5 DUP5 LT DUP2 EQ PUSH2 0x44B JUMPI DUP4 DUP9 MSTORE SWAP1 DUP2 ISZERO PUSH2 0x42F JUMPI POP PUSH1 0x1 EQ PUSH2 0x3DA JUMPI JUMPDEST POP POP POP DUP3 SWAP1 SUB PUSH1 0x1F ADD PUSH1 0x1F NOT AND DUP3 ADD SWAP3 PUSH8 0xFFFFFFFFFFFFFFFF DUP5 GT DUP4 DUP6 LT OR PUSH2 0x3C7 JUMPI POP DUP3 SWAP2 DUP3 PUSH2 0x3C3 SWAP3 MSTORE DUP3 PUSH2 0x9CC JUMP JUMPDEST SUB SWAP1 RETURN JUMPDEST PUSH4 0x4E487B71 PUSH1 0xE0 SHL DUP2 MSTORE PUSH1 0x41 DUP6 MSTORE PUSH1 0x24 SWAP1 REVERT JUMPDEST DUP8 DUP8 MSTORE SWAP2 SWAP3 POP DUP6 SWAP2 DUP4 PUSH32 0x8A35ACFBC15FF81A39AE7D344FD709F28E8600B4AA8C65C6B64BFE7FE36BD19B JUMPDEST DUP4 DUP6 LT PUSH2 0x41B JUMPI POP POP POP POP DUP4 ADD ADD DUP6 DUP1 DUP1 PUSH2 0x391 JUMP JUMPDEST DUP1 SLOAD DUP9 DUP7 ADD DUP4 ADD MSTORE SWAP4 ADD SWAP3 DUP5 SWAP1 DUP3 ADD PUSH2 0x405 JUMP JUMPDEST PUSH1 0xFF NOT AND DUP8 DUP6 ADD MSTORE POP POP ISZERO ISZERO PUSH1 0x5 SHL DUP5 ADD ADD SWAP1 POP DUP6 DUP1 DUP1 PUSH2 0x391 JUMP JUMPDEST PUSH4 0x4E487B71 PUSH1 0xE0 SHL DUP10 MSTORE PUSH1 0x22 DUP11 MSTORE PUSH1 0x24 DUP10 REVERT JUMPDEST SWAP2 PUSH1 0x7F AND SWAP2 PUSH2 0x372 JUMP JUMPDEST SWAP1 POP CALLVALUE PUSH2 0x18C JUMPI DUP2 PUSH1 0x3 NOT CALLDATASIZE ADD SLT PUSH2 0x18C JUMPI DUP2 PUSH1 0x20 SWAP4 PUSH1 0xFF SWAP3 PUSH2 0x489 PUSH2 0xA30 JUMP JUMPDEST SWAP1 CALLDATALOAD DUP3 MSTORE PUSH1 0x5 DUP7 MSTORE DUP3 DUP3 KECCAK256 PUSH1 0x1 PUSH1 0x1 PUSH1 0xA0 SHL SUB SWAP1 SWAP2 AND DUP3 MSTORE DUP6 MSTORE KECCAK256 SLOAD SWAP2 MLOAD SWAP2 AND ISZERO ISZERO DUP2 MSTORE RETURN JUMPDEST POP POP CALLVALUE PUSH2 0x148 JUMPI PUSH1 0x20 CALLDATASIZE PUSH1 0x3 NOT ADD SLT PUSH2 0x148 JUMPI PUSH1 0x20 SWAP2 DUP2 SWAP1 PUSH1 0x1 PUSH1 0x1 PUSH1 0xA0 SHL SUB PUSH2 0x4D7 PUSH2 0xA15 JUMP JUMPDEST AND DUP2 MSTORE DUP1 DUP5 MSTORE KECCAK256 SLOAD SWAP1 MLOAD SWAP1 DUP2 MSTORE RETURN JUMPDEST SWAP2 SWAP1 POP CALLVALUE PUSH2 0x18C JUMPI DUP1 PUSH1 0x3 NOT CALLDATASIZE ADD SLT PUSH2 0x18C JUMPI PUSH2 0x501 PUSH2 0xA15 JUMP JUMPDEST SWAP1 PUSH1 0x24 CALLDATALOAD SWAP2 PUSH32 0x9F2DF0FED2C77648DE5860A4CC508CD0818C85B8B8A1AB4CEEEF8D981C8956A6 DUP1 DUP7 MSTORE PUSH1 0x5 PUSH1 0x20 MSTORE DUP3 DUP7 KECCAK256 CALLER DUP8 MSTORE PUSH1 0x20 MSTORE PUSH1 0xFF DUP4 DUP8 KECCAK256 SLOAD AND ISZERO PUSH2 0x5CD JUMPI POP PUSH1 0x1 PUSH1 0x1 PUSH1 0xA0 SHL SUB AND SWAP3 DUP4 ISZERO PUSH2 0x5B8 JUMPI PUSH1 0x2 SLOAD SWAP1 DUP4 DUP3 ADD DUP1 SWAP3 GT PUSH2 0x5A5 JUMPI POP DUP5 SWAP3 PUSH32 0xDDF252AD1BE2C89B69C2B068FC378DAA952BA7F163C4A11628F55A4DF523B3EF SWAP3 PUSH1 0x20 SWAP3 PUSH1 0x2 SSTORE DUP6 DUP6 MSTORE DUP5 DUP4 MSTORE DUP1 DUP6 KECCAK256 DUP3 DUP2 SLOAD ADD SWAP1 SSTORE MLOAD SWAP1 DUP2 MSTORE LOG3 DUP1 RETURN JUMPDEST PUSH4 0x4E487B71 PUSH1 0xE0 SHL DUP7 MSTORE PUSH1 0x11 SWAP1 MSTORE PUSH1 0x24 DUP6 REVERT JUMPDEST DUP5 PUSH1 0x24 SWAP3 MLOAD SWAP2 PUSH4 0xEC442F05 PUSH1 0xE0 SHL DUP4 MSTORE DUP3 ADD MSTORE REVERT JUMPDEST DUP3 MLOAD PUSH4 0xE2517D3F PUSH1 0xE0 SHL DUP2 MSTORE CALLER DUP2 DUP8 ADD MSTORE PUSH1 0x24 DUP2 ADD SWAP2 SWAP1 SWAP2 MSTORE PUSH1 0x44 SWAP1 REVERT JUMPDEST DUP4 DUP4 CALLVALUE PUSH2 0x148 JUMPI DUP1 PUSH1 0x3 NOT CALLDATASIZE ADD SLT PUSH2 0x148 JUMPI PUSH2 0x605 PUSH2 0xA30 JUMP JUMPDEST SWAP1 CALLER PUSH1 0x1 PUSH1 0x1 PUSH1 0xA0 SHL SUB DUP4 AND SUB PUSH2 0x622 JUMPI POP PUSH2 0x188 SWAP2 SWAP3 CALLDATALOAD PUSH2 0xBE8 JUMP JUMPDEST MLOAD PUSH4 0x334BD919 PUSH1 0xE1 SHL DUP2 MSTORE DUP4 SWAP1 REVERT JUMPDEST POP POP CALLVALUE PUSH2 0x148 JUMPI DUP2 PUSH1 0x3 NOT CALLDATASIZE ADD SLT PUSH2 0x148 JUMPI PUSH1 0x20 SWAP1 MLOAD PUSH1 0x12 DUP2 MSTORE RETURN JUMPDEST SWAP2 SWAP1 POP CALLVALUE PUSH2 0x18C JUMPI DUP1 PUSH1 0x3 NOT CALLDATASIZE ADD SLT PUSH2 0x18C JUMPI PUSH2 0x188 SWAP2 CALLDATALOAD PUSH2 0x672 PUSH1 0x1 PUSH2 0x171 PUSH2 0xA30 JUMP JUMPDEST PUSH2 0xB68 JUMP JUMPDEST POP POP CALLVALUE PUSH2 0x148 JUMPI DUP2 PUSH1 0x3 NOT CALLDATASIZE ADD SLT PUSH2 0x148 JUMPI PUSH1 0x20 SWAP1 MLOAD PUSH32 0x3C11D16CBAFFD01DF69CE1C404F6340EE057498F5F00246190EA54220576A848 DUP2 MSTORE RETURN JUMPDEST SWAP1 POP CALLVALUE PUSH2 0x18C JUMPI PUSH1 0x20 CALLDATASIZE PUSH1 0x3 NOT ADD SLT PUSH2 0x18C JUMPI DUP2 PUSH1 0x20 SWAP4 PUSH1 0x1 SWAP3 CALLDATALOAD DUP2 MSTORE PUSH1 0x5 DUP6 MSTORE KECCAK256 ADD SLOAD SWAP1 MLOAD SWAP1 DUP2 MSTORE RETURN JUMPDEST SWAP1 POP DUP3 CALLVALUE PUSH2 0x7D1 JUMPI PUSH1 0x60 CALLDATASIZE PUSH1 0x3 NOT ADD SLT PUSH2 0x7D1 JUMPI PUSH2 0x6F9 PUSH2 0xA15 JUMP JUMPDEST PUSH2 0x701 PUSH2 0xA30 JUMP JUMPDEST SWAP2 PUSH1 0x44 CALLDATALOAD SWAP4 PUSH1 0x1 DUP1 PUSH1 0xA0 SHL SUB DUP4 AND DUP1 DUP4 MSTORE PUSH1 0x1 PUSH1 0x20 MSTORE DUP7 DUP4 KECCAK256 CALLER DUP5 MSTORE PUSH1 0x20 MSTORE DUP7 DUP4 KECCAK256 SLOAD SWAP2 PUSH1 0x0 NOT DUP4 LT PUSH2 0x73D JUMPI JUMPDEST PUSH1 0x20 DUP9 PUSH2 0x1F5 DUP10 DUP10 DUP10 PUSH2 0xA46 JUMP JUMPDEST DUP7 DUP4 LT PUSH2 0x7A5 JUMPI DUP2 ISZERO PUSH2 0x78E JUMPI CALLER ISZERO PUSH2 0x777 JUMPI POP DUP3 MSTORE PUSH1 0x1 PUSH1 0x20 SWAP1 DUP2 MSTORE DUP7 DUP4 KECCAK256 CALLER DUP5 MSTORE DUP2 MSTORE SWAP2 DUP7 SWAP1 KECCAK256 SWAP1 DUP6 SWAP1 SUB SWAP1 SSTORE DUP3 SWAP1 PUSH2 0x1F5 DUP8 PUSH2 0x72F JUMP JUMPDEST DUP8 MLOAD PUSH4 0x4A1406B1 PUSH1 0xE1 SHL DUP2 MSTORE SWAP1 DUP2 ADD DUP5 SWAP1 MSTORE PUSH1 0x24 SWAP1 REVERT JUMPDEST DUP8 MLOAD PUSH4 0xE602DF05 PUSH1 0xE0 SHL DUP2 MSTORE SWAP1 DUP2 ADD DUP5 SWAP1 MSTORE PUSH1 0x24 SWAP1 REVERT JUMPDEST DUP8 MLOAD PUSH4 0x7DC7A0D9 PUSH1 0xE1 SHL DUP2 MSTORE CALLER SWAP2 DUP2 ADD SWAP2 DUP3 MSTORE PUSH1 0x20 DUP3 ADD SWAP4 SWAP1 SWAP4 MSTORE PUSH1 0x40 DUP2 ADD DUP8 SWAP1 MSTORE DUP3 SWAP2 POP PUSH1 0x60 ADD SUB SWAP1 REVERT JUMPDEST DUP1 REVERT JUMPDEST POP POP CALLVALUE PUSH2 0x148 JUMPI DUP2 PUSH1 0x3 NOT CALLDATASIZE ADD SLT PUSH2 0x148 JUMPI PUSH1 0x20 SWAP1 PUSH1 0x2 SLOAD SWAP1 MLOAD SWAP1 DUP2 MSTORE RETURN JUMPDEST SWAP1 POP CALLVALUE PUSH2 0x18C JUMPI DUP2 PUSH1 0x3 NOT CALLDATASIZE ADD SLT PUSH2 0x18C JUMPI PUSH2 0x80D PUSH2 0xA15 JUMP JUMPDEST PUSH1 0x24 CALLDATALOAD SWAP1 CALLER ISZERO PUSH2 0x886 JUMPI PUSH1 0x1 PUSH1 0x1 PUSH1 0xA0 SHL SUB AND SWAP2 DUP3 ISZERO PUSH2 0x86F JUMPI POP DUP1 DUP4 PUSH1 0x20 SWAP6 CALLER DUP2 MSTORE PUSH1 0x1 DUP8 MSTORE DUP2 DUP2 KECCAK256 DUP6 DUP3 MSTORE DUP8 MSTORE KECCAK256 SSTORE DUP3 MLOAD SWAP1 DUP2 MSTORE PUSH32 0x8C5BE1E5EBEC7D5BD14F71427D1E84F3DD0314C0F7B2291E5B200AC8C7C3B925 DUP5 CALLER SWAP3 LOG3 MLOAD PUSH1 0x1 DUP2 MSTORE RETURN JUMPDEST DUP4 MLOAD PUSH4 0x4A1406B1 PUSH1 0xE1 SHL DUP2 MSTORE SWAP1 DUP2 ADD DUP6 SWAP1 MSTORE PUSH1 0x24 SWAP1 REVERT JUMPDEST DUP4 MLOAD PUSH4 0xE602DF05 PUSH1 0xE0 SHL DUP2 MSTORE DUP1 DUP5 ADD DUP7 SWAP1 MSTORE PUSH1 0x24 SWAP1 REVERT JUMPDEST DUP4 DUP4 CALLVALUE PUSH2 0x148 JUMPI DUP2 PUSH1 0x3 NOT CALLDATASIZE ADD SLT PUSH2 0x148 JUMPI DUP1 MLOAD SWAP1 DUP3 PUSH1 0x3 SLOAD PUSH1 0x1 DUP2 PUSH1 0x1 SHR SWAP1 PUSH1 0x1 DUP4 AND SWAP3 DUP4 ISZERO PUSH2 0x96F JUMPI JUMPDEST PUSH1 0x20 SWAP4 DUP5 DUP5 LT DUP2 EQ PUSH2 0x44B JUMPI DUP4 DUP9 MSTORE SWAP1 DUP2 ISZERO PUSH2 0x42F JUMPI POP PUSH1 0x1 EQ PUSH2 0x919 JUMPI POP POP POP DUP3 SWAP1 SUB PUSH1 0x1F ADD PUSH1 0x1F NOT AND DUP3 ADD SWAP3 PUSH8 0xFFFFFFFFFFFFFFFF DUP5 GT DUP4 DUP6 LT OR PUSH2 0x3C7 JUMPI POP DUP3 SWAP2 DUP3 PUSH2 0x3C3 SWAP3 MSTORE DUP3 PUSH2 0x9CC JUMP JUMPDEST PUSH1 0x3 DUP8 MSTORE SWAP2 SWAP3 POP DUP6 SWAP2 DUP4 PUSH32 0xC2575A0E9E593C00F959F8C92F12DB2869C3395A3B0502D05E2516446F71F85B JUMPDEST DUP4 DUP6 LT PUSH2 0x95B JUMPI POP POP POP POP DUP4 ADD ADD DUP6 DUP1 DUP1 PUSH2 0x391 JUMP JUMPDEST DUP1 SLOAD DUP9 DUP7 ADD DUP4 ADD MSTORE SWAP4 ADD SWAP3 DUP5 SWAP1 DUP3 ADD PUSH2 0x945 JUMP JUMPDEST SWAP2 PUSH1 0x7F AND SWAP2 PUSH2 0x8C9 JUMP JUMPDEST DUP5 SWAP2 CALLVALUE PUSH2 0x18C JUMPI PUSH1 0x20 CALLDATASIZE PUSH1 0x3 NOT ADD SLT PUSH2 0x18C JUMPI CALLDATALOAD PUSH4 0xFFFFFFFF PUSH1 0xE0 SHL DUP2 AND DUP1 SWAP2 SUB PUSH2 0x18C JUMPI PUSH1 0x20 SWAP3 POP PUSH4 0x7965DB0B PUSH1 0xE0 SHL DUP2 EQ SWAP1 DUP2 ISZERO PUSH2 0x9BB JUMPI JUMPDEST POP ISZERO ISZERO DUP2 MSTORE RETURN JUMPDEST PUSH4 0x1FFC9A7 PUSH1 0xE0 SHL EQ SWAP1 POP DUP4 PUSH2 0x9B4 JUMP JUMPDEST PUSH1 0x20 DUP1 DUP3 MSTORE DUP3 MLOAD DUP2 DUP4 ADD DUP2 SWAP1 MSTORE SWAP1 SWAP4 SWAP3 PUSH1 0x0 JUMPDEST DUP3 DUP2 LT PUSH2 0xA01 JUMPI POP POP PUSH1 0x40 SWAP3 SWAP4 POP PUSH1 0x0 DUP4 DUP3 DUP5 ADD ADD MSTORE PUSH1 0x1F DUP1 NOT SWAP2 ADD AND ADD ADD SWAP1 JUMP JUMPDEST DUP2 DUP2 ADD DUP7 ADD MLOAD DUP5 DUP3 ADD PUSH1 0x40 ADD MSTORE DUP6 ADD PUSH2 0x9DF JUMP JUMPDEST PUSH1 0x4 CALLDATALOAD SWAP1 PUSH1 0x1 PUSH1 0x1 PUSH1 0xA0 SHL SUB DUP3 AND DUP3 SUB PUSH2 0xA2B JUMPI JUMP JUMPDEST PUSH1 0x0 DUP1 REVERT JUMPDEST PUSH1 0x24 CALLDATALOAD SWAP1 PUSH1 0x1 PUSH1 0x1 PUSH1 0xA0 SHL SUB DUP3 AND DUP3 SUB PUSH2 0xA2B JUMPI JUMP JUMPDEST SWAP2 PUSH1 0x1 PUSH1 0x1 PUSH1 0xA0 SHL SUB DUP1 DUP5 AND SWAP3 DUP4 ISZERO PUSH2 0xB0B JUMPI AND SWAP3 DUP4 ISZERO PUSH2 0xAF2 JUMPI PUSH1 0x0 SWAP1 DUP4 DUP3 MSTORE DUP2 PUSH1 0x20 MSTORE PUSH1 0x40 DUP3 KECCAK256 SLOAD SWAP1 DUP4 DUP3 LT PUSH2 0xAC0 JUMPI POP SWAP2 PUSH1 0x40 DUP3 DUP3 PUSH32 0xDDF252AD1BE2C89B69C2B068FC378DAA952BA7F163C4A11628F55A4DF523B3EF SWAP6 DUP8 PUSH1 0x20 SWAP7 MSTORE DUP3 DUP7 MSTORE SUB DUP3 DUP3 KECCAK256 SSTORE DUP7 DUP2 MSTORE KECCAK256 DUP2 DUP2 SLOAD ADD SWAP1 SSTORE PUSH1 0x40 MLOAD SWAP1 DUP2 MSTORE LOG3 JUMP JUMPDEST PUSH1 0x40 MLOAD PUSH4 0x391434E3 PUSH1 0xE2 SHL DUP2 MSTORE PUSH1 0x1 PUSH1 0x1 PUSH1 0xA0 SHL SUB SWAP2 SWAP1 SWAP2 AND PUSH1 0x4 DUP3 ADD MSTORE PUSH1 0x24 DUP2 ADD SWAP2 SWAP1 SWAP2 MSTORE PUSH1 0x44 DUP2 ADD DUP4 SWAP1 MSTORE PUSH1 0x64 SWAP1 REVERT JUMPDEST PUSH1 0x40 MLOAD PUSH4 0xEC442F05 PUSH1 0xE0 SHL DUP2 MSTORE PUSH1 0x0 PUSH1 0x4 DUP3 ADD MSTORE PUSH1 0x24 SWAP1 REVERT JUMPDEST PUSH1 0x40 MLOAD PUSH4 0x4B637E8F PUSH1 0xE1 SHL DUP2 MSTORE PUSH1 0x0 PUSH1 0x4 DUP3 ADD MSTORE PUSH1 0x24 SWAP1 REVERT JUMPDEST DUP1 PUSH1 0x0 MSTORE PUSH1 0x5 PUSH1 0x20 MSTORE PUSH1 0x40 PUSH1 0x0 KECCAK256 CALLER PUSH1 0x0 MSTORE PUSH1 0x20 MSTORE PUSH1 0xFF PUSH1 0x40 PUSH1 0x0 KECCAK256 SLOAD AND ISZERO PUSH2 0xB4A JUMPI POP JUMP JUMPDEST PUSH1 0x44 SWAP1 PUSH1 0x40 MLOAD SWAP1 PUSH4 0xE2517D3F PUSH1 0xE0 SHL DUP3 MSTORE CALLER PUSH1 0x4 DUP4 ADD MSTORE PUSH1 0x24 DUP3 ADD MSTORE REVERT JUMPDEST SWAP1 PUSH1 0x0 SWAP2 DUP1 DUP4 MSTORE PUSH1 0x5 PUSH1 0x20 MSTORE PUSH1 0x40 DUP4 KECCAK256 SWAP2 PUSH1 0x1 DUP1 PUSH1 0xA0 SHL SUB AND SWAP2 DUP3 DUP5 MSTORE PUSH1 0x20 MSTORE PUSH1 0xFF PUSH1 0x40 DUP5 KECCAK256 SLOAD AND ISZERO PUSH1 0x0 EQ PUSH2 0xBE3 JUMPI DUP1 DUP4 MSTORE PUSH1 0x5 PUSH1 0x20 MSTORE PUSH1 0x40 DUP4 KECCAK256 DUP3 DUP5 MSTORE PUSH1 0x20 MSTORE PUSH1 0x40 DUP4 KECCAK256 PUSH1 0x1 PUSH1 0xFF NOT DUP3 SLOAD AND OR SWAP1 SSTORE PUSH32 0x2F8788117E7EFF1D82E926EC794901D17C78024A50270940304540A733656F0D CALLER SWAP4 DUP1 LOG4 PUSH1 0x1 SWAP1 JUMP JUMPDEST POP POP SWAP1 JUMP JUMPDEST SWAP1 PUSH1 0x0 SWAP2 DUP1 DUP4 MSTORE PUSH1 0x5 PUSH1 0x20 MSTORE PUSH1 0x40 DUP4 KECCAK256 SWAP2 PUSH1 0x1 DUP1 PUSH1 0xA0 SHL SUB AND SWAP2 DUP3 DUP5 MSTORE PUSH1 0x20 MSTORE PUSH1 0xFF PUSH1 0x40 DUP5 KECCAK256 SLOAD AND PUSH1 0x0 EQ PUSH2 0xBE3 JUMPI DUP1 DUP4 MSTORE PUSH1 0x5 PUSH1 0x20 MSTORE PUSH1 0x40 DUP4 KECCAK256 DUP3 DUP5 MSTORE PUSH1 0x20 MSTORE PUSH1 0x40 DUP4 KECCAK256 PUSH1 0xFF NOT DUP2 SLOAD AND SWAP1 SSTORE PUSH32 0xF6391F5C32D9C69D2A47EA670B442974B53935D1EDC7FD64EB21E047A839171B CALLER SWAP4 DUP1 LOG4 PUSH1 0x1 SWAP1 JUMP INVALID LOG2 PUSH5 0x6970667358 0x22 SLT KECCAK256 PC SLOAD 0xAD PUSH27 0x7BA14B2D05DD9F6ED2A635ADB0EB50E35022788F3382CF94A5B836 0xDC PUSH5 0x736F6C6343 STOP ADDMOD XOR STOP CALLER 0x2F DUP8 DUP9 GT PUSH31 0x7EFF1D82E926EC794901D17C78024A50270940304540A733656F0DD3065A24 0xAD SWAP15 PUSH24 0x25D223007135762D2902038999E3E5829146654498A58D97 SWAP6 LOG2 PUSH5 0x6970667358 0x22 SLT KECCAK256 DUP11 0xEB DUP16 LOG0 STATICCALL LOG0 0x28 SGT PUSH23 0x203D14DC4AA0BE3260A6E5607530E96626852C8952D95E PUSH5 0x736F6C6343 STOP ADDMOD XOR STOP CALLER 0x2F DUP8 DUP9 GT PUSH31 0x7EFF1D82E926EC794901D17C78024A50270940304540A733656F0D00000000 "},"methodIdentifiers":{"DEFAULT_ADMIN_ROLE()":"a217fddf","MARKET_CREATOR_ROLE()":"ae42820c","MAX_USDC_PER_TRADE()":"43abd9ea","buyNo(uint256,uint256,uint256)":"ea175894","buyYes(uint256,uint256,uint256)":"fb27260b","chainlinkResolver()":"7f8a3f8c","checkUpkeep(uint256)":"f7d334ba","createMarket(string,string,string,string,string,uint256,uint16,uint16,uint256,uint256,uint8,address,bytes32,uint256,uint8)":"a27a4186","getMarketResolution(uint256)":"232e45d7","getPriceNo(uint256)":"de62967d","getPriceYes(uint256)":"d46a7721","getRoleAdmin(bytes32)":"248a9ca3","grantMarketCreator(address)":"b06ea2eb","grantRole(bytes32,address)":"2f2ff15d","hasRole(bytes32,address)":"91d14854","marketCount()":"ec979082","markets(uint256)":"b1283e77","redeem(uint256,bool,uint256)":"e43f80a5","renounceRole(bytes32,address)":"36568abe","resolveMarket(uint256,bool)":"57bde446","resolveMarketWithPrice(uint256,uint256)":"cab7cde9","revokeRole(bytes32,address)":"d547741f","sellNo(uint256,uint256,uint256)":"16fe6929","sellYes(uint256,uint256,uint256)":"dffad4e2","setAllFees(uint256,uint16,uint16,uint16,bool)":"047efcf3","setChainlinkResolver(address)":"bad260f5","setTreasury(address)":"f0f44260","spotPriceNoE6(uint256)":"b4fb88b7","spotPriceYesE18(uint256)":"6ad6c254","spotPriceYesE6(uint256)":"dfe0662a","supportsInterface(bytes4)":"01ffc9a7","treasury()":"61d027b3","usdc()":"3e413bee"}}}}}