{"contracts/src/MockUSDC.sol":{"MockUSDC":{"abi":[{"inputs":[],"stateMutability":"nonpayable","type":"constructor"},{"inputs":[{"internalType":"address","name":"spender","type":"address"},{"internalType":"uint256","name":"allowance","type":"uint256"},{"internalType":"uint256","name":"needed","type":"uint256"}],"name":"ERC20InsufficientAllowance","type":"error"},{"inputs":[{"internalType":"address","name":"sender","type":"address"},{"internalType":"uint256","name":"balance","type":"uint256"},{"internalType":"uint256","name":"needed","type":"uint256"}],"name":"ERC20InsufficientBalance","type":"error"},{"inputs":[{"internalType":"address","name":"approver","type":"address"}],"name":"ERC20InvalidApprover","type":"error"},{"inputs":[{"internalType":"address","name":"receiver","type":"address"}],"name":"ERC20InvalidReceiver","type":"error"},{"inputs":[{"internalType":"address","name":"sender","type":"address"}],"name":"ERC20InvalidSender","type":"error"},{"inputs":[{"internalType":"address","name":"spender","type":"address"}],"name":"ERC20InvalidSpender","type":"error"},{"inputs":[{"internalType":"address","name":"owner","type":"address"}],"name":"OwnableInvalidOwner","type":"error"},{"inputs":[{"internalType":"address","name":"account","type":"address"}],"name":"OwnableUnauthorizedAccount","type":"error"},{"anonymous":false,"inputs":[{"indexed":true,"internalType":"address","name":"owner","type":"address"},{"indexed":true,"internalType":"address","name":"spender","type":"address"},{"indexed":false,"internalType":"uint256","name":"value","type":"uint256"}],"name":"Approval","type":"event"},{"anonymous":false,"inputs":[{"indexed":true,"internalType":"address","name":"minter","type":"address"}],"name":"MinterAdded","type":"event"},{"anonymous":false,"inputs":[{"indexed":true,"internalType":"address","name":"minter","type":"address"}],"name":"MinterRemoved","type":"event"},{"anonymous":false,"inputs":[{"indexed":true,"internalType":"address","name":"previousOwner","type":"address"},{"indexed":true,"internalType":"address","name":"newOwner","type":"address"}],"name":"OwnershipTransferred","type":"event"},{"anonymous":false,"inputs":[{"indexed":true,"internalType":"address","name":"speculateCore","type":"address"}],"name":"SpeculateCoreSet","type":"event"},{"anonymous":false,"inputs":[{"indexed":true,"internalType":"address","name":"from","type":"address"},{"indexed":true,"internalType":"address","name":"to","type":"address"},{"indexed":false,"internalType":"uint256","name":"value","type":"uint256"}],"name":"Transfer","type":"event"},{"inputs":[{"internalType":"address","name":"minter","type":"address"}],"name":"addMinter","outputs":[],"stateMutability":"nonpayable","type":"function"},{"inputs":[{"internalType":"address","name":"owner","type":"address"},{"internalType":"address","name":"spender","type":"address"}],"name":"allowance","outputs":[{"internalType":"uint256","name":"","type":"uint256"}],"stateMutability":"view","type":"function"},{"inputs":[{"internalType":"address","name":"spender","type":"address"},{"internalType":"uint256","name":"value","type":"uint256"}],"name":"approve","outputs":[{"internalType":"bool","name":"","type":"bool"}],"stateMutability":"nonpayable","type":"function"},{"inputs":[{"internalType":"address","name":"account","type":"address"}],"name":"balanceOf","outputs":[{"internalType":"uint256","name":"","type":"uint256"}],"stateMutability":"view","type":"function"},{"inputs":[{"internalType":"address","name":"from","type":"address"},{"internalType":"uint256","name":"amount","type":"uint256"}],"name":"burn","outputs":[],"stateMutability":"nonpayable","type":"function"},{"inputs":[],"name":"decimals","outputs":[{"internalType":"uint8","name":"","type":"uint8"}],"stateMutability":"pure","type":"function"},{"inputs":[],"name":"directCore","outputs":[{"internalType":"address","name":"","type":"address"}],"stateMutability":"view","type":"function"},{"inputs":[{"internalType":"address","name":"to","type":"address"},{"internalType":"uint256","name":"amount","type":"uint256"}],"name":"mint","outputs":[],"stateMutability":"nonpayable","type":"function"},{"inputs":[{"internalType":"address","name":"","type":"address"}],"name":"minters","outputs":[{"internalType":"bool","name":"","type":"bool"}],"stateMutability":"view","type":"function"},{"inputs":[],"name":"name","outputs":[{"internalType":"string","name":"","type":"string"}],"stateMutability":"view","type":"function"},{"inputs":[],"name":"owner","outputs":[{"internalType":"address","name":"","type":"address"}],"stateMutability":"view","type":"function"},{"inputs":[{"internalType":"address","name":"minter","type":"address"}],"name":"removeMinter","outputs":[],"stateMutability":"nonpayable","type":"function"},{"inputs":[],"name":"renounceOwnership","outputs":[],"stateMutability":"nonpayable","type":"function"},{"inputs":[{"internalType":"address","name":"_directCore","type":"address"}],"name":"setDirectCore","outputs":[],"stateMutability":"nonpayable","type":"function"},{"inputs":[{"internalType":"address","name":"_speculateCore","type":"address"}],"name":"setSpeculateCore","outputs":[],"stateMutability":"nonpayable","type":"function"},{"inputs":[],"name":"speculateCore","outputs":[{"internalType":"address","name":"","type":"address"}],"stateMutability":"view","type":"function"},{"inputs":[],"name":"symbol","outputs":[{"internalType":"string","name":"","type":"string"}],"stateMutability":"view","type":"function"},{"inputs":[],"name":"totalSupply","outputs":[{"internalType":"uint256","name":"","type":"uint256"}],"stateMutability":"view","type":"function"},{"inputs":[{"internalType":"address","name":"to","type":"address"},{"internalType":"uint256","name":"value","type":"uint256"}],"name":"transfer","outputs":[{"internalType":"bool","name":"","type":"bool"}],"stateMutability":"nonpayable","type":"function"},{"inputs":[{"internalType":"address","name":"from","type":"address"},{"internalType":"address","name":"to","type":"address"},{"internalType":"uint256","name":"value","type":"uint256"}],"name":"transferFrom","outputs":[{"internalType":"bool","name":"","type":"bool"}],"stateMutability":"nonpayable","type":"function"},{"inputs":[{"internalType":"address","name":"newOwner","type":"address"}],"name":"transferOwnership","outputs":[],"stateMutability":"nonpayable","type":"function"}],"evm":{"bytecode":{"linkReferences":{},"object":"60803462000391576001600160401b039060408181018381118382101762000292578152600982526020684d6f636b205553444360b81b8184015281518281018181108682111762000292578352600594858252646d5553444360d81b83830152845181811162000292576003908154906001978883811c9316801562000386575b8784101462000370578190601f938481116200031b575b508790848311600114620002b457600092620002a8575b505060001982851b1c191690881b1782555b8351928311620002925760049384548881811c9116801562000287575b87821014620002725790818386959493116200021a575b5086918411600114620001af57600093620001a3575b505082871b92600019911b1c19161781555b33156200018c57508354336001600160a01b031982168117909555825194600692916001600160a01b03167f8be0079c531659141344cd1fd0a4f28419497f9722a3daafe3b4186f6b6457e0600080a333600052526000209060ff19825416179055610fc89081620003978239f35b6024906000845191631e4fbdf760e01b8352820152fd5b0151915038806200010b565b9190889450601f1984169286600052876000209360005b89828210620002035750508511620001e8575b50505050811b0181556200011d565b01519060f884600019921b161c1916905538808080620001d9565b8385015187558c98909601959384019301620001c6565b90919293508560005286600020838087018c1c82019289881062000268575b918b91889796959493018d1c01915b82811062000258575050620000f5565b600081558796508b910162000248565b9250819262000239565b602286634e487b7160e01b6000525260246000fd5b90607f1690620000de565b634e487b7160e01b600052604160045260246000fd5b015190503880620000af565b908a9350601f1983169186600052896000209260005b8b828210620003045750508411620002eb575b505050811b018255620000c1565b015160001983871b60f8161c19169055388080620002dd565b8385015186558e97909501949384019301620002ca565b9091508460005287600020848085018d1c8201928a861062000366575b918d8d928796959401901c01915b8281106200035657505062000098565b600081558594508c910162000346565b9250819262000338565b634e487b7160e01b600052602260045260246000fd5b92607f169262000081565b600080fdfe608060408181526004918236101561001657600080fd5b600092833560e01c91826306fdde0314610a2857508163095ea7b31461097e57816318160ddd1461095f57816323b872dd1461086b5781633092afd5146107fa578163313ce567146107de57816340c10f19146106d857816370a08231146106a1578163715018a6146106445781638da5cb5b1461061b57816395d89b4114610516578163983b2d56146104a25781639ba479f1146104795781639dc29fac14610346578163a9059cbb14610315578163ac3bbbc6146102ec578163b5988ebd1461029b578163dc7b666e14610229578163dd62ed3e146101e0578163f2fde38b1461014c575063f46eccc41461010c57600080fd5b346101485760203660031901126101485760209160ff9082906001600160a01b03610135610b66565b1681526006855220541690519015158152f35b5080fd5b9050346101dc5760203660031901126101dc57610167610b66565b90610170610d25565b6001600160a01b039182169283156101c6575050600554826bffffffffffffffffffffffff60a01b821617600555167f8be0079c531659141344cd1fd0a4f28419497f9722a3daafe3b4186f6b6457e08380a380f35b51631e4fbdf760e01b8152908101849052602490fd5b8280fd5b505034610148578060031936011261014857806020926101fe610b66565b610206610b81565b6001600160a01b0391821683526001865283832091168252845220549051908152f35b833461029857602036600319011261029857610243610b66565b61024b610d25565b6001600160a01b031661025f811515610bcf565b600880546001600160a01b031916821790557fd85da9d9a1319c6f26c71d1703f6c964a5909e44544492c88b571dd0ea91f3978280a280f35b80fd5b8334610298576020366003190112610298576102b5610b66565b6102bd610d25565b6001600160a01b03166102d1811515610bcf565b6bffffffffffffffffffffffff60a01b600754161760075580f35b50503461014857816003193601126101485760085490516001600160a01b039091168152602090f35b50503461014857806003193601126101485760209061033f610335610b66565b6024359033610c47565b5160018152f35b83915034610148578260031936011261014857610361610b66565b6005549091602435916001600160a01b0390811633148015610464575b8015610455575b8015610441575b61039590610c0a565b831692831561042a578385528460205285852054918383106103f65750508184957fddf252ad1be2c89b69c2b068fc378daa952ba7f163c4a11628f55a4df523b3ef936020938688528785520381872055816002540360025551908152a380f35b865163391434e360e21b81526001600160a01b03909216908201908152602081018390526040810184905281906060010390fd5b8551634b637e8f60e11b8152808301869052602490fd5b5061039561044e33610ee8565b905061038c565b5061045f33610da9565b610385565b50338552600660205260ff868620541661037e565b50503461014857816003193601126101485760075490516001600160a01b039091168152602090f35b505034610148576020366003190112610148576104bd610b66565b6104c5610d25565b6001600160a01b0316906104da821515610bcf565b81835260066020528220805460ff191660011790557f6ae172837ea30b801fbfcdd4108aa1d5bf8ff775444fd70256b44e6bf3dfc3f68280a280f35b83833461014857816003193601126101485780519180938054916001908360011c9260018516948515610611575b60209586861081146105fe578589529081156105da5750600114610582575b61057e8787610574828c0383610b97565b5191829182610b1d565b0390f35b81529295507f8a35acfbc15ff81a39ae7d344fd709f28e8600b4aa8c65c6b64bfe7fe36bd19b5b8284106105c7575050508261057e9461057492820101948680610563565b80548685018801529286019281016105a9565b60ff19168887015250505050151560051b83010192506105748261057e8680610563565b634e487b7160e01b845260228352602484fd5b93607f1693610544565b50503461014857816003193601126101485760055490516001600160a01b039091168152602090f35b833461029857806003193601126102985761065d610d25565b600580546001600160a01b0319811690915581906001600160a01b03167f8be0079c531659141344cd1fd0a4f28419497f9722a3daafe3b4186f6b6457e08280a380f35b5050346101485760203660031901126101485760209181906001600160a01b036106c9610b66565b16815280845220549051908152f35b919050346101dc57806003193601126101dc576106f3610b66565b60055460243592916001600160a01b03918216331480156107c9575b80156107ba575b80156107a6575b61072690610c0a565b16928315610791576002549083820180921161077e575084927fddf252ad1be2c89b69c2b068fc378daa952ba7f163c4a11628f55a4df523b3ef9260209260025585855284835280852082815401905551908152a380f35b634e487b7160e01b865260119052602485fd5b84602492519163ec442f0560e01b8352820152fd5b506107266107b333610ee8565b905061071d565b506107c433610da9565b610716565b50338652600660205260ff838720541661070f565b5050346101485781600319360112610148576020905160068152f35b50503461014857602036600319011261014857610815610b66565b61081d610d25565b6001600160a01b031690610832821515610bcf565b81835260066020528220805460ff191690557fe94479a9f7e1952cc78f2d6baab678adc1b772d936c6583def489e524cb666928280a280f35b9050823461029857606036600319011261029857610887610b66565b61088f610b81565b916044359360018060a01b0383168083526001602052868320338452602052868320549160001983106108cb575b60208861033f898989610c47565b86831061093357811561091c5733156109055750825260016020908152868320338452815291869020908590039055829061033f876108bd565b8751634a1406b160e11b8152908101849052602490fd5b875163e602df0560e01b8152908101849052602490fd5b8751637dc7a0d960e11b8152339181019182526020820193909352604081018790528291506060010390fd5b5050346101485781600319360112610148576020906002549051908152f35b9050346101dc57816003193601126101dc57610998610b66565b602435903315610a11576001600160a01b03169182156109fa57508083602095338152600187528181208582528752205582519081527f8c5be1e5ebec7d5bd14f71427d1e84f3dd0314c0f7b2291e5b200ac8c7c3b925843392a35160018152f35b8351634a1406b160e11b8152908101859052602490fd5b835163e602df0560e01b8152808401869052602490fd5b92915034610b195783600319360112610b1957600354600181811c9186908281168015610b0f575b6020958686108214610afc5750848852908115610ada5750600114610a81575b61057e8686610574828b0383610b97565b929550600383527fc2575a0e9e593c00f959f8c92f12db2869c3395a3b0502d05e2516446f71f85b5b828410610ac7575050508261057e94610574928201019438610a70565b8054868501880152928601928101610aaa565b60ff191687860152505050151560051b83010192506105748261057e38610a70565b634e487b7160e01b845260229052602483fd5b93607f1693610a50565b8380fd5b6020808252825181830181905290939260005b828110610b5257505060409293506000838284010152601f8019910116010190565b818101860151848201604001528501610b30565b600435906001600160a01b0382168203610b7c57565b600080fd5b602435906001600160a01b0382168203610b7c57565b90601f8019910116810190811067ffffffffffffffff821117610bb957604052565b634e487b7160e01b600052604160045260246000fd5b15610bd657565b60405162461bcd60e51b815260206004820152600c60248201526b7a65726f206164647265737360a01b6044820152606490fd5b15610c1157565b60405162461bcd60e51b815260206004820152600e60248201526d1b9bdd08185d5d1a1bdc9a5e995960921b6044820152606490fd5b916001600160a01b03808416928315610d0c5716928315610cf35760009083825281602052604082205490838210610cc1575091604082827fddf252ad1be2c89b69c2b068fc378daa952ba7f163c4a11628f55a4df523b3ef958760209652828652038282205586815220818154019055604051908152a3565b60405163391434e360e21b81526001600160a01b03919091166004820152602481019190915260448101839052606490fd5b60405163ec442f0560e01b815260006004820152602490fd5b604051634b637e8f60e11b815260006004820152602490fd5b6005546001600160a01b03163303610d3957565b60405163118cdaa760e01b8152336004820152602490fd5b3d15610d8c573d9067ffffffffffffffff8211610bb95760405191610d80601f8201601f191660200184610b97565b82523d6000602084013e565b606090565b90816020910312610b7c57518015158103610b7c5790565b6007546001600160a01b039081168015610ee05760405192602092838501946303e1469160e61b865260048152604081019067ffffffffffffffff9181811083821117610bb9576040526000809781925190875afa610e06610d51565b9080610ed5575b610e9f575b50604051918583019363429b62e560e01b855216602483015260248252606082019082821090821117610e8b576040525184928392905afa610e52610d51565b9080610e80575b610e6257505090565b81610e739282518301019101610d91565b610e7a5790565b50600190565b508181511015610e59565b634e487b7160e01b86526041600452602486fd5b8581805181010312610ed157850151828116809103610ed15782841614610ec65738610e12565b505050505050600190565b8680fd5b508581511015610e0d565b505050600090565b6008546001600160a01b03908116908115610ee0576040516020810191632474521560e21b8352600094856024840152166044820152604481526080810181811067ffffffffffffffff821117610f7e576040525183928392905afa610f4c610d51565b9080610f72575b610f5b575090565b610f6f915060208082518301019101610d91565b90565b50602081511015610f53565b634e487b7160e01b85526041600452602485fdfea26469706673582212205b1bfa132488afa4bf5e9590e43e6a4dd681e4ee39265d3fe6a535b2ea478ebc64736f6c63430008180033","opcodes":"PUSH1 0x80 CALLVALUE PUSH3 0x391 JUMPI PUSH1 0x1 PUSH1 0x1 PUSH1 0x40 SHL SUB SWAP1 PUSH1 0x40 DUP2 DUP2 ADD DUP4 DUP2 GT DUP4 DUP3 LT OR PUSH3 0x292 JUMPI DUP2 MSTORE PUSH1 0x9 DUP3 MSTORE PUSH1 0x20 PUSH9 0x4D6F636B2055534443 PUSH1 0xB8 SHL DUP2 DUP5 ADD MSTORE DUP2 MLOAD DUP3 DUP2 ADD DUP2 DUP2 LT DUP7 DUP3 GT OR PUSH3 0x292 JUMPI DUP4 MSTORE PUSH1 0x5 SWAP5 DUP6 DUP3 MSTORE PUSH5 0x6D55534443 PUSH1 0xD8 SHL DUP4 DUP4 ADD MSTORE DUP5 MLOAD DUP2 DUP2 GT PUSH3 0x292 JUMPI PUSH1 0x3 SWAP1 DUP2 SLOAD SWAP1 PUSH1 0x1 SWAP8 DUP9 DUP4 DUP2 SHR SWAP4 AND DUP1 ISZERO PUSH3 0x386 JUMPI JUMPDEST DUP8 DUP5 LT EQ PUSH3 0x370 JUMPI DUP2 SWAP1 PUSH1 0x1F SWAP4 DUP5 DUP2 GT PUSH3 0x31B JUMPI JUMPDEST POP DUP8 SWAP1 DUP5 DUP4 GT PUSH1 0x1 EQ PUSH3 0x2B4 JUMPI PUSH1 0x0 SWAP3 PUSH3 0x2A8 JUMPI JUMPDEST POP POP PUSH1 0x0 NOT DUP3 DUP6 SHL SHR NOT AND SWAP1 DUP9 SHL OR DUP3 SSTORE JUMPDEST DUP4 MLOAD SWAP3 DUP4 GT PUSH3 0x292 JUMPI PUSH1 0x4 SWAP4 DUP5 SLOAD DUP9 DUP2 DUP2 SHR SWAP2 AND DUP1 ISZERO PUSH3 0x287 JUMPI JUMPDEST DUP8 DUP3 LT EQ PUSH3 0x272 JUMPI SWAP1 DUP2 DUP4 DUP7 SWAP6 SWAP5 SWAP4 GT PUSH3 0x21A JUMPI JUMPDEST POP DUP7 SWAP2 DUP5 GT PUSH1 0x1 EQ PUSH3 0x1AF JUMPI PUSH1 0x0 SWAP4 PUSH3 0x1A3 JUMPI JUMPDEST POP POP DUP3 DUP8 SHL SWAP3 PUSH1 0x0 NOT SWAP2 SHL SHR NOT AND OR DUP2 SSTORE JUMPDEST CALLER ISZERO PUSH3 0x18C JUMPI POP DUP4 SLOAD CALLER PUSH1 0x1 PUSH1 0x1 PUSH1 0xA0 SHL SUB NOT DUP3 AND DUP2 OR SWAP1 SWAP6 SSTORE DUP3 MLOAD SWAP5 PUSH1 0x6 SWAP3 SWAP2 PUSH1 0x1 PUSH1 0x1 PUSH1 0xA0 SHL SUB AND PUSH32 0x8BE0079C531659141344CD1FD0A4F28419497F9722A3DAAFE3B4186F6B6457E0 PUSH1 0x0 DUP1 LOG3 CALLER PUSH1 0x0 MSTORE MSTORE PUSH1 0x0 KECCAK256 SWAP1 PUSH1 0xFF NOT DUP3 SLOAD AND OR SWAP1 SSTORE PUSH2 0xFC8 SWAP1 DUP2 PUSH3 0x397 DUP3 CODECOPY RETURN JUMPDEST PUSH1 0x24 SWAP1 PUSH1 0x0 DUP5 MLOAD SWAP2 PUSH4 0x1E4FBDF7 PUSH1 0xE0 SHL DUP4 MSTORE DUP3 ADD MSTORE REVERT JUMPDEST ADD MLOAD SWAP2 POP CODESIZE DUP1 PUSH3 0x10B JUMP JUMPDEST SWAP2 SWAP1 DUP9 SWAP5 POP PUSH1 0x1F NOT DUP5 AND SWAP3 DUP7 PUSH1 0x0 MSTORE DUP8 PUSH1 0x0 KECCAK256 SWAP4 PUSH1 0x0 JUMPDEST DUP10 DUP3 DUP3 LT PUSH3 0x203 JUMPI POP POP DUP6 GT PUSH3 0x1E8 JUMPI JUMPDEST POP POP POP POP DUP2 SHL ADD DUP2 SSTORE PUSH3 0x11D JUMP JUMPDEST ADD MLOAD SWAP1 PUSH1 0xF8 DUP5 PUSH1 0x0 NOT SWAP3 SHL AND SHR NOT AND SWAP1 SSTORE CODESIZE DUP1 DUP1 DUP1 PUSH3 0x1D9 JUMP JUMPDEST DUP4 DUP6 ADD MLOAD DUP8 SSTORE DUP13 SWAP9 SWAP1 SWAP7 ADD SWAP6 SWAP4 DUP5 ADD SWAP4 ADD PUSH3 0x1C6 JUMP JUMPDEST SWAP1 SWAP2 SWAP3 SWAP4 POP DUP6 PUSH1 0x0 MSTORE DUP7 PUSH1 0x0 KECCAK256 DUP4 DUP1 DUP8 ADD DUP13 SHR DUP3 ADD SWAP3 DUP10 DUP9 LT PUSH3 0x268 JUMPI JUMPDEST SWAP2 DUP12 SWAP2 DUP9 SWAP8 SWAP7 SWAP6 SWAP5 SWAP4 ADD DUP14 SHR ADD SWAP2 JUMPDEST DUP3 DUP2 LT PUSH3 0x258 JUMPI POP POP PUSH3 0xF5 JUMP JUMPDEST PUSH1 0x0 DUP2 SSTORE DUP8 SWAP7 POP DUP12 SWAP2 ADD PUSH3 0x248 JUMP JUMPDEST SWAP3 POP DUP2 SWAP3 PUSH3 0x239 JUMP JUMPDEST PUSH1 0x22 DUP7 PUSH4 0x4E487B71 PUSH1 0xE0 SHL PUSH1 0x0 MSTORE MSTORE PUSH1 0x24 PUSH1 0x0 REVERT JUMPDEST SWAP1 PUSH1 0x7F AND SWAP1 PUSH3 0xDE JUMP JUMPDEST PUSH4 0x4E487B71 PUSH1 0xE0 SHL PUSH1 0x0 MSTORE PUSH1 0x41 PUSH1 0x4 MSTORE PUSH1 0x24 PUSH1 0x0 REVERT JUMPDEST ADD MLOAD SWAP1 POP CODESIZE DUP1 PUSH3 0xAF JUMP JUMPDEST SWAP1 DUP11 SWAP4 POP PUSH1 0x1F NOT DUP4 AND SWAP2 DUP7 PUSH1 0x0 MSTORE DUP10 PUSH1 0x0 KECCAK256 SWAP3 PUSH1 0x0 JUMPDEST DUP12 DUP3 DUP3 LT PUSH3 0x304 JUMPI POP POP DUP5 GT PUSH3 0x2EB JUMPI JUMPDEST POP POP POP DUP2 SHL ADD DUP3 SSTORE PUSH3 0xC1 JUMP JUMPDEST ADD MLOAD PUSH1 0x0 NOT DUP4 DUP8 SHL PUSH1 0xF8 AND SHR NOT AND SWAP1 SSTORE CODESIZE DUP1 DUP1 PUSH3 0x2DD JUMP JUMPDEST DUP4 DUP6 ADD MLOAD DUP7 SSTORE DUP15 SWAP8 SWAP1 SWAP6 ADD SWAP5 SWAP4 DUP5 ADD SWAP4 ADD PUSH3 0x2CA JUMP JUMPDEST SWAP1 SWAP2 POP DUP5 PUSH1 0x0 MSTORE DUP8 PUSH1 0x0 KECCAK256 DUP5 DUP1 DUP6 ADD DUP14 SHR DUP3 ADD SWAP3 DUP11 DUP7 LT PUSH3 0x366 JUMPI JUMPDEST SWAP2 DUP14 DUP14 SWAP3 DUP8 SWAP7 SWAP6 SWAP5 ADD SWAP1 SHR ADD SWAP2 JUMPDEST DUP3 DUP2 LT PUSH3 0x356 JUMPI POP POP PUSH3 0x98 JUMP JUMPDEST PUSH1 0x0 DUP2 SSTORE DUP6 SWAP5 POP DUP13 SWAP2 ADD PUSH3 0x346 JUMP JUMPDEST SWAP3 POP DUP2 SWAP3 PUSH3 0x338 JUMP JUMPDEST PUSH4 0x4E487B71 PUSH1 0xE0 SHL PUSH1 0x0 MSTORE PUSH1 0x22 PUSH1 0x4 MSTORE PUSH1 0x24 PUSH1 0x0 REVERT JUMPDEST SWAP3 PUSH1 0x7F AND SWAP3 PUSH3 0x81 JUMP JUMPDEST PUSH1 0x0 DUP1 REVERT INVALID PUSH1 0x80 PUSH1 0x40 DUP2 DUP2 MSTORE PUSH1 0x4 SWAP2 DUP3 CALLDATASIZE LT ISZERO PUSH2 0x16 JUMPI PUSH1 0x0 DUP1 REVERT JUMPDEST PUSH1 0x0 SWAP3 DUP4 CALLDATALOAD PUSH1 0xE0 SHR SWAP2 DUP3 PUSH4 0x6FDDE03 EQ PUSH2 0xA28 JUMPI POP DUP2 PUSH4 0x95EA7B3 EQ PUSH2 0x97E JUMPI DUP2 PUSH4 0x18160DDD EQ PUSH2 0x95F JUMPI DUP2 PUSH4 0x23B872DD EQ PUSH2 0x86B JUMPI DUP2 PUSH4 0x3092AFD5 EQ PUSH2 0x7FA JUMPI DUP2 PUSH4 0x313CE567 EQ PUSH2 0x7DE JUMPI DUP2 PUSH4 0x40C10F19 EQ PUSH2 0x6D8 JUMPI DUP2 PUSH4 0x70A08231 EQ PUSH2 0x6A1 JUMPI DUP2 PUSH4 0x715018A6 EQ PUSH2 0x644 JUMPI DUP2 PUSH4 0x8DA5CB5B EQ PUSH2 0x61B JUMPI DUP2 PUSH4 0x95D89B41 EQ PUSH2 0x516 JUMPI DUP2 PUSH4 0x983B2D56 EQ PUSH2 0x4A2 JUMPI DUP2 PUSH4 0x9BA479F1 EQ PUSH2 0x479 JUMPI DUP2 PUSH4 0x9DC29FAC EQ PUSH2 0x346 JUMPI DUP2 PUSH4 0xA9059CBB EQ PUSH2 0x315 JUMPI DUP2 PUSH4 0xAC3BBBC6 EQ PUSH2 0x2EC JUMPI DUP2 PUSH4 0xB5988EBD EQ PUSH2 0x29B JUMPI DUP2 PUSH4 0xDC7B666E EQ PUSH2 0x229 JUMPI DUP2 PUSH4 0xDD62ED3E EQ PUSH2 0x1E0 JUMPI DUP2 PUSH4 0xF2FDE38B EQ PUSH2 0x14C JUMPI POP PUSH4 0xF46ECCC4 EQ PUSH2 0x10C JUMPI PUSH1 0x0 DUP1 REVERT JUMPDEST CALLVALUE PUSH2 0x148 JUMPI PUSH1 0x20 CALLDATASIZE PUSH1 0x3 NOT ADD SLT PUSH2 0x148 JUMPI PUSH1 0x20 SWAP2 PUSH1 0xFF SWAP1 DUP3 SWAP1 PUSH1 0x1 PUSH1 0x1 PUSH1 0xA0 SHL SUB PUSH2 0x135 PUSH2 0xB66 JUMP JUMPDEST AND DUP2 MSTORE PUSH1 0x6 DUP6 MSTORE KECCAK256 SLOAD AND SWAP1 MLOAD SWAP1 ISZERO ISZERO DUP2 MSTORE RETURN JUMPDEST POP DUP1 REVERT JUMPDEST SWAP1 POP CALLVALUE PUSH2 0x1DC JUMPI PUSH1 0x20 CALLDATASIZE PUSH1 0x3 NOT ADD SLT PUSH2 0x1DC JUMPI PUSH2 0x167 PUSH2 0xB66 JUMP JUMPDEST SWAP1 PUSH2 0x170 PUSH2 0xD25 JUMP JUMPDEST PUSH1 0x1 PUSH1 0x1 PUSH1 0xA0 SHL SUB SWAP2 DUP3 AND SWAP3 DUP4 ISZERO PUSH2 0x1C6 JUMPI POP POP PUSH1 0x5 SLOAD DUP3 PUSH12 0xFFFFFFFFFFFFFFFFFFFFFFFF PUSH1 0xA0 SHL DUP3 AND OR PUSH1 0x5 SSTORE AND PUSH32 0x8BE0079C531659141344CD1FD0A4F28419497F9722A3DAAFE3B4186F6B6457E0 DUP4 DUP1 LOG3 DUP1 RETURN JUMPDEST MLOAD PUSH4 0x1E4FBDF7 PUSH1 0xE0 SHL DUP2 MSTORE SWAP1 DUP2 ADD DUP5 SWAP1 MSTORE PUSH1 0x24 SWAP1 REVERT JUMPDEST DUP3 DUP1 REVERT JUMPDEST POP POP CALLVALUE PUSH2 0x148 JUMPI DUP1 PUSH1 0x3 NOT CALLDATASIZE ADD SLT PUSH2 0x148 JUMPI DUP1 PUSH1 0x20 SWAP3 PUSH2 0x1FE PUSH2 0xB66 JUMP JUMPDEST PUSH2 0x206 PUSH2 0xB81 JUMP JUMPDEST PUSH1 0x1 PUSH1 0x1 PUSH1 0xA0 SHL SUB SWAP2 DUP3 AND DUP4 MSTORE PUSH1 0x1 DUP7 MSTORE DUP4 DUP4 KECCAK256 SWAP2 AND DUP3 MSTORE DUP5 MSTORE KECCAK256 SLOAD SWAP1 MLOAD SWAP1 DUP2 MSTORE RETURN JUMPDEST DUP4 CALLVALUE PUSH2 0x298 JUMPI PUSH1 0x20 CALLDATASIZE PUSH1 0x3 NOT ADD SLT PUSH2 0x298 JUMPI PUSH2 0x243 PUSH2 0xB66 JUMP JUMPDEST PUSH2 0x24B PUSH2 0xD25 JUMP JUMPDEST PUSH1 0x1 PUSH1 0x1 PUSH1 0xA0 SHL SUB AND PUSH2 0x25F DUP2 ISZERO ISZERO PUSH2 0xBCF JUMP JUMPDEST PUSH1 0x8 DUP1 SLOAD PUSH1 0x1 PUSH1 0x1 PUSH1 0xA0 SHL SUB NOT AND DUP3 OR SWAP1 SSTORE PUSH32 0xD85DA9D9A1319C6F26C71D1703F6C964A5909E44544492C88B571DD0EA91F397 DUP3 DUP1 LOG2 DUP1 RETURN JUMPDEST DUP1 REVERT JUMPDEST DUP4 CALLVALUE PUSH2 0x298 JUMPI PUSH1 0x20 CALLDATASIZE PUSH1 0x3 NOT ADD SLT PUSH2 0x298 JUMPI PUSH2 0x2B5 PUSH2 0xB66 JUMP JUMPDEST PUSH2 0x2BD PUSH2 0xD25 JUMP JUMPDEST PUSH1 0x1 PUSH1 0x1 PUSH1 0xA0 SHL SUB AND PUSH2 0x2D1 DUP2 ISZERO ISZERO PUSH2 0xBCF JUMP JUMPDEST PUSH12 0xFFFFFFFFFFFFFFFFFFFFFFFF PUSH1 0xA0 SHL PUSH1 0x7 SLOAD AND OR PUSH1 0x7 SSTORE DUP1 RETURN JUMPDEST POP POP CALLVALUE PUSH2 0x148 JUMPI DUP2 PUSH1 0x3 NOT CALLDATASIZE ADD SLT PUSH2 0x148 JUMPI PUSH1 0x8 SLOAD SWAP1 MLOAD PUSH1 0x1 PUSH1 0x1 PUSH1 0xA0 SHL SUB SWAP1 SWAP2 AND DUP2 MSTORE PUSH1 0x20 SWAP1 RETURN JUMPDEST POP POP CALLVALUE PUSH2 0x148 JUMPI DUP1 PUSH1 0x3 NOT CALLDATASIZE ADD SLT PUSH2 0x148 JUMPI PUSH1 0x20 SWAP1 PUSH2 0x33F PUSH2 0x335 PUSH2 0xB66 JUMP JUMPDEST PUSH1 0x24 CALLDATALOAD SWAP1 CALLER PUSH2 0xC47 JUMP JUMPDEST MLOAD PUSH1 0x1 DUP2 MSTORE RETURN JUMPDEST DUP4 SWAP2 POP CALLVALUE PUSH2 0x148 JUMPI DUP3 PUSH1 0x3 NOT CALLDATASIZE ADD SLT PUSH2 0x148 JUMPI PUSH2 0x361 PUSH2 0xB66 JUMP JUMPDEST PUSH1 0x5 SLOAD SWAP1 SWAP2 PUSH1 0x24 CALLDATALOAD SWAP2 PUSH1 0x1 PUSH1 0x1 PUSH1 0xA0 SHL SUB SWAP1 DUP2 AND CALLER EQ DUP1 ISZERO PUSH2 0x464 JUMPI JUMPDEST DUP1 ISZERO PUSH2 0x455 JUMPI JUMPDEST DUP1 ISZERO PUSH2 0x441 JUMPI JUMPDEST PUSH2 0x395 SWAP1 PUSH2 0xC0A JUMP JUMPDEST DUP4 AND SWAP3 DUP4 ISZERO PUSH2 0x42A JUMPI DUP4 DUP6 MSTORE DUP5 PUSH1 0x20 MSTORE DUP6 DUP6 KECCAK256 SLOAD SWAP2 DUP4 DUP4 LT PUSH2 0x3F6 JUMPI POP POP DUP2 DUP5 SWAP6 PUSH32 0xDDF252AD1BE2C89B69C2B068FC378DAA952BA7F163C4A11628F55A4DF523B3EF SWAP4 PUSH1 0x20 SWAP4 DUP7 DUP9 MSTORE DUP8 DUP6 MSTORE SUB DUP2 DUP8 KECCAK256 SSTORE DUP2 PUSH1 0x2 SLOAD SUB PUSH1 0x2 SSTORE MLOAD SWAP1 DUP2 MSTORE LOG3 DUP1 RETURN JUMPDEST DUP7 MLOAD PUSH4 0x391434E3 PUSH1 0xE2 SHL DUP2 MSTORE PUSH1 0x1 PUSH1 0x1 PUSH1 0xA0 SHL SUB SWAP1 SWAP3 AND SWAP1 DUP3 ADD SWAP1 DUP2 MSTORE PUSH1 0x20 DUP2 ADD DUP4 SWAP1 MSTORE PUSH1 0x40 DUP2 ADD DUP5 SWAP1 MSTORE DUP2 SWAP1 PUSH1 0x60 ADD SUB SWAP1 REVERT JUMPDEST DUP6 MLOAD PUSH4 0x4B637E8F PUSH1 0xE1 SHL DUP2 MSTORE DUP1 DUP4 ADD DUP7 SWAP1 MSTORE PUSH1 0x24 SWAP1 REVERT JUMPDEST POP PUSH2 0x395 PUSH2 0x44E CALLER PUSH2 0xEE8 JUMP JUMPDEST SWAP1 POP PUSH2 0x38C JUMP JUMPDEST POP PUSH2 0x45F CALLER PUSH2 0xDA9 JUMP JUMPDEST PUSH2 0x385 JUMP JUMPDEST POP CALLER DUP6 MSTORE PUSH1 0x6 PUSH1 0x20 MSTORE PUSH1 0xFF DUP7 DUP7 KECCAK256 SLOAD AND PUSH2 0x37E JUMP JUMPDEST POP POP CALLVALUE PUSH2 0x148 JUMPI DUP2 PUSH1 0x3 NOT CALLDATASIZE ADD SLT PUSH2 0x148 JUMPI PUSH1 0x7 SLOAD SWAP1 MLOAD PUSH1 0x1 PUSH1 0x1 PUSH1 0xA0 SHL SUB SWAP1 SWAP2 AND DUP2 MSTORE PUSH1 0x20 SWAP1 RETURN JUMPDEST POP POP CALLVALUE PUSH2 0x148 JUMPI PUSH1 0x20 CALLDATASIZE PUSH1 0x3 NOT ADD SLT PUSH2 0x148 JUMPI PUSH2 0x4BD PUSH2 0xB66 JUMP JUMPDEST PUSH2 0x4C5 PUSH2 0xD25 JUMP JUMPDEST PUSH1 0x1 PUSH1 0x1 PUSH1 0xA0 SHL SUB AND SWAP1 PUSH2 0x4DA DUP3 ISZERO ISZERO PUSH2 0xBCF JUMP JUMPDEST DUP2 DUP4 MSTORE PUSH1 0x6 PUSH1 0x20 MSTORE DUP3 KECCAK256 DUP1 SLOAD PUSH1 0xFF NOT AND PUSH1 0x1 OR SWAP1 SSTORE PUSH32 0x6AE172837EA30B801FBFCDD4108AA1D5BF8FF775444FD70256B44E6BF3DFC3F6 DUP3 DUP1 LOG2 DUP1 RETURN JUMPDEST DUP4 DUP4 CALLVALUE PUSH2 0x148 JUMPI DUP2 PUSH1 0x3 NOT CALLDATASIZE ADD SLT PUSH2 0x148 JUMPI DUP1 MLOAD SWAP2 DUP1 SWAP4 DUP1 SLOAD SWAP2 PUSH1 0x1 SWAP1 DUP4 PUSH1 0x1 SHR SWAP3 PUSH1 0x1 DUP6 AND SWAP5 DUP6 ISZERO PUSH2 0x611 JUMPI JUMPDEST PUSH1 0x20 SWAP6 DUP7 DUP7 LT DUP2 EQ PUSH2 0x5FE JUMPI DUP6 DUP10 MSTORE SWAP1 DUP2 ISZERO PUSH2 0x5DA JUMPI POP PUSH1 0x1 EQ PUSH2 0x582 JUMPI JUMPDEST PUSH2 0x57E DUP8 DUP8 PUSH2 0x574 DUP3 DUP13 SUB DUP4 PUSH2 0xB97 JUMP JUMPDEST MLOAD SWAP2 DUP3 SWAP2 DUP3 PUSH2 0xB1D JUMP JUMPDEST SUB SWAP1 RETURN JUMPDEST DUP2 MSTORE SWAP3 SWAP6 POP PUSH32 0x8A35ACFBC15FF81A39AE7D344FD709F28E8600B4AA8C65C6B64BFE7FE36BD19B JUMPDEST DUP3 DUP5 LT PUSH2 0x5C7 JUMPI POP POP POP DUP3 PUSH2 0x57E SWAP5 PUSH2 0x574 SWAP3 DUP3 ADD ADD SWAP5 DUP7 DUP1 PUSH2 0x563 JUMP JUMPDEST DUP1 SLOAD DUP7 DUP6 ADD DUP9 ADD MSTORE SWAP3 DUP7 ADD SWAP3 DUP2 ADD PUSH2 0x5A9 JUMP JUMPDEST PUSH1 0xFF NOT AND DUP9 DUP8 ADD MSTORE POP POP POP POP ISZERO ISZERO PUSH1 0x5 SHL DUP4 ADD ADD SWAP3 POP PUSH2 0x574 DUP3 PUSH2 0x57E DUP7 DUP1 PUSH2 0x563 JUMP JUMPDEST PUSH4 0x4E487B71 PUSH1 0xE0 SHL DUP5 MSTORE PUSH1 0x22 DUP4 MSTORE PUSH1 0x24 DUP5 REVERT JUMPDEST SWAP4 PUSH1 0x7F AND SWAP4 PUSH2 0x544 JUMP JUMPDEST POP POP CALLVALUE PUSH2 0x148 JUMPI DUP2 PUSH1 0x3 NOT CALLDATASIZE ADD SLT PUSH2 0x148 JUMPI PUSH1 0x5 SLOAD SWAP1 MLOAD PUSH1 0x1 PUSH1 0x1 PUSH1 0xA0 SHL SUB SWAP1 SWAP2 AND DUP2 MSTORE PUSH1 0x20 SWAP1 RETURN JUMPDEST DUP4 CALLVALUE PUSH2 0x298 JUMPI DUP1 PUSH1 0x3 NOT CALLDATASIZE ADD SLT PUSH2 0x298 JUMPI PUSH2 0x65D PUSH2 0xD25 JUMP JUMPDEST PUSH1 0x5 DUP1 SLOAD PUSH1 0x1 PUSH1 0x1 PUSH1 0xA0 SHL SUB NOT DUP2 AND SWAP1 SWAP2 SSTORE DUP2 SWAP1 PUSH1 0x1 PUSH1 0x1 PUSH1 0xA0 SHL SUB AND PUSH32 0x8BE0079C531659141344CD1FD0A4F28419497F9722A3DAAFE3B4186F6B6457E0 DUP3 DUP1 LOG3 DUP1 RETURN JUMPDEST POP POP CALLVALUE PUSH2 0x148 JUMPI PUSH1 0x20 CALLDATASIZE PUSH1 0x3 NOT ADD SLT PUSH2 0x148 JUMPI PUSH1 0x20 SWAP2 DUP2 SWAP1 PUSH1 0x1 PUSH1 0x1 PUSH1 0xA0 SHL SUB PUSH2 0x6C9 PUSH2 0xB66 JUMP JUMPDEST AND DUP2 MSTORE DUP1 DUP5 MSTORE KECCAK256 SLOAD SWAP1 MLOAD SWAP1 DUP2 MSTORE RETURN JUMPDEST SWAP2 SWAP1 POP CALLVALUE PUSH2 0x1DC JUMPI DUP1 PUSH1 0x3 NOT CALLDATASIZE ADD SLT PUSH2 0x1DC JUMPI PUSH2 0x6F3 PUSH2 0xB66 JUMP JUMPDEST PUSH1 0x5 SLOAD PUSH1 0x24 CALLDATALOAD SWAP3 SWAP2 PUSH1 0x1 PUSH1 0x1 PUSH1 0xA0 SHL SUB SWAP2 DUP3 AND CALLER EQ DUP1 ISZERO PUSH2 0x7C9 JUMPI JUMPDEST DUP1 ISZERO PUSH2 0x7BA JUMPI JUMPDEST DUP1 ISZERO PUSH2 0x7A6 JUMPI JUMPDEST PUSH2 0x726 SWAP1 PUSH2 0xC0A JUMP JUMPDEST AND SWAP3 DUP4 ISZERO PUSH2 0x791 JUMPI PUSH1 0x2 SLOAD SWAP1 DUP4 DUP3 ADD DUP1 SWAP3 GT PUSH2 0x77E JUMPI POP DUP5 SWAP3 PUSH32 0xDDF252AD1BE2C89B69C2B068FC378DAA952BA7F163C4A11628F55A4DF523B3EF SWAP3 PUSH1 0x20 SWAP3 PUSH1 0x2 SSTORE DUP6 DUP6 MSTORE DUP5 DUP4 MSTORE DUP1 DUP6 KECCAK256 DUP3 DUP2 SLOAD ADD SWAP1 SSTORE MLOAD SWAP1 DUP2 MSTORE LOG3 DUP1 RETURN JUMPDEST PUSH4 0x4E487B71 PUSH1 0xE0 SHL DUP7 MSTORE PUSH1 0x11 SWAP1 MSTORE PUSH1 0x24 DUP6 REVERT JUMPDEST DUP5 PUSH1 0x24 SWAP3 MLOAD SWAP2 PUSH4 0xEC442F05 PUSH1 0xE0 SHL DUP4 MSTORE DUP3 ADD MSTORE REVERT JUMPDEST POP PUSH2 0x726 PUSH2 0x7B3 CALLER PUSH2 0xEE8 JUMP JUMPDEST SWAP1 POP PUSH2 0x71D JUMP JUMPDEST POP PUSH2 0x7C4 CALLER PUSH2 0xDA9 JUMP JUMPDEST PUSH2 0x716 JUMP JUMPDEST POP CALLER DUP7 MSTORE PUSH1 0x6 PUSH1 0x20 MSTORE PUSH1 0xFF DUP4 DUP8 KECCAK256 SLOAD AND PUSH2 0x70F JUMP JUMPDEST POP POP CALLVALUE PUSH2 0x148 JUMPI DUP2 PUSH1 0x3 NOT CALLDATASIZE ADD SLT PUSH2 0x148 JUMPI PUSH1 0x20 SWAP1 MLOAD PUSH1 0x6 DUP2 MSTORE RETURN JUMPDEST POP POP CALLVALUE PUSH2 0x148 JUMPI PUSH1 0x20 CALLDATASIZE PUSH1 0x3 NOT ADD SLT PUSH2 0x148 JUMPI PUSH2 0x815 PUSH2 0xB66 JUMP JUMPDEST PUSH2 0x81D PUSH2 0xD25 JUMP JUMPDEST PUSH1 0x1 PUSH1 0x1 PUSH1 0xA0 SHL SUB AND SWAP1 PUSH2 0x832 DUP3 ISZERO ISZERO PUSH2 0xBCF JUMP JUMPDEST DUP2 DUP4 MSTORE PUSH1 0x6 PUSH1 0x20 MSTORE DUP3 KECCAK256 DUP1 SLOAD PUSH1 0xFF NOT AND SWAP1 SSTORE PUSH32 0xE94479A9F7E1952CC78F2D6BAAB678ADC1B772D936C6583DEF489E524CB66692 DUP3 DUP1 LOG2 DUP1 RETURN JUMPDEST SWAP1 POP DUP3 CALLVALUE PUSH2 0x298 JUMPI PUSH1 0x60 CALLDATASIZE PUSH1 0x3 NOT ADD SLT PUSH2 0x298 JUMPI PUSH2 0x887 PUSH2 0xB66 JUMP JUMPDEST PUSH2 0x88F PUSH2 0xB81 JUMP JUMPDEST SWAP2 PUSH1 0x44 CALLDATALOAD SWAP4 PUSH1 0x1 DUP1 PUSH1 0xA0 SHL SUB DUP4 AND DUP1 DUP4 MSTORE PUSH1 0x1 PUSH1 0x20 MSTORE DUP7 DUP4 KECCAK256 CALLER DUP5 MSTORE PUSH1 0x20 MSTORE DUP7 DUP4 KECCAK256 SLOAD SWAP2 PUSH1 0x0 NOT DUP4 LT PUSH2 0x8CB JUMPI JUMPDEST PUSH1 0x20 DUP9 PUSH2 0x33F DUP10 DUP10 DUP10 PUSH2 0xC47 JUMP JUMPDEST DUP7 DUP4 LT PUSH2 0x933 JUMPI DUP2 ISZERO PUSH2 0x91C JUMPI CALLER ISZERO PUSH2 0x905 JUMPI POP DUP3 MSTORE PUSH1 0x1 PUSH1 0x20 SWAP1 DUP2 MSTORE DUP7 DUP4 KECCAK256 CALLER DUP5 MSTORE DUP2 MSTORE SWAP2 DUP7 SWAP1 KECCAK256 SWAP1 DUP6 SWAP1 SUB SWAP1 SSTORE DUP3 SWAP1 PUSH2 0x33F DUP8 PUSH2 0x8BD JUMP JUMPDEST DUP8 MLOAD PUSH4 0x4A1406B1 PUSH1 0xE1 SHL DUP2 MSTORE SWAP1 DUP2 ADD DUP5 SWAP1 MSTORE PUSH1 0x24 SWAP1 REVERT JUMPDEST DUP8 MLOAD PUSH4 0xE602DF05 PUSH1 0xE0 SHL DUP2 MSTORE SWAP1 DUP2 ADD DUP5 SWAP1 MSTORE PUSH1 0x24 SWAP1 REVERT JUMPDEST DUP8 MLOAD PUSH4 0x7DC7A0D9 PUSH1 0xE1 SHL DUP2 MSTORE CALLER SWAP2 DUP2 ADD SWAP2 DUP3 MSTORE PUSH1 0x20 DUP3 ADD SWAP4 SWAP1 SWAP4 MSTORE PUSH1 0x40 DUP2 ADD DUP8 SWAP1 MSTORE DUP3 SWAP2 POP PUSH1 0x60 ADD SUB SWAP1 REVERT JUMPDEST POP POP CALLVALUE PUSH2 0x148 JUMPI DUP2 PUSH1 0x3 NOT CALLDATASIZE ADD SLT PUSH2 0x148 JUMPI PUSH1 0x20 SWAP1 PUSH1 0x2 SLOAD SWAP1 MLOAD SWAP1 DUP2 MSTORE RETURN JUMPDEST SWAP1 POP CALLVALUE PUSH2 0x1DC JUMPI DUP2 PUSH1 0x3 NOT CALLDATASIZE ADD SLT PUSH2 0x1DC JUMPI PUSH2 0x998 PUSH2 0xB66 JUMP JUMPDEST PUSH1 0x24 CALLDATALOAD SWAP1 CALLER ISZERO PUSH2 0xA11 JUMPI PUSH1 0x1 PUSH1 0x1 PUSH1 0xA0 SHL SUB AND SWAP2 DUP3 ISZERO PUSH2 0x9FA JUMPI POP DUP1 DUP4 PUSH1 0x20 SWAP6 CALLER DUP2 MSTORE PUSH1 0x1 DUP8 MSTORE DUP2 DUP2 KECCAK256 DUP6 DUP3 MSTORE DUP8 MSTORE KECCAK256 SSTORE DUP3 MLOAD SWAP1 DUP2 MSTORE PUSH32 0x8C5BE1E5EBEC7D5BD14F71427D1E84F3DD0314C0F7B2291E5B200AC8C7C3B925 DUP5 CALLER SWAP3 LOG3 MLOAD PUSH1 0x1 DUP2 MSTORE RETURN JUMPDEST DUP4 MLOAD PUSH4 0x4A1406B1 PUSH1 0xE1 SHL DUP2 MSTORE SWAP1 DUP2 ADD DUP6 SWAP1 MSTORE PUSH1 0x24 SWAP1 REVERT JUMPDEST DUP4 MLOAD PUSH4 0xE602DF05 PUSH1 0xE0 SHL DUP2 MSTORE DUP1 DUP5 ADD DUP7 SWAP1 MSTORE PUSH1 0x24 SWAP1 REVERT JUMPDEST SWAP3 SWAP2 POP CALLVALUE PUSH2 0xB19 JUMPI DUP4 PUSH1 0x3 NOT CALLDATASIZE ADD SLT PUSH2 0xB19 JUMPI PUSH1 0x3 SLOAD PUSH1 0x1 DUP2 DUP2 SHR SWAP2 DUP7 SWAP1 DUP3 DUP2 AND DUP1 ISZERO PUSH2 0xB0F JUMPI JUMPDEST PUSH1 0x20 SWAP6 DUP7 DUP7 LT DUP3 EQ PUSH2 0xAFC JUMPI POP DUP5 DUP9 MSTORE SWAP1 DUP2 ISZERO PUSH2 0xADA JUMPI POP PUSH1 0x1 EQ PUSH2 0xA81 JUMPI JUMPDEST PUSH2 0x57E DUP7 DUP7 PUSH2 0x574 DUP3 DUP12 SUB DUP4 PUSH2 0xB97 JUMP JUMPDEST SWAP3 SWAP6 POP PUSH1 0x3 DUP4 MSTORE PUSH32 0xC2575A0E9E593C00F959F8C92F12DB2869C3395A3B0502D05E2516446F71F85B JUMPDEST DUP3 DUP5 LT PUSH2 0xAC7 JUMPI POP POP POP DUP3 PUSH2 0x57E SWAP5 PUSH2 0x574 SWAP3 DUP3 ADD ADD SWAP5 CODESIZE PUSH2 0xA70 JUMP JUMPDEST DUP1 SLOAD DUP7 DUP6 ADD DUP9 ADD MSTORE SWAP3 DUP7 ADD SWAP3 DUP2 ADD PUSH2 0xAAA JUMP JUMPDEST PUSH1 0xFF NOT AND DUP8 DUP7 ADD MSTORE POP POP POP ISZERO ISZERO PUSH1 0x5 SHL DUP4 ADD ADD SWAP3 POP PUSH2 0x574 DUP3 PUSH2 0x57E CODESIZE PUSH2 0xA70 JUMP JUMPDEST PUSH4 0x4E487B71 PUSH1 0xE0 SHL DUP5 MSTORE PUSH1 0x22 SWAP1 MSTORE PUSH1 0x24 DUP4 REVERT JUMPDEST SWAP4 PUSH1 0x7F AND SWAP4 PUSH2 0xA50 JUMP JUMPDEST DUP4 DUP1 REVERT JUMPDEST PUSH1 0x20 DUP1 DUP3 MSTORE DUP3 MLOAD DUP2 DUP4 ADD DUP2 SWAP1 MSTORE SWAP1 SWAP4 SWAP3 PUSH1 0x0 JUMPDEST DUP3 DUP2 LT PUSH2 0xB52 JUMPI POP POP PUSH1 0x40 SWAP3 SWAP4 POP PUSH1 0x0 DUP4 DUP3 DUP5 ADD ADD MSTORE PUSH1 0x1F DUP1 NOT SWAP2 ADD AND ADD ADD SWAP1 JUMP JUMPDEST DUP2 DUP2 ADD DUP7 ADD MLOAD DUP5 DUP3 ADD PUSH1 0x40 ADD MSTORE DUP6 ADD PUSH2 0xB30 JUMP JUMPDEST PUSH1 0x4 CALLDATALOAD SWAP1 PUSH1 0x1 PUSH1 0x1 PUSH1 0xA0 SHL SUB DUP3 AND DUP3 SUB PUSH2 0xB7C JUMPI JUMP JUMPDEST PUSH1 0x0 DUP1 REVERT JUMPDEST PUSH1 0x24 CALLDATALOAD SWAP1 PUSH1 0x1 PUSH1 0x1 PUSH1 0xA0 SHL SUB DUP3 AND DUP3 SUB PUSH2 0xB7C JUMPI JUMP JUMPDEST SWAP1 PUSH1 0x1F DUP1 NOT SWAP2 ADD AND DUP2 ADD SWAP1 DUP2 LT PUSH8 0xFFFFFFFFFFFFFFFF DUP3 GT OR PUSH2 0xBB9 JUMPI PUSH1 0x40 MSTORE JUMP JUMPDEST PUSH4 0x4E487B71 PUSH1 0xE0 SHL PUSH1 0x0 MSTORE PUSH1 0x41 PUSH1 0x4 MSTORE PUSH1 0x24 PUSH1 0x0 REVERT JUMPDEST ISZERO PUSH2 0xBD6 JUMPI JUMP JUMPDEST PUSH1 0x40 MLOAD PUSH3 0x461BCD PUSH1 0xE5 SHL DUP2 MSTORE PUSH1 0x20 PUSH1 0x4 DUP3 ADD MSTORE PUSH1 0xC PUSH1 0x24 DUP3 ADD MSTORE PUSH12 0x7A65726F2061646472657373 PUSH1 0xA0 SHL PUSH1 0x44 DUP3 ADD MSTORE PUSH1 0x64 SWAP1 REVERT JUMPDEST ISZERO PUSH2 0xC11 JUMPI JUMP JUMPDEST PUSH1 0x40 MLOAD PUSH3 0x461BCD PUSH1 0xE5 SHL DUP2 MSTORE PUSH1 0x20 PUSH1 0x4 DUP3 ADD MSTORE PUSH1 0xE PUSH1 0x24 DUP3 ADD MSTORE PUSH14 0x1B9BDD08185D5D1A1BDC9A5E9959 PUSH1 0x92 SHL PUSH1 0x44 DUP3 ADD MSTORE PUSH1 0x64 SWAP1 REVERT JUMPDEST SWAP2 PUSH1 0x1 PUSH1 0x1 PUSH1 0xA0 SHL SUB DUP1 DUP5 AND SWAP3 DUP4 ISZERO PUSH2 0xD0C JUMPI AND SWAP3 DUP4 ISZERO PUSH2 0xCF3 JUMPI PUSH1 0x0 SWAP1 DUP4 DUP3 MSTORE DUP2 PUSH1 0x20 MSTORE PUSH1 0x40 DUP3 KECCAK256 SLOAD SWAP1 DUP4 DUP3 LT PUSH2 0xCC1 JUMPI POP SWAP2 PUSH1 0x40 DUP3 DUP3 PUSH32 0xDDF252AD1BE2C89B69C2B068FC378DAA952BA7F163C4A11628F55A4DF523B3EF SWAP6 DUP8 PUSH1 0x20 SWAP7 MSTORE DUP3 DUP7 MSTORE SUB DUP3 DUP3 KECCAK256 SSTORE DUP7 DUP2 MSTORE KECCAK256 DUP2 DUP2 SLOAD ADD SWAP1 SSTORE PUSH1 0x40 MLOAD SWAP1 DUP2 MSTORE LOG3 JUMP JUMPDEST PUSH1 0x40 MLOAD PUSH4 0x391434E3 PUSH1 0xE2 SHL DUP2 MSTORE PUSH1 0x1 PUSH1 0x1 PUSH1 0xA0 SHL SUB SWAP2 SWAP1 SWAP2 AND PUSH1 0x4 DUP3 ADD MSTORE PUSH1 0x24 DUP2 ADD SWAP2 SWAP1 SWAP2 MSTORE PUSH1 0x44 DUP2 ADD DUP4 SWAP1 MSTORE PUSH1 0x64 SWAP1 REVERT JUMPDEST PUSH1 0x40 MLOAD PUSH4 0xEC442F05 PUSH1 0xE0 SHL DUP2 MSTORE PUSH1 0x0 PUSH1 0x4 DUP3 ADD MSTORE PUSH1 0x24 SWAP1 REVERT JUMPDEST PUSH1 0x40 MLOAD PUSH4 0x4B637E8F PUSH1 0xE1 SHL DUP2 MSTORE PUSH1 0x0 PUSH1 0x4 DUP3 ADD MSTORE PUSH1 0x24 SWAP1 REVERT JUMPDEST PUSH1 0x5 SLOAD PUSH1 0x1 PUSH1 0x1 PUSH1 0xA0 SHL SUB AND CALLER SUB PUSH2 0xD39 JUMPI JUMP JUMPDEST PUSH1 0x40 MLOAD PUSH4 0x118CDAA7 PUSH1 0xE0 SHL DUP2 MSTORE CALLER PUSH1 0x4 DUP3 ADD MSTORE PUSH1 0x24 SWAP1 REVERT JUMPDEST RETURNDATASIZE ISZERO PUSH2 0xD8C JUMPI RETURNDATASIZE SWAP1 PUSH8 0xFFFFFFFFFFFFFFFF DUP3 GT PUSH2 0xBB9 JUMPI PUSH1 0x40 MLOAD SWAP2 PUSH2 0xD80 PUSH1 0x1F DUP3 ADD PUSH1 0x1F NOT AND PUSH1 0x20 ADD DUP5 PUSH2 0xB97 JUMP JUMPDEST DUP3 MSTORE RETURNDATASIZE PUSH1 0x0 PUSH1 0x20 DUP5 ADD RETURNDATACOPY JUMP JUMPDEST PUSH1 0x60 SWAP1 JUMP JUMPDEST SWAP1 DUP2 PUSH1 0x20 SWAP2 SUB SLT PUSH2 0xB7C JUMPI MLOAD DUP1 ISZERO ISZERO DUP2 SUB PUSH2 0xB7C JUMPI SWAP1 JUMP JUMPDEST PUSH1 0x7 SLOAD PUSH1 0x1 PUSH1 0x1 PUSH1 0xA0 SHL SUB SWAP1 DUP2 AND DUP1 ISZERO PUSH2 0xEE0 JUMPI PUSH1 0x40 MLOAD SWAP3 PUSH1 0x20 SWAP3 DUP4 DUP6 ADD SWAP5 PUSH4 0x3E14691 PUSH1 0xE6 SHL DUP7 MSTORE PUSH1 0x4 DUP2 MSTORE PUSH1 0x40 DUP2 ADD SWAP1 PUSH8 0xFFFFFFFFFFFFFFFF SWAP2 DUP2 DUP2 LT DUP4 DUP3 GT OR PUSH2 0xBB9 JUMPI PUSH1 0x40 MSTORE PUSH1 0x0 DUP1 SWAP8 DUP2 SWAP3 MLOAD SWAP1 DUP8 GAS STATICCALL PUSH2 0xE06 PUSH2 0xD51 JUMP JUMPDEST SWAP1 DUP1 PUSH2 0xED5 JUMPI JUMPDEST PUSH2 0xE9F JUMPI JUMPDEST POP PUSH1 0x40 MLOAD SWAP2 DUP6 DUP4 ADD SWAP4 PUSH4 0x429B62E5 PUSH1 0xE0 SHL DUP6 MSTORE AND PUSH1 0x24 DUP4 ADD MSTORE PUSH1 0x24 DUP3 MSTORE PUSH1 0x60 DUP3 ADD SWAP1 DUP3 DUP3 LT SWAP1 DUP3 GT OR PUSH2 0xE8B JUMPI PUSH1 0x40 MSTORE MLOAD DUP5 SWAP3 DUP4 SWAP3 SWAP1 GAS STATICCALL PUSH2 0xE52 PUSH2 0xD51 JUMP JUMPDEST SWAP1 DUP1 PUSH2 0xE80 JUMPI JUMPDEST PUSH2 0xE62 JUMPI POP POP SWAP1 JUMP JUMPDEST DUP2 PUSH2 0xE73 SWAP3 DUP3 MLOAD DUP4 ADD ADD SWAP2 ADD PUSH2 0xD91 JUMP JUMPDEST PUSH2 0xE7A JUMPI SWAP1 JUMP JUMPDEST POP PUSH1 0x1 SWAP1 JUMP JUMPDEST POP DUP2 DUP2 MLOAD LT ISZERO PUSH2 0xE59 JUMP JUMPDEST PUSH4 0x4E487B71 PUSH1 0xE0 SHL DUP7 MSTORE PUSH1 0x41 PUSH1 0x4 MSTORE PUSH1 0x24 DUP7 REVERT JUMPDEST DUP6 DUP2 DUP1 MLOAD DUP2 ADD SUB SLT PUSH2 0xED1 JUMPI DUP6 ADD MLOAD DUP3 DUP2 AND DUP1 SWAP2 SUB PUSH2 0xED1 JUMPI DUP3 DUP5 AND EQ PUSH2 0xEC6 JUMPI CODESIZE PUSH2 0xE12 JUMP JUMPDEST POP POP POP POP POP POP PUSH1 0x1 SWAP1 JUMP JUMPDEST DUP7 DUP1 REVERT JUMPDEST POP DUP6 DUP2 MLOAD LT ISZERO PUSH2 0xE0D JUMP JUMPDEST POP POP POP PUSH1 0x0 SWAP1 JUMP JUMPDEST PUSH1 0x8 SLOAD PUSH1 0x1 PUSH1 0x1 PUSH1 0xA0 SHL SUB SWAP1 DUP2 AND SWAP1 DUP2 ISZERO PUSH2 0xEE0 JUMPI PUSH1 0x40 MLOAD PUSH1 0x20 DUP2 ADD SWAP2 PUSH4 0x24745215 PUSH1 0xE2 SHL DUP4 MSTORE PUSH1 0x0 SWAP5 DUP6 PUSH1 0x24 DUP5 ADD MSTORE AND PUSH1 0x44 DUP3 ADD MSTORE PUSH1 0x44 DUP2 MSTORE PUSH1 0x80 DUP2 ADD DUP2 DUP2 LT PUSH8 0xFFFFFFFFFFFFFFFF DUP3 GT OR PUSH2 0xF7E JUMPI PUSH1 0x40 MSTORE MLOAD DUP4 SWAP3 DUP4 SWAP3 SWAP1 GAS STATICCALL PUSH2 0xF4C PUSH2 0xD51 JUMP JUMPDEST SWAP1 DUP1 PUSH2 0xF72 JUMPI JUMPDEST PUSH2 0xF5B JUMPI POP SWAP1 JUMP JUMPDEST PUSH2 0xF6F SWAP2 POP PUSH1 0x20 DUP1 DUP3 MLOAD DUP4 ADD ADD SWAP2 ADD PUSH2 0xD91 JUMP JUMPDEST SWAP1 JUMP JUMPDEST POP PUSH1 0x20 DUP2 MLOAD LT ISZERO PUSH2 0xF53 JUMP JUMPDEST PUSH4 0x4E487B71 PUSH1 0xE0 SHL DUP6 MSTORE PUSH1 0x41 PUSH1 0x4 MSTORE PUSH1 0x24 DUP6 REVERT INVALID LOG2 PUSH5 0x6970667358 0x22 SLT KECCAK256 JUMPDEST SHL STATICCALL SGT 0x24 DUP9 0xAF LOG4 0xBF MCOPY SWAP6 SWAP1 0xE4 RETURNDATACOPY PUSH11 0x4DD681E4EE39265D3FE6A5 CALLDATALOAD 0xB2 0xEA SELFBALANCE DUP15 0xBC PUSH5 0x736F6C6343 STOP ADDMOD XOR STOP CALLER "},"methodIdentifiers":{"addMinter(address)":"983b2d56","allowance(address,address)":"dd62ed3e","approve(address,uint256)":"095ea7b3","balanceOf(address)":"70a08231","burn(address,uint256)":"9dc29fac","decimals()":"313ce567","directCore()":"9ba479f1","mint(address,uint256)":"40c10f19","minters(address)":"f46eccc4","name()":"06fdde03","owner()":"8da5cb5b","removeMinter(address)":"3092afd5","renounceOwnership()":"715018a6","setDirectCore(address)":"b5988ebd","setSpeculateCore(address)":"dc7b666e","speculateCore()":"ac3bbbc6","symbol()":"95d89b41","totalSupply()":"18160ddd","transfer(address,uint256)":"a9059cbb","transferFrom(address,address,uint256)":"23b872dd","transferOwnership(address)":"f2fde38b"}}}}}