{"abi":[{"type":"constructor","inputs":[{"name":"_usdc","type":"address","internalType":"address"},{"name":"_admin","type":"address","internalType":"address"},{"name":"_treasury","type":"address","internalType":"address"}],"stateMutability":"nonpayable"},{"type":"function","name":"DEFAULT_ADMIN_ROLE","inputs":[],"outputs":[{"name":"","type":"bytes32","internalType":"bytes32"}],"stateMutability":"view"},{"type":"function","name":"MARKET_CREATOR_ROLE","inputs":[],"outputs":[{"name":"","type":"bytes32","internalType":"bytes32"}],"stateMutability":"view"},{"type":"function","name":"buyNo","inputs":[{"name":"id","type":"uint256","internalType":"uint256"},{"name":"usdcIn","type":"uint256","internalType":"uint256"},{"name":"minTokensOut","type":"uint256","internalType":"uint256"}],"outputs":[],"stateMutability":"nonpayable"},{"type":"function","name":"buyYes","inputs":[{"name":"id","type":"uint256","internalType":"uint256"},{"name":"usdcIn","type":"uint256","internalType":"uint256"},{"name":"minTokensOut","type":"uint256","internalType":"uint256"}],"outputs":[],"stateMutability":"nonpayable"},{"type":"function","name":"createMarket","inputs":[{"name":"question","type":"string","internalType":"string"},{"name":"yesName","type":"string","internalType":"string"},{"name":"yesSymbol","type":"string","internalType":"string"},{"name":"noName","type":"string","internalType":"string"},{"name":"noSymbol","type":"string","internalType":"string"},{"name":"initReservePerSideE18","type":"uint256","internalType":"uint256"},{"name":"feeBps","type":"uint256","internalType":"uint256"},{"name":"maxTradeBps","type":"uint256","internalType":"uint256"}],"outputs":[{"name":"id","type":"uint256","internalType":"uint256"}],"stateMutability":"nonpayable"},{"type":"function","name":"getRoleAdmin","inputs":[{"name":"role","type":"bytes32","internalType":"bytes32"}],"outputs":[{"name":"","type":"bytes32","internalType":"bytes32"}],"stateMutability":"view"},{"type":"function","name":"grantRole","inputs":[{"name":"role","type":"bytes32","internalType":"bytes32"},{"name":"account","type":"address","internalType":"address"}],"outputs":[],"stateMutability":"nonpayable"},{"type":"function","name":"hasRole","inputs":[{"name":"role","type":"bytes32","internalType":"bytes32"},{"name":"account","type":"address","internalType":"address"}],"outputs":[{"name":"","type":"bool","internalType":"bool"}],"stateMutability":"view"},{"type":"function","name":"marketCount","inputs":[],"outputs":[{"name":"","type":"uint256","internalType":"uint256"}],"stateMutability":"view"},{"type":"function","name":"marketState","inputs":[{"name":"id","type":"uint256","internalType":"uint256"}],"outputs":[{"name":"yes","type":"address","internalType":"address"},{"name":"no","type":"address","internalType":"address"},{"name":"reserveYes","type":"uint256","internalType":"uint256"},{"name":"reserveNo","type":"uint256","internalType":"uint256"},{"name":"totalPairs","type":"uint256","internalType":"uint256"},{"name":"usdcVault","type":"uint256","internalType":"uint256"},{"name":"feeBps","type":"uint256","internalType":"uint256"},{"name":"maxTradeBps","type":"uint256","internalType":"uint256"},{"name":"status","type":"uint8","internalType":"enum SpeculateCore.MarketStatus"},{"name":"question","type":"string","internalType":"string"}],"stateMutability":"view"},{"type":"function","name":"markets","inputs":[{"name":"","type":"uint256","internalType":"uint256"}],"outputs":[{"name":"yes","type":"address","internalType":"contract PositionToken"},{"name":"no","type":"address","internalType":"contract PositionToken"},{"name":"reserveYes","type":"uint256","internalType":"uint256"},{"name":"reserveNo","type":"uint256","internalType":"uint256"},{"name":"totalPairsUSDC","type":"uint256","internalType":"uint256"},{"name":"usdcVault","type":"uint256","internalType":"uint256"},{"name":"feeBps","type":"uint256","internalType":"uint256"},{"name":"maxTradeBps","type":"uint256","internalType":"uint256"},{"name":"status","type":"uint8","internalType":"enum SpeculateCore.MarketStatus"},{"name":"question","type":"string","internalType":"string"}],"stateMutability":"view"},{"type":"function","name":"pauseMarket","inputs":[{"name":"id","type":"uint256","internalType":"uint256"}],"outputs":[],"stateMutability":"nonpayable"},{"type":"function","name":"redeemPairs","inputs":[{"name":"id","type":"uint256","internalType":"uint256"},{"name":"pairs","type":"uint256","internalType":"uint256"}],"outputs":[],"stateMutability":"nonpayable"},{"type":"function","name":"renounceRole","inputs":[{"name":"role","type":"bytes32","internalType":"bytes32"},{"name":"callerConfirmation","type":"address","internalType":"address"}],"outputs":[],"stateMutability":"nonpayable"},{"type":"function","name":"revokeRole","inputs":[{"name":"role","type":"bytes32","internalType":"bytes32"},{"name":"account","type":"address","internalType":"address"}],"outputs":[],"stateMutability":"nonpayable"},{"type":"function","name":"sellNo","inputs":[{"name":"id","type":"uint256","internalType":"uint256"},{"name":"tokensIn","type":"uint256","internalType":"uint256"},{"name":"minUsdcOut","type":"uint256","internalType":"uint256"}],"outputs":[],"stateMutability":"nonpayable"},{"type":"function","name":"sellYes","inputs":[{"name":"id","type":"uint256","internalType":"uint256"},{"name":"tokensIn","type":"uint256","internalType":"uint256"},{"name":"minUsdcOut","type":"uint256","internalType":"uint256"}],"outputs":[],"stateMutability":"nonpayable"},{"type":"function","name":"setTreasury","inputs":[{"name":"_treasury","type":"address","internalType":"address"}],"outputs":[],"stateMutability":"nonpayable"},{"type":"function","name":"spotPriceNoE6","inputs":[{"name":"id","type":"uint256","internalType":"uint256"}],"outputs":[{"name":"","type":"uint256","internalType":"uint256"}],"stateMutability":"view"},{"type":"function","name":"spotPriceYesE6","inputs":[{"name":"id","type":"uint256","internalType":"uint256"}],"outputs":[{"name":"","type":"uint256","internalType":"uint256"}],"stateMutability":"view"},{"type":"function","name":"supportsInterface","inputs":[{"name":"interfaceId","type":"bytes4","internalType":"bytes4"}],"outputs":[{"name":"","type":"bool","internalType":"bool"}],"stateMutability":"view"},{"type":"function","name":"treasury","inputs":[],"outputs":[{"name":"","type":"address","internalType":"address"}],"stateMutability":"view"},{"type":"function","name":"unpauseMarket","inputs":[{"name":"id","type":"uint256","internalType":"uint256"}],"outputs":[],"stateMutability":"nonpayable"},{"type":"function","name":"usdc","inputs":[],"outputs":[{"name":"","type":"address","internalType":"contract IERC20"}],"stateMutability":"view"},{"type":"event","name":"Buy","inputs":[{"name":"id","type":"uint256","indexed":true,"internalType":"uint256"},{"name":"user","type":"address","indexed":true,"internalType":"address"},{"name":"isYes","type":"bool","indexed":false,"internalType":"bool"},{"name":"usdcIn","type":"uint256","indexed":false,"internalType":"uint256"},{"name":"tokensOut","type":"uint256","indexed":false,"internalType":"uint256"},{"name":"priceE6","type":"uint256","indexed":false,"internalType":"uint256"}],"anonymous":false},{"type":"event","name":"MarketCreated","inputs":[{"name":"id","type":"uint256","indexed":true,"internalType":"uint256"},{"name":"question","type":"string","indexed":false,"internalType":"string"},{"name":"initReservePerSideE18","type":"uint256","indexed":false,"internalType":"uint256"}],"anonymous":false},{"type":"event","name":"RoleAdminChanged","inputs":[{"name":"role","type":"bytes32","indexed":true,"internalType":"bytes32"},{"name":"previousAdminRole","type":"bytes32","indexed":true,"internalType":"bytes32"},{"name":"newAdminRole","type":"bytes32","indexed":true,"internalType":"bytes32"}],"anonymous":false},{"type":"event","name":"RoleGranted","inputs":[{"name":"role","type":"bytes32","indexed":true,"internalType":"bytes32"},{"name":"account","type":"address","indexed":true,"internalType":"address"},{"name":"sender","type":"address","indexed":true,"internalType":"address"}],"anonymous":false},{"type":"event","name":"RoleRevoked","inputs":[{"name":"role","type":"bytes32","indexed":true,"internalType":"bytes32"},{"name":"account","type":"address","indexed":true,"internalType":"address"},{"name":"sender","type":"address","indexed":true,"internalType":"address"}],"anonymous":false},{"type":"event","name":"Sell","inputs":[{"name":"id","type":"uint256","indexed":true,"internalType":"uint256"},{"name":"user","type":"address","indexed":true,"internalType":"address"},{"name":"isYes","type":"bool","indexed":false,"internalType":"bool"},{"name":"tokensIn","type":"uint256","indexed":false,"internalType":"uint256"},{"name":"usdcOut","type":"uint256","indexed":false,"internalType":"uint256"},{"name":"priceE6","type":"uint256","indexed":false,"internalType":"uint256"}],"anonymous":false},{"type":"error","name":"AccessControlBadConfirmation","inputs":[]},{"type":"error","name":"AccessControlUnauthorizedAccount","inputs":[{"name":"account","type":"address","internalType":"address"},{"name":"neededRole","type":"bytes32","internalType":"bytes32"}]},{"type":"error","name":"SafeERC20FailedOperation","inputs":[{"name":"token","type":"address","internalType":"address"}]}],"bytecode":{"object":"0x60a034620000f557601f620035de38819003918201601f19168301916001600160401b03831184841017620000f957808492606094604052833981010312620000f5578062000052620000a3926200010d565b6200006e604062000066602085016200010d565b93016200010d565b6001600160a01b03918216608052600180546001600160a01b031916919092161790556200009c8162000122565b5062000192565b5060405161336b90816200023382396080518181816101ca015281816105b901528181610a4201528181610ab2015281816110ec01528181611482015281816116b90152818161189a01526119080152f35b5f80fd5b634e487b7160e01b5f52604160045260245ffd5b51906001600160a01b0382168203620000f557565b6001600160a01b03165f8181525f80516020620035be833981519152602052604090205460ff166200018d575f8181525f80516020620035be83398151915260205260408120805460ff191660011790553391905f805160206200359e8339815191528180a4600190565b505f90565b6001600160a01b03165f8181527f2412b2af58bf3b93d578a423d333d33fb94fb5093f9cda1aed2eaafb3215f92960205260409020547fd3065a24ad9e7725d223007135762d2902038999e3e5829146654498a58d9795919060ff166200022c57815f525f60205260405f20815f5260205260405f20600160ff1982541617905533915f805160206200359e8339815191525f80a4600190565b50505f9056fe608080604052600436101562000013575f80fd5b5f905f3560e01c90816301ffc9a714620019cd575080630b7afd5a146200195957806316fe692914620017235780631b29addd1462001573578063248a9ca314620015455780632f2ff15d146200150157806336568abe14620014b15780633e413bee146200146b57806361d027b3146200144157806387784844146200140457806389546a381462000d0857806391d148541462000cbb578063a217fddf1462000c9d578063ae42820c1462000c60578063b1283e771462000b9a578063b4fb88b71462000b77578063d547741f1462000b2e578063dfe0662a1462000b03578063dffad4e2146200089c578063ea1758941462000569578063ec9790821462000549578063f0f4426014620004fa578063fb27260b146200017b5763fc12524c146200013f575f80fd5b346200017857602036600319011262000178576200015c62001f3f565b6004358152600360205260408120600801805460ff1916905580f35b80fd5b503462000178576200018d3662001a73565b6200019a83929362001de6565b9260ff6008850154166004811015620004e6576001620001bb911462001c2f565b620001c881151562001c69565b7f000000000000000000000000000000000000000000000000000000000000000090620001f881303385620020a8565b61271091826200020d60068801548462001d65565b04906200021b828462001cf8565b9180620004c4575b50506002860190815460038801908154916200026864e8d4a51000976200025e8c60078b62000253898962001d79565b049101549062001d65565b0485111562001e70565b620002738962001dc5565b93878102978189041490151715620004b057620002bd62000299620002c59589620020ed565b978894620002a986151562001e35565b620002b78686101562001ead565b62001d79565b905562001cf8565b905584546040516370a0823160e01b81523060048201526020966001600160a01b03928316918881602481865afa9081156200046e575f916200047d575b508581106200040e575b5060049150600581016200032385825462001d79565b9055016200033383825462001d79565b90556200034e620003448662001dc5565b9484101562001bf7565b84875260038652604080882054905163a9059cbb60e01b815233600482015260248101859052918791839160449183918c91165af180156200040357620003cf575b506040519460018652850152604084015260608301527fa625c3e5e55ecfc87bc129708d56174a230213ded2a553ef566988855bdb1a0560803393a380f35b620003f390863d8811620003fb575b620003ea818362001b26565b81019062001c9c565b505f62000390565b503d620003de565b6040513d89823e3d90fd5b6200041a908662001cf8565b91803b1562000479576040516340c10f1960e01b815230600482015260248101939093525f908390604490829084905af19182156200046e57600492156200030d57620004679062001b11565b5f6200030d565b6040513d5f823e3d90fd5b5f80fd5b90508881813d8311620004a8575b62000497818362001b26565b810103126200047957515f62000303565b503d6200048b565b634e487b7160e01b5f52601160045260245ffd5b600154620004de926001600160a01b039091169062001ef3565b5f8062000223565b634e487b7160e01b5f52602160045260245ffd5b50346200017857602036600319011262000178576004356001600160a01b0381169081900362000479576200052e62001f3f565b6bffffffffffffffffffffffff60a01b600154161760015580f35b503462000178578060031936011262000178576020600254604051908152f35b503462000178576200057b3662001a73565b909190620005898262001de6565b9260ff6008850154166004811015620004e6576001620005aa911462001c2f565b620005b781151562001c69565b7f000000000000000000000000000000000000000000000000000000000000000090620005e781303385620020a8565b6127109182620005fc60068801548462001d65565b04906200060a828462001cf8565b91806200087a575b50506002860190815490600388019182546200064c64e8d4a5100097620006428c60078b62000253878962001d79565b0484111562001e70565b5f94620006598a62001d87565b9388810298818a041490151715620004b057620002bd6200067f6200068f958a620020ed565b988994620002a986151562001e35565b905560018601546040516370a0823160e01b81523060048201526020976001600160a01b0393929091908416908981602481855afa9081156200046e575f9162000847575b50868110620007df575b505080600560049201620006f486825462001d79565b9055016200070484825462001d79565b905515620007c95762000724620003448662001dc5565b84101562001bf7565b84875260038652604080882060010154905163a9059cbb60e01b815233600482015260248101859052918791839160449183918c91165af180156200040357620007a7575b5060405194868652850152604084015260608301527fa625c3e5e55ecfc87bc129708d56174a230213ded2a553ef566988855bdb1a0560803393a380f35b620007c190863d8811620003fb57620003ea818362001b26565b505f62000769565b62000724620007d88662001d87565b946200071b565b620007eb908762001cf8565b90803b1562000479576040516340c10f1960e01b815230600482015260248101929092525f908290604490829084905af180156200046e5762000830575b80620006de565b6200083d91925062001b11565b5f90600462000829565b90508981813d831162000872575b62000861818362001b26565b810103126200047957515f620006d4565b503d62000855565b60015462000894926001600160a01b039091169062001ef3565b5f8062000612565b50346200017857620008ae3662001a73565b620008bb83929362001de6565b60ff6008820154166004811015620004e6576001620008db911462001c2f565b620008e884151562001c69565b80546040516323b872dd60e01b8152336004820152306024820152604481018690526001600160a01b0391602090829060649082905f9087165af180156200046e5762000adf575b5064e8d4a51000806200094e620009478762001dc5565b88620021a1565b04906200095d82151562001e35565b612710936200097f856200097660068401548662001d65565b04809462001cf8565b9460028201908154916003840192620009bc845493620009b288620009a5878662001d79565b0460078901549062001d65565b048a111562001e70565b6005850193845491620009d2838c111562001cb6565b878b02978b8904148b151715620004b05787858f95620002bd8e97620002bd95620002b760049e62000a069c101562001ead565b90550162000a1684825462001cf8565b90558062000aa7575b505062000a3a62000a308462001dc5565b9282101562001bf7565b62000a6781337f000000000000000000000000000000000000000000000000000000000000000062001ef3565b60405193600185526020850152604084015260608301527f1d161b920c72af3bceacd767e1ddf575296be054b91f3f47954d4fa62e0ea79260803393a380f35b62000ad791600154167f000000000000000000000000000000000000000000000000000000000000000062001ef3565b5f8062000a1f565b62000afb9060203d602011620003fb57620003ea818362001b26565b505f62000930565b5034620001785760203660031901126200017857602062000b2660043562001dc5565b604051908152f35b503462000178576040366003190112620001785762000b7360043562000b5362001a8e565b908084528360205262000b6d600160408620015462001f96565b62002035565b5080f35b5034620001785760203660031901126200017857602062000b2660043562001d87565b5034620001785760203660031901126200017857604090600435815260036020522060018060a01b039062000c5c82825416926001830154169160028101549362000c4c6003830154926004810154600582015460068301549060078401549262000c10600960ff600888015416960162001b49565b976040519b8c9b610140998d5260208d015260408c015260608b015260808a015260a089015260c088015260e087015261010086019062001a25565b8061012085015283019062001a33565b0390f35b5034620001785780600319360112620001785760206040517fd3065a24ad9e7725d223007135762d2902038999e3e5829146654498a58d97958152f35b50346200017857806003193601126200017857602090604051908152f35b5034620001785760403660031901126200017857604062000cdb62001a8e565b91600435815280602052209060018060a01b03165f52602052602060ff60405f2054166040519015158152f35b50346200047957610100366003190112620004795760043567ffffffffffffffff8111620004795762000d4090369060040162001aa5565b60249291923567ffffffffffffffff8111620004795762000d6690369060040162001aa5565b60449391933567ffffffffffffffff8111620004795762000d8c90369060040162001aa5565b909160643567ffffffffffffffff8111620004795762000db190369060040162001aa5565b9160843567ffffffffffffffff8111620004795762000dd590369060040162001aa5565b335f9081527f2412b2af58bf3b93d578a423d333d33fb94fb5093f9cda1aed2eaafb3215f929602052604090205490959192907fd3065a24ad9e7725d223007135762d2902038999e3e5829146654498a58d97959060ff1615620013e6575060a43515620013aa576103e88060c43511620013765760e435116200133c57600254995f198b14620004b05760018b016002558a5f52600360205260405f2097604051936110b985019185831067ffffffffffffffff8411176200132857859462000eaa946110b96200227d8839309462001d26565b03905ff080156200046e5785546001600160a01b0319166001600160a01b0391909116178555604051936110b985019167ffffffffffffffff8311868410176200132857859462000f06946110b96200227d8839309462001d26565b03905ff080156200046e576001820180546001600160a01b0319166001600160a01b03928316179055815460405163d539139360e01b81529116602082600481845afa9182156200046e575f92620012ee575b50803b156200047957604051632f2ff15d60e01b815260048101929092523060248301525f908290604490829084905af180156200046e57620012d8575b50600181015460405163d539139360e01b81526001600160a01b0390911690602081600481855afa908115620012cd57849162001295575b50813b156200129157604051632f2ff15d60e01b815260048101919091523060248201529083908290604490829084905af1801562001286579083916200126a575b505060a43560028201819055600382015560c435600682015560e435600782015560088101805460ff1916600117905567ffffffffffffffff8311620012565762001060600982015462001ad6565b601f811162001209575b508282601f82116001146200119c57839162001190575b508360011b905f198560031b1c19161760098201555b64e8d4a5100060a4350491821562001158578260011b928304600203620011445750938392826004602097620011117f2d1e9ad45dbe8e898e0374deebf2a661b2ae7c1855d2a29507d584c35d287c759630337f0000000000000000000000000000000000000000000000000000000000000000620020a8565b82600582015501556200113260405192839260408452604084019162001d06565b60a435878301520390a2604051908152f35b634e487b7160e01b81526011600452602490fd5b60405162461bcd60e51b815260206004820152601060248201526f696e76616c696420696e6974206c697160801b6044820152606490fd5b90508501355f62001081565b60098301845260208420915084601f198116855b818110620011ed575010620011d3575b5050600183811b01600982015562001097565b8601355f19600386901b60f8161c191690555f80620011c0565b89840135855560019094019360209384019388935001620011b0565b60098201835260208320601f850160051c810191602086106200124b575b601f0160051c01905b8181106200123f57506200106a565b83815560010162001230565b909150819062001227565b634e487b7160e01b82526041600452602482fd5b620012759062001b11565b6200128257815f62001011565b5080fd5b6040513d85823e3d90fd5b8380fd5b90506020813d602011620012c4575b81620012b36020938362001b26565b810103126200047957515f62000fcf565b3d9150620012a4565b6040513d86823e3d90fd5b620012e591925062001b11565b5f905f62000f97565b9091506020813d6020116200131f575b816200130d6020938362001b26565b81010312620004795751905f62000f59565b3d9150620012fe565b634e487b7160e01b5f52604160045260245ffd5b60405162461bcd60e51b81526020600482015260126024820152710dac2f040e8e4c2c8ca40e8dede40d0d2ced60731b6044820152606490fd5b60405162461bcd60e51b815260206004820152600c60248201526b0cccaca40e8dede40d0d2ced60a31b6044820152606490fd5b60405162461bcd60e51b8152602060048201526014602482015273696e76616c696420696e6974207265736572766560601b6044820152606490fd5b6044906040519063e2517d3f60e01b82523360048301526024820152fd5b346200047957602036600319011262000479576200142162001f3f565b6004355f908152600360205260409020600801805460ff19166001179055005b3462000479575f36600319011262000479576001546040516001600160a01b039091168152602090f35b3462000479575f36600319011262000479576040517f00000000000000000000000000000000000000000000000000000000000000006001600160a01b03168152602090f35b34620004795760403660031901126200047957620014ce62001a8e565b336001600160a01b03821603620014ef57620014ed9060043562002035565b005b60405163334bd91960e11b8152600490fd5b34620004795760403660031901126200047957620014ed6004356200152562001a8e565b90805f525f6020526200153f600160405f20015462001f96565b62001fb8565b346200047957602036600319011262000479576004355f525f6020526020600160405f200154604051908152f35b346200047957604036600319011262000479576024356200159660043562001de6565b60ff6008820154166004811015620004e6576001620015b6911462001c2f565b620015c382151562001c69565b80546040516323b872dd60e01b808252336004830152306024830152604482018590529391602091906001600160a01b03908390839060649082905f9086165af19182156200046e57839262001701575b50600185015460405196875233600488015230602488015260448701859052869160649183915f91165af19384156200046e57620014ed94620016de575b5050620016b4600364e8d4a5100083049360058101620016828682546200167c8183111562001cb6565b62001cf8565b9055600481016200169586825462001cf8565b905560028101620016a885825462001cf8565b90550191825462001cf8565b9055337f000000000000000000000000000000000000000000000000000000000000000062001ef3565b81620016f892903d10620003fb57620003ea818362001b26565b50838062001652565b6200171b90833d8511620003fb57620003ea818362001b26565b508662001614565b346200047957620017343662001a73565b6200174183929362001de6565b60ff6008820154166004811015620004e657600162001761911462001c2f565b6200176e84151562001c69565b60018101546040516323b872dd60e01b8152336004820152306024820152604481018690526001600160a01b0391602090829060649082905f9087165af180156200046e5762001935575b5064e8d4a5100080620017d0620009478762001d87565b0490620017df82151562001e35565b61271093620017f8856200097660068401548662001d65565b94600282019081549060038401906200181e825491620009b288620009a5858862001d79565b600585019384549162001834838c111562001cb6565b878b02978b8904148b151715620004b05787858f95620002bd8e97620002bd95620002b760049e620018689c101562001ead565b9055016200187884825462001cf8565b905580620018fd575b50506200189262000a308462001d87565b620018bf81337f000000000000000000000000000000000000000000000000000000000000000062001ef3565b604051935f85526020850152604084015260608301527f1d161b920c72af3bceacd767e1ddf575296be054b91f3f47954d4fa62e0ea79260803393a3005b6200192d91600154167f000000000000000000000000000000000000000000000000000000000000000062001ef3565b848062001881565b620019519060203d602011620003fb57620003ea818362001b26565b5085620017b9565b346200047957602036600319011262000479576200197960043562001de6565b60018060a01b039062000c5c82825416926001830154169160028101549362000c4c6003830154926004810154600582015460068301549060078401549262000c10600960ff600888015416960162001b49565b346200047957602036600319011262000479576004359063ffffffff60e01b82168092036200047957602091637965db0b60e01b811490811562001a13575b5015158152f35b6301ffc9a760e01b1490508362001a0c565b906004821015620004e65752565b91908251928382525f5b84811062001a5e575050825f602080949584010152601f8019910116010190565b60208183018101518483018201520162001a3d565b60609060031901126200047957600435906024359060443590565b602435906001600160a01b03821682036200047957565b9181601f84011215620004795782359167ffffffffffffffff83116200047957602083818601950101116200047957565b90600182811c9216801562001b06575b602083101462001af257565b634e487b7160e01b5f52602260045260245ffd5b91607f169162001ae6565b67ffffffffffffffff81116200132857604052565b90601f8019910116810190811067ffffffffffffffff8211176200132857604052565b9060405191825f825462001b5d8162001ad6565b908184526020946001916001811690815f1462001bd3575060011462001b91575b50505062001b8f9250038362001b26565b565b5f90815285812095935091905b81831062001bba57505062001b8f93508201015f808062001b7e565b8554888401850152948501948794509183019162001b9e565b9250505062001b8f94925060ff191682840152151560051b8201015f808062001b7e565b1562001bff57565b60405162461bcd60e51b8152602060048201526008602482015267736c69707061676560c01b6044820152606490fd5b1562001c3757565b60405162461bcd60e51b815260206004820152600a6024820152696e6f742061637469766560b01b6044820152606490fd5b1562001c7157565b606460405162461bcd60e51b81526020600482015260046024820152637a65726f60e01b6044820152fd5b908160209103126200047957518015158103620004795790565b1562001cbe57565b60405162461bcd60e51b81526020600482015260126024820152711a5b9cdd59999a58da595b9d081d985d5b1d60721b6044820152606490fd5b91908203918211620004b057565b908060209392818452848401375f828201840152601f01601f1916010190565b9362001d466040949262001d559498979860608852606088019162001d06565b91858303602087015262001d06565b6001600160a01b03909416910152565b81810292918115918404141715620004b057565b91908201809211620004b057565b62001d929062001de6565b62001da7600360028301549201548262001d79565b801562001dbc5762001db991620020ed565b90565b50506207a12090565b62001dd09062001de6565b62001da760036002830154920154809262001d79565b60025481101562001dff575f52600360205260405f2090565b60405162461bcd60e51b815260206004820152600e60248201526d1a5b9d985b1a59081b585c9ad95d60921b6044820152606490fd5b1562001e3d57565b60405162461bcd60e51b815260206004820152600b60248201526a1e995c9bc81bdd5d1c1d5d60aa1b6044820152606490fd5b1562001e7857565b60405162461bcd60e51b815260206004820152600d60248201526c747261646520746f6f2062696760981b6044820152606490fd5b1562001eb557565b60405162461bcd60e51b8152602060048201526016602482015275696e73756666696369656e74206c697175696469747960501b6044820152606490fd5b60405163a9059cbb60e01b60208201526001600160a01b039092166024830152604482019290925262001b8f9162001f3982606481015b03601f19810184528362001b26565b6200221e565b335f9081527fad3228b676f7d3cd4284a5443f17f1962b36e491b30a40b2405849e597ba5fb5602052604090205460ff161562001f7857565b60405163e2517d3f60e01b81523360048201525f6024820152604490fd5b805f525f60205260405f20335f5260205260ff60405f20541615620013e65750565b90815f525f60205260405f209060018060a01b031690815f5260205260ff60405f205416155f146200202f57815f525f60205260405f20815f5260205260405f20600160ff1982541617905533917f2f8788117e7eff1d82e926ec794901d17c78024a50270940304540a733656f0d5f80a4600190565b50505f90565b90815f525f60205260405f209060018060a01b031690815f5260205260ff60405f2054165f146200202f57815f525f60205260405f20815f5260205260405f2060ff19815416905533917ff6391f5c32d9c69d2a47ea670b442974b53935d1edc7fd64eb21e047a839171b5f80a4600190565b6040516323b872dd60e01b60208201526001600160a01b039283166024820152929091166044830152606482019290925262001b8f9162001f39826084810162001f2a565b620f4240915f1983830992808302928380861095039480860395146200217e5784831115620021665790829109815f038216809204600280826003021880830282030280830282030280830282030280830282030280830282030280920290030293600183805f03040190848311900302920304170290565b82634e487b715f52156003026011186020526024601cfd5b5050809250156200218d570490565b634e487b7160e01b5f52601260045260245ffd5b905f19818309818302918280831092039180830392146200221257620f4240908282111562002200577fde8f6cefed634549b62c77574f722e1ac57e23f24d8fd5cb790fb65668c26139940990828211900360fa1b910360061c170290565b634e487b715f5260116020526024601cfd5b5050620f424091500490565b905f602091828151910182855af1156200046e575f513d6200227257506001600160a01b0381163b155b620022505750565b604051635274afe760e01b81526001600160a01b039091166004820152602490fd5b600114156200224856fe6080604052346200032b57620010b9803803806200001d816200032f565b92833981016060828203126200032b5781516001600160401b0391908281116200032b57816200004f91850162000355565b91602091828501518281116200032b576040916200006f91870162000355565b940151926001600160a01b03841684036200032b5780519082821162000236576003918254906001928383811c9316801562000320575b878410146200030c578190601f93848111620002b9575b50879084831160011462000256575f926200024a575b50505f1982861b1c191690831b1783555b8651938411620002365760049485548381811c911680156200022b575b828210146200021857828111620001d0575b5080918511600114620001645750839291839162000147985f9562000158575b50501b925f19911b1c1916179055620003c5565b50604051610c519081620004488239f35b015193505f8062000133565b91939290601f19841697865f52835f20935f905b8a8210620001b8575050846200014799106200019e575b50505050811b019055620003c5565b01519060f8845f19921b161c191690555f8080806200018f565b80888597829496860151815501960193019062000178565b865f52815f208380880160051c8201928489106200020e575b0160051c019084905b8281106200020257505062000113565b5f8155018490620001f2565b92508192620001e9565b602287634e487b7160e01b5f525260245ffd5b90607f169062000101565b634e487b7160e01b5f52604160045260245ffd5b015190505f80620000d3565b90859350601f19831691875f52895f20925f5b8b828210620002a257505084116200028a575b505050811b018355620000e4565b01515f1983881b60f8161c191690555f80806200027c565b838501518655899790950194938401930162000269565b909150855f52875f208480850160051c8201928a861062000302575b918791869594930160051c01915b828110620002f3575050620000bd565b5f8155859450879101620002e3565b92508192620002d5565b634e487b7160e01b5f52602260045260245ffd5b92607f1692620000a6565b5f80fd5b6040519190601f01601f191682016001600160401b038111838210176200023657604052565b919080601f840112156200032b5782516001600160401b03811162000236576020906200038b601f8201601f191683016200032f565b928184528282870101116200032b575f5b818110620003b15750825f9394955001015290565b85810183015184820184015282016200039c565b6001600160a01b03165f8181525f8051602062001099833981519152602052604090205460ff1662000442575f8181525f805160206200109983398151915260205260408120805460ff191660011790553391907f2f8788117e7eff1d82e926ec794901d17c78024a50270940304540a733656f0d8180a4600190565b505f9056fe6080604090808252600480361015610015575f80fd5b5f3560e01c91826301ffc9a71461094a5750816306fdde031461086f578163095ea7b3146107c757816318160ddd146107a957816323b872dd146106b7578163248a9ca31461068d578163282c51f3146106535781632f2ff15d1461062b578163313ce5671461061057816336568abe146105cc57816340c10f19146104ca57816370a082311461049457816391d148541461045057816395d89b41146103315781639dc29fac14610208578163a217fddf146101ee578163a9059cbb146101be578163d539139314610184578163d547741f14610148575063dd62ed3e146100fc575f80fd5b346101445780600319360112610144576020906101176109e3565b61011f6109f9565b9060018060a01b038091165f5260018452825f2091165f528252805f20549051908152f35b5f80fd5b8234610144578060031936011261014457610182913561017d600161016b6109f9565b93835f5260056020525f200154610ae9565b610ba7565b005b8234610144575f36600319011261014457602090517f9f2df0fed2c77648de5860a4cc508cd0818c85b8b8a1ab4ceeef8d981c8956a68152f35b82346101445780600319360112610144576020906101e76101dd6109e3565b6024359033610a0f565b5160018152f35b8234610144575f36600319011261014457602090515f8152f35b82346101445780600319360112610144576102216109e3565b90602435927f3c11d16cbaffd01df69ce1c404f6340ee057498f5f00246190ea54220576a848805f526005602052825f20335f5260205260ff835f2054161561031657506001600160a01b03831692831561030057835f525f602052825f2054918583106102cc575f857fddf252ad1be2c89b69c2b068fc378daa952ba7f163c4a11628f55a4df523b3ef6020898881898688528785520381872055816002540360025551908152a3005b835163391434e360e21b81526001600160a01b03909216908201908152602081018390526040810186905281906060010390fd5b505f6024925191634b637e8f60e11b8352820152fd5b604492519163e2517d3f60e01b835233908301526024820152fd5b8234610144575f366003190112610144578051905f835460018160011c9060018316928315610446575b60209384841081146104335783885290811561041757506001146103c3575b505050829003601f01601f191682019267ffffffffffffffff8411838510176103b057508291826103ac92528261099c565b0390f35b604190634e487b7160e01b5f525260245ffd5b5f878152929350837f8a35acfbc15ff81a39ae7d344fd709f28e8600b4aa8c65c6b64bfe7fe36bd19b5b838510610403575050505083010184808061037a565b8054888601830152930192849082016103ed565b60ff1916878501525050151560051b840101905084808061037a565b602289634e487b7160e01b5f525260245ffd5b91607f169161035b565b823461014457806003193601126101445760209161046c6109f9565b90355f5260058352815f209060018060a01b03165f52825260ff815f20541690519015158152f35b8234610144576020366003190112610144576020906001600160a01b036104b96109e3565b165f525f8252805f20549051908152f35b82346101445780600319360112610144576104e36109e3565b90602435917f9f2df0fed2c77648de5860a4cc508cd0818c85b8b8a1ab4ceeef8d981c8956a6805f526005602052825f20335f5260205260ff835f205416156105ae57506001600160a01b0316928315610599576002549083820180921161058657505f927fddf252ad1be2c89b69c2b068fc378daa952ba7f163c4a11628f55a4df523b3ef9260209260025585855284835280852082815401905551908152a3005b601190634e487b7160e01b5f525260245ffd5b5f602492519163ec442f0560e01b8352820152fd5b825163e2517d3f60e01b815233818701526024810191909152604490fd5b82346101445780600319360112610144576105e56109f9565b90336001600160a01b0383160361060157506101829135610ba7565b5163334bd91960e11b81529050fd5b8234610144575f366003190112610144576020905160128152f35b8234610144578060031936011261014457610182913561064e600161016b6109f9565b610b29565b8234610144575f36600319011261014457602090517f3c11d16cbaffd01df69ce1c404f6340ee057498f5f00246190ea54220576a8488152f35b823461014457602036600319011261014457602091355f52600582526001815f2001549051908152f35b905034610144576060366003190112610144576106d26109e3565b6106da6109f9565b906044359260018060a01b038216805f526001602052855f20335f52602052855f2054915f198310610715575b6020876101e7888888610a0f565b85831061077d57811561076757331561075157505f908152600160209081528682203383528152908690209185900390915582906101e7610707565b6024905f885191634a1406b160e11b8352820152fd5b6024905f88519163e602df0560e01b8352820152fd5b8651637dc7a0d960e11b8152339181019182526020820193909352604081018690528291506060010390fd5b8234610144575f366003190112610144576020906002549051908152f35b82346101445780600319360112610144576107e06109e3565b602435903315610859576001600160a01b03169081156108435760209350335f5260018452825f20825f52845280835f205582519081527f8c5be1e5ebec7d5bd14f71427d1e84f3dd0314c0f7b2291e5b200ac8c7c3b925843392a35160018152f35b8251634a1406b160e11b81525f81860152602490fd5b825163e602df0560e01b81525f81860152602490fd5b8234610144575f366003190112610144578051905f60035460018160011c9060018316928315610940575b60209384841081146104335783885290811561041757506001146108ea57505050829003601f01601f191682019267ffffffffffffffff8411838510176103b057508291826103ac92528261099c565b60035f908152929350837fc2575a0e9e593c00f959f8c92f12db2869c3395a3b0502d05e2516446f71f85b5b83851061092c575050505083010184808061037a565b805488860183015293019284908201610916565b91607f169161089a565b903461014457602036600319011261014457359063ffffffff60e01b821680920361014457602091637965db0b60e01b811490811561098b575b5015158152f35b6301ffc9a760e01b14905083610984565b602080825282518183018190529093925f5b8281106109cf57505060409293505f838284010152601f8019910116010190565b8181018601518482016040015285016109ae565b600435906001600160a01b038216820361014457565b602435906001600160a01b038216820361014457565b916001600160a01b03808416928315610ad15716928315610ab957825f525f60205260405f205490828210610a875750817fddf252ad1be2c89b69c2b068fc378daa952ba7f163c4a11628f55a4df523b3ef92602092855f525f84520360405f2055845f5260405f20818154019055604051908152a3565b60405163391434e360e21b81526001600160a01b03919091166004820152602481019190915260448101829052606490fd5b60405163ec442f0560e01b81525f6004820152602490fd5b604051634b637e8f60e11b81525f6004820152602490fd5b805f52600560205260405f20335f5260205260ff60405f20541615610b0b5750565b6044906040519063e2517d3f60e01b82523360048301526024820152fd5b90815f52600560205260405f209060018060a01b031690815f5260205260ff60405f205416155f14610ba157815f52600560205260405f20815f5260205260405f20600160ff1982541617905533917f2f8788117e7eff1d82e926ec794901d17c78024a50270940304540a733656f0d5f80a4600190565b50505f90565b90815f52600560205260405f209060018060a01b031690815f5260205260ff60405f2054165f14610ba157815f52600560205260405f20815f5260205260405f2060ff19815416905533917ff6391f5c32d9c69d2a47ea670b442974b53935d1edc7fd64eb21e047a839171b5f80a460019056fea26469706673582212202c4e6f166a674869456fab90df6a571d8de8bbe239ac06d2b8350b5133a86aac64736f6c6343000818003305b8ccbb9d4d8fb16ea74ce3c29a41f1b461fbdaff4714a0d9a8eb05499746bca26469706673582212207644b61aab74d87ffac7461efaace492cb4fe641b1ed5c345385c9b661057f0264736f6c634300081800332f8788117e7eff1d82e926ec794901d17c78024a50270940304540a733656f0dad3228b676f7d3cd4284a5443f17f1962b36e491b30a40b2405849e597ba5fb5","linkReferences":{}},"methodIdentifiers":{"DEFAULT_ADMIN_ROLE()":"a217fddf","MARKET_CREATOR_ROLE()":"ae42820c","buyNo(uint256,uint256,uint256)":"ea175894","buyYes(uint256,uint256,uint256)":"fb27260b","createMarket(string,string,string,string,string,uint256,uint256,uint256)":"89546a38","getRoleAdmin(bytes32)":"248a9ca3","grantRole(bytes32,address)":"2f2ff15d","hasRole(bytes32,address)":"91d14854","marketCount()":"ec979082","marketState(uint256)":"0b7afd5a","markets(uint256)":"b1283e77","pauseMarket(uint256)":"fc12524c","redeemPairs(uint256,uint256)":"1b29addd","renounceRole(bytes32,address)":"36568abe","revokeRole(bytes32,address)":"d547741f","sellNo(uint256,uint256,uint256)":"16fe6929","sellYes(uint256,uint256,uint256)":"dffad4e2","setTreasury(address)":"f0f44260","spotPriceNoE6(uint256)":"b4fb88b7","spotPriceYesE6(uint256)":"dfe0662a","supportsInterface(bytes4)":"01ffc9a7","treasury()":"61d027b3","unpauseMarket(uint256)":"87784844","usdc()":"3e413bee"},"id":35}