{"abi":[{"type":"constructor","inputs":[],"stateMutability":"nonpayable"},{"type":"function","name":"admin","inputs":[],"outputs":[{"name":"","type":"address","internalType":"address"}],"stateMutability":"view"},{"type":"function","name":"buy","inputs":[{"name":"id","type":"uint256","internalType":"uint256"},{"name":"isYes","type":"bool","internalType":"bool"},{"name":"usdcIn","type":"uint256","internalType":"uint256"}],"outputs":[{"name":"tokensOut","type":"uint256","internalType":"uint256"}],"stateMutability":"nonpayable"},{"type":"function","name":"createMarket","inputs":[{"name":"usdc","type":"address","internalType":"address"},{"name":"question","type":"string","internalType":"string"},{"name":"expiry","type":"uint256","internalType":"uint256"},{"name":"feeBps","type":"uint16","internalType":"uint16"},{"name":"initialPriceYesE18","type":"uint256","internalType":"uint256"}],"outputs":[{"name":"id","type":"uint256","internalType":"uint256"}],"stateMutability":"nonpayable"},{"type":"function","name":"marketCount","inputs":[],"outputs":[{"name":"","type":"uint256","internalType":"uint256"}],"stateMutability":"view"},{"type":"function","name":"markets","inputs":[{"name":"","type":"uint256","internalType":"uint256"}],"outputs":[{"name":"usdc","type":"address","internalType":"contract MockUSDC"},{"name":"yes","type":"address","internalType":"contract PositionToken"},{"name":"no","type":"address","internalType":"contract PositionToken"},{"name":"usdcVault","type":"uint256","internalType":"uint256"},{"name":"feeBps","type":"uint16","internalType":"uint16"},{"name":"priceYesE18","type":"uint256","internalType":"uint256"},{"name":"feeUSDC","type":"uint256","internalType":"uint256"},{"name":"question","type":"string","internalType":"string"},{"name":"expiry","type":"uint256","internalType":"uint256"},{"name":"creator","type":"address","internalType":"address"},{"name":"status","type":"uint8","internalType":"enum DirectCore.Status"},{"name":"yesWins","type":"bool","internalType":"bool"}],"stateMutability":"view"},{"type":"function","name":"pauseMarket","inputs":[{"name":"id","type":"uint256","internalType":"uint256"}],"outputs":[],"stateMutability":"nonpayable"},{"type":"function","name":"priceNoE18","inputs":[{"name":"id","type":"uint256","internalType":"uint256"}],"outputs":[{"name":"","type":"uint256","internalType":"uint256"}],"stateMutability":"view"},{"type":"function","name":"priceYesE18","inputs":[{"name":"id","type":"uint256","internalType":"uint256"}],"outputs":[{"name":"","type":"uint256","internalType":"uint256"}],"stateMutability":"view"},{"type":"function","name":"sell","inputs":[{"name":"id","type":"uint256","internalType":"uint256"},{"name":"isYes","type":"bool","internalType":"bool"},{"name":"tokensIn","type":"uint256","internalType":"uint256"}],"outputs":[{"name":"usdcOut","type":"uint256","internalType":"uint256"}],"stateMutability":"nonpayable"},{"type":"function","name":"sensitivityE18","inputs":[],"outputs":[{"name":"","type":"uint256","internalType":"uint256"}],"stateMutability":"view"},{"type":"function","name":"setSensitivity","inputs":[{"name":"newSensitivityE18","type":"uint256","internalType":"uint256"}],"outputs":[],"stateMutability":"nonpayable"},{"type":"function","name":"setTreasury","inputs":[{"name":"t","type":"address","internalType":"address"}],"outputs":[],"stateMutability":"nonpayable"},{"type":"function","name":"transferAdmin","inputs":[{"name":"newAdmin","type":"address","internalType":"address"}],"outputs":[],"stateMutability":"nonpayable"},{"type":"function","name":"treasury","inputs":[],"outputs":[{"name":"","type":"address","internalType":"address"}],"stateMutability":"view"},{"type":"function","name":"unpauseMarket","inputs":[{"name":"id","type":"uint256","internalType":"uint256"}],"outputs":[],"stateMutability":"nonpayable"},{"type":"event","name":"MarketCreated","inputs":[{"name":"id","type":"uint256","indexed":true,"internalType":"uint256"},{"name":"usdc","type":"address","indexed":false,"internalType":"address"},{"name":"yes","type":"address","indexed":false,"internalType":"address"},{"name":"no","type":"address","indexed":false,"internalType":"address"},{"name":"priceYesE18","type":"uint256","indexed":false,"internalType":"uint256"}],"anonymous":false},{"type":"event","name":"MarketPaused","inputs":[{"name":"id","type":"uint256","indexed":true,"internalType":"uint256"}],"anonymous":false},{"type":"event","name":"MarketResolved","inputs":[{"name":"id","type":"uint256","indexed":true,"internalType":"uint256"},{"name":"yesWins","type":"bool","indexed":false,"internalType":"bool"}],"anonymous":false},{"type":"event","name":"MarketUnpaused","inputs":[{"name":"id","type":"uint256","indexed":true,"internalType":"uint256"}],"anonymous":false},{"type":"event","name":"TradeBuy","inputs":[{"name":"id","type":"uint256","indexed":true,"internalType":"uint256"},{"name":"user","type":"address","indexed":true,"internalType":"address"},{"name":"isYes","type":"bool","indexed":false,"internalType":"bool"},{"name":"usdcIn","type":"uint256","indexed":false,"internalType":"uint256"},{"name":"fee","type":"uint256","indexed":false,"internalType":"uint256"},{"name":"tokensOut","type":"uint256","indexed":false,"internalType":"uint256"}],"anonymous":false},{"type":"event","name":"TradeSell","inputs":[{"name":"id","type":"uint256","indexed":true,"internalType":"uint256"},{"name":"user","type":"address","indexed":true,"internalType":"address"},{"name":"isYes","type":"bool","indexed":false,"internalType":"bool"},{"name":"tokensIn","type":"uint256","indexed":false,"internalType":"uint256"},{"name":"usdcOut","type":"uint256","indexed":false,"internalType":"uint256"}],"anonymous":false}],"bytecode":{"object":"0x6080806040523461003357662386f26fc10000600555600180546001600160a01b03191633179055612d9c90816100388239f35b5f80fdfe6080604052600436101562000012575f80fd5b5f803560e01c806307e5dff41462001066578063438af9241462000c1557806349c0cc14146200067657806361d027b3146200064b578063671bc3c6146200061c578063748646de14620005c257806375829def146200056857806385e00ca4146200054857806387784844146200047f578063b1283e7714620002bf578063db9cd6ec1462000234578063ec9790821462000214578063f0f4426014620001b1578063f851a44014620001865763fc12524c14620000cf575f80fd5b34620001835760203660031901126200018357600435620000fc60018060a01b036001541633146200198d565b808252600460205260ff600960408420015460a01c1660038110156200016f5762000128901562001a43565b808252600460205260408220600901805460ff60a01b1916600160a01b1790557f0b939016779c3297135b58aed6d343cf103faf818ea07a7c5f87b03a9bd872978280a280f35b634e487b7160e01b83526021600452602483fd5b80fd5b503462000183578060031936011262000183576001546040516001600160a01b039091168152602090f35b5034620001835760203660031901126200018357620001cf62001894565b6001546001600160a01b039190620001eb90831633146200198d565b16620001f981151562001b10565b6bffffffffffffffffffffffff60a01b600254161760025580f35b503462000183578060031936011262000183576020600354604051908152f35b50346200018357602036600319011262000183576004356200026260018060a01b036001541633146200198d565b66038d7ea4c6800081101580620002ad575b15620002805760055580f35b60405162461bcd60e51b815260206004820152600560248201526472616e676560d81b6044820152606490fd5b5066b1a2bc2ec5000081111562000274565b503462000183576020366003190112620001835760043581526004602052604081209060018060a01b03825416916001808060a01b036001830154169260018060a01b036002840154169160038401549561ffff600486015416600586015460068701549160078801946040519587918154916200033d8362001908565b808a5292600181169081156200045057506001146200040e575b505050906200037186620003bb97969594930386620018c0565b600960088a01549901549a60ff8c60a01c16986040519b610180968d5260208d015260408c015260608b015260808a015260a089015260c08801528060e088015286019062001966565b6101008501939093526001600160a01b0385166101208501526003821015620003fa5750829360ff9161014085015260a81c1615156101608301520390f35b634e487b7160e01b81526021600452602490fd5b8952602089208993505b828410620004375750505085016020016200037186620003bb62000357565b80546020858b0181019190915290930192810162000418565b60ff19166020808c019190915293151560051b8a019093019350620003719250889150620003bb905062000357565b5034620001835760203660031901126200018357600435620004ad60018060a01b036001541633146200198d565b808252600460205260ff600960408420015460a01c1660038110156200016f576001036200051657808252600460205260408220600901805460ff60a01b191690557f50d4ab3612146ef68ce1895760d5088eeab86987e18ffce6f2efd3d683ae6d9f8280a280f35b60405162461bcd60e51b815260206004820152600a6024820152691b9bdd081c185d5cd95960b21b6044820152606490fd5b503462000183578060031936011262000183576020600554604051908152f35b50346200018357602036600319011262000183576200058662001894565b600154906001600160a01b0390620005a233838516146200198d565b1690620005b182151562001b10565b6001600160a01b0319161760015580f35b503462000183576020366003190112620001835760043581526004602052600560408220015490670de0b6b3a76400009182039182116200060857602082604051908152f35b634e487b7160e01b81526011600452602490fd5b503462000183576020366003190112620001835760056040602092600435815260048452200154604051908152f35b503462000183578060031936011262000183576002546040516001600160a01b039091168152602090f35b503462000183576200068836620018e3565b9192906200069882541562001a09565b600182558382526020936004855260ff600960408520015460a01c16600381101562000c0157620006ca901562001a43565b808352600485526040832093801562000bd157821562000ac8576001850180546040516323b872dd60e01b8152336004820152306024820152604481018490526001600160a01b0392918990829060649082908b9088165af19081156200096457879162000aa6575b501562000a76575416803b1562000a7257604051632770a7eb60e21b8152306004820152602481018390529085908290604490829084905af1801562000a675790859162000a4b575b50505b821562000a045764e8d4a51000670de0b6b3a7640000620007b360058801545b620007ac811515620019d4565b8462001a97565b040494612710620007cd61ffff6004840154168862001a97565b0490620007db8288620019c6565b9160068201620007ed82825462001aca565b9055600382018054848110620009d757846200080991620019c6565b9055815460405163a9059cbb60e01b80825233600483015260248201869052916001600160a01b0391908c90829060449082908e9087165af1908115620009cc578a91620009aa575b50156200097957918a91838a8a96956002541691821515806200096f575b620008cb575b5050505050509062000889929162001bf9565b6040519215158352858301528360408301527fc8c854a8f4c0fc6bafb6e35ac400d327dc6f35b5290025923aab4971be84a4c660603393a38055604051908152f35b86546040519485526001600160a01b03939093166004850152602484019490945294955090938492604492849291165af19081156200096457916200092087926200088995948a9162000930575b5062001ad8565b90919250885f80808a8162000876565b6200095591508c8d3d106200095c575b6200094c8183620018c0565b81019062001a7d565b5f62000919565b503d62000940565b6040513d89823e3d90fd5b5084151562000870565b60405162461bcd60e51b8152600481018c9052600960248201526878666572207573646360b81b6044820152606490fd5b620009c591508c8d3d106200095c576200094c8183620018c0565b5f62000852565b6040513d8c823e3d90fd5b60405162461bcd60e51b8152600481018c905260056024820152641d985d5b1d60da1b6044820152606490fd5b6005850154670de0b6b3a764000090810390811162000a3757670de0b6b3a7640000620007b364e8d4a51000926200079f565b634e487b7160e01b85526011600452602485fd5b62000a5690620018ab565b62000a6357835f6200077c565b8380fd5b6040513d87823e3d90fd5b8480fd5b60405162461bcd60e51b8152600481018990526008602482015267786665722059455360c01b6044820152606490fd5b62000ac19150893d8b116200095c576200094c8183620018c0565b5f62000733565b6002850180546040516323b872dd60e01b8152336004820152306024820152604481018490526001600160a01b0392918990829060649082908b9088165af19081156200096457879162000baf575b501562000b80575416803b1562000a7257604051632770a7eb60e21b8152306004820152602481018390529085908290604490829084905af1801562000a675790859162000b68575b50506200077f565b62000b7390620018ab565b62000a6357835f62000b60565b60405162461bcd60e51b815260048101899052600760248201526678666572204e4f60c81b6044820152606490fd5b62000bca9150893d8b116200095c576200094c8183620018c0565b5f62000b17565b60405162461bcd60e51b81526004810187905260086024820152670746f6b656e733d360c41b6044820152606490fd5b634e487b7160e01b84526021600452602484fd5b5034620001835762000c2736620018e3565b91929062000c3782541562001a09565b600182558382526020936004855260ff600960408520015460a01c16600381101562000c015762000c69901562001a43565b80835260048552604083208415620010385780546040516323b872dd60e01b8152336004820152306024820152604481018790526001600160a01b0396918890829060649082908a908c165af19081156200102d5786916200100b575b501562000fe05761271062000ce461ffff6004850154168362001a97565b049162000cf28383620019c6565b906006810162000d0485825462001aca565b9055851562000fb25760058101545b62000d20811515620019d4565b64e8d4a5100080840290848204148415171562000f9e576c0c9f2c9cd04674edea40000000840290808204670de0b6b3a7640000149015171562000f8a579062000d6a9162001aab565b97861562000f125780600183015416803b1562000f0e576040516340c10f1960e01b8152336004820152602481018b90529089908290604490829084905af1801562000f03578893928a8d93899362000edb575b50505b6003840162000dd287825462001aca565b90558060025416908115158062000ed1575b62000e42575b505050509062000dfb929162001b43565b60405193151584528684015260408301528360608301527f22ffb53baf80c955584759c101f73c24c1728776a3b4f547fe74aeb95253f19760803393a38055604051908152f35b845460405163a9059cbb60e01b81526001600160a01b03939093166004840152602483019390935293945092839160449183918d91165af190811562000ec6579162000e9d889262000dfb95948b9162000eab575062001ad8565b9091925089855f8062000dea565b6200095591508d803d106200095c576200094c8183620018c0565b6040513d8a823e3d90fd5b5082151562000de4565b91949550925062000eed9150620018ab565b62000eff5790898588938a5f62000dbe565b8780fd5b6040513d8b823e3d90fd5b8880fd5b80600283015416803b1562000f0e576040516340c10f1960e01b8152336004820152602481018b90529089908290604490829084905af1801562000f03578893928a8d93899362000f66575b505062000dc1565b91949550925062000f789150620018ab565b62000eff5790898588938a5f62000f5e565b634e487b7160e01b89526011600452602489fd5b634e487b7160e01b5f52601160045260245ffd5b6005810154670de0b6b3a76400009081039081111562000d1357634e487b7160e01b88526011600452602488fd5b60405162461bcd60e51b815260048082018990526024820152633c3332b960e11b6044820152606490fd5b620010269150883d8a116200095c576200094c8183620018c0565b5f62000cc6565b6040513d88823e3d90fd5b60405162461bcd60e51b81526004810187905260066024820152650757364633d360d41b6044820152606490fd5b5034620016515760a036600319011262001651576200108462001894565b60243567ffffffffffffffff8111620016515736602382011215620016515780600401359067ffffffffffffffff82116200177d57620010d0601f8301601f19166020016080620018c0565b81608052366024838301011162001651575f91602091819060240160a03760800101526064359061ffff82168092036200165157608435916200111f60018060a01b036001541633146200198d565b6103e881116200186957662386f26fc1000083118062001857575b6200114590620019d4565b600354925f19841462000f9e576001840160038190555f908152600460208190526040822080546001600160a01b0319166001600160a01b038716178155908101805461ffff19169094179093556005830191909155600682015560805167ffffffffffffffff81116200177d57620011c2600783015462001908565b601f81116200180e575b50806020601f82116001146200179e575f9162001791575b508160011b915f199060031b1c19161760078201555b60443560088201556009810180546001600160a81b0319163360ff60a01b19161790556040516080516200125e9060269083906200123e816020840160a062001943565b810165202d2059455360d01b6020820152036006810184520182620018c0565b60405190816110b981011067ffffffffffffffff6110b9840111176200177d5781620012a16040926110b962001cae843960606110b98401818152019062001966565b6110b98201810360206110b984010152600381526259455360e81b602082015230836110b9840101520301905ff08015620017385760018060a01b03166bffffffffffffffffffffffff60a01b6001830154161760018201556040516200133a6025826080516200131b8160208401602060800162001943565b810164202d204e4f60d81b6020820152036005810184520182620018c0565b604051906110b982019082821067ffffffffffffffff8311176200177d576040916200137984926110b962001cae853960608352606083019062001966565b90808203602082015260028252614e4f60f01b602083015283309101520301905ff0801562001738576002820180546001600160a01b0319166001600160a01b03928316179055600182015460405163d539139360e01b81529116602082600481845afa91821562001738575f9262001743575b50803b156200165157604051632f2ff15d60e01b815260048101929092523060248301525f908290604490829084905af18015620017385762001722575b50600181015460405163282c51f360e01b80825286929091906001600160a01b0316602082600481845afa918215620016c2578492620016e5575b50803b1562000a6357604051632f2ff15d60e01b8152600481019290925230602483015283908290604490829084905af19081156200165e578391620016cd575b5050600283015460405163d539139360e01b8152906001600160a01b0316602082600481845afa918215620016c257849262001685575b50803b1562000a6357604051632f2ff15d60e01b8152600481019290925230602483015283908290604490829084905af19081156200165e57839162001669575b505060028301546040519182526001600160a01b031690602081600481855afa9081156200165e5783916200161f575b50813b156200161b57604051632f2ff15d60e01b8152600481019190915230602482015291908290604490829084905af1801562000a675762001603575b506020935060018060a01b0360018201541690600560018060a01b03600283015416910154916040519360018060a01b0316845285840152604083015260608201527f6e169c7f97a4cb57830f27cebbd4557143a2a67153b42930b19ef53c755e62b160806001840192a2600160405191018152f35b6200160f8591620018ab565b62000a6357836200158d565b8280fd5b9250506020823d60201162001655575b816200163e60209383620018c0565b8101031262001651578591515f6200154f565b5f80fd5b3d91506200162f565b6040513d85823e3d90fd5b6200167490620018ab565b6200168157815f6200151f565b5080fd5b935090506020833d602011620016b9575b81620016a560209383620018c0565b810103126200165157869251905f620014de565b3d915062001696565b6040513d86823e3d90fd5b620016d890620018ab565b6200168157815f620014a7565b935090506020833d60201162001719575b816200170560209383620018c0565b810103126200165157869251905f62001466565b3d9150620016f6565b6200172f919450620018ab565b5f925f6200142b565b6040513d5f823e3d90fd5b9091506020813d60201162001774575b816200176260209383620018c0565b81010312620016515751905f620013ed565b3d915062001753565b634e487b7160e01b5f52604160045260245ffd5b9050608001515f620011e4565b9150600783015f5260205f205f925b601f1983168410620017f4576001935082601f19811610620017da575b5050811b016007820155620011fa565b608001515f1960f88460031b161c191690555f80620017ca565b6080810151825560209384019360019092019101620017ad565b600783015f5260205f20601f830160051c8101602084106200184f575b601f830160051c8201811062001843575050620011cc565b5f81556001016200182b565b50806200182b565b50670dbd2fc137a3000083106200113a565b60405162461bcd60e51b815260206004820152600360248201526266656560e81b6044820152606490fd5b600435906001600160a01b03821682036200165157565b67ffffffffffffffff81116200177d57604052565b90601f8019910116810190811067ffffffffffffffff8211176200177d57604052565b6060906003190112620016515760043590602435801515810362001651579060443590565b90600182811c9216801562001938575b60208310146200192457565b634e487b7160e01b5f52602260045260245ffd5b91607f169162001918565b5f5b838110620019555750505f910152565b818101518382015260200162001945565b90602091620019818151809281855285808601910162001943565b601f01601f1916010190565b156200199557565b60405162461bcd60e51b81526020600482015260096024820152683737ba1030b236b4b760b91b6044820152606490fd5b9190820391821162000f9e57565b15620019dc57565b60405162461bcd60e51b8152602060048201526005602482015264707269636560d81b6044820152606490fd5b1562001a1157565b60405162461bcd60e51b815260206004820152600a6024820152697265656e7472616e637960b01b6044820152606490fd5b1562001a4b57565b60405162461bcd60e51b815260206004820152600a6024820152696e6f742061637469766560b01b6044820152606490fd5b908160209103126200165157518015158103620016515790565b8181029291811591840414171562000f9e57565b811562001ab6570490565b634e487b7160e01b5f52601260045260245ffd5b9190820180921162000f9e57565b1562001ae057565b60405162461bcd60e51b81526020600482015260086024820152673332b2903c3332b960c11b6044820152606490fd5b1562001b1857565b606460405162461bcd60e51b81526020600482015260046024820152637a65726f60e01b6044820152fd5b909162001b5581600384015462001aca565b801562001bf357670de0b6b3a7640000918281029080820484149015171562000f9e5762001b929162001b889162001aab565b6005549062001a97565b0491821562001bee571562001bc05762001bb6600562001bbc920192835462001aca565b62001c82565b9055565b6005019081548181115f1462001be05762001bbc9162001bb691620019c6565b505062001bbc600162001c82565b505050565b50505050565b909162001c0b81600384015462001aca565b801562001bf357670de0b6b3a7640000918281029080820484149015171562000f9e5762001c3e9162001b889162001aab565b0491821562001bee571562001c6d576005019081548181115f1462001be05762001bbc9162001bb691620019c6565b62001bb6600562001bbc920192835462001aca565b662386f26fc1000080821062001ca85750670dbd2fc137a3000080821162001ca8575090565b90509056fe6080604052346200032b57620010b9803803806200001d816200032f565b92833981016060828203126200032b5781516001600160401b0391908281116200032b57816200004f91850162000355565b91602091828501518281116200032b576040916200006f91870162000355565b940151926001600160a01b03841684036200032b5780519082821162000236576003918254906001928383811c9316801562000320575b878410146200030c578190601f93848111620002b9575b50879084831160011462000256575f926200024a575b50505f1982861b1c191690831b1783555b8651938411620002365760049485548381811c911680156200022b575b828210146200021857828111620001d0575b5080918511600114620001645750839291839162000147985f9562000158575b50501b925f19911b1c1916179055620003c5565b50604051610c519081620004488239f35b015193505f8062000133565b91939290601f19841697865f52835f20935f905b8a8210620001b8575050846200014799106200019e575b50505050811b019055620003c5565b01519060f8845f19921b161c191690555f8080806200018f565b80888597829496860151815501960193019062000178565b865f52815f208380880160051c8201928489106200020e575b0160051c019084905b8281106200020257505062000113565b5f8155018490620001f2565b92508192620001e9565b602287634e487b7160e01b5f525260245ffd5b90607f169062000101565b634e487b7160e01b5f52604160045260245ffd5b015190505f80620000d3565b90859350601f19831691875f52895f20925f5b8b828210620002a257505084116200028a575b505050811b018355620000e4565b01515f1983881b60f8161c191690555f80806200027c565b838501518655899790950194938401930162000269565b909150855f52875f208480850160051c8201928a861062000302575b918791869594930160051c01915b828110620002f3575050620000bd565b5f8155859450879101620002e3565b92508192620002d5565b634e487b7160e01b5f52602260045260245ffd5b92607f1692620000a6565b5f80fd5b6040519190601f01601f191682016001600160401b038111838210176200023657604052565b919080601f840112156200032b5782516001600160401b03811162000236576020906200038b601f8201601f191683016200032f565b928184528282870101116200032b575f5b818110620003b15750825f9394955001015290565b85810183015184820184015282016200039c565b6001600160a01b03165f8181525f8051602062001099833981519152602052604090205460ff1662000442575f8181525f805160206200109983398151915260205260408120805460ff191660011790553391907f2f8788117e7eff1d82e926ec794901d17c78024a50270940304540a733656f0d8180a4600190565b505f9056fe6080604090808252600480361015610015575f80fd5b5f3560e01c91826301ffc9a71461094a5750816306fdde031461086f578163095ea7b3146107c757816318160ddd146107a957816323b872dd146106b7578163248a9ca31461068d578163282c51f3146106535781632f2ff15d1461062b578163313ce5671461061057816336568abe146105cc57816340c10f19146104ca57816370a082311461049457816391d148541461045057816395d89b41146103315781639dc29fac14610208578163a217fddf146101ee578163a9059cbb146101be578163d539139314610184578163d547741f14610148575063dd62ed3e146100fc575f80fd5b346101445780600319360112610144576020906101176109e3565b61011f6109f9565b9060018060a01b038091165f5260018452825f2091165f528252805f20549051908152f35b5f80fd5b8234610144578060031936011261014457610182913561017d600161016b6109f9565b93835f5260056020525f200154610ae9565b610ba7565b005b8234610144575f36600319011261014457602090517f9f2df0fed2c77648de5860a4cc508cd0818c85b8b8a1ab4ceeef8d981c8956a68152f35b82346101445780600319360112610144576020906101e76101dd6109e3565b6024359033610a0f565b5160018152f35b8234610144575f36600319011261014457602090515f8152f35b82346101445780600319360112610144576102216109e3565b90602435927f3c11d16cbaffd01df69ce1c404f6340ee057498f5f00246190ea54220576a848805f526005602052825f20335f5260205260ff835f2054161561031657506001600160a01b03831692831561030057835f525f602052825f2054918583106102cc575f857fddf252ad1be2c89b69c2b068fc378daa952ba7f163c4a11628f55a4df523b3ef6020898881898688528785520381872055816002540360025551908152a3005b835163391434e360e21b81526001600160a01b03909216908201908152602081018390526040810186905281906060010390fd5b505f6024925191634b637e8f60e11b8352820152fd5b604492519163e2517d3f60e01b835233908301526024820152fd5b8234610144575f366003190112610144578051905f835460018160011c9060018316928315610446575b60209384841081146104335783885290811561041757506001146103c3575b505050829003601f01601f191682019267ffffffffffffffff8411838510176103b057508291826103ac92528261099c565b0390f35b604190634e487b7160e01b5f525260245ffd5b5f878152929350837f8a35acfbc15ff81a39ae7d344fd709f28e8600b4aa8c65c6b64bfe7fe36bd19b5b838510610403575050505083010184808061037a565b8054888601830152930192849082016103ed565b60ff1916878501525050151560051b840101905084808061037a565b602289634e487b7160e01b5f525260245ffd5b91607f169161035b565b823461014457806003193601126101445760209161046c6109f9565b90355f5260058352815f209060018060a01b03165f52825260ff815f20541690519015158152f35b8234610144576020366003190112610144576020906001600160a01b036104b96109e3565b165f525f8252805f20549051908152f35b82346101445780600319360112610144576104e36109e3565b90602435917f9f2df0fed2c77648de5860a4cc508cd0818c85b8b8a1ab4ceeef8d981c8956a6805f526005602052825f20335f5260205260ff835f205416156105ae57506001600160a01b0316928315610599576002549083820180921161058657505f927fddf252ad1be2c89b69c2b068fc378daa952ba7f163c4a11628f55a4df523b3ef9260209260025585855284835280852082815401905551908152a3005b601190634e487b7160e01b5f525260245ffd5b5f602492519163ec442f0560e01b8352820152fd5b825163e2517d3f60e01b815233818701526024810191909152604490fd5b82346101445780600319360112610144576105e56109f9565b90336001600160a01b0383160361060157506101829135610ba7565b5163334bd91960e11b81529050fd5b8234610144575f366003190112610144576020905160128152f35b8234610144578060031936011261014457610182913561064e600161016b6109f9565b610b29565b8234610144575f36600319011261014457602090517f3c11d16cbaffd01df69ce1c404f6340ee057498f5f00246190ea54220576a8488152f35b823461014457602036600319011261014457602091355f52600582526001815f2001549051908152f35b905034610144576060366003190112610144576106d26109e3565b6106da6109f9565b906044359260018060a01b038216805f526001602052855f20335f52602052855f2054915f198310610715575b6020876101e7888888610a0f565b85831061077d57811561076757331561075157505f908152600160209081528682203383528152908690209185900390915582906101e7610707565b6024905f885191634a1406b160e11b8352820152fd5b6024905f88519163e602df0560e01b8352820152fd5b8651637dc7a0d960e11b8152339181019182526020820193909352604081018690528291506060010390fd5b8234610144575f366003190112610144576020906002549051908152f35b82346101445780600319360112610144576107e06109e3565b602435903315610859576001600160a01b03169081156108435760209350335f5260018452825f20825f52845280835f205582519081527f8c5be1e5ebec7d5bd14f71427d1e84f3dd0314c0f7b2291e5b200ac8c7c3b925843392a35160018152f35b8251634a1406b160e11b81525f81860152602490fd5b825163e602df0560e01b81525f81860152602490fd5b8234610144575f366003190112610144578051905f60035460018160011c9060018316928315610940575b60209384841081146104335783885290811561041757506001146108ea57505050829003601f01601f191682019267ffffffffffffffff8411838510176103b057508291826103ac92528261099c565b60035f908152929350837fc2575a0e9e593c00f959f8c92f12db2869c3395a3b0502d05e2516446f71f85b5b83851061092c575050505083010184808061037a565b805488860183015293019284908201610916565b91607f169161089a565b903461014457602036600319011261014457359063ffffffff60e01b821680920361014457602091637965db0b60e01b811490811561098b575b5015158152f35b6301ffc9a760e01b14905083610984565b602080825282518183018190529093925f5b8281106109cf57505060409293505f838284010152601f8019910116010190565b8181018601518482016040015285016109ae565b600435906001600160a01b038216820361014457565b602435906001600160a01b038216820361014457565b916001600160a01b03808416928315610ad15716928315610ab957825f525f60205260405f205490828210610a875750817fddf252ad1be2c89b69c2b068fc378daa952ba7f163c4a11628f55a4df523b3ef92602092855f525f84520360405f2055845f5260405f20818154019055604051908152a3565b60405163391434e360e21b81526001600160a01b03919091166004820152602481019190915260448101829052606490fd5b60405163ec442f0560e01b81525f6004820152602490fd5b604051634b637e8f60e11b81525f6004820152602490fd5b805f52600560205260405f20335f5260205260ff60405f20541615610b0b5750565b6044906040519063e2517d3f60e01b82523360048301526024820152fd5b90815f52600560205260405f209060018060a01b031690815f5260205260ff60405f205416155f14610ba157815f52600560205260405f20815f5260205260405f20600160ff1982541617905533917f2f8788117e7eff1d82e926ec794901d17c78024a50270940304540a733656f0d5f80a4600190565b50505f90565b90815f52600560205260405f209060018060a01b031690815f5260205260ff60405f2054165f14610ba157815f52600560205260405f20815f5260205260405f2060ff19815416905533917ff6391f5c32d9c69d2a47ea670b442974b53935d1edc7fd64eb21e047a839171b5f80a460019056fea26469706673582212202c4e6f166a674869456fab90df6a571d8de8bbe239ac06d2b8350b5133a86aac64736f6c6343000818003305b8ccbb9d4d8fb16ea74ce3c29a41f1b461fbdaff4714a0d9a8eb05499746bca26469706673582212207baa93e1ac935eddb8a9a366c5c9f45d436d9f6d0d82acb9ae06817244808dd664736f6c63430008180033","linkReferences":{}},"methodIdentifiers":{"admin()":"f851a440","buy(uint256,bool,uint256)":"438af924","createMarket(address,string,uint256,uint16,uint256)":"07e5dff4","marketCount()":"ec979082","markets(uint256)":"b1283e77","pauseMarket(uint256)":"fc12524c","priceNoE18(uint256)":"748646de","priceYesE18(uint256)":"671bc3c6","sell(uint256,bool,uint256)":"49c0cc14","sensitivityE18()":"85e00ca4","setSensitivity(uint256)":"db9cd6ec","setTreasury(address)":"f0f44260","transferAdmin(address)":"75829def","treasury()":"61d027b3","unpauseMarket(uint256)":"87784844"},"id":26}