{"abi":[{"type":"constructor","inputs":[{"name":"_usdc","type":"address","internalType":"address"},{"name":"_treasury","type":"address","internalType":"address"}],"stateMutability":"nonpayable"},{"type":"function","name":"DEFAULT_ADMIN_ROLE","inputs":[],"outputs":[{"name":"","type":"bytes32","internalType":"bytes32"}],"stateMutability":"view"},{"type":"function","name":"MARKET_CREATOR_ROLE","inputs":[],"outputs":[{"name":"","type":"bytes32","internalType":"bytes32"}],"stateMutability":"view"},{"type":"function","name":"MAX_USDC_PER_TRADE","inputs":[],"outputs":[{"name":"","type":"uint256","internalType":"uint256"}],"stateMutability":"view"},{"type":"function","name":"USDC_TO_E18","inputs":[],"outputs":[{"name":"","type":"uint256","internalType":"uint256"}],"stateMutability":"view"},{"type":"function","name":"buyNo","inputs":[{"name":"id","type":"uint256","internalType":"uint256"},{"name":"usdcIn","type":"uint256","internalType":"uint256"},{"name":"minOut","type":"uint256","internalType":"uint256"}],"outputs":[],"stateMutability":"nonpayable"},{"type":"function","name":"buyYes","inputs":[{"name":"id","type":"uint256","internalType":"uint256"},{"name":"usdcIn","type":"uint256","internalType":"uint256"},{"name":"minOut","type":"uint256","internalType":"uint256"}],"outputs":[],"stateMutability":"nonpayable"},{"type":"function","name":"chainlinkResolver","inputs":[],"outputs":[{"name":"","type":"address","internalType":"address"}],"stateMutability":"view"},{"type":"function","name":"checkUpkeep","inputs":[{"name":"id","type":"uint256","internalType":"uint256"}],"outputs":[{"name":"","type":"bool","internalType":"bool"},{"name":"","type":"bytes","internalType":"bytes"}],"stateMutability":"view"},{"type":"function","name":"createMarket","inputs":[{"name":"question","type":"string","internalType":"string"},{"name":"yesName","type":"string","internalType":"string"},{"name":"yesSymbol","type":"string","internalType":"string"},{"name":"noName","type":"string","internalType":"string"},{"name":"noSymbol","type":"string","internalType":"string"},{"name":"initUsdc","type":"uint256","internalType":"uint256"},{"name":"expiryTimestamp","type":"uint256","internalType":"uint256"},{"name":"oracle","type":"address","internalType":"address"},{"name":"targetValue","type":"uint256","internalType":"uint256"},{"name":"comparison","type":"uint8","internalType":"enum SpeculateCore.Comparison"}],"outputs":[{"name":"id","type":"uint256","internalType":"uint256"}],"stateMutability":"nonpayable"},{"type":"function","name":"getMarketResolution","inputs":[{"name":"id","type":"uint256","internalType":"uint256"}],"outputs":[{"name":"","type":"tuple","internalType":"struct SpeculateCore.ResolutionConfig","components":[{"name":"expiryTimestamp","type":"uint256","internalType":"uint256"},{"name":"oracleType","type":"uint8","internalType":"enum SpeculateCore.OracleType"},{"name":"oracleAddress","type":"address","internalType":"address"},{"name":"priceFeedId","type":"bytes32","internalType":"bytes32"},{"name":"targetValue","type":"uint256","internalType":"uint256"},{"name":"comparison","type":"uint8","internalType":"enum SpeculateCore.Comparison"},{"name":"yesWins","type":"bool","internalType":"bool"},{"name":"isResolved","type":"bool","internalType":"bool"}]}],"stateMutability":"view"},{"type":"function","name":"getRoleAdmin","inputs":[{"name":"role","type":"bytes32","internalType":"bytes32"}],"outputs":[{"name":"","type":"bytes32","internalType":"bytes32"}],"stateMutability":"view"},{"type":"function","name":"grantRole","inputs":[{"name":"role","type":"bytes32","internalType":"bytes32"},{"name":"account","type":"address","internalType":"address"}],"outputs":[],"stateMutability":"nonpayable"},{"type":"function","name":"hasRole","inputs":[{"name":"role","type":"bytes32","internalType":"bytes32"},{"name":"account","type":"address","internalType":"address"}],"outputs":[{"name":"","type":"bool","internalType":"bool"}],"stateMutability":"view"},{"type":"function","name":"liquidityMultiplierE18","inputs":[],"outputs":[{"name":"","type":"uint256","internalType":"uint256"}],"stateMutability":"view"},{"type":"function","name":"marketCount","inputs":[],"outputs":[{"name":"","type":"uint256","internalType":"uint256"}],"stateMutability":"view"},{"type":"function","name":"markets","inputs":[{"name":"","type":"uint256","internalType":"uint256"}],"outputs":[{"name":"yes","type":"address","internalType":"contract PositionToken"},{"name":"no","type":"address","internalType":"contract PositionToken"},{"name":"qYes","type":"uint256","internalType":"uint256"},{"name":"qNo","type":"uint256","internalType":"uint256"},{"name":"usdcVault","type":"uint256","internalType":"uint256"},{"name":"totalPairsUSDC","type":"uint256","internalType":"uint256"},{"name":"bE18","type":"uint256","internalType":"uint256"},{"name":"feeTreasuryBps","type":"uint16","internalType":"uint16"},{"name":"feeVaultBps","type":"uint16","internalType":"uint16"},{"name":"feeLpBps","type":"uint16","internalType":"uint16"},{"name":"status","type":"uint8","internalType":"enum SpeculateCore.MarketStatus"},{"name":"question","type":"string","internalType":"string"},{"name":"lp","type":"address","internalType":"address"},{"name":"resolution","type":"tuple","internalType":"struct SpeculateCore.ResolutionConfig","components":[{"name":"expiryTimestamp","type":"uint256","internalType":"uint256"},{"name":"oracleType","type":"uint8","internalType":"enum SpeculateCore.OracleType"},{"name":"oracleAddress","type":"address","internalType":"address"},{"name":"priceFeedId","type":"bytes32","internalType":"bytes32"},{"name":"targetValue","type":"uint256","internalType":"uint256"},{"name":"comparison","type":"uint8","internalType":"enum SpeculateCore.Comparison"},{"name":"yesWins","type":"bool","internalType":"bool"},{"name":"isResolved","type":"bool","internalType":"bool"}]}],"stateMutability":"view"},{"type":"function","name":"redeem","inputs":[{"name":"id","type":"uint256","internalType":"uint256"},{"name":"isYes","type":"bool","internalType":"bool"}],"outputs":[],"stateMutability":"nonpayable"},{"type":"function","name":"renounceRole","inputs":[{"name":"role","type":"bytes32","internalType":"bytes32"},{"name":"callerConfirmation","type":"address","internalType":"address"}],"outputs":[],"stateMutability":"nonpayable"},{"type":"function","name":"resolveMarket","inputs":[{"name":"id","type":"uint256","internalType":"uint256"},{"name":"yesWins","type":"bool","internalType":"bool"}],"outputs":[],"stateMutability":"nonpayable"},{"type":"function","name":"resolveMarketWithPrice","inputs":[{"name":"id","type":"uint256","internalType":"uint256"},{"name":"price","type":"uint256","internalType":"uint256"}],"outputs":[],"stateMutability":"nonpayable"},{"type":"function","name":"resolveWithFeed","inputs":[{"name":"id","type":"uint256","internalType":"uint256"}],"outputs":[],"stateMutability":"nonpayable"},{"type":"function","name":"revokeRole","inputs":[{"name":"role","type":"bytes32","internalType":"bytes32"},{"name":"account","type":"address","internalType":"address"}],"outputs":[],"stateMutability":"nonpayable"},{"type":"function","name":"sellNo","inputs":[{"name":"id","type":"uint256","internalType":"uint256"},{"name":"tokensIn","type":"uint256","internalType":"uint256"},{"name":"minOut","type":"uint256","internalType":"uint256"}],"outputs":[],"stateMutability":"nonpayable"},{"type":"function","name":"sellYes","inputs":[{"name":"id","type":"uint256","internalType":"uint256"},{"name":"tokensIn","type":"uint256","internalType":"uint256"},{"name":"minOut","type":"uint256","internalType":"uint256"}],"outputs":[],"stateMutability":"nonpayable"},{"type":"function","name":"setChainlinkResolver","inputs":[{"name":"a","type":"address","internalType":"address"}],"outputs":[],"stateMutability":"nonpayable"},{"type":"function","name":"setLiquidityMultiplier","inputs":[{"name":"x","type":"uint256","internalType":"uint256"}],"outputs":[],"stateMutability":"nonpayable"},{"type":"function","name":"setPriceFeedId","inputs":[{"name":"id","type":"uint256","internalType":"uint256"},{"name":"feedId","type":"bytes32","internalType":"bytes32"}],"outputs":[],"stateMutability":"nonpayable"},{"type":"function","name":"setTreasury","inputs":[{"name":"a","type":"address","internalType":"address"}],"outputs":[],"stateMutability":"nonpayable"},{"type":"function","name":"spotPriceYesE18","inputs":[{"name":"id","type":"uint256","internalType":"uint256"}],"outputs":[{"name":"","type":"uint256","internalType":"uint256"}],"stateMutability":"view"},{"type":"function","name":"supportsInterface","inputs":[{"name":"interfaceId","type":"bytes4","internalType":"bytes4"}],"outputs":[{"name":"","type":"bool","internalType":"bool"}],"stateMutability":"view"},{"type":"function","name":"treasury","inputs":[],"outputs":[{"name":"","type":"address","internalType":"address"}],"stateMutability":"view"},{"type":"function","name":"usdc","inputs":[],"outputs":[{"name":"","type":"address","internalType":"contract IERC20"}],"stateMutability":"view"},{"type":"event","name":"Buy","inputs":[{"name":"id","type":"uint256","indexed":false,"internalType":"uint256"},{"name":"user","type":"address","indexed":false,"internalType":"address"},{"name":"isYes","type":"bool","indexed":false,"internalType":"bool"},{"name":"usdcIn","type":"uint256","indexed":false,"internalType":"uint256"},{"name":"tokensOut","type":"uint256","indexed":false,"internalType":"uint256"},{"name":"priceE6","type":"uint256","indexed":false,"internalType":"uint256"}],"anonymous":false},{"type":"event","name":"MarketCreated","inputs":[{"name":"id","type":"uint256","indexed":false,"internalType":"uint256"},{"name":"yes","type":"address","indexed":false,"internalType":"address"},{"name":"no","type":"address","indexed":false,"internalType":"address"},{"name":"question","type":"string","indexed":false,"internalType":"string"},{"name":"initUsdc","type":"uint256","indexed":false,"internalType":"uint256"}],"anonymous":false},{"type":"event","name":"MarketResolved","inputs":[{"name":"id","type":"uint256","indexed":false,"internalType":"uint256"},{"name":"yesWins","type":"bool","indexed":false,"internalType":"bool"}],"anonymous":false},{"type":"event","name":"Redeemed","inputs":[{"name":"id","type":"uint256","indexed":false,"internalType":"uint256"},{"name":"user","type":"address","indexed":false,"internalType":"address"},{"name":"usdcOut","type":"uint256","indexed":false,"internalType":"uint256"}],"anonymous":false},{"type":"event","name":"RoleAdminChanged","inputs":[{"name":"role","type":"bytes32","indexed":true,"internalType":"bytes32"},{"name":"previousAdminRole","type":"bytes32","indexed":true,"internalType":"bytes32"},{"name":"newAdminRole","type":"bytes32","indexed":true,"internalType":"bytes32"}],"anonymous":false},{"type":"event","name":"RoleGranted","inputs":[{"name":"role","type":"bytes32","indexed":true,"internalType":"bytes32"},{"name":"account","type":"address","indexed":true,"internalType":"address"},{"name":"sender","type":"address","indexed":true,"internalType":"address"}],"anonymous":false},{"type":"event","name":"RoleRevoked","inputs":[{"name":"role","type":"bytes32","indexed":true,"internalType":"bytes32"},{"name":"account","type":"address","indexed":true,"internalType":"address"},{"name":"sender","type":"address","indexed":true,"internalType":"address"}],"anonymous":false},{"type":"event","name":"Sell","inputs":[{"name":"id","type":"uint256","indexed":false,"internalType":"uint256"},{"name":"user","type":"address","indexed":false,"internalType":"address"},{"name":"isYes","type":"bool","indexed":false,"internalType":"bool"},{"name":"tokensIn","type":"uint256","indexed":false,"internalType":"uint256"},{"name":"usdcOut","type":"uint256","indexed":false,"internalType":"uint256"},{"name":"priceE6","type":"uint256","indexed":false,"internalType":"uint256"}],"anonymous":false},{"type":"error","name":"AccessControlBadConfirmation","inputs":[]},{"type":"error","name":"AccessControlUnauthorizedAccount","inputs":[{"name":"account","type":"address","internalType":"address"},{"name":"neededRole","type":"bytes32","internalType":"bytes32"}]},{"type":"error","name":"ReentrancyGuardReentrantCall","inputs":[]},{"type":"error","name":"SafeERC20FailedOperation","inputs":[{"name":"token","type":"address","internalType":"address"}]}],"bytecode":{"object":"0x60a0346200013157601f6200483738819003918201601f19168301916001600160401b038311848410176200013557808492604094855283398101031262000131576200005a6020620000528362000149565b920162000149565b60018055670de0b6b3a76400006004556001600160a01b039182168015158062000125575b15620000f4576080521660018060a01b03196002541617600255620000a4336200015e565b50620000b033620001ce565b5060405161458890816200026f823960805181818161026d01528181610b9f0152818161113a015281816114ff01528181611787015281816123d101526126a40152f35b60405162461bcd60e51b81526020600482015260096024820152683d32b9379030b2323960b91b6044820152606490fd5b5082821615156200007f565b5f80fd5b634e487b7160e01b5f52604160045260245ffd5b51906001600160a01b03821682036200013157565b6001600160a01b03165f8181525f8051602062004817833981519152602052604090205460ff16620001c9575f8181525f805160206200481783398151915260205260408120805460ff191660011790553391905f80516020620047f78339815191528180a4600190565b505f90565b6001600160a01b03165f8181527f2412b2af58bf3b93d578a423d333d33fb94fb5093f9cda1aed2eaafb3215f92960205260409020547fd3065a24ad9e7725d223007135762d2902038999e3e5829146654498a58d9795919060ff166200026857815f525f60205260405f20815f5260205260405f20600160ff1982541617905533915f80516020620047f78339815191525f80a4600190565b50505f9056fe608080604052600436101562000013575f80fd5b5f905f3560e01c90816301ffc9a714620027435750806316fe69291462002572578063232e45d714620024f6578063248a9ca314620024c857806326cace8414620024925780632f2ff15d146200244e57806336568abe14620024005780633e413bee14620023ba57806343abd9ea146200239957806357bde446146200232357806361d027b314620022f95780636ad6c25414620022695780637f8a3f8c146200223f578063866fdc43146200221a57806391d1485414620021ce578063a217fddf14620021b2578063aa93f4621462002191578063ae42820c1462002155578063b1283e771462001f96578063bad260f51462001f4d578063cab7cde91462001d5c578063cd2335121462001afa578063d105e1c61462001adb578063d547741f1462001a95578063d65a06b014620015e7578063dffad4e214620013cd578063ea175894146200107d578063eae7424414620006f5578063ec97908214620006d5578063f0f44260146200068a578063f7d334ba14620005955763fb27260b146200019f575f80fd5b346200059257620001b0366200279b565b909291620001bd62002be0565b5f90805f52600560205260405f2091600783015490620001ef60ff8360301c16620001e881620027b6565b1562002c04565b600a840154421015620005635764174876e80087116200053457620002d262000264926127106200026a8a6200026461ffff9484620002318783168562002b6f565b0498856200025a8b976200024b8a8660101c168862002b6f565b0498899460201c168662002b6f565b04998a9462002b07565b62002b07565b947f0000000000000000000000000000000000000000000000000000000000000000916200029b8c30338662002f32565b8062000514575b5080620004f0575b5050620002b8818562002aa6565b620002c96004880191825462002aa6565b90558362002aa6565b620002e36005860191825462002aa6565b905564e8d4a510009182810290808204841490151715620004dc5760028501908154600387015460068801545f926064820282810460641483151715620004dc57949291906200033582848362002f8d565b935f945b603c8610620004865750505050505090620003549162002aa6565b60011c94620003666064871162002c3e565b546001600160a01b0316803b1562000482576040516340c10f1960e01b815233600482015260248101879052905f908290604490829084905af18015620004775762000461575b50620003bb85825462002aa6565b90558187029187830414871517156200044d5750947fa625c3e5e55ecfc87bc129708d56174a230213ded2a553ef566988855bdb1a05916200043b620004078562000446989962002b83565b6040805193845233602085015260019084015260608301939093526080820185905260a082019290925290819060c0820190565b0390a1101562002a36565b6001805580f35b634e487b7160e01b81526011600452602490fd5b6200046e919250620028d6565b5f905f620003ad565b6040513d5f823e3d90fd5b5f80fd5b90919293949562000498888262002aa6565b90600191821c9084620004bd85620002648a8c620004b7888d62002aa6565b62002f8d565b11620004d25750965b01949392919062000339565b97985097620004c6565b634e487b7160e01b5f52601160045260245ffd5b60098801546200050c926001600160a01b039091169062002eeb565b5f80620002aa565b6002546200052d91906001600160a01b03168462002eeb565b5f620002a2565b60405162461bcd60e51b8152602060048201526007602482015266746f6f2062696760c81b6044820152606490fd5b60405162461bcd60e51b8152602060048201526007602482015266195e1c1a5c995960ca1b6044820152606490fd5b80fd5b50346200059257602036600319011262000592576040600435918281526005602052209060ff600783015460301c16620005cf81620027b6565b15918262000676575b8262000666575b8262000647575b506040519060208201526020815260408101918183106001600160401b038411176200063357826040521515825260406060820152603f19906200062e60808201826200299c565b030190f35b634e487b7160e01b5f52604160045260245ffd5b60ff919250600b0154166200065c81620027b6565b1515905f620005e6565b600a8101544210159250620005df565b600e81015460101c60ff16159250620005d8565b5034620005925760203660031901126200059257620006a862002846565b620006b262002c71565b60018060a01b03166bffffffffffffffffffffffff60a01b600254161760025580f35b503462000592578060031936011262000592576020600654604051908152f35b5034620005925761014036600319011262000592576004356001600160401b03811162000eaa576200072c903690600401620029dc565b6024356001600160401b03811162001079576200074e903690600401620029dc565b6044356001600160401b038111620010755762000770903690600401620029dc565b916064356001600160401b038111620010715762000793903690600401620029dc565b916084356001600160401b0381116200106d57620007b6903690600401620029dc565b9360e435916001600160a01b0383168303620004825760036101243510156200106957335f9081527f2412b2af58bf3b93d578a423d333d33fb94fb5093f9cda1aed2eaafb3215f92960205260409020547fd3065a24ad9e7725d223007135762d2902038999e3e5829146654498a58d97959060ff16156200104b57506305f5e10060a435106200101557600654955f19871462001001576001870160065560405161121c93848201908282106001600160401b0383111762000fe25782916200088b91620033179688888639309262002ba2565b039089f095861562000ff65760405193808501938585106001600160401b0386111762000fe25791620008c693918695938639309262002ba2565b039086f094851562000fd65760405163d539139360e01b81526020816004816001600160a01b0389165afa90811562000e9f57829162000f9e575b506001600160a01b0385163b1562000eaa57604051632f2ff15d60e01b815260048101919091523060248201528181604481836001600160a01b038a165af1801562000e9f5790829162000f86575b505060405163282c51f360e01b81526020816004816001600160a01b0389165afa90811562000e9f57829162000f4e575b506001600160a01b0385163b1562000eaa57604051632f2ff15d60e01b815260048101919091523060248201528181604481836001600160a01b038a165af1801562000e9f5790829162000f36575b505060405163d539139360e01b81526020816004816001600160a01b038b165afa90811562000e9f57829162000efe575b506001600160a01b0387163b1562000eaa57604051632f2ff15d60e01b815260048101919091523060248201528181604481836001600160a01b038c165af1801562000e9f5790829162000ee6575b505060405163282c51f360e01b81526020816004816001600160a01b038b165afa90811562000e9f57829162000eae575b506001600160a01b0387163b1562000eaa57604051632f2ff15d60e01b815260048101919091523060248201528181604481836001600160a01b038c165af1801562000e9f5790829162000e87575b5050600185018152600560205260408120916bffffffffffffffffffffffff60a01b60018060a01b038616818554161784556001840160018060a01b038916828254161790556009840190339082541617905583516001600160401b03811162000e735762000b4360088501546200287e565b601f811162000e2a575b50806020601f821160011462000dbe57849162000db2575b508160011b915f199060031b1c19161760088401555b60078301805466ffffffffffffff191664320032006417905562000bc460a43530337f000000000000000000000000000000000000000000000000000000000000000062002f32565b60a435600484015560a435600584015562000be460045460a43562002b6f565b64e8d4a510009081810291818304149015171562000d9e5767099e8db03256ce5d900460068401556040519162000c1b83620028b9565b60c4358352600e602084019460018652604085019360018060a01b0316845260608501838152608086019061010435825260a087019762000c60610124358a6200290c565b60c088019686885260e0890198878a5251600a860155600b850191519062000c8882620027b6565b62000c9382620027b6565b60ff835491610100600160a81b03905160081b169216906affffffffffffffffffffff60a81b161717905551600c83015551600d82015501935190600382101562000d8a57508354915161ffff1990921660ff9091161790151560081b61ff00161782556020957fc0ffde4870f27b1ba7a3b105f766fb21bdd8c783360f6095de8aad77c372aef3949093909262000d749251151562ff000082549160101b169062ff0000191617905560405193849360018801855260018060a01b03168885015260018060a01b0316604084015260a0606084015260a08301906200299c565b60a43560808301520390a1600160405191018152f35b634e487b7160e01b81526021600452602490fd5b634e487b7160e01b83526011600452602483fd5b90508501515f62000b65565b600886018552602085209150601f198316855b81811062000e115750908360019493921062000df8575b5050811b01600884015562000b7b565b8701515f1960f88460031b161c191690555f8062000de8565b9192602060018192868c01518155019401920162000dd1565b60088501845260208420601f830160051c81016020841062000e6b575b601f830160051c8201811062000e5f57505062000b4d565b85815560010162000e47565b508062000e47565b634e487b7160e01b83526041600452602483fd5b62000e9290620028d6565b6200059257805f62000ad0565b6040513d84823e3d90fd5b5080fd5b90506020813d60201162000edd575b8162000ecc60209383620028ea565b810103126200048257515f62000a81565b3d915062000ebd565b62000ef190620028d6565b6200059257805f62000a50565b90506020813d60201162000f2d575b8162000f1c60209383620028ea565b810103126200048257515f62000a01565b3d915062000f0d565b62000f4190620028d6565b6200059257805f620009d0565b90506020813d60201162000f7d575b8162000f6c60209383620028ea565b810103126200048257515f62000981565b3d915062000f5d565b62000f9190620028d6565b6200059257805f62000950565b90506020813d60201162000fcd575b8162000fbc60209383620028ea565b810103126200048257515f62000901565b3d915062000fad565b604051903d90823e3d90fd5b634e487b7160e01b8b52604160045260248bfd5b6040513d8a823e3d90fd5b634e487b7160e01b88526011600452602488fd5b60405162461bcd60e51b815260206004820152600e60248201526d1cd95959081d1bdbc81cdb585b1b60921b6044820152606490fd5b6044906040519063e2517d3f60e01b82523360048301526024820152fd5b8680fd5b8580fd5b8480fd5b8380fd5b8280fd5b503462000592576200108f366200279b565b9092916200109c62002be0565b805f52600560205260405f2090600782015494620010c560ff8760301c16620001e881620027b6565b600a830154421015620005635764174876e800811162000534576200119f6127109661ffff976200111f81620010fe8b85168762002b6f565b04998262001112828660101c168862002b6f565b049360201c168562002b6f565b04976200113789620002648462000264858962002b07565b987f000000000000000000000000000000000000000000000000000000000000000091620011688630338662002f32565b80620013ad575b508062001389575b505062001185818962002aa6565b620011966004870191825462002aa6565b90558762002aa6565b620011b06005850191825462002aa6565b905564e8d4a5100080870296808804821490151715620004dc575f9660038501908154600287015460068801545f926064820282810460641483151715620004dc57949291906200120382848362002f8d565b935f945b603c8610620013395750505050505090620012229162002aa6565b60011c94620012346064871162002c3e565b600101546001600160a01b0316803b1562000482576040516340c10f1960e01b815233600482015260248101879052905f908290604490829084905af18015620004775762001323575b506200128c85825462002aa6565b90558082029082820414821517156200130f57916200043b6200044696979285620012d9817fa625c3e5e55ecfc87bc129708d56174a230213ded2a553ef566988855bdb1a059762002b83565b60408051958652336020870152951515958501959095526060840191909152608083015260a082019290925290819060c0820190565b634e487b7160e01b87526011600452602487fd5b62001330919850620028d6565b5f965f6200127e565b9091929394956200134b888262002aa6565b90600191821c90846200136a85620002648a8c620004b7888d62002aa6565b116200137f5750965b01949392919062001207565b9798509762001373565b6009870154620013a5926001600160a01b039091169062002eeb565b5f8062001177565b600254620013c691906001600160a01b03168462002eeb565b5f6200116f565b50346200059257620013df366200279b565b909291620013ec62002be0565b5f90805f52600560205260405f20916200141560ff600785015460301c16620001e881620027b6565b620014236064871162002c3e565b6002830190815491828811620015b55787926200146f60038701546200146860068901546200145481848762002f8d565b92620004b764e8d4a51000998a9762002b07565b9062002b07565b04946004810180548088116200158457876200148b9162002b07565b9055600581016200149e87825462002b07565b9055546001600160a01b0316803b156200048257604051632770a7eb60e21b8152336004820152602481018a9052905f908290604490829084905af1801562000477576200156e575b50620014f588825462002b07565b90556200152484337f000000000000000000000000000000000000000000000000000000000000000062002eeb565b8184029184830414841517156200044d5750947f1d161b920c72af3bceacd767e1ddf575296be054b91f3f47954d4fa62e0ea792916200043b620004078362000446989962002b83565b6200157b919250620028d6565b5f905f620014e7565b60405162461bcd60e51b81526020600482015260096024820152681a5b9cdbdb1d995b9d60ba1b6044820152606490fd5b60405162461bcd60e51b815260206004820152600a6024820152690dcdee840cadcdeeaced60b31b6044820152606490fd5b50346200048257620015f9366200285d565b906200160462002be0565b805f526020906005825260405f209260ff600785015460301c16936200162a85620027b6565b60018095148062001a83575b1562001a4f5760ff600e82015460081c1615158215150362001a22578115620019ac5780546040516370a0823160e01b8152336004820152908590829060249082906001600160a01b03165afa90811562000477575f9162001979575b505b80156200194a576004908315620018d65782546040516318160ddd60e01b815292879184919082906001600160a01b03165afa8015620004775788925f916200189f575b50925b620016f86004820194620016f286548562002b6f565b62002b83565b9415620017e057546001600160a01b0316803b156200107957604051632770a7eb60e21b8152336004820152602481019290925282908290604490829084905af1801562000e9f57620017c2575b5050907fa18626381edd3d7a115c4a09f678bb79665034a541affcdba9fe65a1d3d107ee93606093925b6200177d83825462002b07565b9055620017ac82337f000000000000000000000000000000000000000000000000000000000000000062002eeb565b60405192835233908301526040820152a1805580f35b620017d19094939294620028d6565b6200106d579091855f62001746565b870154949593949091506001600160a01b0316803b156200048257604051632770a7eb60e21b815233600482015260248101929092525f908290604490829084905af1801562000477576200185e575b50917fa18626381edd3d7a115c4a09f678bb79665034a541affcdba9fe65a1d3d107ee939160609362001770565b60609391965091620018927fa18626381edd3d7a115c4a09f678bb79665034a541affcdba9fe65a1d3d107ee9593620028d6565b5f96919350919362001830565b809350878092503d8311620018ce575b620018bb8183620028ea565b8101031262000482578791515f620016d9565b503d620018af565b828701546040516318160ddd60e01b815292879184919082906001600160a01b03165afa8015620004775788925f9162001913575b5092620016dc565b809350878092503d831162001942575b6200192f8183620028ea565b8101031262000482578791515f6200190b565b503d62001923565b60405162461bcd60e51b81526004810186905260076024820152666e6f7468696e6760c81b6044820152606490fd5b90508481813d8311620019a4575b620019938183620028ea565b810103126200048257515f62001693565b503d62001987565b808501546040516370a0823160e01b8152336004820152908590829060249082906001600160a01b03165afa90811562000477575f91620019ef575b5062001695565b90508481813d831162001a1a575b62001a098183620028ea565b810103126200048257515f620019e8565b503d620019fd565b60405162461bcd60e51b81526004810185905260056024820152643637b9b2b960d91b6044820152606490fd5b60405162461bcd60e51b815260048101859052600c60248201526b1b9bdd081c995cdbdb1d995960a21b6044820152606490fd5b5060ff600e82015460101c1662001636565b3462000482576040366003190112620004825762001ad960043562001ab96200282f565b90805f525f60205262001ad3600160405f20015462002cc8565b62002d67565b005b3462000482575f36600319011262000482576020600454604051908152f35b34620004825760203660031901126200048257600435805f52600560205260405f2090600e820190815460ff8160101c1662001d245760049062001b45600a86015442101562002ab4565b600b850154604051633fabe5a360e21b81529260a091849190829060081c6001600160a01b03165afa801562000477575f925f9162001cbe575b5062001b8f610e10914262002b07565b101562001c8a57600d85015460ff928181131562001c3357505016600381101562001c1f575f80516020620045338339815191529360079115935b805461ff00191685151560081b61ff0016178155805462ff000019166201000017905501805466ff0000000000001916660100000000000017905560408051918252911515602082015290819081015b0390a1005b634e487b7160e01b5f52602160045260245ffd5b121562001c635716600381101562001c1f575f8051602062004533833981519152936001600792145b9362001bca565b16600381101562001c1f575f80516020620045338339815191529360026007921462001c5c565b60405162461bcd60e51b815260206004820152600c60248201526b7374616c65206f7261636c6560a01b6044820152606490fd5b92505060a0823d60a01162001d1b575b8162001cdd60a09383620028ea565b81010312620004825762001cf18262002aef565b50610e1062001b8f602084015162001d1160806060870151960162002aef565b5093915062001b7f565b3d915062001cce565b60405162461bcd60e51b815260206004820152601060248201526f185b1c9958591e481c995cdbdb1d995960821b6044820152606490fd5b346200048257604036600319011262000482576004356024359060018060a01b03600354163314801562001f15575b1562001ee157805f52600560205260405f2090600782019260ff845460301c1662001db681620027b6565b158062001ece575b62001dc99062002a6e565b62001ddb600a84015442101562002ab4565b600d830154908181111562001e6957505060ff600e8301541692600384101562001c1f57600e5f80516020620045338339815191529415935b01805461ff00191684151560081b61ff0016178155805462ff0000191662010000179055805466ff00000000000019166601000000000000179055604080519182529115156020820152908190810162001c1a565b101562001ea05760ff600e8301541692600384101562001c1f57600e60015f805160206200453383398151915295145b9362001e14565b60ff600e8301541692600384101562001c1f57600e60025f8051602062004533833981519152951462001e99565b50600e83015460101c60ff161562001dbe565b60405162461bcd60e51b815260206004820152600c60248201526b1d5b985d5d1a1bdc9a5e995960a21b6044820152606490fd5b50335f9081527fad3228b676f7d3cd4284a5443f17f1962b36e491b30a40b2405849e597ba5fb5602052604090205460ff1662001d8b565b3462000482576020366003190112620004825762001f6a62002846565b62001f7462002c71565b600380546001600160a01b0319166001600160a01b0392909216919091179055005b346200048257602036600319011262000482576004355f52600560205260405f2060018060a01b038154169060018060a01b03600182015416906002810154600382015460048301546005840154600685015490600786015492604051945f600889015462002005816200287e565b8089529060018116908115620021315750600114620020ef575b509360409a9360ff93620020d89793620020428a620020eb9c9b990389620028ea565b60098c01546001600160a01b03169b6200205f90600a0162002919565b998e519e8f9e8f906102a09a82526020820152015260608d015260808c015260a08b015260c08a015261ffff811660e08a015261ffff8160101c166101008a015261ffff8160201c166101208a0152620020be828260301c16620027b6565b60301c16610140880152806101608801528601906200299c565b926101808501526101a0840190620027c1565b0390f35b9050600889015f5260205f20905f915b81831062002116575050860160200160406200201f565b6001816020929493945483858d0101520191019190620020ff565b60ff19166020808b019190915291151560051b89019091019150604090506200201f565b3462000482575f366003190112620004825760206040517fd3065a24ad9e7725d223007135762d2902038999e3e5829146654498a58d97958152f35b3462000482575f3660031901126200048257602060405164e8d4a510008152f35b3462000482575f366003190112620004825760206040515f8152f35b34620004825760403660031901126200048257620021eb6200282f565b6004355f525f60205260405f209060018060a01b03165f52602052602060ff60405f2054166040519015158152f35b346200048257602036600319011262000482576200223762002c71565b600480359055005b3462000482575f36600319011262000482576003546040516001600160a01b039091168152602090f35b346200048257602036600319011262000482576004355f5260056020526020620022f160405f20620022ea620022e3620022da620022d3620022cd600286015460036006880154948592620022d3620022cd670de0b6b3a764000098899362002dda565b62002b15565b0462002e04565b97015462002dda565b8262002aa6565b9062002dda565b604051908152f35b3462000482575f36600319011262000482576002546040516001600160a01b039091168152602090f35b3462000482575f805160206200453383398151915262002343366200285d565b906200234e62002c71565b805f52600560205260405f20600e600782019160ff835460301c166200237481620027b6565b158062002387575b62001e149062002a6e565b508082015460101c60ff16156200237c565b3462000482575f3660031901126200048257602060405164174876e8008152f35b3462000482575f36600319011262000482576040517f00000000000000000000000000000000000000000000000000000000000000006001600160a01b03168152602090f35b346200048257604036600319011262000482576200241d6200282f565b336001600160a01b038216036200243c5762001ad99060043562002d67565b60405163334bd91960e11b8152600490fd5b3462000482576040366003190112620004825762001ad9600435620024726200282f565b90805f525f6020526200248c600160405f20015462002cc8565b62002cea565b34620004825760403660031901126200048257620024af62002c71565b6004355f526005602052602435600c60405f2001555f80f35b346200048257602036600319011262000482576004355f525f6020526020600160405f200154604051908152f35b346200048257602036600319011262000482575f60e06040516200251a81620028b9565b8281528260208201528260408201528260608201528260808201528260a08201528260c082015201526004355f52600560205261010062002561600a60405f200162002919565b620025706040518092620027c1565bf35b34620004825762002583366200279b565b90916200258f62002be0565b805f52600560205260405f2090620025b660ff600784015460301c16620001e881620027b6565b620025c46064851162002c3e565b5f9360038301805490818311620015b5578291620026116002870154620014686006890154620025f681868562002f8d565b926200260a64e8d4a5100098899762002b07565b9062002f8d565b04946004810180548088116200158457876200262d9162002b07565b9055600581016200264087825462002b07565b9055600101546001600160a01b0316803b156200048257604051632770a7eb60e21b815233600482015260248101859052905f908290604490829084905af1801562000477576200272d575b506200269a83825462002b07565b9055620026c984337f000000000000000000000000000000000000000000000000000000000000000062002eeb565b8084029084820414841517156200271957916200043b8285620012d96200271399957f1d161b920c72af3bceacd767e1ddf575296be054b91f3f47954d4fa62e0ea7929762002b83565b60018055005b634e487b7160e01b86526011600452602486fd5b6200273a919750620028d6565b5f95876200268c565b346200048257602036600319011262000482576004359063ffffffff60e01b82168092036200048257602091637965db0b60e01b811490811562002789575b5015158152f35b6301ffc9a760e01b1490508362002782565b60609060031901126200048257600435906024359060443590565b6002111562001c1f57565b805182526020810151620027d581620027b6565b60208301526040818101516001600160a01b031690830152606080820151908301526080808201519083015260a0810151600381101562001c1f5760e091829160a085015260c0810151151560c085015201511515910152565b602435906001600160a01b03821682036200048257565b600435906001600160a01b03821682036200048257565b60409060031901126200048257600435906024358015158103620004825790565b90600182811c92168015620028ae575b60208310146200289a57565b634e487b7160e01b5f52602260045260245ffd5b91607f16916200288e565b61010081019081106001600160401b038211176200063357604052565b6001600160401b0381116200063357604052565b90601f801991011681019081106001600160401b038211176200063357604052565b600382101562001c1f5752565b906040516200292881620028b9565b60e060ff600483958054855260018101548381166200294781620027b6565b602087015260081c6001600160a01b03166040860152600281015460608601526003810154608086015201546200298482821660a086016200290c565b818160081c16151560c085015260101c161515910152565b91908251928382525f5b848110620029c7575050825f602080949584010152601f8019910116010190565b602081830181015184830182015201620029a6565b81601f8201121562000482578035906001600160401b03821162000633576040519262002a14601f8401601f191660200185620028ea565b828452602083830101116200048257815f926020809301838601378301015290565b1562002a3e57565b60405162461bcd60e51b8152602060048201526008602482015267736c69707061676560c01b6044820152606490fd5b1562002a7657565b60405162461bcd60e51b81526020600482015260086024820152671c995cdbdb1d995960c21b6044820152606490fd5b91908201809211620004dc57565b1562002abc57565b60405162461bcd60e51b815260206004820152600b60248201526a1b9bdd08195e1c1a5c995960aa1b6044820152606490fd5b519069ffffffffffffffffffff821682036200048257565b91908203918211620004dc57565b906714057b7ef767814f91828102928184041490151715620004dc57565b9067099e8db03256ce5d91828102928184041490151715620004dc57565b90670de0b6b3a764000091828102928184041490151715620004dc57565b81810292918115918404141715620004dc57565b811562002b8e570490565b634e487b7160e01b5f52601260045260245ffd5b9162002bd09062002bc16040939695966060865260608601906200299c565b9084820360208601526200299c565b6001600160a01b03909416910152565b60026001541462002bf2576002600155565b604051633ee5aeb560e01b8152600490fd5b1562002c0c57565b60405162461bcd60e51b815260206004820152600a6024820152696e6f742061637469766560b01b6044820152606490fd5b1562002c4657565b606460405162461bcd60e51b8152602060048201526004602482015263191d5cdd60e21b6044820152fd5b335f9081527fad3228b676f7d3cd4284a5443f17f1962b36e491b30a40b2405849e597ba5fb5602052604090205460ff161562002caa57565b60405163e2517d3f60e01b81523360048201525f6024820152604490fd5b805f525f60205260405f20335f5260205260ff60405f205416156200104b5750565b90815f525f60205260405f209060018060a01b031690815f5260205260ff60405f205416155f1462002d6157815f525f60205260405f20815f5260205260405f20600160ff1982541617905533917f2f8788117e7eff1d82e926ec794901d17c78024a50270940304540a733656f0d5f80a4600190565b50505f90565b90815f525f60205260405f209060018060a01b031690815f5260205260ff60405f2054165f1462002d6157815f525f60205260405f20815f5260205260405f2060ff19815416905533917ff6391f5c32d9c69d2a47ea670b442974b53935d1edc7fd64eb21e047a839171b5f80a4600190565b90670de0b6b3a764000091828102928184041490151715620004dc5762002e019162002b83565b90565b680a688906bd8b000000811162002eb657670de0b6b3a7640000808162002e2d81850662002b33565b049060019182916001935b62002e5a575b505050506001670de0b6b3a764000062002e0193041b62002b6f565b60ff949192939490818616906014821162002eab5762002ea162002e9986959493670de0b6b3a764000062002e928a998a9662002b6f565b0462002b83565b809462002aa6565b9601169362002e38565b505081945062002e3e565b60405162461bcd60e51b815260206004820152600d60248201526c65787032206f766572666c6f7760981b6044820152606490fd5b60405163a9059cbb60e01b60208201526001600160a01b0392909216602483015260448083019390935291815262002f309162002f2a606483620028ea565b620032b8565b565b6040516323b872dd60e01b60208201526001600160a01b03928316602482015292909116604483015260648083019390935291815260a08101918183106001600160401b03841117620006335762002f3092604052620032b8565b9190670de0b6b3a76400009283810290808204851490151715620004dc5783620022d3620022cd8562002fc09462002b83565b83820291808304851490151715620004dc5762002feb84620022d3620022cd8662002ff29662002b83565b9062002aa6565b9081156200328d575f91806503782dace9d960921b81101562003275575b506503782dace9d960521b81101562003256575b6b0de0b6b3a76400000000000081101562003237575b690de0b6b3a7640000000081101562003219575b680de0b6b3a764000000811015620031fb575b67de0b6b3a76400000811015620031dd575b673782dace9d900000811015620031bf575b671bc16d674ec80000811015620031a9575b670de0b6b3a763ffff19810190808211620004dc57848101809111620004dc57620030c29162002dda565b83620030cf828062002b6f565b04600385620030de8362002b51565b0404850191828611620004dc576200315c6200312e6009886200312e8162003155886200314e836200313e8362003137839f620031639f8580620031258360059462002b6f565b049e8f62002b51565b04049062002aa6565b9a62002b6f565b04976007856200312e8b62002b51565b9662002b6f565b0462002b51565b9062002b6f565b0467280af6fdeecf02a090818102918183041490151715620004dc576200319d62003197620031a594868094049062002aa6565b62002b33565b049062002b6f565b0490565b91838101809111620004dc579160011c62003097565b60021c91671bc16d674ec800008101809111620004dc579162003085565b60041c91673782dace9d9000008101809111620004dc579162003073565b60081c91676f05b59d3b2000008101809111620004dc579162003061565b60101c9167de0b6b3a764000008101809111620004dc57916200304e565b60201c916801bc16d674ec8000008101809111620004dc57916200303a565b60401c916803782dace9d90000008101809111620004dc579162003024565b6806f05b59d3b2000000935060801c90505f62003010565b60405162461bcd60e51b815260206004820152600360248201526206c6e360ec1b6044820152606490fd5b905f602091828151910182855af11562000477575f513d6200330c57506001600160a01b0381163b155b620032ea5750565b604051635274afe760e01b81526001600160a01b039091166004820152602490fd5b60011415620032e256fe60806040523462000344576200121c803803806200001d8162000348565b9283398101606082820312620003445781516001600160401b0391908281116200034457816200004f9185016200036e565b916020918285015182811162000344576040916200006f9187016200036e565b940151926001600160a01b038416840362000344578051908282116200024f576003918254906001928383811c9316801562000339575b8784101462000325578190601f93848111620002d2575b5087908483116001146200026f575f9262000263575b50505f1982861b1c191690831b1783555b86519384116200024f5760049485548381811c9116801562000244575b828210146200023157828111620001e9575b50809185116001146200017d5750839291839162000160985f9562000171575b50501b925f19911b1c19161790555b6200014d81620003de565b5062000159816200044e565b50620004ef565b50604051610c5190816200058b8239f35b015193505f8062000133565b91939290601f19841697865f52835f20935f905b8a8210620001d157505084620001609910620001b7575b50505050811b01905562000142565b01519060f8845f19921b161c191690555f808080620001a8565b80888597829496860151815501960193019062000191565b865f52815f208380880160051c82019284891062000227575b0160051c019084905b8281106200021b57505062000113565b5f81550184906200020b565b9250819262000202565b602287634e487b7160e01b5f525260245ffd5b90607f169062000101565b634e487b7160e01b5f52604160045260245ffd5b015190505f80620000d3565b90859350601f19831691875f52895f20925f5b8b828210620002bb5750508411620002a3575b505050811b018355620000e4565b01515f1983881b60f8161c191690555f808062000295565b838501518655899790950194938401930162000282565b909150855f52875f208480850160051c8201928a86106200031b575b918791869594930160051c01915b8281106200030c575050620000bd565b5f8155859450879101620002fc565b92508192620002ee565b634e487b7160e01b5f52602260045260245ffd5b92607f1692620000a6565b5f80fd5b6040519190601f01601f191682016001600160401b038111838210176200024f57604052565b919080601f84011215620003445782516001600160401b0381116200024f57602090620003a4601f8201601f1916830162000348565b9281845282828701011162000344575f5b818110620003ca5750825f9394955001015290565b8581018301518482018401528201620003b5565b6001600160a01b03165f8181525f80516020620011fc833981519152602052604090205460ff1662000449575f8181525f80516020620011fc83398151915260205260408120805460ff191660011790553391905f80516020620011dc8339815191528180a4600190565b505f90565b6001600160a01b03165f8181527f15a28d26fa1bf736cf7edc9922607171ccb09c3c73b808e7772a3013e068a52260205260409020547f9f2df0fed2c77648de5860a4cc508cd0818c85b8b8a1ab4ceeef8d981c8956a6919060ff16620004e957815f52600560205260405f20815f5260205260405f20600160ff1982541617905533915f80516020620011dc8339815191525f80a4600190565b50505f90565b6001600160a01b03165f8181527f847f481f687befb06ed3511f1a8dcef57e83007c0147ae5047583d705617093760205260409020547f3c11d16cbaffd01df69ce1c404f6340ee057498f5f00246190ea54220576a848919060ff16620004e957815f52600560205260405f20815f5260205260405f20600160ff1982541617905533915f80516020620011dc8339815191525f80a460019056fe6080604090808252600480361015610015575f80fd5b5f3560e01c91826301ffc9a71461094a5750816306fdde031461086f578163095ea7b3146107c757816318160ddd146107a957816323b872dd146106b7578163248a9ca31461068d578163282c51f3146106535781632f2ff15d1461062b578163313ce5671461061057816336568abe146105cc57816340c10f19146104ca57816370a082311461049457816391d148541461045057816395d89b41146103315781639dc29fac14610208578163a217fddf146101ee578163a9059cbb146101be578163d539139314610184578163d547741f14610148575063dd62ed3e146100fc575f80fd5b346101445780600319360112610144576020906101176109e3565b61011f6109f9565b9060018060a01b038091165f5260018452825f2091165f528252805f20549051908152f35b5f80fd5b8234610144578060031936011261014457610182913561017d600161016b6109f9565b93835f5260056020525f200154610ae9565b610ba7565b005b8234610144575f36600319011261014457602090517f9f2df0fed2c77648de5860a4cc508cd0818c85b8b8a1ab4ceeef8d981c8956a68152f35b82346101445780600319360112610144576020906101e76101dd6109e3565b6024359033610a0f565b5160018152f35b8234610144575f36600319011261014457602090515f8152f35b82346101445780600319360112610144576102216109e3565b90602435927f3c11d16cbaffd01df69ce1c404f6340ee057498f5f00246190ea54220576a848805f526005602052825f20335f5260205260ff835f2054161561031657506001600160a01b03831692831561030057835f525f602052825f2054918583106102cc575f857fddf252ad1be2c89b69c2b068fc378daa952ba7f163c4a11628f55a4df523b3ef6020898881898688528785520381872055816002540360025551908152a3005b835163391434e360e21b81526001600160a01b03909216908201908152602081018390526040810186905281906060010390fd5b505f6024925191634b637e8f60e11b8352820152fd5b604492519163e2517d3f60e01b835233908301526024820152fd5b8234610144575f366003190112610144578051905f835460018160011c9060018316928315610446575b60209384841081146104335783885290811561041757506001146103c3575b505050829003601f01601f191682019267ffffffffffffffff8411838510176103b057508291826103ac92528261099c565b0390f35b604190634e487b7160e01b5f525260245ffd5b5f878152929350837f8a35acfbc15ff81a39ae7d344fd709f28e8600b4aa8c65c6b64bfe7fe36bd19b5b838510610403575050505083010184808061037a565b8054888601830152930192849082016103ed565b60ff1916878501525050151560051b840101905084808061037a565b602289634e487b7160e01b5f525260245ffd5b91607f169161035b565b823461014457806003193601126101445760209161046c6109f9565b90355f5260058352815f209060018060a01b03165f52825260ff815f20541690519015158152f35b8234610144576020366003190112610144576020906001600160a01b036104b96109e3565b165f525f8252805f20549051908152f35b82346101445780600319360112610144576104e36109e3565b90602435917f9f2df0fed2c77648de5860a4cc508cd0818c85b8b8a1ab4ceeef8d981c8956a6805f526005602052825f20335f5260205260ff835f205416156105ae57506001600160a01b0316928315610599576002549083820180921161058657505f927fddf252ad1be2c89b69c2b068fc378daa952ba7f163c4a11628f55a4df523b3ef9260209260025585855284835280852082815401905551908152a3005b601190634e487b7160e01b5f525260245ffd5b5f602492519163ec442f0560e01b8352820152fd5b825163e2517d3f60e01b815233818701526024810191909152604490fd5b82346101445780600319360112610144576105e56109f9565b90336001600160a01b0383160361060157506101829135610ba7565b5163334bd91960e11b81529050fd5b8234610144575f366003190112610144576020905160128152f35b8234610144578060031936011261014457610182913561064e600161016b6109f9565b610b29565b8234610144575f36600319011261014457602090517f3c11d16cbaffd01df69ce1c404f6340ee057498f5f00246190ea54220576a8488152f35b823461014457602036600319011261014457602091355f52600582526001815f2001549051908152f35b905034610144576060366003190112610144576106d26109e3565b6106da6109f9565b906044359260018060a01b038216805f526001602052855f20335f52602052855f2054915f198310610715575b6020876101e7888888610a0f565b85831061077d57811561076757331561075157505f908152600160209081528682203383528152908690209185900390915582906101e7610707565b6024905f885191634a1406b160e11b8352820152fd5b6024905f88519163e602df0560e01b8352820152fd5b8651637dc7a0d960e11b8152339181019182526020820193909352604081018690528291506060010390fd5b8234610144575f366003190112610144576020906002549051908152f35b82346101445780600319360112610144576107e06109e3565b602435903315610859576001600160a01b03169081156108435760209350335f5260018452825f20825f52845280835f205582519081527f8c5be1e5ebec7d5bd14f71427d1e84f3dd0314c0f7b2291e5b200ac8c7c3b925843392a35160018152f35b8251634a1406b160e11b81525f81860152602490fd5b825163e602df0560e01b81525f81860152602490fd5b8234610144575f366003190112610144578051905f60035460018160011c9060018316928315610940575b60209384841081146104335783885290811561041757506001146108ea57505050829003601f01601f191682019267ffffffffffffffff8411838510176103b057508291826103ac92528261099c565b60035f908152929350837fc2575a0e9e593c00f959f8c92f12db2869c3395a3b0502d05e2516446f71f85b5b83851061092c575050505083010184808061037a565b805488860183015293019284908201610916565b91607f169161089a565b903461014457602036600319011261014457359063ffffffff60e01b821680920361014457602091637965db0b60e01b811490811561098b575b5015158152f35b6301ffc9a760e01b14905083610984565b602080825282518183018190529093925f5b8281106109cf57505060409293505f838284010152601f8019910116010190565b8181018601518482016040015285016109ae565b600435906001600160a01b038216820361014457565b602435906001600160a01b038216820361014457565b916001600160a01b03808416928315610ad15716928315610ab957825f525f60205260405f205490828210610a875750817fddf252ad1be2c89b69c2b068fc378daa952ba7f163c4a11628f55a4df523b3ef92602092855f525f84520360405f2055845f5260405f20818154019055604051908152a3565b60405163391434e360e21b81526001600160a01b03919091166004820152602481019190915260448101829052606490fd5b60405163ec442f0560e01b81525f6004820152602490fd5b604051634b637e8f60e11b81525f6004820152602490fd5b805f52600560205260405f20335f5260205260ff60405f20541615610b0b5750565b6044906040519063e2517d3f60e01b82523360048301526024820152fd5b90815f52600560205260405f209060018060a01b031690815f5260205260ff60405f205416155f14610ba157815f52600560205260405f20815f5260205260405f20600160ff1982541617905533917f2f8788117e7eff1d82e926ec794901d17c78024a50270940304540a733656f0d5f80a4600190565b50505f90565b90815f52600560205260405f209060018060a01b031690815f5260205260ff60405f2054165f14610ba157815f52600560205260405f20815f5260205260405f2060ff19815416905533917ff6391f5c32d9c69d2a47ea670b442974b53935d1edc7fd64eb21e047a839171b5f80a460019056fea26469706673582212200c62ad0a1f56993b13835296f6d4c0d5c0c29af4a4a294165844354969fa217464736f6c634300081800332f8788117e7eff1d82e926ec794901d17c78024a50270940304540a733656f0d05b8ccbb9d4d8fb16ea74ce3c29a41f1b461fbdaff4714a0d9a8eb05499746bc4927fe38919783250023d27e65a3e56b6b5c3e49364e51674a41ef08d62460d9a26469706673582212201d82e8fc9664b61cf2fe52babd5c64a7aa52ed06e26ae384dbb5a37315cf3aaa64736f6c634300081800332f8788117e7eff1d82e926ec794901d17c78024a50270940304540a733656f0dad3228b676f7d3cd4284a5443f17f1962b36e491b30a40b2405849e597ba5fb5","linkReferences":{}},"methodIdentifiers":{"DEFAULT_ADMIN_ROLE()":"a217fddf","MARKET_CREATOR_ROLE()":"ae42820c","MAX_USDC_PER_TRADE()":"43abd9ea","USDC_TO_E18()":"aa93f462","buyNo(uint256,uint256,uint256)":"ea175894","buyYes(uint256,uint256,uint256)":"fb27260b","chainlinkResolver()":"7f8a3f8c","checkUpkeep(uint256)":"f7d334ba","createMarket(string,string,string,string,string,uint256,uint256,address,uint256,uint8)":"eae74244","getMarketResolution(uint256)":"232e45d7","getRoleAdmin(bytes32)":"248a9ca3","grantRole(bytes32,address)":"2f2ff15d","hasRole(bytes32,address)":"91d14854","liquidityMultiplierE18()":"d105e1c6","marketCount()":"ec979082","markets(uint256)":"b1283e77","redeem(uint256,bool)":"d65a06b0","renounceRole(bytes32,address)":"36568abe","resolveMarket(uint256,bool)":"57bde446","resolveMarketWithPrice(uint256,uint256)":"cab7cde9","resolveWithFeed(uint256)":"cd233512","revokeRole(bytes32,address)":"d547741f","sellNo(uint256,uint256,uint256)":"16fe6929","sellYes(uint256,uint256,uint256)":"dffad4e2","setChainlinkResolver(address)":"bad260f5","setLiquidityMultiplier(uint256)":"866fdc43","setPriceFeedId(uint256,bytes32)":"26cace84","setTreasury(address)":"f0f44260","spotPriceYesE18(uint256)":"6ad6c254","supportsInterface(bytes4)":"01ffc9a7","treasury()":"61d027b3","usdc()":"3e413bee"},"id":35}