{
  "_format": "hh-sol-artifact-1",
  "contractName": "MockUSDC",
  "sourceName": "contracts/src/MockUSDC.sol",
  "abi": [
    {
      "inputs": [],
      "stateMutability": "nonpayable",
      "type": "constructor"
    },
    {
      "inputs": [
        {
          "internalType": "address",
          "name": "spender",
          "type": "address"
        },
        {
          "internalType": "uint256",
          "name": "allowance",
          "type": "uint256"
        },
        {
          "internalType": "uint256",
          "name": "needed",
          "type": "uint256"
        }
      ],
      "name": "ERC20InsufficientAllowance",
      "type": "error"
    },
    {
      "inputs": [
        {
          "internalType": "address",
          "name": "sender",
          "type": "address"
        },
        {
          "internalType": "uint256",
          "name": "balance",
          "type": "uint256"
        },
        {
          "internalType": "uint256",
          "name": "needed",
          "type": "uint256"
        }
      ],
      "name": "ERC20InsufficientBalance",
      "type": "error"
    },
    {
      "inputs": [
        {
          "internalType": "address",
          "name": "approver",
          "type": "address"
        }
      ],
      "name": "ERC20InvalidApprover",
      "type": "error"
    },
    {
      "inputs": [
        {
          "internalType": "address",
          "name": "receiver",
          "type": "address"
        }
      ],
      "name": "ERC20InvalidReceiver",
      "type": "error"
    },
    {
      "inputs": [
        {
          "internalType": "address",
          "name": "sender",
          "type": "address"
        }
      ],
      "name": "ERC20InvalidSender",
      "type": "error"
    },
    {
      "inputs": [
        {
          "internalType": "address",
          "name": "spender",
          "type": "address"
        }
      ],
      "name": "ERC20InvalidSpender",
      "type": "error"
    },
    {
      "inputs": [
        {
          "internalType": "address",
          "name": "owner",
          "type": "address"
        }
      ],
      "name": "OwnableInvalidOwner",
      "type": "error"
    },
    {
      "inputs": [
        {
          "internalType": "address",
          "name": "account",
          "type": "address"
        }
      ],
      "name": "OwnableUnauthorizedAccount",
      "type": "error"
    },
    {
      "anonymous": false,
      "inputs": [
        {
          "indexed": true,
          "internalType": "address",
          "name": "owner",
          "type": "address"
        },
        {
          "indexed": true,
          "internalType": "address",
          "name": "spender",
          "type": "address"
        },
        {
          "indexed": false,
          "internalType": "uint256",
          "name": "value",
          "type": "uint256"
        }
      ],
      "name": "Approval",
      "type": "event"
    },
    {
      "anonymous": false,
      "inputs": [
        {
          "indexed": true,
          "internalType": "address",
          "name": "minter",
          "type": "address"
        }
      ],
      "name": "MinterAdded",
      "type": "event"
    },
    {
      "anonymous": false,
      "inputs": [
        {
          "indexed": true,
          "internalType": "address",
          "name": "minter",
          "type": "address"
        }
      ],
      "name": "MinterRemoved",
      "type": "event"
    },
    {
      "anonymous": false,
      "inputs": [
        {
          "indexed": true,
          "internalType": "address",
          "name": "previousOwner",
          "type": "address"
        },
        {
          "indexed": true,
          "internalType": "address",
          "name": "newOwner",
          "type": "address"
        }
      ],
      "name": "OwnershipTransferred",
      "type": "event"
    },
    {
      "anonymous": false,
      "inputs": [
        {
          "indexed": true,
          "internalType": "address",
          "name": "speculateCore",
          "type": "address"
        }
      ],
      "name": "SpeculateCoreSet",
      "type": "event"
    },
    {
      "anonymous": false,
      "inputs": [
        {
          "indexed": true,
          "internalType": "address",
          "name": "from",
          "type": "address"
        },
        {
          "indexed": true,
          "internalType": "address",
          "name": "to",
          "type": "address"
        },
        {
          "indexed": false,
          "internalType": "uint256",
          "name": "value",
          "type": "uint256"
        }
      ],
      "name": "Transfer",
      "type": "event"
    },
    {
      "inputs": [
        {
          "internalType": "address",
          "name": "minter",
          "type": "address"
        }
      ],
      "name": "addMinter",
      "outputs": [],
      "stateMutability": "nonpayable",
      "type": "function"
    },
    {
      "inputs": [
        {
          "internalType": "address",
          "name": "owner",
          "type": "address"
        },
        {
          "internalType": "address",
          "name": "spender",
          "type": "address"
        }
      ],
      "name": "allowance",
      "outputs": [
        {
          "internalType": "uint256",
          "name": "",
          "type": "uint256"
        }
      ],
      "stateMutability": "view",
      "type": "function"
    },
    {
      "inputs": [
        {
          "internalType": "address",
          "name": "spender",
          "type": "address"
        },
        {
          "internalType": "uint256",
          "name": "value",
          "type": "uint256"
        }
      ],
      "name": "approve",
      "outputs": [
        {
          "internalType": "bool",
          "name": "",
          "type": "bool"
        }
      ],
      "stateMutability": "nonpayable",
      "type": "function"
    },
    {
      "inputs": [
        {
          "internalType": "address",
          "name": "account",
          "type": "address"
        }
      ],
      "name": "balanceOf",
      "outputs": [
        {
          "internalType": "uint256",
          "name": "",
          "type": "uint256"
        }
      ],
      "stateMutability": "view",
      "type": "function"
    },
    {
      "inputs": [
        {
          "internalType": "address",
          "name": "from",
          "type": "address"
        },
        {
          "internalType": "uint256",
          "name": "amount",
          "type": "uint256"
        }
      ],
      "name": "burn",
      "outputs": [],
      "stateMutability": "nonpayable",
      "type": "function"
    },
    {
      "inputs": [],
      "name": "decimals",
      "outputs": [
        {
          "internalType": "uint8",
          "name": "",
          "type": "uint8"
        }
      ],
      "stateMutability": "pure",
      "type": "function"
    },
    {
      "inputs": [],
      "name": "directCore",
      "outputs": [
        {
          "internalType": "address",
          "name": "",
          "type": "address"
        }
      ],
      "stateMutability": "view",
      "type": "function"
    },
    {
      "inputs": [
        {
          "internalType": "address",
          "name": "to",
          "type": "address"
        },
        {
          "internalType": "uint256",
          "name": "amount",
          "type": "uint256"
        }
      ],
      "name": "mint",
      "outputs": [],
      "stateMutability": "nonpayable",
      "type": "function"
    },
    {
      "inputs": [
        {
          "internalType": "address",
          "name": "",
          "type": "address"
        }
      ],
      "name": "minters",
      "outputs": [
        {
          "internalType": "bool",
          "name": "",
          "type": "bool"
        }
      ],
      "stateMutability": "view",
      "type": "function"
    },
    {
      "inputs": [],
      "name": "name",
      "outputs": [
        {
          "internalType": "string",
          "name": "",
          "type": "string"
        }
      ],
      "stateMutability": "view",
      "type": "function"
    },
    {
      "inputs": [],
      "name": "owner",
      "outputs": [
        {
          "internalType": "address",
          "name": "",
          "type": "address"
        }
      ],
      "stateMutability": "view",
      "type": "function"
    },
    {
      "inputs": [
        {
          "internalType": "address",
          "name": "minter",
          "type": "address"
        }
      ],
      "name": "removeMinter",
      "outputs": [],
      "stateMutability": "nonpayable",
      "type": "function"
    },
    {
      "inputs": [],
      "name": "renounceOwnership",
      "outputs": [],
      "stateMutability": "nonpayable",
      "type": "function"
    },
    {
      "inputs": [
        {
          "internalType": "address",
          "name": "_directCore",
          "type": "address"
        }
      ],
      "name": "setDirectCore",
      "outputs": [],
      "stateMutability": "nonpayable",
      "type": "function"
    },
    {
      "inputs": [
        {
          "internalType": "address",
          "name": "_speculateCore",
          "type": "address"
        }
      ],
      "name": "setSpeculateCore",
      "outputs": [],
      "stateMutability": "nonpayable",
      "type": "function"
    },
    {
      "inputs": [],
      "name": "speculateCore",
      "outputs": [
        {
          "internalType": "address",
          "name": "",
          "type": "address"
        }
      ],
      "stateMutability": "view",
      "type": "function"
    },
    {
      "inputs": [],
      "name": "symbol",
      "outputs": [
        {
          "internalType": "string",
          "name": "",
          "type": "string"
        }
      ],
      "stateMutability": "view",
      "type": "function"
    },
    {
      "inputs": [],
      "name": "totalSupply",
      "outputs": [
        {
          "internalType": "uint256",
          "name": "",
          "type": "uint256"
        }
      ],
      "stateMutability": "view",
      "type": "function"
    },
    {
      "inputs": [
        {
          "internalType": "address",
          "name": "to",
          "type": "address"
        },
        {
          "internalType": "uint256",
          "name": "value",
          "type": "uint256"
        }
      ],
      "name": "transfer",
      "outputs": [
        {
          "internalType": "bool",
          "name": "",
          "type": "bool"
        }
      ],
      "stateMutability": "nonpayable",
      "type": "function"
    },
    {
      "inputs": [
        {
          "internalType": "address",
          "name": "from",
          "type": "address"
        },
        {
          "internalType": "address",
          "name": "to",
          "type": "address"
        },
        {
          "internalType": "uint256",
          "name": "value",
          "type": "uint256"
        }
      ],
      "name": "transferFrom",
      "outputs": [
        {
          "internalType": "bool",
          "name": "",
          "type": "bool"
        }
      ],
      "stateMutability": "nonpayable",
      "type": "function"
    },
    {
      "inputs": [
        {
          "internalType": "address",
          "name": "newOwner",
          "type": "address"
        }
      ],
      "name": "transferOwnership",
      "outputs": [],
      "stateMutability": "nonpayable",
      "type": "function"
    }
  ],
  "bytecode": "0x60803462000391576001600160401b039060408181018381118382101762000292578152600982526020684d6f636b205553444360b81b8184015281518281018181108682111762000292578352600594858252646d5553444360d81b83830152845181811162000292576003908154906001978883811c9316801562000386575b8784101462000370578190601f938481116200031b575b508790848311600114620002b457600092620002a8575b505060001982851b1c191690881b1782555b8351928311620002925760049384548881811c9116801562000287575b87821014620002725790818386959493116200021a575b5086918411600114620001af57600093620001a3575b505082871b92600019911b1c19161781555b33156200018c57508354336001600160a01b031982168117909555825194600692916001600160a01b03167f8be0079c531659141344cd1fd0a4f28419497f9722a3daafe3b4186f6b6457e0600080a333600052526000209060ff19825416179055610fc89081620003978239f35b6024906000845191631e4fbdf760e01b8352820152fd5b0151915038806200010b565b9190889450601f1984169286600052876000209360005b89828210620002035750508511620001e8575b50505050811b0181556200011d565b01519060f884600019921b161c1916905538808080620001d9565b8385015187558c98909601959384019301620001c6565b90919293508560005286600020838087018c1c82019289881062000268575b918b91889796959493018d1c01915b82811062000258575050620000f5565b600081558796508b910162000248565b9250819262000239565b602286634e487b7160e01b6000525260246000fd5b90607f1690620000de565b634e487b7160e01b600052604160045260246000fd5b015190503880620000af565b908a9350601f1983169186600052896000209260005b8b828210620003045750508411620002eb575b505050811b018255620000c1565b015160001983871b60f8161c19169055388080620002dd565b8385015186558e97909501949384019301620002ca565b9091508460005287600020848085018d1c8201928a861062000366575b918d8d928796959401901c01915b8281106200035657505062000098565b600081558594508c910162000346565b9250819262000338565b634e487b7160e01b600052602260045260246000fd5b92607f169262000081565b600080fdfe608060408181526004918236101561001657600080fd5b600092833560e01c91826306fdde0314610a2857508163095ea7b31461097e57816318160ddd1461095f57816323b872dd1461086b5781633092afd5146107fa578163313ce567146107de57816340c10f19146106d857816370a08231146106a1578163715018a6146106445781638da5cb5b1461061b57816395d89b4114610516578163983b2d56146104a25781639ba479f1146104795781639dc29fac14610346578163a9059cbb14610315578163ac3bbbc6146102ec578163b5988ebd1461029b578163dc7b666e14610229578163dd62ed3e146101e0578163f2fde38b1461014c575063f46eccc41461010c57600080fd5b346101485760203660031901126101485760209160ff9082906001600160a01b03610135610b66565b1681526006855220541690519015158152f35b5080fd5b9050346101dc5760203660031901126101dc57610167610b66565b90610170610d25565b6001600160a01b039182169283156101c6575050600554826bffffffffffffffffffffffff60a01b821617600555167f8be0079c531659141344cd1fd0a4f28419497f9722a3daafe3b4186f6b6457e08380a380f35b51631e4fbdf760e01b8152908101849052602490fd5b8280fd5b505034610148578060031936011261014857806020926101fe610b66565b610206610b81565b6001600160a01b0391821683526001865283832091168252845220549051908152f35b833461029857602036600319011261029857610243610b66565b61024b610d25565b6001600160a01b031661025f811515610bcf565b600880546001600160a01b031916821790557fd85da9d9a1319c6f26c71d1703f6c964a5909e44544492c88b571dd0ea91f3978280a280f35b80fd5b8334610298576020366003190112610298576102b5610b66565b6102bd610d25565b6001600160a01b03166102d1811515610bcf565b6bffffffffffffffffffffffff60a01b600754161760075580f35b50503461014857816003193601126101485760085490516001600160a01b039091168152602090f35b50503461014857806003193601126101485760209061033f610335610b66565b6024359033610c47565b5160018152f35b83915034610148578260031936011261014857610361610b66565b6005549091602435916001600160a01b0390811633148015610464575b8015610455575b8015610441575b61039590610c0a565b831692831561042a578385528460205285852054918383106103f65750508184957fddf252ad1be2c89b69c2b068fc378daa952ba7f163c4a11628f55a4df523b3ef936020938688528785520381872055816002540360025551908152a380f35b865163391434e360e21b81526001600160a01b03909216908201908152602081018390526040810184905281906060010390fd5b8551634b637e8f60e11b8152808301869052602490fd5b5061039561044e33610ee8565b905061038c565b5061045f33610da9565b610385565b50338552600660205260ff868620541661037e565b50503461014857816003193601126101485760075490516001600160a01b039091168152602090f35b505034610148576020366003190112610148576104bd610b66565b6104c5610d25565b6001600160a01b0316906104da821515610bcf565b81835260066020528220805460ff191660011790557f6ae172837ea30b801fbfcdd4108aa1d5bf8ff775444fd70256b44e6bf3dfc3f68280a280f35b83833461014857816003193601126101485780519180938054916001908360011c9260018516948515610611575b60209586861081146105fe578589529081156105da5750600114610582575b61057e8787610574828c0383610b97565b5191829182610b1d565b0390f35b81529295507f8a35acfbc15ff81a39ae7d344fd709f28e8600b4aa8c65c6b64bfe7fe36bd19b5b8284106105c7575050508261057e9461057492820101948680610563565b80548685018801529286019281016105a9565b60ff19168887015250505050151560051b83010192506105748261057e8680610563565b634e487b7160e01b845260228352602484fd5b93607f1693610544565b50503461014857816003193601126101485760055490516001600160a01b039091168152602090f35b833461029857806003193601126102985761065d610d25565b600580546001600160a01b0319811690915581906001600160a01b03167f8be0079c531659141344cd1fd0a4f28419497f9722a3daafe3b4186f6b6457e08280a380f35b5050346101485760203660031901126101485760209181906001600160a01b036106c9610b66565b16815280845220549051908152f35b919050346101dc57806003193601126101dc576106f3610b66565b60055460243592916001600160a01b03918216331480156107c9575b80156107ba575b80156107a6575b61072690610c0a565b16928315610791576002549083820180921161077e575084927fddf252ad1be2c89b69c2b068fc378daa952ba7f163c4a11628f55a4df523b3ef9260209260025585855284835280852082815401905551908152a380f35b634e487b7160e01b865260119052602485fd5b84602492519163ec442f0560e01b8352820152fd5b506107266107b333610ee8565b905061071d565b506107c433610da9565b610716565b50338652600660205260ff838720541661070f565b5050346101485781600319360112610148576020905160068152f35b50503461014857602036600319011261014857610815610b66565b61081d610d25565b6001600160a01b031690610832821515610bcf565b81835260066020528220805460ff191690557fe94479a9f7e1952cc78f2d6baab678adc1b772d936c6583def489e524cb666928280a280f35b9050823461029857606036600319011261029857610887610b66565b61088f610b81565b916044359360018060a01b0383168083526001602052868320338452602052868320549160001983106108cb575b60208861033f898989610c47565b86831061093357811561091c5733156109055750825260016020908152868320338452815291869020908590039055829061033f876108bd565b8751634a1406b160e11b8152908101849052602490fd5b875163e602df0560e01b8152908101849052602490fd5b8751637dc7a0d960e11b8152339181019182526020820193909352604081018790528291506060010390fd5b5050346101485781600319360112610148576020906002549051908152f35b9050346101dc57816003193601126101dc57610998610b66565b602435903315610a11576001600160a01b03169182156109fa57508083602095338152600187528181208582528752205582519081527f8c5be1e5ebec7d5bd14f71427d1e84f3dd0314c0f7b2291e5b200ac8c7c3b925843392a35160018152f35b8351634a1406b160e11b8152908101859052602490fd5b835163e602df0560e01b8152808401869052602490fd5b92915034610b195783600319360112610b1957600354600181811c9186908281168015610b0f575b6020958686108214610afc5750848852908115610ada5750600114610a81575b61057e8686610574828b0383610b97565b929550600383527fc2575a0e9e593c00f959f8c92f12db2869c3395a3b0502d05e2516446f71f85b5b828410610ac7575050508261057e94610574928201019438610a70565b8054868501880152928601928101610aaa565b60ff191687860152505050151560051b83010192506105748261057e38610a70565b634e487b7160e01b845260229052602483fd5b93607f1693610a50565b8380fd5b6020808252825181830181905290939260005b828110610b5257505060409293506000838284010152601f8019910116010190565b818101860151848201604001528501610b30565b600435906001600160a01b0382168203610b7c57565b600080fd5b602435906001600160a01b0382168203610b7c57565b90601f8019910116810190811067ffffffffffffffff821117610bb957604052565b634e487b7160e01b600052604160045260246000fd5b15610bd657565b60405162461bcd60e51b815260206004820152600c60248201526b7a65726f206164647265737360a01b6044820152606490fd5b15610c1157565b60405162461bcd60e51b815260206004820152600e60248201526d1b9bdd08185d5d1a1bdc9a5e995960921b6044820152606490fd5b916001600160a01b03808416928315610d0c5716928315610cf35760009083825281602052604082205490838210610cc1575091604082827fddf252ad1be2c89b69c2b068fc378daa952ba7f163c4a11628f55a4df523b3ef958760209652828652038282205586815220818154019055604051908152a3565b60405163391434e360e21b81526001600160a01b03919091166004820152602481019190915260448101839052606490fd5b60405163ec442f0560e01b815260006004820152602490fd5b604051634b637e8f60e11b815260006004820152602490fd5b6005546001600160a01b03163303610d3957565b60405163118cdaa760e01b8152336004820152602490fd5b3d15610d8c573d9067ffffffffffffffff8211610bb95760405191610d80601f8201601f191660200184610b97565b82523d6000602084013e565b606090565b90816020910312610b7c57518015158103610b7c5790565b6007546001600160a01b039081168015610ee05760405192602092838501946303e1469160e61b865260048152604081019067ffffffffffffffff9181811083821117610bb9576040526000809781925190875afa610e06610d51565b9080610ed5575b610e9f575b50604051918583019363429b62e560e01b855216602483015260248252606082019082821090821117610e8b576040525184928392905afa610e52610d51565b9080610e80575b610e6257505090565b81610e739282518301019101610d91565b610e7a5790565b50600190565b508181511015610e59565b634e487b7160e01b86526041600452602486fd5b8581805181010312610ed157850151828116809103610ed15782841614610ec65738610e12565b505050505050600190565b8680fd5b508581511015610e0d565b505050600090565b6008546001600160a01b03908116908115610ee0576040516020810191632474521560e21b8352600094856024840152166044820152604481526080810181811067ffffffffffffffff821117610f7e576040525183928392905afa610f4c610d51565b9080610f72575b610f5b575090565b610f6f915060208082518301019101610d91565b90565b50602081511015610f53565b634e487b7160e01b85526041600452602485fdfea26469706673582212205b1bfa132488afa4bf5e9590e43e6a4dd681e4ee39265d3fe6a535b2ea478ebc64736f6c63430008180033",
  "linkReferences": {},
  "deployedLinkReferences": {}
}