{
  "_format": "hh-sol-artifact-1",
  "contractName": "ChainlinkResolver",
  "sourceName": "contracts/src/ChainlinkResolver.sol",
  "abi": [
    {
      "inputs": [
        {
          "internalType": "address",
          "name": "_core",
          "type": "address"
        }
      ],
      "stateMutability": "nonpayable",
      "type": "constructor"
    },
    {
      "anonymous": false,
      "inputs": [
        {
          "indexed": true,
          "internalType": "bytes32",
          "name": "feedId",
          "type": "bytes32"
        },
        {
          "indexed": false,
          "internalType": "address",
          "name": "feedAddress",
          "type": "address"
        }
      ],
      "name": "FeedRegistered",
      "type": "event"
    },
    {
      "anonymous": false,
      "inputs": [
        {
          "indexed": true,
          "internalType": "uint256",
          "name": "marketId",
          "type": "uint256"
        },
        {
          "indexed": false,
          "internalType": "bool",
          "name": "yesWins",
          "type": "bool"
        },
        {
          "indexed": false,
          "internalType": "uint256",
          "name": "price",
          "type": "uint256"
        }
      ],
      "name": "MarketResolved",
      "type": "event"
    },
    {
      "inputs": [
        {
          "internalType": "bytes",
          "name": "checkData",
          "type": "bytes"
        }
      ],
      "name": "checkUpkeep",
      "outputs": [
        {
          "internalType": "bool",
          "name": "upkeepNeeded",
          "type": "bool"
        },
        {
          "internalType": "bytes",
          "name": "performData",
          "type": "bytes"
        }
      ],
      "stateMutability": "view",
      "type": "function"
    },
    {
      "inputs": [],
      "name": "core",
      "outputs": [
        {
          "internalType": "contract SpeculateCore",
          "name": "",
          "type": "address"
        }
      ],
      "stateMutability": "view",
      "type": "function"
    },
    {
      "inputs": [
        {
          "internalType": "bytes32",
          "name": "",
          "type": "bytes32"
        }
      ],
      "name": "globalFeeds",
      "outputs": [
        {
          "internalType": "address",
          "name": "",
          "type": "address"
        }
      ],
      "stateMutability": "view",
      "type": "function"
    },
    {
      "inputs": [],
      "name": "owner",
      "outputs": [
        {
          "internalType": "address",
          "name": "",
          "type": "address"
        }
      ],
      "stateMutability": "view",
      "type": "function"
    },
    {
      "inputs": [
        {
          "internalType": "bytes",
          "name": "performData",
          "type": "bytes"
        }
      ],
      "name": "performUpkeep",
      "outputs": [],
      "stateMutability": "nonpayable",
      "type": "function"
    },
    {
      "inputs": [
        {
          "internalType": "uint256",
          "name": "",
          "type": "uint256"
        },
        {
          "internalType": "address",
          "name": "",
          "type": "address"
        }
      ],
      "name": "registerMarket",
      "outputs": [],
      "stateMutability": "pure",
      "type": "function"
    },
    {
      "inputs": [
        {
          "internalType": "bytes32",
          "name": "feedId",
          "type": "bytes32"
        },
        {
          "internalType": "address",
          "name": "feedAddress",
          "type": "address"
        }
      ],
      "name": "setGlobalFeed",
      "outputs": [],
      "stateMutability": "nonpayable",
      "type": "function"
    }
  ],
  "bytecode": "0x60a0346100c257601f610bce38819003918201601f19168301916001600160401b038311848410176100c7578084926020946040528339810103126100c257516001600160a01b038116908190036100c257801561009157608052600080546001600160a01b03191633179055604051610af090816100de823960805181818160850152818161025601526108f10152f35b60405162461bcd60e51b81526020600482015260096024820152687a65726f20636f726560b81b6044820152606490fd5b600080fd5b634e487b7160e01b600052604160045260246000fdfe608060408181526004918236101561001657600080fd5b600092833560e01c91826315d8b4b1146106875750816326ef8c8a146106545781634585e33b146102165781636e04ff0d146101c257816373330f46146100df575080638da5cb5b146100b85763f2f4eb261461007257600080fd5b346100b457816003193601126100b457517f00000000000000000000000000000000000000000000000000000000000000006001600160a01b03168152602090f35b5080fd5b50346100b457816003193601126100b457905490516001600160a01b039091168152602090f35b9050346101be57816003193601126101be578035916100fc6106e2565b84546001600160a01b0391908216330361018f571691821561016157508284526001602090815281852080546001600160a01b0319168417905590519182527f895b8e5422c82f2848ee2a4b893b1fdd1c8bc5deaee9d81046c9fdb1b5f1e8b991a280f35b6020606492519162461bcd60e51b835282015260096024820152681e995c9bc81999595960ba1b6044820152fd5b825162461bcd60e51b815260208186015260096024820152683737ba1037bbb732b960b91b6044820152606490fd5b8280fd5b828434610213575060606101de6101d8366106fd565b906108d2565b61020584519485931515845280602085015282519283809286015260208686019101610747565b601f01601f19168101030190f35b80fd5b919050346101be57610227366106fd565b90809291602093849181010312610650578151637be99a5d60e11b815290358482018190526001600160a01b037f000000000000000000000000000000000000000000000000000000000000000081169591949260249190888184818b5afa908115610646578991610623575b50156105ee5784519663232e45d760e01b9182895287858a01526101009889818681865afa908115610460578b916105d1575b508681015160038110156105bf5760010361058d57818881818e6060860151815260018c52205416928315610580575b505050168015610548579060a085949392885196878092633fabe5a360e21b82525afa94851561053e578a958b968c928d926104e9575b508c8813156104b7578215610480576103589169ffffffffffffffffffff91821691161015610a81565b420342811161046e57610e1061036e9110610a81565b803b1561046a57865163cab7cde960e01b8152888582015285848201528a8160448183865af1801561046057610433575b509187939189938851958694859384528301525afa958615610429579560c0917f6d4d544f5a6dcf38d77a232d3ef7358625c74877a1ad954fcb507872e7a05eaf969789926103fc575b505001511515918351928352820152a280f35b61041b9250803d10610422575b610413818361076a565b81019061082a565b38806103e9565b503d610409565b84513d89823e3d90fd5b67ffffffffffffffff819b929b1161044e578752988761039f565b634e487b7160e01b8252604185528382fd5b88513d8d823e3d90fd5b8980fd5b634e487b7160e01b8b5260118552838bfd5b895162461bcd60e51b81528088018a905260128188015271726f756e64206e6f7420636f6d706c65746560701b6044820152606490fd5b895162461bcd60e51b81528088018a9052600d818801526c696e76616c696420707269636560981b6044820152606490fd5b975050505060a0853d60a011610536575b8161050760a0938361076a565b8101031261046a5761051885610a6a565b8686015161052d608060608901519801610a6a565b9096913861032e565b3d91506104fa565b87513d8c823e3d90fd5b865162461bcd60e51b81528086018790526013818601527219995959081b9bdd081c9959da5cdd195c9959606a1b6044820152606490fd5b01511690508188386102f7565b875162461bcd60e51b8152808701889052600d818701526c6e6f7420636861696e6c696e6b60981b6044820152606490fd5b634e487b7160e01b8c5260218752858cfd5b6105e891508a3d8c1161042257610413818361076a565b386102c7565b5060119192606494519362461bcd60e51b8552840152820152701d5c1ad9595c081b9bdd081b9959591959607a1b6044820152fd5b61063f91503d808b833e610637818361076a565b8101906107af565b5038610294565b86513d8b823e3d90fd5b8480fd5b9050346101be5760203660031901126101be5735825260016020908152918190205490516001600160a01b039091168152f35b8484346100b457366003190112610213575060206064926106a66106e2565b5062461bcd60e51b8352820152601960248201527f72656769737465724d61726b65742064657072656361746564000000000000006044820152fd5b602435906001600160a01b03821682036106f857565b600080fd5b9060206003198301126106f85760043567ffffffffffffffff928382116106f857806023830112156106f85781600401359384116106f857602484830101116106f8576024019190565b60005b83811061075a5750506000910152565b818101518382015260200161074a565b90601f8019910116810190811067ffffffffffffffff82111761078c57604052565b634e487b7160e01b600052604160045260246000fd5b519081151582036106f857565b91906040838203126106f8576107c4836107a2565b92602081015167ffffffffffffffff918282116106f857019082601f830112156106f857815190811161078c5760405192610809601f8301601f19166020018561076a565b818452602082840101116106f8576108279160208085019101610747565b90565b809161010092839103126106f85760405191820182811067ffffffffffffffff82111761078c5760405280518252602081015160038110156106f857602083015260408101516001600160a01b03811681036106f8576040830152606081015160608301526080810151608083015260a081015160038110156106f8576108ca9160e09160a08501526108bf60c082016107a2565b60c0850152016107a2565b60e082015290565b60019180610a53575b50506040805163764bc84160e11b8152909290917f00000000000000000000000000000000000000000000000000000000000000006001600160a01b0316906004906020858381865afa948515610a4857600095610a14575b5060328101948582116109fe578086116109e9575b505b84811061097d575050509050600091805190602082019082821067ffffffffffffffff83111761078c57526000815290565b8551637be99a5d60e11b8152828101829052600081602481875afa9081156109de5760009081926109c2575b506109b7575060010161094b565b600196509450505050565b906109d792503d8091833e610637818361076a565b90386109a9565b87513d6000823e3d90fd5b909450600181018091116109fe579338610949565b634e487b7160e01b600052601160045260246000fd5b90946020823d602011610a40575b81610a2f6020938361076a565b810103126102135750519338610934565b3d9150610a22565b86513d6000823e3d90fd5b81925090602091810103126106f8573538806108db565b519069ffffffffffffffffffff821682036106f857565b15610a8857565b60405162461bcd60e51b815260206004820152600a6024820152697374616c65206461746160b01b6044820152606490fdfea26469706673582212200acc8c6a6a73588476ef478f38dcb3445db46a5d06ee65d3f607a69a066da8dc64736f6c63430008180033",
  "linkReferences": {},
  "deployedLinkReferences": {}
}